S0100000536B7950617463682E73726563ED
S31508000000B80A002025E000080DE300082982000848
S315080000103F82000811E3000855820008000000002E
S3150800002000000000000000000000000015E30008C2
S3150800003019E30008000000001DE3000821E300089A
S315080000401362000825E3000829E300082DE30008E9
S3150800005031E3000835E3000839E300083DE300080A
S3150800006041E3000845E3000849E300084DE30008BA
S3150800007051E3000855E3000859E300085DE300086A
S3150800008061E3000865E3000869E300086DE300081A
S3150800009071E3000875E3000879E300087DE30008CA
S315080000A081E300084B49000885E3000889E3000856
S315080000B02D4800088DE3000891E3000895E3000841
S315080000C099E300089DE30008A1E30008A5E30008FA
S315080000D0A9E30008992F0008ADE30008ED380008E9
S315080000E0B1E30008B5E30008B9E30008CD530008FA
S315080000F0BDE300080022514904E003780B70491C4F
S31508000100521C401C0378002B07D00378082BF4D127
S31508000110012AF6DB491E521EF3E700200870491C27
S31508000120464870470120464981F8000101204549A3
S3150800013081F800010020704710B50400414890F886
S315080001400001022801D102201EE03E4890F8000175
S31508000150002801D1012017E0200002F085FEFF28C3
S3150800016001D9012010E0002003E00021354A11548E
S31508000170401CFF28F9DD2100324802F09FFE0220CC
S31508000180304981F80001002010BD10B504002C4844
S3150800019090F80001022801D102201EE0284890F8B4
S315080001A00001002801D1012017E0200002F05CFEC2
S315080001B0FF2801D9012010E0002003E00021204A91
S315080001C01154401CFF28F9DD21001D4802F076FE77
S315080001D002201B4981F80001002010BD00B595B02A
S315080001E0184890F80001022816D1164A164968469A
S315080001F002F086FE684603F04DF8C0B2002801D02A
S31508000200C0B219E00F4802F02FFE0E4903F0C6FBF4
S3150800021001200C4981F80001094890F800010228DC
S3150800022009D10121064800F011F80121044A82F893
S315080002300011C0B200E0002015B000BDF82700206C
S315080002401C2200202023002014E000082DE9F04796
S31508000250CAB007000C00380002F006FE81460026E8
S31508000260DFF8200E007800281ED038781B2812D117
S315080002700020DFF8101E0870DFF80C1E0CA802F02C
S315080002801DFE0CA803F006F80600F6B2002E06D0EE
S315080002903000C0B205E03900012003F07FFB3000D2
S315080002A0C0B24AB0BDE8F0873878302819D031286E
S315080002B000F0D680322800F09281412800F04E8264
S315080002C0432800F03983442800F09183472800F03A
S315080002D09582482800F0E282542800F01B8402F038
S315080002E041BC02F0DBFC0600F6B2002E40F0B680F8
S315080002F0E4B2002C48D0DFF8080EB0F9040003F089
S3150800030093FE0100022003F0F2FE0400DFF8F00D70
S31508000310B0F9020003F088FE0100012003F0E7FEB1
S315080003200500DFF8DC0DB0F9000003F07DFE0100E2
S31508000330002003F0DCFE0600200003F025FFCDE9CF
S315080003400801DFF8BC0DB0F904000690280003F098
S315080003501BFFCDE90401DFF8A80DB0F902000290F1
S31508000360300003F011FFCDE90001DFF8940DB0F974
S315080003700020DFF8041E0CA802F0C2FD0CA802F04B
S3150800038073FD0CA903F00AFBDFF8F01D0CA802F0B8
S3150800039095FD0CA802F07EFF0600F6B2002E02D0EC
S315080003A03000C0B27DE7DFF8580DB0F9000003F061
S315080003B03BFE0100002003F09AFE03F0E5FECDE9BE
S315080003C00001DFF83C0DB0F90020DFF8281E0CA864
S315080003D002F096FD0CA802F05DFF0600F6B2002EAC
S315080003E002D03000C0B25CE7DFF8140DB0F90200A5
S315080003F003F01AFE0100012003F079FE03F0C4FEA3
S31508000400CDE90001DFF8F80CB0F90220DFF8E81DA5
S315080004100CA802F075FD0CA802F03CFF0600F6B227
S31508000420002E02D03000C0B23BE7DFF8D40CB0F99A
S31508000430040003F0F9FD0100022003F058FE03F062
S31508000440A3FECDE90001DFF8B80CB0F90420DFF807
S31508000450AC1D0CA802F054FD02F095BB02F093BB4C
S3150800046002F01CFC0600F6B2002E40F0B680E4B29C
S31508000470002C48D0DFF8880CB0F90A0003F0D4FD48
S315080004800100052003F033FE0400DFF8740CB0F910
S31508000490080003F0C9FD0100042003F028FE05004A
S315080004A0DFF85C0CB0F9060003F0BEFD010003207E
S315080004B003F01DFE0600200003F066FECDE90801E4
S315080004C0DFF83C0CB0F90A000690280003F05CFE41
S315080004D0CDE90401DFF8280CB0F9080002903000D5
S315080004E003F052FECDE90001DFF8140CB0F906203E
S315080004F0DFF8F01D0CA802F003FD0CA802F0B4FC0E
S315080005000CA903F04BFADFF8E01D0CA802F0D6FCA4
S315080005100CA802F0BFFE0600F6B2002E02D030008C
S31508000520C0B2BEE6DFF8D80BB0F9060003F07CFDD2
S315080005300100032003F0DBFD03F026FECDE90001F0
S31508000540DFF8BC0BB0F90620DFF8141E0CA802F081
S31508000550D7FC0CA802F09EFE0600F6B2002E02D0CA
S315080005603000C0B29DE6DFF8980BB0F9080003F03A
S315080005705BFD0100042003F0BAFD03F005FECDE99A
S315080005800001DFF87C0BB0F90820DFF8D81D0CA8AD
S3150800059002F0B6FC0CA802F07DFE0600F6B2002EAC
S315080005A002D03000C0B27CE6DFF8540BB0F90A007E
S315080005B003F03AFD0100052003F099FD03F0E4FD80
S315080005C0CDE90001DFF8380BB0F90A20DFF8981DED
S315080005D00CA802F095FC02F0D6BA02F0D4BA02F0E2
S315080005E05DFB0600F6B2002E40F0B680E4B2002CA1
S315080005F048D0DFF80C0BB0F9100003F015FD010028
S31508000600082003F074FD0400DFF8F40AB0F90E00C0
S3150800061003F00AFD0100072003F069FD0500DFF875
S31508000620E00AB0F90C0003F0FFFC0100062003F015
S315080006305EFD0600200003F0A7FDCDE90801DFF8FE
S31508000640C00AB0F910000690280003F09DFDCDE918
S315080006500401DFF8AC0AB0F90E000290300003F08E
S3150800066093FDCDE90001DFF8980AB0F90C20DFF810
S31508000670E01D0CA802F044FC0CA802F0F5FB0CA93E
S3150800068003F08CF9DFF8CC1D0CA802F017FC0CA8B7
S3150800069002F000FE0600F6B2002E02D03000C0B20C
S315080006A0FFE5DFF85C0AB0F90C0003F0BDFC0100B9
S315080006B0062003F01CFD03F067FDCDE90001DFF815
S315080006C0400AB0F90C20DFF8041E0CA802F018FC4A
S315080006D00CA802F0DFFD0600F6B2002E02D03000AC
S315080006E0C0B2DEE5DFF8180AB0F90E0003F09CFC8C
S315080006F00100072003F0FBFC03F046FDCDE90001ED
S31508000700DFF8FC09B0F90E20DFF8C41D0CA802F0CA
S31508000710F7FB0CA802F0BEFD0600F6B2002E02D0CA
S315080007203000C0B2BDE5DFF8D809B0F9100003F013
S315080007307BFC0100082003F0DAFC03F025FDCDE977
S315080007400001DFF8BC09B0F91020DFF8FC1D0CA881
S3150800075002F0D6FB02F017BA02F015BADFF8EC0D74
S3150800076003F0DEFD0600F6B2002E45D1E4B2002CF9
S315080007701BD0DFF8D80D01680A2003F0B8FC03F097
S3150800078003FDCDE90001DFF8C40D006803F0FCFCA9
S3150800079002000B00DFF8B81D0CA802F0B1FB0CA88C
S315080007A002F062FB0CA903F0F9F8DFF81C1E0CA88E
S315080007B002F084FB0CA802F06DFD0600F6B2002ECE
S315080007C002D03000C0B26CE5DFF8800D01680A205F
S315080007D003F08DFC03F0D8FCCDE90001DFF86C0DC1
S315080007E0006803F0D1FC02000B00DFF8E01D0CA83E
S315080007F002F086FB02F0C7B902F0C5B9DFF84C0D66
S3150800080003F0BCFD0600F6B2002E45D1E4B2002C7A
S315080008101BD0DFF8380D0168092003F068FC03F0E7
S31508000820B3FCCDE90001DFF8240D006803F0ACFC49
S3150800083002000B00DFF80C1E0CA802F061FB0CA8E6
S3150800084002F012FB0CA903F0A9F8DFF8FC1D0CA8AE
S3150800085002F034FB0CA802F01DFD0600F6B2002ECD
S3150800086002D03000C0B21CE5DFF8E00C01680920B0
S3150800087003F03DFC03F088FCCDE90001DFF8CC0C61
S31508000880006803F081FC02000B00DFF8C01D0CA80D
S3150800089002F036FB02F077B902F075B903F012FEE2
S315080008A0DFF8AC1D0860E4B2002C1FD0DFF8A00DFD
S315080008B0006803F0B9FB01000B2003F018FC03F0F5
S315080008C063FCCDE90001DFF8880D0268DFF8F81D42
S315080008D00CA802F015FBDFF8F41D0CA802F0EEFADE
S315080008E00CA802F0C1FA0CA903F058F8DFF8E01DCD
S315080008F00CA802F0E3FA0CA802F0CCFC0600F6B24B
S31508000900002E02D03000C0B2CBE4DFF8440D0068F8
S3150800091003F08AFB01000B2003F0E9FB03F034FC2B
S31508000920CDE90001DFF8280D0268DFF8A81D0CA83C
S3150800093002F0E6FA02F027B904F060F8DFF8981D2D
S315080009400880E4B2002C23D0DFF88C0D008803F071
S3150800095075FB01000C2003F0CAFB03F015FCCDE97A
S315080009600001DFF8740D0088642190FBF1F003F0B4
S315080009705BFB03F009FC02000B00DFF8FC1D0CA86A
S3150800098002F0BEFA0CA802F06FFA0CA903F006F8FA
S31508000990DFF8E81D0CA802F091FA0CA802F07AFC20
S315080009A00600F6B2002E02D03000C0B279E4DFF8B5
S315080009B0280D008803F042FB01000C2003F097FB8A
S315080009C003F0E2FBCDE90001DFF80C0D0088642195
S315080009D090FBF1F003F028FB03F0D6FB02000B00B6
S315080009E0DFF8F01D0CA802F08BFA02F0CCB804F080
S315080009F00FF8DFF8E41C488004F00EF8DFF8D81C7E
S31508000A008880E4B2002C2FD0DFF8CC0C808803F065
S31508000A1015FB01000E2003F06AFB0400DFF8B80C92
S31508000A20408803F00BFB01000D2003F060FB050076
S31508000A30200003F0A9FBCDE90401DFF89C0C8088AF
S31508000A400290280003F0A0FBCDE90001DFF8880C2E
S31508000A504288DFF8E81D0CA802F052FA0CA802F04A
S31508000A6003FA0CA902F09AFFDFF8D41D0CA802F0CD
S31508000A7025FA0CA802F00EFC0600F6B2002E02D0EB
S31508000A803000C0B20DE4DFF8BC1D0CA802F016FA5F
S31508000A900CA802F0FFFB0600F6B2002E03D03000C9
S31508000AA0C0B2FFF7FEBBDFF8300C408803F0C6FA89
S31508000AB001000D2003F01BFB03F066FBCDE90001E6
S31508000AC0DFF8140C4288DFF8801D0CA802F018FA2B
S31508000AD00CA802F0DFFB0600F6B2002E03D03000A9
S31508000AE0C0B2FFF7DEBBDFF8F00B808803F0A6FA8A
S31508000AF001000E2003F0FBFA03F046FBCDE90001E6
S31508000B00DFF8D40B8288DFF8441D0CA802F0F8F948
S31508000B1002F039B85FFA89F9B9F1020F06DADFF897
S31508000B201C1E0CA802F0CAF902F01BB878784328F4
S31508000B3000F0F981442801F01F84462801F0AA87AD
S31508000B4049280DD04B2801F055844C2801F0BA8766
S31508000B50522801F02C84552801F0348701F0F0BFA3
S31508000B60DFF8DC1D0CA802F0A9F95FFA89F9B9F1DA
S31508000B70090F13DAE4B2002C0AD0DFF8501B0CA8D0
S31508000B8002F09CF90CA802F06FF90CA902F006FF16
S31508000B90DFF8B01D0CA802F091F9C2E1B878522826
S31508000BA000F0BD80532840F0B781F8783A2802D182
S31508000BB0B8792E2813D0E4B2002C0AD0DFF80C1B23
S31508000BC00CA802F07BF90CA802F04EF90CA902F069
S31508000BD0E5FEDFF8081E0CA802F070F99EE0E4B204
S31508000BE0002C0AD0DFF8E41A0CA802F067F90CA862
S31508000BF002F03AF90CA902F0D1FE97F904008DF833
S31508000C00A80097F905008DF8A90000208DF8AA001C
S31508000C102AA801F0FDFF002805D1DFF8C41D0CA89D
S31508000C2002F04CF97AE02AA802F00EF8040097F9C7
S31508000C3007008DF8A80097F908008DF8A90000208C
S31508000C408DF8AA002AA801F0E3FF002805D1DFF8ED
S31508000C50241E0CA802F032F960E02AA801F0F4FF7D
S31508000C608146B9F1000F06D12200DFF80C1E0CA848
S31508000C7002F046F92AE05FF00008002505E02AA8F8
S31508000C8001F0E2FF35A948556D1C4D451EDA0320D3
S31508000C9000FB05F0384490F90A008DF8A8000320F7
S31508000CA000FB05F0384490F90B008DF8A9000020E8
S31508000CB08DF8AA002AA801F0ABFF0028DFD1DFF8DB
S31508000CC0201D0CA802F0FAF85FF00108B8F1000F31
S31508000CD005D12200DFF8341E0CA802F011F9002510
S31508000CE00AE035A8425DC0A12AA802F009F92AA996
S31508000CF00CA803F0A9FE6D1C4D45F2DBBBA10CA8A0
S31508000D0003F0A2FEB9F101039BB20DF1D5029DF8DD
S31508000D10D4102000C0B203F089FF060001E1F8787C
S31508000D203A2805D1B8792E2802D1787A2E2813D0F8
S31508000D30E4B2002C0AD0DFF894190CA802F0BEF829
S31508000D400CA802F091F80CA902F028FEDFF8C01DE5
S31508000D500CA802F0B3F8DEE0E4B2002C0AD0DFF803
S31508000D606C190CA802F0AAF80CA802F07DF80CA9D8
S31508000D7002F014FE97F904008DF8A80097F905000B
S31508000D808DF8A90000208DF8AA002AA801F040FFD6
S31508000D90002805D1DFF80C1E0CA802F08FF8BAE07F
S31508000DA02AA801F051FF040097F907008DF8A8005A
S31508000DB097F908008DF8A90000208DF8AA002AA83E
S31508000DC001F026FF002805D1DFF8DC1D0CA802F08B
S31508000DD075F8A0E02AA801F037FF814697F90A00BE
S31508000DE08DF8A80097F90B008DF8A90000208DF85A
S31508000DF0AA002AA801F00CFF002805D1DFF83C1E3E
S31508000E000CA802F05BF886E02AA801F01DFF8246CE
S31508000E10B9F1000F06D12200DFF8241E0CA802F053
S31508000E206FF82AE05FF00008002505E02AA801F01F
S31508000E300BFF35A948556D1C4D451EDA032000FBEE
S31508000E4005F0384490F90D008DF8A800032000FB42
S31508000E5005F0384490F90E008DF8A90000208DF8A9
S31508000E60AA002AA801F0D4FE0028DFD1DFF8D41D95
S31508000E700CA802F023F85FF00108B8F1000F05D1BD
S31508000E802200DFF8541E0CA802F03AF800250AE002
S31508000E9035A8425D54A12AA802F032F82AA90CA85E
S31508000EA003F0D2FD6D1C4D45F2DB50A10CA803F0F2
S31508000EB0CBFD9DF8D410504603009BB235AAC9B2A3
S31508000EC02000C0B203F00FFF0600F6B2002E22D1B2
S31508000ED00CA802F0DFF90600F6B2002E03D03000A7
S31508000EE0C0B2FFF7DEB9DFF8F41D0CA802F008F867
S31508000EF000250AE035A8425D3BA12AA802F000F8C1
S31508000F002AA90CA803F0A0FD6D1C5545F2DB37A1F4
S31508000F100CA803F099FD04E0DFF8541E0CA801F0B4
S31508000F20CDFF01F01EBE0026DFF8481E0CA801F012
S31508000F30C5FF5FFA89F9B9F1020F14D1E4B2002CA2
S31508000F400AD0DFF888170CA801F0B8FF0CA801F042
S31508000F508BFF0CA902F022FDDFF81C1E0CA801F07D
S31508000F60CFFF01F0FEB9B878492801F0CB815228A5
S31508000F7000F03284532804D0542801F04F8101F040
S31508000F80F0B9F8783A2814D0E4B2002C0AD0DFF881
S31508000F90EC1D0CA801F092FF0CA801F065FF0CA946
S31508000FA002F0FCFCDFF8681E0CA801F087FF00F0D1
S31508000FB00FBC5FFA89F9B9F1050F19DAE4B2002C0A
S31508000FC00AD0DFF8501E0CA801F078FF0CA801F033
S31508000FD04BFF0CA902F0E2FCDFF83C1E0CA801F05E
S31508000FE06DFF00F0F5BB00BF25782E000D0A000046
S31508000FF03D1D290030A801F061FF00200B9000205C
S315080010000A900AA800900BAB2DAADFF8101E30A88C
S3150800101003F078FF032840F0C8830A9803F0B4F871
S31508001020CDE902010B9803F0AFF8CDE900012DAA2E
S31508001030DFF8EC1D0CA801F063FF0522DFF8E41DBC
S315080010402DA803F071FF002834D10B9A0A990020C5
S3150800105003F060F80600F6B2002E17D1E4B2002CB1
S315080010600AD0DFF8541E0CA801F028FF0CA801F0DE
S31508001070FBFE0CA902F092FCDFF8401E0CA801F05A
S315080010803FFF90E3D7280020F8BD0008E4B2002C03
S315080010900AD0DFF82C1E0CA801F010FF0CA801F0EE
S315080010A0E3FE0CA902F07AFCDFF8181E0CA801F082
S315080010B027FF78E30522DFF8101E2DA803F034FF7A
S315080010C0002833D10B9A0A99012003F023F8060069
S315080010D0F6B2002E16D1E4B2002C0AD0DFF8EC1DC9
S315080010E00CA801F0EBFE0CA801F0BEFE0CA902F05C
S315080010F055FCDFF86C1E0CA801F002FF53E300BF95
S3150800110058280020E4B2002C0AD0DFF8581E0CA894
S3150800111001F0D4FE0CA801F0A7FE0CA902F03EFCD3
S31508001120DFF8A01D0CA801F0EBFE3CE30522DFF872
S31508001130381E2DA803F0F8FE002835D10B9A0A9917
S31508001140022002F0E7FF0600F6B2002E18D1E4B23C
S31508001150002C0AD0DFF8141E0CA801F0AFFE0CA86C
S3150800116001F082FE0CA902F019FCDFF8041E0CA897
S3150800117001F0C6FE17E300BFBCBC000808D2000891
S31508001180E4B2002C0AD0DFF87C1E0CA801F096FE0B
S315080011900CA801F069FE0CA902F000FCDFF8241D7A
S315080011A00CA801F0ADFEFEE20522DFF85C1E2DA8B4
S315080011B003F0BAFE002837D10B9A0A99032002F0E9
S315080011C0A9FF0600F6B2002E1AD1E4B2002C0AD006
S315080011D0DFF8381E0CA801F071FE0CA801F044FED9
S315080011E00CA902F0DBFBDFF8281E0CA801F088FE2C
S315080011F0D9E200BFF4C8000818C900083CC90008AD
S31508001200E4B2002C0AD0DFF80C1E0CA801F056FE3A
S315080012100CA801F029FE0CA902F0C0FBDFF8A41CFB
S315080012200CA801F06DFEBEE20522DFF87C1E2DA893
S3150800123003F07AFE002830D10B9A0A99042002F0AE
S3150800124069FF0600F6B2002E13D1E4B2002C0AD0CC
S31508001250DFF8581E0CA801F031FE0CA801F004FEB8
S315080012600CA902F09BFBDFF8481E0CA801F048FE0B
S3150800127099E2E4B2002C0AD0DFF8381E0CA801F077
S315080012801DFE0CA801F0F0FD0CA902F087FBDFF8A3
S31508001290341C0CA801F034FE85E20522DFF8181E7E
S315080012A02DA803F041FE002834D10B9A0A9905208F
S315080012B002F030FF0600F6B2002E17D1E4B2002C79
S315080012C00AD0DFF8881E0CA801F0F8FD0CA801F07A
S315080012D0CBFD0CA902F062FBDFF8741E0CA801F026
S315080012E00FFE60E2FCBC000844DF0008E4B2002CF4
S315080012F00AD0DFF8601E0CA801F0E0FD0CA801F08A
S31508001300B3FD0CA902F04AFBDFF8B81B0CA801F0E4
S31508001310F7FD48E20522DFF8401E2DA803F004FE7B
S31508001320002837D10B9A0A99062002F0F3FE060028
S31508001330F6B2002E1AD1E4B2002C0AD0DFF81C1E31
S315080013400CA801F0BBFD0CA801F08EFD0CA902F05B
S3150800135025FBDFF8B41E0CA801F0D2FD23E200BF7E
S3150800136060C9000884C90008A8C90008E4B2002CAE
S315080013700AD0DFF8981E0CA801F0A0FD0CA801F011
S3150800138073FD0CA902F00AFBDFF8381B0CA801F064
S31508001390B7FD08E20522DFF8B41E2DA803F0C4FD48
S315080013A0002830D10B9A0A99072002F0B3FE0600EE
S315080013B0F6B2002E13D1E4B2002C0AD0DFF8901E44
S315080013C00CA801F07BFD0CA801F04EFD0CA902F05B
S315080013D0E5FADFF8B41E0CA801F092FDE3E1E4B2E9
S315080013E0002C0AD0DFF8A41E0CA801F067FD0CA893
S315080013F001F03AFD0CA902F0D1FADFF8C81A0CA8D8
S3150800140001F07EFDCFE10522DFF8841E2DA803F04A
S315080014108BFD002834D10B9A0A99082002F07AFE2F
S315080014200600F6B2002E17D1E4B2002C0AD0DFF877
S31508001430641E0CA801F042FD0CA801F015FD0CA9CC
S3150800144002F0ACFADFF8501E0CA801F059FDAAE12B
S315080014503CBD000824D70008E4B2002C0AD0DFF807
S315080014603C1E0CA801F02AFD0CA801F0FDFC0CA9F5
S3150800147002F094FADFF84C1A0CA801F041FD92E14B
S315080014800422DFF8B01E2DA803F04EFD002835D142
S315080014900B9A0A99092002F03DFE0600F6B2002EC4
S315080014A018D1E4B2002C0AD0DFF88C1E0CA801F083
S315080014B005FD0CA801F0D8FC0CA902F06FFADFF8BC
S315080014C0A81E0CA801F01CFD6DE100BFCCC90008E0
S315080014D0F0C90008E4B2002C0AD0DFF8901E0CA868
S315080014E001F0ECFC0CA801F0BFFC0CA902F056FABE
S315080014F0DFF8D0190CA801F003FD54E10422DFF847
S31508001500701E2DA803F010FD002837D10B9A0A99F2
S315080015100A2002F0FFFD0600F6B2002E1AD1E4B248
S31508001520002C0AD0DFF84C1E0CA801F0C7FC0CA84A
S3150800153001F09AFC0CA902F031FADFF8B01E0CA8EB
S3150800154001F0DEFC2FE100BF14CA0008C428002001
S31508001550E4C30008E4B2002C0AD0DFF8941E0CA8F5
S3150800156001F0ACFC0CA801F07FFC0CA902F016FAFD
S31508001570DFF850190CA801F0C3FC14E10422DFF8C7
S31508001580A81E2DA803F0D0FC002835D10B9A0A997D
S315080015900B2002F0BFFD0600F6B2002E18D1E4B209
S315080015A0002C0AD0DFF8841E0CA801F087FC0CA8D2
S315080015B001F05AFC0CA902F0F1F9DFF8741E0CA828
S315080015C001F09EFCEFE000BF68DC000838CA00089E
S315080015D0E4B2002C0AD0DFF85C1E0CA801F06EFC01
S315080015E00CA801F041FC0CA902F0D8F9DFF8D418D0
S315080015F00CA801F085FCD6E00422DFF8941E2DA87D
S3150800160003F092FC002839D10B9A0A990C2002F0B3
S3150800161081FD0600F6B2002E1CD1E4B2002C0AD0D9
S31508001620DFF8701E0CA801F049FC0CA801F01CFCA0
S315080016300CA902F0B3F9DFF8601E0CA801F060FCF3
S31508001640B1E000BF0CC4000880DC00085CCA0008D2
S31508001650C0280020E4B2002C0AD0DFF8401E0CA8EF
S3150800166001F02CFC0CA801F0FFFB0CA902F096F97E
S31508001670DFF850180CA801F043FC94E00522DFF8C7
S31508001680201E2DA803F050FC00283BD10B9A0A997E
S315080016900D2002F03FFD0600F6B2002E1ED1E4B280
S315080016A0002C0AD0DFF8FC1D0CA801F007FC0CA8DA
S315080016B001F0DAFB0CA902F071F9DFF8EC1D0CA8B1
S315080016C001F01EFC6FE000BFB4C0000828D2000875
S315080016D048D2000834C4000890280020E4B2002C40
S315080016E00AD0DFF8C81D0CA801F0E8FB0CA801F029
S315080016F0BBFB0CA902F052F9DFF8C8170CA801F0D9
S31508001700FFFB50E00522DFF8A01E2DA803F00CFC15
S31508001710002835D10B9A0A990E2002F0FBFC060028
S31508001720F6B2002E13D1E4B2002C0AD0DFF87C1EE4
S315080017300CA801F0C3FB0CA801F096FB0CA902F05B
S315080017402DF9DFF86C1E0CA801F0DAFB2BE0E4B2E9
S31508001750002C0AD0DFF85C1E0CA801F0AFFB0CA821
S3150800176001F082FB0CA902F019F9DFF858170CA84A
S3150800177001F0C6FB17E000BFA4BF000868D2000846
S31508001780E4B2002C0AD0DFF88C1E0CA801F096FBF8
S315080017900CA801F069FB0CA902F000F9DFF8781E25
S315080017A00CA801F0ADFB002612E0E4B2002C0AD02A
S315080017B0DFF860160CA801F081FB0CA801F054FBB9
S315080017C00CA902F0EBF8DFF8981E0CA801F076FBDE
S315080017D000F0C7BD5CC40008E4B2002C0AD0DFF8EC
S315080017E0841E0CA801F06AFB0CA801F03DFB0CA9AD
S315080017F002F0D4F802F0BAFC0200DFF86C1E0CA85E
S3150800180001F07EFB0CA801F045FD0600F6B2002E9D
S3150800181003D03000C0B2FEF744BDDFF8501E0CA856
S3150800182001F06EFB0CA801F035FD0600F6B2002E9D
S315080018300ED03000C0B2FEF734BD00BFE0C00008CD
S3150800184098DC000830BE000884C4000868BE00089A
S31508001850002500E06D1C0F2D80F2DA84002D23D0C0
S31508001860022D00F0BF806FD3042D00F05381C0F025
S315080018700581062D00F0E881C0F09881082D00F05A
S315080018807F82C0F02D820A2D00F02283C0F0CC8220
S315080018900C2D00F0C183C0F06D830E2D00F060841E
S315080018A0C0F00C8400F0A3BCE4B2002C24D02800BD
S315080018B0C0B202F04AFC06002800C0B202F04BFC97
S315080018C007002800C0B202F04CFC8046300002F047
S315080018D05BFCCDE90201380002F056FCCDE90001B7
S315080018E04246DFF8841E0CA801F00AFB0CA801F09A
S315080018F0BBFA0CA902F052F82800C0B202F025FC87
S3150800190006002800C0B202F026FC07002800C0B274
S3150800191002F027FC8046300002F036FCCDE90201D1
S31508001920380002F031FCCDE900014246DFF8981E86
S315080019300CA801F0E5FA00F05ABC00BF88D20008EE
S3150800194080CA0008ACC40008E4B2002C24D02800E1
S31508001950C0B202F0FAFB06002800C0B202F0FBFB98
S3150800196007002800C0B202F0FCFB8046300002F0F7
S315080019700BFCCDE90201380002F006FCCDE90001B6
S315080019804246DFF8481E0CA801F0BAFA0CA801F086
S315080019906BFA0CA902F002F82800C0B202F0D5FBD7
S315080019A006002800C0B202F0D6FB07002800C0B225
S315080019B002F0D7FB8046300002F0E6FBCDE90201D3
S315080019C0380002F0E1FBCDE900014246DFF8801E4F
S315080019D00CA801F095FA00F00ABC00BFD4C40008B0
S315080019E00CC10008E4B2002C24D02800C0B202F0D2
S315080019F0ACFB06002800C0B202F0ADFB07002800C9
S31508001A00C0B202F0AEFB8046300002F0BDFBCDE965
S31508001A100201380002F0B8FBCDE900014246DFF8C2
S31508001A20341E0CA801F06CFA0CA801F01DFA0CA9DA
S31508001A3001F0B4FF2800C0B202F087FB06002800B8
S31508001A40C0B202F088FB07002800C0B202F089FB8A
S31508001A508046300002F098FBCDE90201380002F01A
S31508001A6093FBCDE900014246DFF8581E0CA801F0A9
S31508001A7047FABCE3D8BE0008B0DC0008E4B2002C84
S31508001A8024D02800C0B202F060FB06002800C0B2CD
S31508001A9002F061FB07002800C0B202F062FB804634
S31508001AA0300002F071FBCDE90201380002F06CFB50
S31508001AB0CDE900014246DFF8441E0CA801F020FAE1
S31508001AC00CA801F0D1F90CA901F068FF2800C0B2F2
S31508001AD002F03BFB06002800C0B202F03CFB070000
S31508001AE02800C0B202F03DFB8046300002F04CFBF5
S31508001AF0CDE90201380002F047FBCDE90001424674
S31508001B00DFF8641E0CA801F0FBF970E358DF000843
S31508001B10FCC40008E4B2002C24D02800C0B202F0AD
S31508001B2014FB06002800C0B202F015FB07002800C7
S31508001B30C0B202F016FB8046300002F025FBCDE964
S31508001B400201380002F020FBCDE900014246DFF829
S31508001B50441E0CA801F0D4F90CA801F085F90CA9CB
S31508001B6001F01CFF2800C0B202F0EFFA06002800B8
S31508001B70C0B202F0F0FA07002800C0B202F0F1FA8B
S31508001B808046300002F000FBCDE90201380002F081
S31508001B90FBFACDE900014246DFF8FC1D0CA801F06E
S31508001BA0AFF924E338C100080CBF0008E4B2002CE2
S31508001BB024D02800C0B202F0C8FA06002800C0B235
S31508001BC002F0C9FA07002800C0B202F0CAFA804635
S31508001BD0300002F0D9FACDE90201380002F0D4FA51
S31508001BE0CDE900014246DFF84C1E0CA801F088F941
S31508001BF00CA801F039F90CA901F0D0FE2800C0B2F2
S31508001C0002F0A3FA06002800C0B202F0A4FA070000
S31508001C102800C0B202F0A5FA8046300002F0B4FAF5
S31508001C20CDE90201380002F0AFFACDE900014246DB
S31508001C30DFF8341E0CA801F063F9D8E2BCBD000831
S31508001C40C8DC000824C50008E4B2002C24D028000B
S31508001C50C0B202F07AFA06002800C0B202F07BFA97
S31508001C6007002800C0B202F07CFA8046300002F075
S31508001C708BFACDE90201380002F086FACDE90001B7
S31508001C804246DFF83C1E0CA801F03AF90CA801F010
S31508001C90EBF80CA901F082FE2800C0B202F055FA52
S31508001CA006002800C0B202F056FA07002800C0B2A3
S31508001CB002F057FA8046300002F066FACDE90201D2
S31508001CC0380002F061FACDE900014246DFF8441E09
S31508001CD00CA801F015F98AE26CDF0008ACE00008F0
S31508001CE0E4B2002C24D02800C0B202F02EFA060076
S31508001CF02800C0B202F02FFA07002800C0B202F08E
S31508001D0030FA8046300002F03FFACDE90201380089
S31508001D1002F03AFACDE900014246DFF8FC1D0CA8AC
S31508001D2001F0EEF80CA801F09FF80CA901F036FEB8
S31508001D302800C0B202F009FA06002800C0B202F074
S31508001D400AFA07002800C0B202F00BFA80463000F3
S31508001D5002F01AFACDE90201380002F015FACDE9C7
S31508001D6000014246DFF8B41D0CA801F0C9F83EE2AE
S31508001D704CC5000864C1000874C50008A8D200084C
S31508001D80E4B2002C24D02800C0B202F0DEF9060026
S31508001D902800C0B202F0DFF907002800C0B202F03E
S31508001DA0E0F98046300002F0EFF9CDE9020138008B
S31508001DB002F0EAF9CDE900014246DFF81C1E0CA83C
S31508001DC001F09EF80CA801F04FF80CA901F0E6FD09
S31508001DD02800C0B202F0B9F906002800C0B202F025
S31508001DE0BAF907002800C0B202F0BBF980463000F5
S31508001DF002F0CAF9CDE90201380002F0C5F9CDE9C9
S31508001E0000014246DFF8F41D0CA801F079F8EEE16E
S31508001E109CC50008A4CA0008C8CA0008B8E000089B
S31508001E20E0DC00088CE20008E4B2002C24D028008C
S31508001E30C0B202F08AF906002800C0B202F08BF997
S31508001E4007002800C0B202F08CF98046300002F084
S31508001E509BF9CDE90201380002F096F9CDE90001B7
S31508001E604246DFF89C1D0CA801F04AF80CA800F0C1
S31508001E70FBFF0CA901F092FD2800C0B202F065F93B
S31508001E8006002800C0B202F066F907002800C0B2B2
S31508001E9002F067F98046300002F076F9CDE90201D2
S31508001EA0380002F071F9CDE900014246DFF8541D09
S31508001EB00CA801F025F89AE1C8D20008ECCA000877
S31508001EC010CB000840D7000894E20008E8D20008C2
S31508001ED0E4B2002C24D02800C0B202F036F906007D
S31508001EE02800C0B202F037F907002800C0B202F095
S31508001EF038F98046300002F047F9CDE9020138008A
S31508001F0002F042F9CDE900014246DFF87C1D0CA833
S31508001F1000F0F6FF0CA800F0A7FF0CA901F03EFDA3
S31508001F202800C0B202F011F906002800C0B202F07B
S31508001F3012F907002800C0B202F013F980463000F3
S31508001F4002F022F9CDE90201380002F01DF9CDE9C7
S31508001F5000014246DFF8341D0CA800F0D1FF46E127
S31508001F6034CB000858CB00089CE2000808D30008C8
S31508001F707CCB0008E4B2002C24D02800C0B202F0C2
S31508001F80E4F806002800C0B202F0E5F807002800C9
S31508001F90C0B202F0E6F88046300002F0F5F8CDE966
S31508001FA00201380002F0F0F8CDE900014246DFF8F8
S31508001FB0E01C0CA800F0A4FF0CA800F055FF0CA923
S31508001FC001F0ECFC2800C0B202F0BFF806002800B9
S31508001FD0C0B202F0C0F807002800C0B202F0C1F88B
S31508001FE08046300002F0D0F8CDE90201380002F050
S31508001FF0CBF8CDE900014246DFF80C1C0CA800F02E
S315080020007FFFF4E0A0CB0008A4E2000828D300086C
S315080020105CD70008C4CB0008E4B2002C24D0280002
S31508002020C0B202F092F806002800C0B202F093F897
S3150800203007002800C0B202F094F88046300002F08B
S31508002040A3F8CDE90201380002F09EF8CDE90001B7
S315080020504246DFF8B81B0CA800F052FF0CA800F0A7
S3150800206003FF0CA901F09AFC2800C0B202F06DF833
S3150800207006002800C0B202F06EF807002800C0B2B9
S3150800208002F06FF88046300002F07EF8CDE90201D2
S31508002090380002F079F8CDE900014246DFF8F41B72
S315080020A00CA800F02DFFA2E0ACE2000848D3000817
S315080020B078D70008E8CB0008B4E20008E4B2002CA0
S315080020C024D02800C0B202F040F806002800C0B2AA
S315080020D002F041F807002800C0B202F042F8804634
S315080020E0300002F051F8CDE90201380002F04CF850
S315080020F0CDE900014246DFF8A01B0CA800F000FF5E
S315080021000CA800F0B1FE0CA901F048FC2800C0B2EA
S3150800211002F01BF806002800C0B202F01CF80700FF
S315080021202800C0B202F01DF88046300002F02CF8F4
S31508002130CDE90201380002F027F8CDE90001424650
S31508002140DFF8041C0CA800F0DBFE50E068D300089A
S3150800215094D700080CCC0008BCE2000888D3000815
S31508002160E4B2002C24D02800C0B201F0EEFF06002D
S315080021702800C0B201F0EFFF07002800C0B201F046
S31508002180F0FF8046300001F0FFFFCDE9020138007C
S3150800219001F0FAFFCDE900014246DFF8B01B0CA8B2
S315080021A000F0AEFE0CA800F05FFE0CA901F0F6FBED
S315080021B02800C0B201F0C9FF06002800C0B201F02D
S315080021C0CAFF07002800C0B201F0CBFF80463000E6
S315080021D001F0DAFFCDE90201380001F0D5FFCDE9BB
S315080021E000014246DFF8681B0CA800F089FE0CA81F
S315080021F001F050F80600F6B2002E3FF42BAB300083
S31508002200C0B2FEF74EB800BF30CC000854CC000868
S31508002210DFF8401B0CA800F073FEA2E0F8783A2815
S3150800222018D0E4B2002C0AD0DFF82C1B0CA800F05A
S3150800223045FE0CA800F018FE0CA901F0AFFBDFF86C
S315080022401C1B0CA800F03AFE5BE000BFC4E20008C5
S31508002250A8D300085FFA89F9B9F1050F20DAE4B2C4
S31508002260002C0AD0DFF8F81A0CA800F027FE0CA8F4
S3150800227000F0FAFD0CA901F091FBDFF8E81A0CA8AA
S3150800228000F01CFE3DE000BF78CC00089CCC00089E
S31508002290CCE20008C8D30008C0CC0008E4CC00088B
S315080022A03D1D290030A800F009FE280001F046FF70
S315080022B00600F6B2002E11D0E4B2002C0AD0DFF8E0
S315080022C0A81A0CA800F0FAFD0CA800F0CDFD0CA980
S315080022D001F064FB3000C0B2FDF7E3BFE4B2002CA6
S315080022E00AD0DFF8881A0CA800F0E8FD0CA800F060
S315080022F0BBFD0CA901F052FBDFF8581A0CA800F038
S31508002300FFFD2EE001F0C3FE0600F6B2002E15D042
S31508002310E4B2002C0AD0DFF8581A0CA800F0CEFD5B
S315080023200CA800F0A1FD0CA901F038FB3000C0B2E2
S31508002330FDF7B7BFD4E20008E8D30008E4B2002CE2
S315080023400AD0DFF8301A0CA800F0B8FD0CA800F087
S315080023508BFD0CA901F022FBDFF8F8190CA800F098
S31508002360CFFD00F0FEBB00BFB0D7000808CD0008BF
S31508002370DCE200082CCD000803F051FE0500E4B2AB
S31508002380002C0CD0ADB22A00DFF8EC190CA800F02E
S31508002390B7FD0CA800F068FD0CA901F0FFFAADB274
S315080023A02A00DFF8D8190CA800F0AAFDD9E3E4B290
S315080023B0002C0DD0DFF8C8190CA800F07FFD0CA87A
S315080023C000F052FD0CA901F0E9FA012003F0F6FC31
S315080023D0DFF8B0190CA800F071FD002003F003FD2A
S315080023E0DFF8A4190CA800F08BFDBAE3CCD70008D7
S315080023F0C4C5000800265FFA89F9B9F1040F1BDA8B
S31508002400E4B2002C0AD0DFF884190CA800F056FDB7
S315080024100CA800F029FD0CA901F0C0FADFF8701924
S315080024200CA800F04BFDCCE2E4E2000850CD000811
S31508002430E8D70008ECC50008B878522800F00C82E6
S31508002440532840F0AB82F878422800F027815328B9
S3150800245006D0542800F09180562800F09D81F0E1BE
S3150800246038793A2824D0E4B2002C0AD0DFF82419A7
S315080024700CA800F023FD0CA800F0F6FC0CA901F04E
S315080024808DFADFF814190CA800F018FD74E000BFE7
S31508002490ECE2000874CD000890C1000814C60008D4
S315080024A0F4E2000898CD0008BCC100083CC6000844
S315080024B05FFA89F9B9F1060F0FDB5FF00108052508
S315080024C05FFA89F94D450ADA785D03F081FE00283E
S315080024D001D15FF000086D1CF2E75FF00008B8F163
S315080024E0000F13D1E4B2002C0AD0DFF8B0180CA8FC
S315080024F000F0E4FC0CA800F0B7FC0CA901F04EFAB9
S31508002500DFF89C180CA800F0D9FC35E07D1D2900E1
S3150800251030A800F0D3FC30A803F05FFE011E42F29B
S315080025201072914213D3E4B2002C0AD0DFF86C186B
S315080025300CA800F0C3FC0CA800F096FC0CA901F04E
S315080025402DFADFF85C180CA800F0B8FC14E003F0CC
S31508002550B7FEE4B2002C0AD0DFF848180CA800F041
S31508002560ADFC0CA800F080FC0CA901F017FADFF806
S3150800257038180CA800F0C4FC68E138793A281BD052
S31508002580E4B2002C0AD0DFF824180CA800F096FC58
S315080025900CA800F069FC0CA901F000FADFF8101885
S315080025A00CA800F08BFC78E0FCE20008BCCD000823
S315080025B0E8C1000864C600085FFA89F9B9F1060F90
S315080025C00FDB5FF0010805255FFA89F94D450ADA40
S315080025D0785D03F0FDFD002801D15FF000086D1C51
S315080025E0F2E75FF00008B8F1000F17D1E4B2002C4B
S315080025F00AD0DFF8C0170CA800F060FC0CA800F0A1
S3150800260033FC0CA901F0CAF9DFF8AC170CA800F0E6
S3150800261055FC42E0E0CD000808D400087D1D2900DD
S3150800262030A800F04BFC30A803F0D7FD011E42F29B
S31508002630107291421CD3E4B2002C0AD0DFF874174A
S315080026400CA800F03BFC0CA800F00EFC0CA901F04D
S31508002650A5F9DFF84C170CA800F030FC1DE000BF08
S31508002660D4BF000828D2000828D4000804CE0008E1
S3150800267003F050FEE4B2002C0AD0DFF840170CA88D
S3150800268000F01CFC0CA800F0EFFB0CA901F086F981
S31508002690DFF814170CA800F033FCD7E038793A288D
S315080026A013D0E4B2002C0AD0DFF814170CA800F0F7
S315080026B005FC0CA800F0D8FB0CA901F06FF9DFF8AF
S315080026C004170CA800F0FAFB65E05FFA89F9B9F17E
S315080026D0060F0FDB5FF0010805255FFA89F94D45FE
S315080026E00ADA785D03F074FD002801D15FF000086E
S315080026F06D1CF2E75FF00008B8F1000F13D1E4B2E1
S31508002700002C0AD0DFF8C0160CA800F0D7FB0CA8DE
S3150800271000F0AAFB0CA901F041F9DFF8B0160CA8E5
S3150800272000F0CCFB37E07D1D290030A800F0C6FB81
S3150800273030A803F052FD011EB1F57A7F16D3E4B234
S31508002740002C0AD0DFF880160CA800F0B7FB0CA8FE
S3150800275000F08AFB0CA901F021F9DFF870160CA825
S3150800276000F0ACFB17E000BF04D8000803F0E1FD59
S31508002770E4B2002C0AD0DFF858160CA800F09EFB2D
S315080027800CA800F071FB0CA901F008F9DFF818167F
S315080027900CA800F0B5FB59E038793A2818D0E4B20D
S315080027A0002C0AD0DFF82C160CA800F087FB0CA822
S315080027B000F05AFB0CA901F0F1F8DFF81C160CA87A
S315080027C000F07CFB3CE000BF20D800083CD800089D
S315080027D05FFA89F9B9F1060F02DB5FF0010801E03B
S315080027E05FF00008B8F1000F13D1E4B2002C0AD04C
S315080027F0DFF8E8150CA800F061FB0CA800F034FB24
S315080028000CA901F0CBF8DFF8D8150CA800F056FB98
S3150800281016E07D1D280003F09BFDE4B2002C0AD0CB
S31508002820DFF8C0150CA800F049FB0CA800F01CFB4B
S315080028300CA901F0B3F8DFF870150CA800F060FBDE
S3150800284004E0DFF8A4150CA800F038FBB9E000BFD7
S3150800285058D8000874D80008F878422850D0532869
S3150800286004D0542830D0562864D07FE0E4B2002C37
S3150800287016D003F084FD01F0E1FBDFF8701503F0D4
S3150800288097FD01F081FC02000B00DFF864150CA827
S3150800289000F036FB0CA800F0E7FA0CA901F07EF868
S315080028A003F06DFD01F0CAFBDFF8401503F080FD6B
S315080028B001F06AFC02000B00DFF838150CA800F0DE
S315080028C01FFB66E090D80008E4B2002C0DD003F098
S315080028D059FD0200DFF820150CA800F011FB0CA822
S315080028E000F0C2FA0CA901F059F803F04BFD0200FA
S315080028F0DFF808150CA800F003FB4AE0ACD800087E
S31508002900E4B2002C0DD003F040FD0200DFF8F0140D
S315080029100CA800F0F5FA0CA800F0A6FA0CA901F02C
S315080029203DF803F032FD0200DFF8D8140CA800F0D9
S31508002930E7FA2EE0E4B2002C0DD003F029FD0200E0
S31508002940DFF8C4140CA800F0DBFA0CA800F08CFA27
S315080029500CA901F023F803F01BFD0200DFF8AC1404
S315080029600CA800F0CDFA14E0C8D80008E4B2002C90
S315080029700AD0DFF89C140CA800F0A0FA0CA800F006
S3150800298073FA0CA901F00AF8DFF888140CA800F00D
S3150800299095FA16E0E4D8000800D90008E4B2002C3D
S315080029A00AD0DFF8E8130CA800F088FA0CA800F0A3
S315080029B05BFA0CA900F0F2FFDFF85C140CA800F033
S315080029C07DFACEE000265FFA89F9B9F1030F13DA2A
S315080029D0E4B2002C0AD0DFF844140CA800F06EFA12
S315080029E00CA800F041FA0CA900F0D8FFDFF8301463
S315080029F00CA800F063FA4CE0B87844281CD04528A7
S31508002A0034D1DFF820140CA800F07AFAE4B2002CCE
S31508002A100AD0DFF814140CA800F050FA0CA800F03D
S31508002A2023FA0CA900F0BAFF012003F063FC0600A4
S31508002A302FE000BF1CD90008DFF8F0130CA800F03F
S31508002A405FFAE4B2002C0AD0DFF8E4130CA800F011
S31508002A5035FA0CA800F008FA0CA900F09FFF002030
S31508002A6003F048FC060014E038D90008E4B2002C4C
S31508002A700AD0DFF8A8130CA800F020FA0CA800F07A
S31508002A80F3F90CA900F08AFFDFF8A8130CA800F0E8
S31508002A9015FA66E003F0D3FBE4B2002C0AD0DFF89F
S31508002AA098130CA800F02CFA0CA800F0DDF90CA974
S31508002AB000F074FFDFF884130CA800F021FA50E048
S31508002AC054D9000803F0ABFA0500E4B2002C11D083
S31508002AD0DFF86C130CA800F013FA0CA800F0C4F980
S31508002AE00CA900F05BFFADB22A00A4490CA800F0BF
S31508002AF007FA36E0D3490CA800F002FA0CA800F051
S31508002B00C9FB0600F6B2002E0AD03000C0B2FDF7A7
S31508002B10C8BB00BF70D900088CD90008A8D900081E
S31508002B20C9490CA800F0ECF90CA800F0B3FB0600A4
S31508002B30F6B2002E03D03000C0B2FDF7B2BBFEE7F6
S31508002B40E4B2002C09D0C1490CA800F0B7F90CA8CA
S31508002B5000F08AF90CA900F021FFAF490CA800F093
S31508002B60ADF910E0E4B2002C09D0B8490CA800F081
S31508002B70A5F90CA800F078F90CA900F00FFFA649F2
S31508002B800CA800F09BF9F6B2002E05D0022E09D04B
S31508002B9003D3032E0BD00FE012E0AD490CA800F0CA
S31508002BA08DF90DE0AB490CA800F088F908E0AA49B0
S31508002BB00CA800F083F903E0A8490CA800F07EF9F8
S31508002BC00CA800F067FB0600F6B2002E06D030000F
S31508002BD0C0B2FDF766BB00BFC4D90008A0490CA85F
S31508002BE000F06CF90CA800F055FB0600F6B2002EB2
S31508002BF03DF455AB3000C0B2FDF753BBE0D9000831
S31508002C00F8DC000810DD000870DD000888DD000823
S31508002C1010B50400200000F027F90022002100E08A
S31508002C20491C81420EDA625C303A0A2A03D3625C96
S31508002C30413A062A01D2002200E00122012AEFD1F8
S31508002C40002000E0012010BD38B504000022002550
S31508002C50200000F009F9002104E0625C303A12EB2A
S31508002C600515491C81420DDA625C303A0A2AF4D30A
S31508002C70625C413A062A02D2625C373AEFE75FF0B5
S31508002C80FF3000E0280032BD28DD000840DD0008DE
S31508002C9058DD0008A0DD0008FCD90008E0B50020D2
S31508002CA08DF8080002A803F039FC684603F096FC84
S31508002CB0002818D100200DE0694631F910104FF4AC
S31508002CC07A62514348F2120291FBF2F1654A22F800
S31508002CD01010401C0328EFDB684603F0BAFC0028F6
S31508002CE01BD1002010E001202DE0694631F91010B3
S31508002CF041F28832514346F69B7291FBF2F1594AEA
S31508002D0002EB4002D180401C0328EEDB684603F044
S31508002D1093FF002816D1002010E0012013E0694631
S31508002D2031F910104FF47A62514346F6E82291FBC6
S31508002D30F2F14C4A02EB40029181401C0328EEDB7B
S31508002D40002000E001200EBD18DA000834DA000879
S31508002D5050DA000880DF000848D400088CC600084E
S31508002D6028CE00084CCE000868D400086CDA0008A3
S31508002D7088D4000888DA0008A8D40008B8DD000856
S31508002D80C8D40008B4C6000870CE0008E8D4000805
S31508002D90DCC6000894CE000814C20008B8CE0008A5
S31508002DA0DCCE000808D50008C4E0000800CF0008FB
S31508002DB040C2000824CF000848CF000828D50008DC
S31508002DC06CCF00086CC2000890CF0008B4CF00088A
S31508002DD048D50008D8CF000898C20008FCCF0008DC
S31508002DE020D0000868D5000844D00008000020411B
S31508002DF088D50008C4C20008A4DA0008D0DD000897
S31508002E00C0DA0008A8D50008DCDA0008E8DD000802
S31508002E10C8D5000868D00008E8D5000808D6000814
S31508002E2004C700082CC70008F8DA000854C70008C9
S31508002E3014DB00087CC7000800DE000840BF000855
S31508002E4030DB00088CD00008B0D0000828D2000873
S31508002E50D4D00008A4C70008CCC70008F0C20008F0
S31508002E6004E300085828002000F10103810704D074
S31508002E7010F8011B89B18107FAD10268B2F1013154
S31508002E80914311F0803F04BF50F8042FF6E710F87D
S31508002E90011B11B110F8011BFBE7C01A7047036844
S31508002EA01AB95A1E026008467047197800290FBFDA
S31508002EB04FF0FF30591C0160187870475FEA000C24
S31508002EC0830706D011F8013B00F8013BB3B183072D
S31508002ED0F8D10A68B2F1013323EA020313F0803FFE
S31508002EE002BF40F8042B51F8042FF3E711F8013B11
S31508002EF000F8013B13B111F8013BF9E7604670474A
S31508002F000CB41CB5044604A801900A46009401AB0B
S31508002F10694607487844183003F0CAFE009A00212B
S31508002F20117000285CBF0098001B16BC5DF80CFBEE
S31508002F302B110000012110F01F029140DFF89023A9
S31508002F4040B2400942F820107047012110F01F02D4
S31508002F509140DFF8802340B2400942F820107047BC
S31508002F60401CC0B2322800DB0020C0B2704710B542
S31508002F700C00C0B2FFF7F4FFE4B2A04201D1012071
S31508002F8000E00020C0B210BDC0B2C9B2401A002885
S31508002F9000D53230C0B2704710B540F22771DFF85D
S31508002FA0380304F021FE012806D1002240F22771D9
S31508002FB0DFF8240304F0E2FD40F26531C64804F068
S31508002FC013FE012803D1C44804F0D4FD28E040F2DA
S31508002FD02551C14804F008FE012821D1BE4804F055
S31508002FE0C9FD0400BD4890F83310BC4890F832007B
S31508002FF0FFF7BDFF002813D1B848B84991F8321039
S315080030004454B64890F83200FFF7AAFFB34981F84E
S315080030103200E4B20D2C03D10120B04981F8340006
S3150800302010BDAE4890F8340070470020AB4981F8CF
S315080030303400704710B504001CE0A84890F8330027
S31508003040A64991F83210884214D02520FFF77DFF53
S31508003050A248A24991F83310405C2070641C9F482E
S3150800306090F83300FFF77CFF9C4981F83300252050
S31508003070FFF760FF9948994991F83310405C0D288D
S3150800308009D0964890F83210944890F83300FFF724
S315080030907BFF0028D1D19148904991F83310405CC4
S315080030A00A2806D08D488D4991F83310405C0D28C2
S315080030B00DD12520FFF749FF884890F83300FFF720
S315080030C04FFF864981F833002520FFF733FF00209C
S315080030D02070641CFFF7A9FF10BD00B587B000205B
S315080030E07E4981F8340000207C4981F833000020AD
S315080030F07A4981F8320001214FF4804004F02BFE12
S315080031000121012004F027FE07220921744804F052
S31508003110C5FE07220A21724804F0C0FE4FF4C060BB
S31508003120019002208DF8080000208DF80A00002082
S315080031308DF80B0001208DF8090001A9684804F0F4
S3150800314051FE4FF4964003900020ADF818000C206D
S31508003150ADF816000020ADF814000020ADF81200F6
S315080031600020ADF8100003A95B4804F093FC012287
S3150800317040F22551584804F001FD012260215648C5
S3150800318004F0FCFC25208DF8000000208DF80100D5
S3150800319000208DF8020001208DF80300684604F02F
S315080031A0A5FE01214C4804F0D3FC01204D490860D6
S315080031B000204D49088007B000BD4FF4DC7000E0E0
S315080031C0401E0028FCD1704738B50400012502E0EE
S315080031D0FFF7F3FF641EEDB2002D0AD080213E48AA
S315080031E004F0F5FC012801D1002502E0002CEFD1FE
S315080031F00025002C01D0002000E0032032BD38B5A0
S3150800320004001500002037480068012801D022284C
S315080032103ED1002C02D089B2002901D1012038E024
S3150800322030480068222803D132202E4A106002E076
S3150800323012202C4A10602C48018005E02178641C75
S3150800324089B2254804F092FC2748008800280BD04C
S3150800325025480088401E244908802800FFF7B4FF47
S315080032600028EBD0032014E02800FFF7ADFF002864
S3150800327001D003200DE01B480068322803D1222024
S315080032801849086002E0012016490860002000E09D
S31508003290022032BD10B504002000FFF7E5FD80B21C
S315080032A0512801DB012011E00E490968012901D0E6
S315080032B002200BE00D4A010089B22000FFF79FFFAC
S315080032C0C0B2002801D0C0B200E0C0B210BD0000F4
S315080032D000E100E080E100E0003801402C270020F2
S315080032E000000240C8280020D2280020E0930400ED
S315080032F0012110F01F029140DFF8242C40B240094A
S3150800330042F820107047012110F01F029140DFF8A3
S31508003310142C40B2400942F82010704780B5DFF8F7
S31508003320BC2712681071DFF8B40700684171DFF82E
S31508003330B007DFF8A81709680860DFF8A007006873
S31508003340011DDFF898070068006804F09EFEDFF8A4
S31508003350D80B0068001D02BD00B587B001215FF4D7
S31508003360802004F008FD0121022004F0E4FC072275
S315080033700A21DFF8700704F091FD07220B21DFF818
S31508003380640704F08BFD07220D21DFF8580704F0C7
S3150800339085FD07220E21DFF84C0704F07FFD4FF468
S315080033A0D840009002208DF8040000208DF8060011
S315080033B000208DF8070001208DF805006946DFF822
S315080033C0240704F00FFD4FF40040009001208DF80B
S315080033D0040001208DF8060001208DF80700012061
S315080033E08DF805006946DFF8FC0604F0FBFC5FF47F
S315080033F0E13003904FF44070ADF818000C20ADF89A
S3150800340016000020ADF814000020ADF812000020C8
S31508003410ADF8100003A9DFF8D40A04F03BFB01223B
S3150800342040F22551DFF8C40A04F0A8FB0122602106
S31508003430DFF8B80A04F0A2FB27208DF80800002060
S315080034408DF8090000208DF80A0001208DF80B0080
S3150800345002A804F04BFD0121DFF8900A04F078FB7E
S315080034600020DFF8CC1AA1F820030020DFF8C41AE0
S3150800347081F896010020DFF8BC1A81F89701002030
S31508003480DFF8B01A81F898010020DFF8A81A81F849
S3150800349099010020DFF89C1A81F89A010020DFF8CC
S315080034A0941AA1F89C010120DFF8881A81F89E0178
S315080034B007B000BD401CC0B2C82800DB0020C0B25F
S315080034C07047C0B2C9B2401A002800D5C830C0B289
S315080034D0704738B504000D0020E02720FFF713FFDA
S315080034E00020DFF8501A81F89501DFF8480ADFF85E
S315080034F0441A91F89311084490F8CA0028706D1C74
S31508003500DFF8300A90F89301FFF7D4FFDFF8241AA2
S3150800351081F893012720FFF7EBFE641E002C16D0D6
S31508003520DFF8100A90F89301DFF8081A91F892115B
S315080035308842D2D1012240F22551DFF8B00904F0C1
S315080035401DFB01226021DFF8A40904F017FB002007
S3150800355032BDDFF8E00990F89501704780B5FFF7AE
S31508003560FBFE4FF40041DFF87C0504F08EFC0FF2F9
S315080035702D40DFF8C4190860DFF8C009DFF8C01964
S315080035800860DFF8C009DFF8C019086002F006FC19
S315080035904FF40041DFF84C0504F075FC01BD10B589
S315080035A086B00024DFF88C09D0F8A001002805D1E0
S315080035B004F05DFDDFF87C19C1F8A001DFF8740995
S315080035C0D0F8A001002800F00781DFF86809D0F8D4
S315080035D0A0010068DFF874190840DFF85419DFF80D
S315080035E05029B2F8202341F82200DFF84409B0F840
S315080035F02003C0B2FFF75EFFDFF83419A1F82003F5
S31508003600DFF83009D0F8A0010068DFF84019084053
S31508003610DFF83C190860DFF838090068A02800F0D0
S315080036208B80DFF8301988422ED0DFF82C198842B3
S3150800363057D0DFF82819884200F08480DFF820196F
S3150800364088422ED0DFF81C1988427BD0DFF818197B
S31508003650884259D0DFF81419884200F09280DFF8C2
S31508003660101988425BD0DFF80C19884264D0DFF85D
S315080036700819884260D0DFF80419884262D0DFF85A
S315080036800019884258D086E0DFF8F808FFF702FEEE
S31508003690DFF8F40802F0D0FB0120DFF8981881F86B
S315080036A096010020DFF88C1881F897010221022084
S315080036B0FFF734FE0088FF2812DCE4B2002C0AD19A
S315080036C0DFF8C808FFF7E6FDDFF8C40802F0B4FB28
S315080036D0062002F088FB0020DFF85818C1F8A00180
S315080036E069E0DFF8B008FFF7D5FDDFF8AC0802F0AF
S315080036F0A3FB0120DFF83C1881F897010020DFF8CA
S315080037003418C1F8A00156E0A2A0FFF7C3FD02F0E5
S31508003710D7FB0020DFF81C18C1F8A0014BE002F027
S3150800372056FB9DA0FFF7B6FD02F0CAFB0020DFF8A6
S315080037300418C1F8A0013EE00020DFF8F817C1F828
S31508003740A00138E0DFF85408FFF7A4FDDFF8E40726
S31508003750D0F8A001807A00280DD0DFF8D807D0F875
S31508003760A00110F10B02DFF838186846FFF7C8FB0E
S315080037706846FFF78FFD0020DFF8B817C1F8A001EB
S3150800378019E0DFF82008FFF785FD0020DFF8A41709
S31508003790C1F8A0010FE0DFF8B8070268DFF80818DB
S315080037A06846FFF7ADFB6846FFF774FD0020DFF8B3
S315080037B08417C1F8A001DFF87C0790F89311DFF8A9
S315080037C0740790F89201FFF77CFE002804D00120C8
S315080037D0DFF8601781F8950106B010BDDFF85407C9
S315080037E090F896017047DFF84C0790F897017047F4
S315080037F0DFF8400790F898017047DFF8380790F827
S3150800380099017047DFF82C1781F898017047DFF89F
S31508003810241781F89901704700B58BB00020DFF8AE
S31508003820140790F89A01032842D1DFF8080790F8A0
S315080038309E01012801D101203BE001F0C3FD0028CB
S3150800384034D001F0BAFDDFF8EC06B0F89C01401C54
S31508003850DFF8E016A1F89C0102F094FD0300DFF8FA
S31508003860D406B0F89C21DFF844176846FFF748FBF2
S315080038706846FFF70FFD6846FFF7F6FA694600F057
S315080038808DF802F07FFDDFF8AC16B1F89C1188427E
S315080038900CD2DFF81C07FFF7FDFC0221122004F00A
S315080038A04EFC02F002FB122002F09DFA002000E016
S315080038B00120C0B20BB000BDDFF8781681F89E0172
S315080038C07047DFF8701691F89A11032903D1DFF8CB
S315080038D0641681F89E017047DFF8580690F89A0139
S315080038E07047DFF8501681F89A01704780B540F2A4
S315080038F02771DFF8F80504F077F9012827D1DFF8F2
S31508003900340690F8C900DFF82C1691F8C8108842DA
S3150800391016D0DFF82006DFF81C1691F8C910415CAE
S3150800392089B2DFF8C80504F021F9DFF8080690F82F
S31508003930C900FFF7BFFDDFF8FC1581F8C90006E0EE
S31508003940002240F22771DFF8A40504F017F940F2C7
S315080039506531DFF8980504F047F9012809D10020F8
S31508003960DFF8D01581F89401DFF8800504F002F934
S315080039700EE040F22551DFF8740504F035F9012808
S3150800398006D1DFF8680504F0F5F8C0B200F0ACF827
S3150800399001BD00002D2A2D002D4F2D00F8B504007D
S315080039A00D0054F07F40DFF88815DFF88425B2F85B
S315080039B0202341F82200DFF87805B0F82003C0B2CA
S315080039C0FFF778FDDFF86815A1F8200328786978ED
S315080039D0090411EB0060A97810EB0120E9780818B2
S315080039E0DFF84C15DFF84825B2F8202341F8220005
S315080039F0DFF83C05B0F82003C0B2FFF75BFDDFF83F
S31508003A003015A1F8200328796979090411EB0060BB
S31508003A10A97910EB0120E9790818DFF81415DFF801
S31508003A201025B2F8202341F82200DFF80405B0F883
S31508003A302003C0B2FFF73EFDDFF8F414A1F8200317
S31508003A404FF4FA6726E02878DFF8E814DFF8E4246C
S31508003A5092F8C82088542720FFF755FCDFF8D404CD
S31508003A6090F8C800DFF8CC1491F8C910884206D13E
S31508003A70012240F22771DFF8740404F07FF8DFF8BA
S31508003A80B40480F8C8602720FFF732FC641E6D1C5A
S31508003A904FF4FA67002C1FD0DFF8980490F8C80096
S31508003AA0FFF708FD06003000DFF8881491F8C91002
S31508003AB0C0B28842C7D13800471E0028EAD1002084
S31508003AC0DFF8701481F8960102210F2004F037FB05
S31508003AD0082002F088F9DDE7F1BD000000000020AB
S31508003AE0200203010004024030B5D7B00024DFF8F5
S31508003AF0C414DFF8C42412888854DFF8BC14098873
S31508003B00491CDFF8B4241180C0B20A2808D0C0B214
S31508003B103F2805D0DFF8A0040088FF2840F3E2819B
S31508003B200020DFF894140880DFF8901402A8FFF745
S31508003B30E7F902A8FFF7AEFB0400DFF87804FFF701
S31508003B40A9FB0400A8A102A8FFF7DAF902A8FFF763
S31508003B50A1FB0400E4B2002C02D02000C0B2C3E1ED
S31508003B60DFF85C040078002811D0DFF84804FFF776
S31508003B707BF9DFF840140844002100F8021CDFF83E
S31508003B80340400F0B5F90020DFF834140870042274
S31508003B90DFF83014DFF81C0401F0C6F9002814D148
S31508003BA00120DFF8901381F896010020DFF88413CE
S31508003BB081F898010020DFF87C1381F89901DFF875
S31508003BC00804FFF767FB040084E10922DFF8FC1309
S31508003BD0DFF8E00301F0A8F9002814D10120DFF886
S31508003BE0541381F897010120DFF8481381F89A01E8
S31508003BF00020DFF84013A1F89C01DFF8D403FFF793
S31508003C0049FB040066E10C22DFF8C813DFF8A403B9
S31508003C1001F08AF900281FD10020C64981F89701CA
S31508003C200020C44981F898010020C24981F8990109
S31508003C300120C04981F89A010020BE49A1F89C01DB
S31508003C4002F016FA01F00CFB02F016FADFF8880308
S31508003C50FFF720FB04003DE10422DFF88013DFF8BC
S31508003C60540301F061F900284FD102F084FB0028C3
S31508003C7019D002F08AFB040002F084FB050002F06A
S31508003C8077FB0194009500F0D9F9DFF8541302F098
S31508003C908FFB00F079FA02000B00DFF84813C548DD
S31508003CA0FFF72EF916E002F070FB040002F06AFB3B
S31508003CB0050002F05DFB0194009500F0BFF9C849C4
S31508003CC002F076FB00F060FA02000B00C649B9481C
S31508003CD0FFF716F9B748FFF7DDFA0400E4B2002C3F
S31508003CE002D02000C0B2FFE0B248FFF7BDF8B149E4
S31508003CF0FFF754FE0A2002F0F4FA0120FFF787FDC9
S31508003D00BA48FFF7C7FA0400E4E01022B849A94800
S31508003D1001F00AF9002807D10120A9490870B54819
S31508003D20FFF7B8FA0400D5E00622B349A14801F026
S31508003D30FBF8002840F0BB80FFF75FFD00282CD079
S31508003D40AE4902A8FFF7DCF802A8FFF7A3FA0400B9
S31508003D50E4B2002C02D02000C0B2C5E002A8FFF7EA
S31508003D6083F802A9FFF71AFE0020FFF750FD01208D
S31508003D70FFF748FD02F04EFA02F0FAFA02F0B1FA3D
S31508003D8003206C4981F89A0100206A49A1F89C0130
S31508003D909B48FFF77FFA040038E0664890F89A01D6
S31508003DA0022823D10320634981F89A01002061493A
S31508003DB0A1F89C01914902A8FFF7A2F802A8FFF70B
S31508003DC069FA0400E4B2002C02D02000C0B28BE0ED
S31508003DD002A8FFF749F802A9FFF7E0FD8848FFF7B0
S31508003DE059FA040012E000BF200D0A00514890F865
S31508003DF09A0103280AD100204E49A1F89C0181485E
S31508003E00FFF748FA04000120FFF756FD7E4916A879
S31508003E10FFF754F87D4916A804F027FA010000298F
S31508003E202DD00020087016A8FFF71EF8002826D007
S31508003E3016A8FCF7AAF90400E4B2022C0ED17449BC
S31508003E4002A8FFF75DF802A8FFF724FA040059480C
S31508003E50FFF70AF85749FFF7A1FD10E0E4B2002C76
S31508003E600DD06C4902A8FFF74BF802A8FFF712FA23
S31508003E7004005048FEF7F8FF4E49FFF78FFD02F0A1
S31508003E80BFF9020064494B48FFF73AF84948FFF77B
S31508003E9001FA0400E4B2002C02D02000C0B223E0EC
S31508003EA04448FEF7E1FF4349FFF778FD12E0082290
S31508003EB05A49404801F038F8002807D102210E2057
S31508003EC004F03DF90E2001F08EFF03E05448FFF799
S31508003ED0E1F90400002003E00021364A1154401C91
S31508003EE0FF28F9DD2000C0B257B030BD00480040B9
S31508003EF010B504002000FEF7B7FF292801D30120DA
S31508003F000CE0002003E00021464A1154401C2828F2
S31508003F10F9DB21004348FEF7D1FF002010BD000061
S31508003F2000E100E080E100E0040000203D48704721
S31508003F30301A002078200020A8280020D334000852
S31508003F40AC28002053350008B0280020F800FFFFF1
S31508003F50BC280020A0000100A0000800A00009005D
S31508003F60A0000801A000080220000A02A0000B0217
S31508003F70A0000A0320000A05A0000008200009087E
S31508003F80A000002040DE0008B4DF0008F0DB0008CF
S31508003F9054DE000808DC000868DE000888D100083E
S31508003FA040E0000844D600084CE000087CDE000823
S31508003FB090DE000824240020D0280020A4DE000873
S31508003FC0D42800201CE10008C4DF000858E00008D7
S31508003FD0B8DE0008D4DF0008E4DF000824E10008A2
S31508003FE00000204130C000085CC0000820DC000842
S31508003FF0CCDE000860D600082CE100087CD6000854
S3150800400098D60008E0DE00082A24002034E10008DB
S31508004010B4D60008D0D60008ECD6000864E000083C
S31508004020F4DE000864270020002840F10980F446E1
S31508004030404200F005F850F000406047002800BFF5
S315080040400AD0B0FA80F18840D1F19D01C90502066F
S3150800405072F1004241EB102070470268531C03605E
S315080040601170704780B5002090224249424804F0FA
S315080040705BF9C0B2002801D0002007E03D4800687F
S31508004080B0F15A3F01D1012000E0002002BD80B501
S3150800409000205FF05A303749086038493848FEF73B
S315080040A00DFF00200BE00021324A02EBC0029160AE
S315080040B05FF07E512F4A02EBC0025160401C0F2868
S315080040C0F1DB902000902B4B2B4A0021002004F0B6
S315080040D0D1F8C0B202BD80B5002090200090254BD3
S315080040E0254A0021002004F0C5F8C0B202BD38B543
S315080040F004000D002000C0B200F02DF8290004F0DD
S315080041001DF905002000C0B200F01FF8290004F0D0
S3150800411081F932BD80B5C0B20F280DDA154BC0B291
S3150800412003EBC00399601349C0B201EBC0004260BB
S31508004130FFF7D1FFC0B200E0012002BD80B5010043
S315080041400F48FEF7BBFE002002BD0A49C0B201EBCC
S31508004150C000806870470749C0B201EBC0004068DC
S3150800416070470849C0B251F82000704704487047A4
S3150800417000000000242500200081010808DF00084F
S31508004180A0250020C8B100085FF0FF0C1CEAD0513A
S3150800419014BF614506E0C110400721F0E04101F176
S315080041A06051704779B900F0004100020AD0B0FAB0
S315080041B080FC00FA0CF001F16051A1EB0C5101EB07
S315080041C0D0214005704741020CBF40F4E0016FF072
S315080041D0000100207047000010B582B004000020DE
S315080041E08DF8000000F0E1F8002801D0012074E005
S315080041F001236A4620217C48007800F074FD0028D7
S3150800420001D0012069E09DF8000010F08F008DF8BC
S3150800421000009DF80000217808438DF800009DF8FD
S31508004220000010F0F7008DF800009DF80000E17816
S3150800423008438DF800009DF8000010F0FB008DF88B
S3150800424000009DF80000217908438DF800009DF8CC
S31508004250000010F0FE008DF800009DF8000061795E
S3150800426008438DF8000001236A4620215E4800783D
S3150800427000F0DCFC002801D001202EE001236A466C
S3150800428010215948007800F02EFD002801D00120A1
S3150800429023E09DF8000010F0FC008DF800009DF862
S315080042A00000617808438DF800009DF8000010F0C2
S315080042B0F3008DF800009DF80000A17808438DF8FA
S315080042C0000001236A4610214748007800F0AEFC3A
S315080042D0002801D0012000E0002016BD38B50400F2
S315080042E0002503236A46A8213F48007800F0FBFC16
S315080042F0002801D0012012E0002007E06946C0B27C
S31508004300095CC0B2C20091400D43401CC0B20328EC
S31508004310F4DB280201D555F07F452560002032BD23
S3150800432010B582B00400002000906846FFF7D6FF5B
S31508004330002801D0012008E00098FFF775FE5FF01D
S315080043408B4102F035F82060002016BD10B582B00A
S315080043500400002002236A46AB212348007800F0B7
S31508004360C2FC002801D0012007E09DF801009DF855
S31508004370001011EB00202080002016BD10B582B079
S3150800438004006846FFF7E2FF002801D001200BE091
S31508004390BDF90000FFF748FE144902F009F8144970
S315080043A004F038F82060002016BD80B501236A465F
S315080043B020210D48007800F096FC002801D0012045
S315080043C011E09DF8000050F080008DF800000123F0
S315080043D06A4620210448007800F028FC002801D00D
S315080043E0012000E0002002BDB00200200000F043DA
S315080043F000002A42002101E04008491CB0F5805F10
S31508004400FAD250EA013080B2704780B20105090D30
S3150800441080B2000B11FA00F0704738B50400002589
S315080044200020002C01D101204BE07E21882000F0DD
S31508004430D5FB45F24941884207D17F21882000F003
S31508004440CDFB43F20101884201D0012039E02078F2
S3150800445055EA0035608810F400600543A08810F41A
S31508004460C0600543A07910F010000543E07910F00C
S3150800447008000543207A10F0030005432A0092B28B
S315080044800121882000F098FBC0B2002801D0C0B2F4
S3150800449017E0E068FFF7AEFF020092B2022188201B
S315080044A000F08AFBC0B2002801D0C0B209E020693A
S315080044B0FFF7A0FF020092B20321882000F07CFBE0
S315080044C0C0B232BD80B50021882000F087FB80B2DB
S315080044D04FF6FF71884201D180B202E080B2FFF741
S315080044E094FF02BD00B59BB00121DFF8340503F047
S315080044F042FC01214FF4017003F02DFC0121032039
S3150800450003F019FC012003F0A1FB0E220521DFF8B8
S31508004510140503F0C3FC01220321DFF80C0503F0A0
S31508004520BDFC0E220421DFF8000503F0B7FC0222C9
S315080045300121DFF8F00403F0B1FC0E220021DFF8B8
S31508004540E40403F0ABFC0420009001208DF804007D
S3150800455000208DF8060000208DF8070001208DF850
S3150800456005006946DFF8C00403F03CFC012204217B
S31508004570DFF8B40403F08BFC0820009002208DF8C5
S31508004580040001208DF8060000208DF807000120A0
S315080045908DF805006946DFF8900403F023FC022035
S315080045A0009002208DF8040000208DF806000020F7
S315080045B08DF8070003208DF805006946DFF86404C6
S315080045C003F010FC2020009003208DF80400002042
S315080045D08DF8070001208DF805006946DFF84404C8
S315080045E003F000FC102000906946DFF83C0403F055
S315080045F0F9FB012000906946DFF8280403F0F2FB76
S315080046005FF0804004F03EF80020ADF8200000205E
S31508004610ADF81A000020ADF818004FF47A4007905C
S3150800462006A95FF0804003F037FF0820ADF85C006C
S315080046300020ADF85E000220ADF8600017A95FF013
S31508004640804003F0AFFF7020ADF80C000020ADF8F5
S3150800465014000120ADF80E000020049003A95FF0B5
S31508004660804003F07CFF4FF4A0715FF0804003F0B8
S3150800467097FF022013900020109000201190002030
S31508004680129010A9002004F073F80121002004F00C
S3150800469086F840F25C41002004F097F80020149058
S315080046A05FF4C01015900020169014A804F09EF828
S315080046B00121202004F0ACF80121DFF8700304F092
S315080046C0A7F81C208DF8080000208DF809000020A6
S315080046D08DF80A0001208DF80B0002A803F006FCED
S315080046E0012201215FF0804003F0BCFF01215FF049
S315080046F0804003F007FFDFF8380303F0C3FF00200C
S31508004700ADF820000020ADF81A000020ADF818001A
S315080047100020079006A9DFF8180303F0BDFE602005
S31508004720ADF80C000020ADF814000120ADF80E001D
S315080047300020049003A9BE4803F011FF0121BC48DC
S3150800474003F0E0FE5FF48030099009A804F0AFF8A2
S3150800475000208DF82D0000200E9000200D905FF0AF
S3150800476080500C9001208DF83C0000200A90002013
S315080047708DF82C000AA9AF4804F074F80523012225
S315080047800821AC4804F0B0F80121AA4804F099F8C9
S315080047904021A84804F061F90028F9D04FF4807147
S315080047A0A44804F05AF90128F8D0A34803F06AFF90
S315080047B00020ADF820000020ADF81A000120ADF861
S315080047C0180041F63F70079006A99B4803F064FE5F
S315080047D06020ADF80C000020ADF814000120ADF8FB
S315080047E00E000020049003A9934803F099FE4FF4A5
S315080047F0F051914803F0D2FE19208DF808000020E8
S315080048008DF8090000208DF80A0001208DF80B00AC
S3150800481002A803F06BFB01220121874803F022FF5F
S315080048200121854803F06EFE1BB000BD80B501214D
S315080048305FF0804003F022FF5FF0804003F0EAFE5D
S315080048407E4909687D4A126880B28018B0EBD1109B
S315080048507A4908607948006878494968774A526809
S3150800486012EBD010B0EB1120744948607348006809
S31508004870C00972494968B0EB11207049097A0029C4
S3150800488010D111281FDB01206C49087200206B49E2
S3150800489048816A48007B401C68490873022004F076
S315080048A0E7F810E065494989491C644A518163491A
S315080048B04989FA2907D3042805DA00205F490872CE
S315080048C0022004F0E1F85D48008C401C5B4908842E
S315080048D05A48008CB0F5FA7F36D300205749088429
S315080048E05648007B5549554A527E11444873002064
S315080048F0524908735148407E401C504948764F48F3
S31508004900407E0C2802DB00204C4948760020002116
S3150800491004E04A4A0A44527B1018491C0C29F8DB61
S31508004920002807D14548C069002802D05FF0FF304B
S3150800493000E000204149C969404AD2698018891CAB
S31508004940B0EB91003D49C86101BD10B501213A4857
S3150800495003F094FE3A480088962818DA354804F099
S3150800496079F83749364A128801EB82014968344A90
S31508004970334B1B8802EB8302526880B28018B0EB77
S3150800498011102F492E4A128801EB820148602C48E3
S315080049900088401C2A49088029480088962818DB80
S315080049A0002027490880002000210DE0244A02EB58
S315080049B081025268904206D2214800EB8100406885
S315080049C01F4AA2F85C12491C9629EFDB1C49A1F87C
S315080049D05E021C481A49098830F81140A4B2611EC3
S315080049E0134803F08DFDA4B2610889B2104803F09C
S315080049F0D7FD00210E4803F081FD10BD0F48C069A0
S31508004A00642148430C21B0FBF1F0800880B270475E
S31508004A100B48B0F85C0270470948B0F85E02704768
S31508004A20030000A0000402400000024000010080CC
S31508004A30000400400024014000080140D42700205B
S31508004A4008000020E0BA0008024600E0521C13786D
S31508004A50002BFBD111F8013B137012F8013B002B18
S31508004A60F8D1704730B585B000248020009000202A
S31508004A708DF8040000208DF8070001208DF8050048
S31508004A806946DFF8540403F0ADF901F087F94020D0
S31508004A90009001208DF8040000208DF80700012001
S31508004AA08DF805006946DFF8300403F09BF901F03C
S31508004AB07CF9002503E0012401F077F96D1C052D2A
S31508004AC025DA2A00DFF8141402A8FEF719FA02A854
S31508004AD0FEF7E0FB00240AE0092003F0D5FF01F009
S31508004AE05DF9092003F0C4FF01F058F9641C142C81
S31508004AF0F2DB092003F0C8FF01F057F98021DFF83F
S31508004B00D80303F0F7FF0028D5D0002001E02000E5
S31508004B10C0B205B030BD1CB50024C02000900020EE
S31508004B208DF8040000208DF8070001208DF8050097
S31508004B306946DFF8A40303F055F901F036F9402178
S31508004B40DFF8940303F0D6FF002814D103210520CB
S31508004B5003F0F5FA0021032001F0C8F901248021A9
S31508004B60DFF8740303F0C6FF00281AD103210620D4
S31508004B7003F0E5FA15E08021DFF85C0303F0BAFFDD
S31508004B80002809D10321062003F0D9FA00210320C1
S31508004B9001F0ACF9012404E00121032001F0A6F993
S31508004BA000242000C0B216BD04B501236A46C9B266
S31508004BB0C0B200F03BF802BD80B5ADF800209DF804
S31508004BC000209DF801308DF800308DF80120022371
S31508004BD06A46C9B2C0B200F029F802BD80B5022300
S31508004BE06A46C9B2C0B200F07EF800280AD19DF81C
S31508004BF000009DF801108DF800108DF80100BDF831
S31508004C00000001E04FF6FF7002BD38B504004FF40E
S31508004C1020452100B24804F042F8012804D06D1E50
S31508004C20002DF6D1032000E0002032BDF8B50400BF
S31508004C300D0016001F00AB480078002851D101204E
S31508004C40A8490870032003F013FF0121A44803F0C4
S31508004C50EBFFA548FFF7D9FF032804D10020A14997
S31508004C60087003203EE000222100C9B29C4804F0E7
S31508004C7005F89E48FFF7C9FF032804D10020994983
S31508004C80087003202EE02900C9B2954804F001F8FF
S31508004C909748FFF7BAFF032804D100209149087006
S31508004CA003201FE0BFB2002F0FD031788C4803F0E5
S31508004CB0F0FF761C7F1E8F48FFF7A7FF0328F1D168
S31508004CC000208849087003200CE00121844803F07D
S31508004CD0B9FF032003F0D8FE00208249087000209F
S31508004CE000E00220F2BDF8B504000D0016001F0012
S31508004CF08148007800287AD101207F49087003206E
S31508004D0003F0B6FE0121764803F08EFF7648FFF7DA
S31508004D107CFF032804D1002077490870032067E048
S31508004D2000222100C9B26E4803F0A8FF6F48FFF7BA
S31508004D306CFF032804D100206F490870032057E050
S31508004D402900C9B2664803F0A4FF6A48FFF75DFF69
S31508004D50032804D1002068490870032048E001218F
S31508004D605F4803F061FF6048FFF74FFF032804D14F
S31508004D7000206149087003203AE001222100C9B2E7
S31508004D80574803F07BFF5D48FFF73FFF03280AD12A
S31508004D9000205949087003202AE0514803F07CFF97
S31508004DA03070761C7F1EBFB2002F10D0BFB2012F05
S31508004DB003D100214A4803F053FF5148FFF725FF66
S31508004DC00328EAD100204C490870032010E001218D
S31508004DD0434803F037FF0121414803F041FF032010
S31508004DE003F052FE002044490870002000E002202B
S31508004DF0F2BD00B587B001215FF4001002F0BBFFD9
S31508004E000121022002F097FF04220621324803F00E
S31508004E1045F804220721304803F040F8C0200090E6
S31508004E2002208DF8040001208DF8060001208DF877
S31508004E30070001208DF805006946274802F0D2FFD1
S31508004E4044F6206002900020ADF80C004BF6FF7087
S31508004E50ADF80E000020ADF810004FF48060ADF8F4
S31508004E6012004FF48040ADF8140002A91C4803F064
S31508004E7065FE01211A4803F0C9FE002007B000BDEF
S31508004E8000B583B0164803F03FFE4020009000208E
S31508004E908DF8040000208DF8060000208DF8070024
S31508004EA001208DF8050069460B4802F09BFF80201B
S31508004EB0009000208DF8040000208DF806000020E0
S31508004EC08DF8070001208DF805006946024802F0B2
S31508004ED089FF00200EBD00000004024074E20008AD
S31508004EE000540040D5280020010003008200070076
S31508004EF08000070084000700D6280020020003006F
S31508004F00400003000DB400B582B004A800900A461C
S31508004F106B4603A9034878440A3003F0F3FE06BC3F
S31508004F205DF810FB7BDFFFFF10B401E0491C521E41
S31508004F306AB10B7804789C4205D010BC2CBF0120BE
S31508004F404FF0FF30704710F8013B002BEED110BC34
S31508004F5000207047BFF34F8FDFF88C04006810F409
S31508004F60E060DFF888140843DFF87C140860BFF3B4
S31508004F704F8F00BFFDE700B587B0DFF874040490D3
S31508004F805FF08140059008208DF8180010208DF8F4
S31508004F90190020208DF81A00DFF854040190DFF874
S31508004FA05404029008208DF80C0010208DF80D008E
S31508004FB020208DF80E0001A801F078FA002801D00B
S31508004FC0012013E010208DF8000000208DF8010064
S31508004FD000208DF8020060208DF80300684601F075
S31508004FE0B7FD002801D0012000E0002007B000BD71
S31508004FF0E0B500208DF8080002A801F08FFA68468F
S3150800500001F0ECFA00281AD100200FE0694631F9C0
S3150800501010104FF47A62514348F2120291FBF2F1F2
S31508005020DFF8942D02EB40025180401C0328EDDB8B
S31508005030684601F00EFB00281CD1002011E0012073
S315080050402FE0694631F9101041F28832514346F68D
S315080050509B7291FBF2F1DFF8602D02EB40021181A1
S31508005060401C0328EDDB684601F0E6FD002817D151
S31508005070002011E0012014E0694631F910104FF4C0
S315080050807A62514346F6E82291FBF2F1DFF8282DC1
S3150800509002EB4002D181401C0328EDDB002000E032
S315080050A001200EBD00B587B020208DF80000012034
S315080050B08DF8010008208DF8020000208DF8030005
S315080050C000208DF8040000208DF805006846FFF7DB
S315080050D083F8002801D001201AE000208DF8080086
S315080050E000208DF8090000208DF80A0000208DF8B0
S315080050F00B00002003900020049002208DF8140075
S3150800510002A804F09FFB002801D0012000E000203F
S3150800511007B000BD80B56846FFF730F9002809D109
S315080051200099B34803F00AF904F0E6FBDFF8881C97
S31508005130888209E004F0D3FBAD4903F0FFF804F0D8
S31508005140DBFBDFF8741C88826846FFF7E9F800285D
S315080051500AD10099A64803F0F1F804F0CDFBDFF870
S31508005160581CC882002000E0012002BD00B585B0A9
S315080051700C208DF800000020ADF802004FF4806086
S31508005180ADF8040000208DF8060000208DF8070011
S3150800519000208DF80800002003905FF0FF3004908F
S315080051A06846FFF73AF905B000BD00B585B001219C
S315080051B0102002F0E0FD4FF4FA40ADF8040001F0CB
S315080051C0DEF864214843029001A9DFF8600D03F078
S315080051D063F92B208DF8000000208DF801000020CF
S315080051E08DF8020001208DF80300684602F07EFE65
S315080051F001220121DFF8340D03F034FA0121DFF82A
S315080052002C0D03F07FF905B000BDE0B50021DFF8ED
S315080052101C0D03F077F94FF4FA40ADF8000001F0E1
S31508005220AEF86421484301906946DFF8000D03F0A3
S3150800523033F90121DFF8F40C03F064F907BD80B5F2
S31508005240FFF7DCFBDFF8701B8883FFF7E1FBDFF86D
S31508005250681BC883FFF7E0FBDFF85C1B088401BD09
S315080052600120DFF8CC1C4870DFF85C0CDFF8C01CA6
S315080052704880DFF8540CDFF8B81C0881DFF8480CC2
S31508005280DFF8AC1CC881DFF8400CDFF8A41C888264
S31508005290DFF8340CDFF8981CC882DFF82C0CDFF82E
S315080052A0901C88614FF6FF70DFF8841C88834FF6E0
S315080052B0FF70DFF87C1CC883704780B50120DFF8D3
S315080052C0701C4870FFF7CCFF0020DFF81C1C4872E2
S315080052D00020DFF8141C08600020DFF80C1C88800A
S315080052E00020DFF8041CC8800020DFF8FC1B0872C9
S315080052F05FF0FF30DFF8381C48805FF0FF30DFF8DA
S31508005300301C08815FF0FF30DFF8241CC8815FF08D
S31508005310FF30DFF81C1C88825FF0FF30DFF8101CB6
S31508005320C8824FF6FF70DFF8081C88614FF6FF70D9
S31508005330DFF8FC1B88834FF6FF70DFF8F41BC88381
S31508005340FFF757FDFFF717FEC0B2002804D1012169
S31508005350002000F0CBFD07E005210A2002F0EFFE51
S315080053600021002000F0C2FDFFF79CFEC0B2002815
S3150800537004D10121022000F0B9FD07E00521032030
S3150800538002F0DDFE0021022000F0B0FDFFF7EEFE80
S31508005390C0B2002804D10121012000F0A7FD07E0D2
S315080053A005210B2002F0CBFE0021012000F09EFD16
S315080053B0FFF798F8FFF7F9FE01BD0020DFF8DC1CBF
S315080053C008707047DFF8D40C0078704780B5012163
S315080053D0DFF8580B03F052F90120DFF8C01C0870FB
S315080053E000F04EFE01BD00000CED00E00400FA05D9
S315080053F0000020410000FA4370B5BCB0DFF8300B5E
S31508005400007800281DD1FEF7E9F9002819D0FEF723
S31508005410EAF9002815D0DFF8880C0068401CDFF888
S31508005420801C0860DFF8780C0068DFF8781C884272
S315080054300BD30521132002F082FE132000F0D3FCC3
S3150800544003E00020DFF8581C0860DFF8E40A00785B
S3150800545000284AD0FEF7C2F9002846D0FEF7C3F95D
S31508005460002842D0FEF7C9F900283ED0DFF8780AAE
S31508005470007A401CDFF8701A0872DFF86C0A027AA4
S31508005480DFF8241C18A8FDF73BFD18A8FDF702FF56
S3150800549000F07BFFDFF8501A097A814221D3DFF842
S315080054A00C0CFDF7F7FE0020DFF83C1A0872DFF84F
S315080054B0881C18A8FDF724FD18A8FDF7EBFE18A808
S315080054C0FDF7D2FC18A9FEF769FA0020FEF79FF946
S315080054D00120FEF797F900F09DFE00F049FF00F065
S315080054E000FF0020DFF8481A0870DFF8440A007841
S315080054F0002800F05184FEF771F9002800F04C846A
