S0100000536B7950617463682E73726563ED
S31508000000B00A002019D40008CDD60008996B00085C
S31508000010AF6B0008D1D60008C56B000800000000C9
S31508000020000000000000000000000000D5D600080F
S31508000030D9D6000800000000DDD60008E1D6000881
S315080000404F5A0008E5D60008E9D60008EDD600089C
S31508000050F1D60008F5D60008F9D60008FDD600083E
S3150800006001D7000805D7000809D700080DD70008EA
S3150800007011D7000815D7000819D700081DD700089A
S3150800008021D7000825D7000829D700082DD700084A
S3150800009031D7000835D7000839D700083DD70008FA
S315080000A041D700083344000845D7000849D7000857
S315080000B0154300084DD7000851D7000855D7000842
S315080000C059D700085DD7000861D7000865D700082A
S315080000D069D70008252B00086DD700087934000871
S315080000E071D7000875D7000879D70008A54D00080C
S315080000F07DD700080022284904E003780B70491CC4
S31508000100521C401C0378002B07D00378082BF4D127
S31508000110012AF6DB491E521EF3E700200870491C27
S315080001201D48704701201D4981F8280000207047A6
S3150800013010B50400194890F82800022801D10220B9
S3150800014016E0164890F82800002801D101200FE093
S31508000150200002F069FC282801D3012008E02100CC
S315080001600E4802F08BFC02200C4981F8280000207A
S3150800017010BD80B5094890F82800022809D1012148
S31508000180064800F00DF80121044A82F82810C0B28A
S3150800019000E0002002BD0000B82400202024002032
S315080001A02DE9F047C4B007000C00380002F03CFC0B
S315080001B08146DFF8F40D007800281ED038781B2811
S315080001C012D10020DFF8E01D0870DFF8E01D06A850
S315080001D002F054FC06A802F023FE0600F6B2002E32
S315080001E006D03000C0B205E03900012003F09CF9C2
S315080001F03000C0B244B0BDE8F0873878302819D04E
S31508000200312800F09780322800F01481412800F048
S315080002109181432800F04582442800F084824728CB
S3150800022000F0C781482800F00382542800F0E782CE
S3150800023002F07FBA02F01AFB0600F6B2002E77D15A
S31508000240E4B2002C0AD0DFF8DC1D06A802F016FC82
S3150800025006A802F0E9FB06A903F066F9DFF8C81D4F
S3150800026006A802F00BFC06A802F0DAFD0600F6B2B4
S31508000270002E02D03000C0B2BCE7DFF8B00DB0F9EE
S31508000280000003F031FC0100002003F090FC03F0AD
S31508000290DBFCCDE90001DFF8940DB0F90020DFF8AA
S315080002A0041E06A803F0F8FC06A802F0B9FD06002D
S315080002B0F6B2002E02D03000C0B29BE7DFF86C0D14
S315080002C0B0F9020003F010FC0100012003F06FFCF6
S315080002D003F0BAFCCDE90001DFF8500DB0F90220B1
S315080002E0DFF8C41D06A803F0D7FC06A802F098FD9F
S315080002F00600F6B2002E02D03000C0B27AE7DFF868
S315080003002C0DB0F9040003F0EFFB0100022003F006
S315080003104EFC03F099FCCDE90001DFF8100DB0F9A9
S315080003200420DFF8FC1D06A803F0B6FC02F012BA9A
S3150800033002F010BA02F09AFA0600F6B2002E77D149
S31508000340E4B2002C0AD0DFF8DC1C06A802F096FB03
S3150800035006A802F069FB06A903F0E6F8DFF8C41D53
S3150800036006A802F08BFB06A802F05AFD0600F6B2B4
S31508000370002E02D03000C0B23CE7DFF8B00CB0F96E
S31508000380060003F0B1FB0100032003F010FC03F0A4
S315080003905BFCCDE90001DFF8940CB0F90620DFF824
S315080003A0FC1D06A803F078FC06A802F039FD060035
S315080003B0F6B2002E02D03000C0B21BE7DFF86C0C94
S315080003C0B0F9080003F090FB0100042003F0EFFBEE
S315080003D003F03AFCCDE90001DFF8500CB0F908202B
S315080003E0DFF8BC1D06A803F057FC06A802F018FDA6
S315080003F00600F6B2002E02D03000C0B2FAE6DFF8E8
S315080004002C0CB0F90A0003F06FFB0100052003F07D
S31508000410CEFB03F019FCCDE90001DFF8100CB0F9AA
S315080004200A20DFF8F41D06A803F036FC02F092B99C
S3150800043002F090B902F01AFA0600F6B2002E77D149
S31508000440E4B2002C0AD0DFF8DC1B06A802F016FB83
S3150800045006A802F0E9FA06A903F066F8DFF8BC1D5B
S3150800046006A802F00BFB06A802F0DAFC0600F6B2B4
S31508000470002E02D03000C0B2BCE6DFF8B00BB0F9EF
S315080004800C0003F031FB0100062003F090FB03F09B
S31508000490DBFBCDE90001DFF8940BB0F90C20DFF89F
S315080004A0F41D06A803F0F8FB06A802F0B9FC06003E
S315080004B0F6B2002E02D03000C0B29BE6DFF86C0B15
S315080004C0B0F90E0003F010FB0100072003F06FFBE4
S315080004D003F0BAFBCDE90001DFF8500BB0F90E20A6
S315080004E0DFF8B41D06A803F0D7FB06A802F098FCAF
S315080004F00600F6B2002E02D03000C0B27AE6DFF867
S315080005002C0BB0F9100003F0EFFA0100082003F0F5
S315080005104EFB03F099FBCDE90001DFF8100BB0F9AB
S315080005201020DFF8EC1D06A803F0B6FB02F012B99E
S3150800053002F010B9DFF8DC0D03F06CFC0600F6B229
S31508000540002E34D1E4B2002C0AD0DFF8D81A06A857
S3150800055002F094FA06A802F067FA06A902F0E4FF88
S31508000560DFF8B41D06A802F089FA06A802F058FCBE
S315080005700600F6B2002E02D03000C0B23AE6DFF826
S31508000580940D01680A2003F012FB03F05DFBCDE928
S315080005900001DFF8800D006803F056FB02000B002F
S315080005A0DFF8EC1D06A803F077FB02F0D3B802F0DB
S315080005B0D1B8DFF8600D03F05BFC0600F6B2002E3A
S315080005C034D1E4B2002C0AD0DFF8581A06A802F093
S315080005D055FA06A802F028FA06A902F0A5FFDFF8E0
S315080005E0B41D06A802F04AFA06A802F019FC06008D
S315080005F0F6B2002E02D03000C0B2FBE5DFF8140DCB
S315080006000168092003F0D3FA03F01EFBCDE90001C7
S31508000610DFF8000D006803F017FB02000B00DFF897
S31508000620781D06A803F038FB02F094B802F092B8D9
S3150800063003F0C2FCDFF8001E0860E4B2002C0AD002
S31508000640DFF8E01906A802F019FA06A802F0ECF994
S3150800065006A902F069FFDFF8E41D06A802F00EFA03
S3150800066006A802F0DDFB0600F6B2002E02D0300026
S31508000670C0B2BFE5DFF8C00D006803F035FA010027
S315080006800B2003F094FA03F0DFFACDE90001DFF856
S31508000690A80D0268DFF8FC1D06A803F0FDFA02F0B3
S315080006A059B803F01FFFDFF8F01D0880E4B2002CEC
S315080006B00AD0DFF8701906A802F0E0F906A802F0D9
S315080006C0B3F906A902F030FFDFF8D01D06A802F03C
S315080006D0D5F906A802F0A4FB0600F6B2002E02D051
S315080006E03000C0B286E5DFF8B00D008803F006FAE0
S315080006F001000C2003F05BFA03F0A6FACDE900012D
S31508000700DFF8940D0088642190FBF1F003F0ECF912
S3150800071003F09AFA02000B00DFF8E81D06A803F0BA
S31508000720BBFA02F017B803F0E7FEDFF86C1D488045
S3150800073003F0E6FEDFF8601D8880E4B2002C0AD0DC
S31508000740DFF8E01806A802F099F906A802F06CF995
S3150800075006A902F0E9FEDFF8B01D06A802F08EF938
S3150800076006A802F05DFB0600F6B2002E02D03000A5
S31508000770C0B23FE5DFF8941D06A802F07FF906A887
S3150800078002F04EFB0600F6B2002E02D03000C0B2D0
S3150800079030E5DFF8040D408803F0B0F901000D20BC
S315080007A003F005FA03F050FACDE90001DFF8E80C8A
S315080007B04288DFF85C1D06A803F06EFA06A802F068
S315080007C02FFB0600F6B2002E02D03000C0B211E5AB
S315080007D0DFF8C40C808803F091F901000E2003F0BD
S315080007E0E6F903F031FACDE90001DFF8AC0C8288AE
S315080007F0DFF80C1E06A803F04FFA01F0ABBF5FFA4C
S3150800080089F9B9F1020F06DADFF8F81D06A802F031
S3150800081035F901F08DBF7878432800F0F98144282E
S3150800082001F00A84462801F01F8749280DD04B2875
S3150800083001F042844C2801F02F87522801F01784D2
S31508000840552801F0A78601F062BFDFF8BC1D06A88F
S3150800085002F014F95FFA89F9B9F1090F13DAE4B26B
S31508000860002C0AD0DFF8BC1706A802F007F906A87C
S3150800087002F0DAF806A902F057FEDFF8241E06A8E9
S3150800088002F0FCF8C2E1B878522800F0BD8053287F
S3150800089040F0B781F8783A2802D1B8792E2813D0D3
S315080008A0E4B2002C0AD0DFF87C1706A802F0E6F8B6
S315080008B006A802F0B9F806A902F036FEDFF8E41D2C
S315080008C006A802F0DBF89EE0E4B2002C0AD0DFF8B6
S315080008D0541706A802F0D2F806A802F0A5F806A949
S315080008E002F022FE97F904008DF8900097F90500AA
S315080008F08DF8910000208DF8920024A801F06CFF75
S31508000900002805D1DFF8301E06A802F0B7F87AE00D
S3150800091024A801F07DFF040097F907008DF89000E0
S3150800092097F908008DF8910000208DF8920024A808
S3150800093001F052FF002805D1DFF8001E06A802F0D4
S315080009409DF860E024A801F063FF8146B9F1000F25
S3150800095006D12200DFF8E81D06A803F09DF92AE073
S315080009605FF00008002505E024A801F051FF2FA933
S3150800097048556D1C4D451EDA032000FB05F038442A
S3150800098090F90A008DF89000032000FB05F0384422
S3150800099090F90B008DF8910000208DF8920024A89C
S315080009A001F01AFF0028DFD1DFF88C1D06A802F037
S315080009B065F85FF00108B8F1000F05D12200DFF8ED
S315080009C0141E06A803F068F900250AE02FA8425D60
S315080009D0BFA124A803F060F924A906A803F0A8FD7E
S315080009E06D1C4D45F2DBBBA106A803F0A1FDB9F1CC
S315080009F001039BB20DF1BD029DF8BC102000C0B2E8
S31508000A0003F02DFE060001E1F8783A2805D1B879F9
S31508000A102E2802D1787A2E2813D0E4B2002C0AD0D8
S31508000A20DFF8001606A802F029F806A801F0FCFF70
S31508000A3006A902F079FDDFF8301E06A802F01EF8B6
S31508000A40DEE0E4B2002C0AD0DFF8D81506A802F0DA
S31508000A5015F806A801F0E8FF06A902F065FD97F962
S31508000A6004008DF8900097F905008DF89100002094
S31508000A708DF8920024A801F0AFFE002805D1DFF812
S31508000A80EC1D06A801F0FAFFBAE024A801F0C0FEA2
S31508000A90040097F907008DF8900097F908008DF87B
S31508000AA0910000208DF8920024A801F095FE0028F8
S31508000AB005D1DFF84C1E06A801F0E0FFA0E024A847
S31508000AC001F0A6FE814697F90A008DF8900097F97D
S31508000AD00B008DF8910000208DF8920024A801F0F3
S31508000AE07BFE002805D1DFF81C1E06A801F0C6FF0C
S31508000AF086E024A801F08CFE8246B9F1000F06D1E3
S31508000B002200DFF8041E06A803F0C6F82AE05FF004
S31508000B100008002505E024A801F07AFE2FA948550B
S31508000B206D1C4D451EDA032000FB05F0384490F98C
S31508000B300D008DF89000032000FB05F0384490F96D
S31508000B400E008DF8910000208DF8920024A801F07F
S31508000B5043FE0028DFD1DFF8441E06A801F08EFF09
S31508000B605FF00108B8F1000F05D12200DFF8301E4A
S31508000B7006A803F091F800250AE02FA8425D54A1C3
S31508000B8024A803F089F824A906A803F0D1FC6D1C53
S31508000B904D45F2DB4FA106A803F0CAFC9DF8BC1030
S31508000BA0504603009BB22FAAC9B22000C0B203F078
S31508000BB0B3FD0600F6B2002E22D106A802F030F9DF
S31508000BC00600F6B2002E03D03000C0B2FFF712BB03
S31508000BD0DFF8D01D06A803F05FF800250AE02FA865
S31508000BE0425D3BA124A803F057F824A906A803F000
S31508000BF09FFC6D1C5545F2DB36A106A803F098FC50
S31508000C0004E0DFF8341E06A801F038FF01F090BDB5
S31508000C100026DFF8281E06A801F030FF5FFA89F9DA
S31508000C20B9F1020F14D1E4B2002C0AD0DFF8F4139C
S31508000C3006A801F023FF06A801F0F6FE06A902F0B1
S31508000C4073FCDFF8FC1D06A803F026F801F0EBB9E3
S31508000C50B878492801F0BA81522800F0218453282F
S31508000C6004D0542801F03E8101F0DDB9F8783A281D
S31508000C7014D0E4B2002C0AD0DFF8581E06A801F0FA
S31508000C80FDFE06A801F0D0FE06A902F04DFCDFF82D
S31508000C90481E06A801F0F2FE00F0FABB5FFA89F9D1
S31508000CA0B9F1050F18DAE4B2002C0AD0DFF82C1EC9
S31508000CB006A801F0E3FE06A801F0B6FE06A902F0B2
S31508000CC033FCDFF81C1E06A801F0D8FEE0E300BFDF
S31508000CD025782E000D0A00003D1D29002AA801F0DE
S31508000CE0CDFE002005900020049004A8009005ABD6
S31508000CF027AADFF8F01D2AA803F0F0FD032840F024
S31508000D00B483049802F0A0FFCDE90201059802F029
S31508000D109BFFCDE9000127AADFF85C1E06A802F0B2
S31508000D20BBFF0522DFF8541E27A803F0E9FD0028BB
S31508000D3030D1059A0499002002F04CFF0600F6B25D
S31508000D40002E13D1E4B2002C0AD0DFF8341E06A810
S31508000D5001F094FE06A801F067FE06A902F0E4FB7E
S31508000D60DFF8201E06A802F097FF7CE3E4B2002C09
S31508000D700AD0DFF8141E06A801F080FE06A801F0C6
S31508000D8053FE06A902F0D0FBDFF8001E06A802F003
S31508000D9083FF68E30522DFF8F81D27A803F0B0FDF6
S31508000DA0002830D1059A0499012002F013FF0600A5
S31508000DB0F6B2002E13D1E4B2002C0AD0DFF8641E76
S31508000DC006A801F05BFE06A801F02EFE06A902F0B1
S31508000DD0ABFBDFF8541E06A802F05EFF43E3E4B25D
S31508000DE0002C0AD0DFF8441E06A801F047FE06A824
S31508000DF001F01AFE06A902F097FBDFF8901D06A877
S31508000E0002F04AFF2FE30522DFF8241E27A803F085
S31508000E1077FD002830D1059A0499022002F0DAFEFF
S31508000E200600F6B2002E13D1E4B2002C0AD0DFF881
S31508000E30041E06A801F022FE06A801F0F5FD06A983
S31508000E4002F072FBDFF8801E06A802F025FF0AE30F
S31508000E50E4B2002C0AD0DFF8741E06A801F00EFED4
S31508000E6006A801F0E1FD06A902F05EFBDFF81C1DED
S31508000E7006A802F011FFF6E20522DFF8541E27A89D
S31508000E8003F03EFD002830D1059A0499032002F0AC
S31508000E90A1FE0600F6B2002E13D1E4B2002C0AD049
S31508000EA0DFF8301E06A801F0E9FD06A801F0BCFD32
S31508000EB006A902F039FBDFF8201E06A802F0ECFEB0
S31508000EC0D1E2E4B2002C0AD0DFF8101E06A801F021
S31508000ED0D5FD06A801F0A8FD06A902F025FBDFF856
S31508000EE0AC1C06A802F0D8FEBDE20522DFF8801E7B
S31508000EF027A803F005FD002830D1059A0499042097
S31508000F0002F068FE0600F6B2002E13D1E4B2002CF9
S31508000F100AD0DFF8601E06A801F0B0FD06A801F0A9
S31508000F2083FD06A902F000FBDFF84C1E06A802F0B6
S31508000F30B3FE98E2E4B2002C0AD0DFF8401E06A8F9
S31508000F4001F09CFD06A801F06FFD06A902F0ECFA77
S31508000F50DFF8381C06A802F09FFE84E20522DFF8B7
S31508000F60201E27A803F0CCFC002835D1059A049941
S31508000F70052002F02FFE0600F6B2002E18D1E4B2C4
S31508000F80002C0AD0DFF88C1E06A801F077FD06A80B
S31508000F9001F04AFD06A902F0C7FADFF87C1E06A88A
S31508000FA002F07AFE5FE200BFB125002028B40008EF
S31508000FB0E4B2002C0AD0DFF8641E06A801F05EFD34
S31508000FC006A801F031FD06A902F0AEFADFF8BC1B4F
S31508000FD006A802F061FE46E20522DFF8441E27A8AD
S31508000FE003F08EFC002837D1059A0499062002F0F2
S31508000FF0F1FD0600F6B2002E1AD1E4B2002C0AD092
S31508001000DFF8201E06A801F039FD06A801F00CFD40
S3150800101006A902F089FADFF8B81E06A802F03CFE17
S3150800102021E200BFA8C60008C8C600083825002067
S31508001030E4B2002C0AD0DFF89C1E06A801F01EFDBB
S3150800104006A801F0F1FC06A902F06EFADFF83C1BCF
S3150800105006A802F021FE06E20522DFF8B81E27A838
S3150800106003F04EFC002835D1059A0499072002F0B2
S31508001070B1FD0600F6B2002E18D1E4B2002C0AD053
S31508001080DFF8941E06A801F0F9FC06A801F0CCFCCE
S3150800109006A902F049FADFF8B81E06A802F0FCFD18
S315080010A0E1E100BF20BE000844BE0008E4B2002CFF
S315080010B00AD0DFF8A01E06A801F0E0FC06A801F099
S315080010C0B3FC06A902F030FADFF8C01A06A802F047
S315080010D0E3FDC8E10522DFF8801E27A803F010FC0F
S315080010E0002835D1059A0499082002F073FD0600F8
S315080010F0F6B2002E18D1E4B2002C0AD0DFF85C1E36
S3150800110006A801F0BBFC06A801F08EFC06A902F0B1
S315080011100BFADFF84C1E06A802F0BEFDA3E100BFDD
S3150800112068BE000878D30008E4B2002C0AD0DFF8BD
S31508001130341E06A801F0A2FC06A801F075FC06A953
S3150800114002F0F2F9DFF8441A06A802F0A5FD8AE1D2
S315080011500422DFF8A81E27A803F0D2FB002835D101
S31508001160059A0499092002F035FD0600F6B2002E0C
S3150800117018D1E4B2002C0AD0DFF8AC1E06A801F09C
S315080011807DFC06A801F050FC06A902F0CDF9DFF8AF
S315080011909C1E06A802F080FD65E100BF8CBE000813
S315080011A0B0BE0008E4B2002C0AD0DFF8841E06A8F8
S315080011B001F064FC06A801F037FC06A902F0B4F9B0
S315080011C0DFF8C81906A802F067FD4CE10422DFF82B
S315080011D0641E27A803F094FB002835D1059A0499C4
S315080011E00A2002F0F7FC0600F6B2002E18D1E4B287
S315080011F0002C0AD0DFF8B41E06A801F03FFC06A8AA
S3150800120001F012FC06A902F08FF9DFF8A41E06A861
S3150800121002F042FD27E100BFD4BE0008A4CB0008B7
S31508001220E4B2002C0AD0DFF88C1E06A801F026FCD2
S3150800123006A801F0F9FB06A902F076F9DFF84C19C1
S3150800124006A802F029FD0EE10422DFF8A01E27A851
S3150800125003F056FB002835D1059A04990B2002F0B5
S31508001260B9FC0600F6B2002E18D1E4B2002C0AD05A
S31508001270DFF87C1E06A801F001FC06A801F0D4FBE5
S3150800128006A902F051F9DFF86C1E06A802F004FD63
S31508001290E9E000BFF8BE00081CBF0008E4B2002C55
S315080012A00AD0DFF8541E06A801F0E8FB06A801F0EC
S315080012B0BBFB06A902F038F9DFF8D01806A802F039
S315080012C0EBFCD0E00422DFF8841E27A803F018FB05
S315080012D0002837D1059A04990C2002F07BFC0600F9
S315080012E0F6B2002E1AD1E4B2002C0AD0DFF8601E3E
S315080012F006A801F0C3FB06A801F096FB06A902F0B2
S3150800130013F9DFF8501E06A802F0C6FCABE000BFD2
S3150800131040BF0008A0250020B4D00008E4B2002C85
S315080013200AD0DFF8341E06A801F0A8FB06A801F0CB
S315080013307BFB06A902F0F8F8DFF8501806A802F0B9
S31508001340ABFC90E00522DFF8141E27A803F0D8FAB4
S31508001350002837D1059A04990D2002F03BFC0600B7
S31508001360F6B2002E1AD1E4B2002C0AD0DFF8F01D2E
S3150800137006A801F083FB06A801F056FB06A902F0B1
S31508001380D3F8DFF8E01D06A802F086FC6BE000BF84
S3150800139064BF0008CCD0000888BF0008E4B2002C5F
S315080013A00AD0DFF8C41D06A801F068FB06A801F0FC
S315080013B03BFB06A902F0B8F8DFF8D01706A802F03A
S315080013C06BFC50E00522DFF89C1E27A803F098FA6C
S315080013D0002835D1059A04990E2002F0FBFB060079
S315080013E0F6B2002E13D1E4B2002C0AD0DFF8781E2C
S315080013F006A801F043FB06A801F016FB06A902F0B1
S3150800140093F8DFF8681E06A802F046FC2BE0E4B263
S31508001410002C0AD0DFF8581E06A801F02FFB06A8F4
S3150800142001F002FB06A902F07FF8DFF8601706A8AC
S3150800143002F032FC17E000BF9C250020E8C6000831
S31508001440E4B2002C0AD0DFF8881E06A801F016FBC5
S3150800145006A801F0E9FA06A902F066F8DFF8741E94
S3150800146006A802F019FC002612E0E4B2002C0AD005
S31508001470DFF8681606A801F001FB06A801F0D4FA01
S3150800148006A902F051F8DFF8941E06A801F0F6FA4C
S3150800149000F0C9BD60B900087025002008C700081B
S315080014A0E4B2002C0AD0DFF8781E06A801F0E6FAA6
S315080014B006A801F0B9FA06A902F036F802F0B6FB5A
S315080014C00200DFF8601E06A802F0E6FB06A801F097
S315080014D0A7FC0600F6B2002E03D03000C0B2FEF715
S315080014E089BEDFF8441E06A802F0D6FB06A801F05E
S315080014F097FC0600F6B2002E0CD03000C0B2FEF7FC
S3150800150079BE00BF88B90008E4D0000860B40008B6
S31508001510B0B90008002500E06D1C0F2D80F2DC84B0
S31508001520002D23D0022D00F0BF806FD3042D00F0CC
S315080015305381C0F00781062D00F0E881C0F098813C
S31508001540082D00F07F82C0F02F820A2D00F022833A
S31508001550C0F0CA820C2D00F0C383C0F06D830E2D37
S3150800156000F06284C0F00E8400F0A5BCE4B2002C42
S3150800157024D02800C0B202F048FB06002800C0B2FA
S3150800158002F049FB07002800C0B202F04AFB804679
S31508001590300002F059FBCDE90201380002F054FB95
S315080015A0CDE900014246DFF87C1E06A802F074FB6E
S315080015B006A801F039FA06A901F0B6FF2800C0B25C
S315080015C002F023FB06002800C0B202F024FB070045
S315080015D02800C0B202F025FB8046300002F034FB3A
S315080015E0CDE90201380002F02FFBCDE900014246A1
S315080015F0DFF86C1E06A802F04FFB00F05CBC00BFCB
S3150800160098B4000828C70008ACBF0008E4B2002C4C
S3150800161024D02800C0B202F0F8FA06002800C0B2AA
S3150800162002F0F9FA07002800C0B202F0FAFA80467A
S31508001630300002F009FBCDE90201380002F004FB94
S31508001640CDE900014246DFF81C1E06A802F024FB7D
S3150800165006A801F0E9F906A901F066FF2800C0B25C
S3150800166002F0D3FA06002800C0B202F0D4FA070046
S315080016702800C0B202F0D5FA8046300002F0E4FA3B
S31508001680CDE90201380002F0DFFACDE90001424651
S31508001690DFF8701E06A802F0FFFA00F00CBC00BFC7
S315080016A0D8B9000800BA0008E4B2002C24D02800F3
S315080016B0C0B202F0AAFA06002800C0B202F0ABFADD
S315080016C007002800C0B202F0ACFA8046300002F0EB
S315080016D0BBFACDE90201380002F0B6FACDE90001FD
S315080016E04246DFF8801E06A802F0D6FA06A801F0E0
S315080016F09BF906A901F018FF2800C0B202F085FA86
S3150800170006002800C0B202F086FA07002800C0B218
S3150800171002F087FA8046300002F096FACDE9020117
S31508001720380002F091FACDE900014246DFF8381E8A
S3150800173006A802F0B1FABEE3B4B6000808B5000878
S31508001740FCD00008E4B2002C24D02800C0B202F075
S315080017505CFA06002800C0B202F05DFA070028000D
S31508001760C0B202F05EFA8046300002F06DFACDE9AA
S315080017700201380002F068FACDE900014246DFF8B6
S31508001780481E06A802F088FA06A801F04DF906A92F
S3150800179001F0CAFE2800C0B202F037FA0600280097
S315080017A0C0B202F038FA07002800C0B202F039FACF
S315080017B08046300002F048FACDE90201380002F00E
S315080017C043FACDE900014246DFF83C1E06A802F0BE
S315080017D063FA70E38CD30008E4B2002C24D0280006
S315080017E0C0B202F012FA06002800C0B202F013FADC
S315080017F007002800C0B202F014FA8046300002F052
S3150800180023FACDE90201380002F01EFACDE90001FB
S315080018104246DFF8501E06A802F03EFA06A801F076
S3150800182003F906A901F080FE2800C0B202F0EDF91E
S3150800183006002800C0B202F0EEF907002800C0B280
S3150800184002F0EFF98046300002F0FEF9CDE9020118
S31508001850380002F0F9F9CDE900014246DFF8341EF6
S3150800186006A802F019FA26E328BA0008E0B6000826
S31508001870E4B2002C24D02800C0B202F0C6F9060053
S315080018802800C0B202F0C7F907002800C0B202F06B
S31508001890C8F98046300002F0D7F9CDE902013800D0
S315080018A002F0D2F9CDE900014246DFF8581E06A833
S315080018B002F0F2F906A801F0B7F806A901F034FE1D
S315080018C02800C0B202F0A1F906002800C0B202F052
S315080018D0A2F907002800C0B202F0A3F9804630003A
S315080018E002F0B2F9CDE90201380002F0ADF9CDE90E
S315080018F000014246DFF8101E06A802F0CDF9DAE22A
S315080019003CB50008ECB3000814D10008E4B2002C7A
S3150800191024D02800C0B202F078F906002800C0B228
S3150800192002F079F907002800C0B202F07AF9804679
S31508001930300002F089F9CDE90201380002F084F995
S31508001940CDE900014246DFF8341E06A802F0A4F9E4
S3150800195006A801F069F806A901F0E6FD2800C0B25C
S3150800196002F053F906002800C0B202F054F9070045
S315080019702800C0B202F055F98046300002F064F93A
S31508001980CDE90201380002F05FF9CDE900014246CF
S31508001990DFF8141E06A802F07FF98CE250BA000898
S315080019A0A0D30008A0D40008E4B2002C24D0280054
S315080019B0C0B202F02AF906002800C0B202F02BF9DC
S315080019C007002800C0B202F02CF98046300002F069
S315080019D03BF9CDE90201380002F036F9CDE90001FC
S315080019E04246DFF8E81D06A802F056F906A801F0F7
S315080019F01BF806A901F098FD2800C0B202F005F907
S31508001A0006002800C0B202F006F907002800C0B296
S31508001A1002F007F98046300002F016F9CDE9020116
S31508001A20380002F011F9CDE900014246DFF8A01DA1
S31508001A3006A802F031F93EE278BA00080CB70008A9
S31508001A40A0BA0008E4B2002C24D02800C0B202F0E4
S31508001A50DCF806002800C0B202F0DDF8070028000E
S31508001A60C0B202F0DEF88046300002F0EDF8CDE9AB
S31508001A700201380002F0E8F8CDE900014246DFF835
S31508001A80D01D06A802F008F906A800F0CDFF06A9A1
S31508001A9001F04AFD2800C0B202F0B7F80600280097
S31508001AA0C0B202F0B8F807002800C0B202F0B9F8D0
S31508001AB08046300002F0C8F8CDE90201380002F08D
S31508001AC0C3F8CDE900014246DFF8881D06A802F0F2
S31508001AD0E3F8F0E148C70008C8BA0008D0BF000814
S31508001AE0F4BF0008ACD40008E4B2002C24D02800C7
S31508001AF0C0B202F08AF806002800C0B202F08BF8DD
S31508001B0007002800C0B202F08CF88046300002F0C8
S31508001B109BF8CDE90201380002F096F8CDE90001FC
S31508001B204246DFF8341D06A802F0B6F806A800F00B
S31508001B307BFF06A901F0F8FC2800C0B202F065F8A0
S31508001B4006002800C0B202F066F807002800C0B2F6
S31508001B5002F067F88046300002F076F8CDE9020117
S31508001B60380002F071F8CDE900014246DFF8EC1CB6
S31508001B7006A802F091F89EE12CD100084CD6000880
S31508001B8068C7000818C000083CC00008C0CB000899
S31508001B9054D60008E4B2002C24D02800C0B202F0C3
S31508001BA034F806002800C0B202F035F8070028000D
S31508001BB0C0B202F036F88046300002F045F8CDE9AA
S31508001BC00201380002F040F8CDE900014246DFF88C
S31508001BD0041C06A802F060F806A800F025FF06A96E
S31508001BE001F0A2FC2800C0B202F00FF80600280097
S31508001BF0C0B202F010F807002800C0B202F011F8CF
S31508001C008046300002F020F8CDE90201380002F0E3
S31508001C101BF8CDE900014246DFF8441C06A802F08D
S31508001C203BF848E188C7000860C0000884C000087F
S31508001C305CD60008A8C70008E4B2002C24D0280007
S31508001C40C0B201F0E2FF06002800C0B201F0E3FFCF
S31508001C5007002800C0B201F0E4FF8046300001F01A
S31508001C60F3FFCDE90201380001F0EEFFCDE90001EE
S31508001C704246DFF8F01B06A802F00EF806A800F0A8
S31508001C80D3FE06A901F050FC2800C0B201F0BDFF42
S31508001C9006002800C0B201F0BEFF07002800C0B247
S31508001CA001F0BFFF8046300001F0CEFFCDE902010A
S31508001CB0380001F0C9FFCDE900014246DFF8A81B4C
S31508001CC006A801F0E9FFF6E0A8C00008CCC00008A5
S31508001CD064D60008C8C70008DCCB0008F0C00008B6
S31508001CE0E4B2002C24D02800C0B201F08EFF060012
S31508001CF02800C0B201F08FFF07002800C0B201F02B
S31508001D0090FF8046300001F09FFFCDE902013800C0
S31508001D1001F09AFFCDE900014246DFF8FC1B06A850
S31508001D2001F0BAFF06A800F07FFE06A901F0FCFB49
S31508001D302800C0B201F069FF06002800C0B201F011
S31508001D406AFF07002800C0B201F06BFF804630002A
S31508001D5001F07AFFCDE90201380001F075FFCDE9FF
S31508001D6000014246DFF8B41B06A801F095FFA2E081
S31508001D706CD60008E8C70008F8CB000814C10008AC
S31508001D8074D60008E4B2002C24D02800C0B201F0B2
S31508001D903CFF06002800C0B201F03DFF07002800FE
S31508001DA0C0B201F03EFF8046300001F04DFFCDE99C
S31508001DB00201380001F048FFCDE900014246DFF88C
S31508001DC0601B06A801F068FF06A800F02DFE06A90C
S31508001DD001F0AAFB2800C0B201F017FF0600280090
S31508001DE0C0B201F018FF07002800C0B201F019FFC1
S31508001DF08046300001F028FFCDE90201380001F0E5
S31508001E0023FFCDE900014246DFF8181B06A801F0BA
S31508001E1043FF50E008C8000814CC000838C1000881
S31508001E207CD6000828C80008E4B2002C24D0280074
S31508001E30C0B201F0EAFE06002800C0B201F0EBFECF
S31508001E4007002800C0B201F0ECFE8046300001F021
S31508001E50FBFECDE90201380001F0F6FECDE90001EE
S31508001E604246DFF8C41A06A801F016FF06A800F0D5
S31508001E70DBFD06A901F058FB2800C0B201F0C5FE3B
S31508001E8006002800C0B201F0C6FE07002800C0B24E
S31508001E9001F0C7FE8046300001F0D6FECDE902010A
S31508001EA0380001F0D1FECDE900014246DFF87C1A80
S31508001EB006A801F0F1FE06A800F0B2FF0600F6B289
S31508001EC0002E3FF429AB3000C0B2FEF793B900BF2D
S31508001ED05CC1000880C10008DFF8541A06A801F0A2
S31508001EE0DBFEA0E0F8783A2818D0E4B2002C0AD035
S31508001EF0DFF8401A06A800F0C1FD06A800F094FD18
S31508001F0006A901F011FBDFF8301A06A800F0B6FDA5
S31508001F105BE000BF84D6000848C800085FFA89F964
S31508001F20B9F1050F20DAE4B2002C0AD0DFF80C1A52
S31508001F3006A800F0A3FD06A800F076FD06A901F0A4
S31508001F40F3FADFF8FC1906A800F098FD3DE000BF9B
S31508001F50A4C10008C8C100088CD6000868C80008D3
S31508001F60ECC1000810C200083D1D29002AA800F08F
S31508001F7085FD280001F042FE0600F6B2002E11D0BB
S31508001F80E4B2002C0AD0DFF8BC1906A800F076FDEA
S31508001F9006A800F049FD06A901F0C6FA3000C0B24D
S31508001FA0FEF728B9E4B2002C0AD0DFF89C1906A877
S31508001FB000F064FD06A800F037FD06A901F0B4FAA2
S31508001FC0DFF86C1906A801F067FE2CE001F0BFFDEA
S31508001FD00600F6B2002E13D0E4B2002C0AD0DFF8C1
S31508001FE06C1906A800F04AFD06A800F01DFD06A912
S31508001FF001F09AFA3000C0B2FEF7FCB894D6000891
S31508002000E4B2002C0AD0DFF8481906A800F036FD1D
S3150800201006A800F009FD06A901F086FADFF81019EE
S3150800202006A801F039FE83E388C8000830CC00080A
S3150800203034C200089CD6000803F00FFC0500E4B281
S31508002040002C0CD0ADB22A00DFF8081906A801F05A
S3150800205023FE06A800F0E8FC06A901F065FAADB271
S315080020602A00DFF8F41806A801F016FE60E3E4B2C9
S31508002070002C0DD0DFF8E41806A800F0FFFC06A82F
S3150800208000F0D2FC06A901F04FFA012003F00CFB80
S31508002090DFF8CC1806A800F0F1FC002003F019FBC5
S315080020A0DFF8C01806A801F0F7FD41E358C200089A
S315080020B04CCC0008F0BA000800265FFA89F9B9F195
S315080020C0040F1BDAE4B2002C0AD0DFF89C1806A825
S315080020D000F0D4FC06A800F0A7FC06A901F024FA33
S315080020E0DFF8881806A800F0C9FC52E2A4D6000852
S315080020F07CC2000868CC000818BB0008B8785228CB
S3150800210000F0B281532840F03182F878422800F076
S315080021102381532803D0542800F08D809AE138791A
S315080021203A2823D0E4B2002C0AD0DFF8441806A8CF
S3150800213000F0A4FC06A800F077FC06A901F0F4F963
S31508002140DFF8301806A800F099FC73E0ACD6000852
S31508002150A0C2000838B7000840BB0008B4D600087B
S31508002160C4C2000864B7000868BB00085FFA89F9AA
S31508002170B9F1060F0FDB5FF0010805255FFA89F94B
S315080021804D450ADA785D03F041FC002801D15FF07D
S3150800219000086D1CF2E75FF00008B8F1000F13D1D4
S315080021A0E4B2002C0AD0DFF8D01706A800F066FCC7
S315080021B006A800F039FC06A901F0B6F9DFF8BC1745
S315080021C006A800F05BFC35E07D1D29002AA800F072
S315080021D055FC2AA803F01FFC011E42F21072914218
S315080021E013D3E4B2002C0AD0DFF88C1706A800F047
S315080021F045FC06A800F018FC06A901F095F9DFF8D9
S315080022007C1706A800F03AFC14E003F058FCE4B288
S31508002210002C0AD0DFF8681706A800F02FFC06A8DD
S3150800222000F002FC06A901F07FF9DFF8581706A8A6
S3150800223001F032FD13E138793A281BD0E4B2002CBC
S315080022400AD0DFF8441706A800F018FC06A800F024
S31508002250EBFB06A901F068F9DFF8301706A800F0CD
S315080022600DFC78E0BCD60008E8C2000890B7000864
S3150800227090BB00085FFA89F9B9F1060F0FDB5FF02A
S31508002280010805255FFA89F94D450ADA785D03F0F4
S31508002290BDFB002801D15FF000086D1CF2E75FF076
S315080022A00008B8F1000F17D1E4B2002C0AD0DFF805
S315080022B0E01606A800F0E2FB06A800F0B5FB06A9A2
S315080022C001F032F9DFF8CC1606A800F0D7FB42E099
S315080022D00CC30008A8C800087D1D29002AA800F01C
S315080022E0CDFB2AA803F097FB011E42F21072914219
S315080022F01CD3E4B2002C0AD0DFF8941606A800F026
S31508002300BDFB06A800F090FB06A901F00DF9DFF861
S315080023106C1606A800F0B2FB1DE000BFD4B5000895
S31508002320A8C60008C8C8000830C3000803F0F0FBB8
S31508002330E4B2002C0AD0DFF8601606A800F09EFB6F
S3150800234006A800F071FB06A901F0EEF8DFF83416CE
S3150800235006A801F0A1FC82E038793A2813D0E4B245
S31508002360002C0AD0DFF8341606A800F087FB06A86A
S3150800237000F05AFB06A901F0D7F8DFF8241606A8DC
S3150800238000F07CFB65E05FFA89F9B9F1060F0FDB0F
S315080023905FF0010805255FFA89F94D450ADA785D87
S315080023A003F034FB002801D15FF000086D1CF2E74A
S315080023B05FF00008B8F1000F13D1E4B2002C0AD080
S315080023C0DFF8E01506A800F059FB06A800F02CFB7C
S315080023D006A901F0A9F8DFF8D01506A800F04EFB0B
S315080023E037E07D1D29002AA800F048FB2AA803F03B
S315080023F012FB011EB1F57A7F16D3E4B2002C0AD07F
S31508002400DFF8A01506A800F039FB06A800F00CFBBB
S3150800241006A901F089F8DFF8901506A800F02EFB4A
S3150800242017E000BF84CC000803F081FBE4B2002C5F
S315080024300AD0DFF8781506A800F020FB06A800F0F9
S31508002440F3FA06A901F070F8DFF8381506A801F0C6
S3150800245023FC04E0DFF8581506A800F00FFB98E007
S31508002460A0CC0008BCCC0008F87842284CD05328E9
S3150800247002D054282CD061E0E4B2002C16D003F028
S315080024806BFB01F03BFBDFF82C1503F079FB01F041
S31508002490DBFB02000B00DFF8201506A801F0FCFBA9
S315080024A006A800F0C1FA06A901F03EF803F054FBAD
S315080024B001F024FBDFF8FC1403F062FB01F0C4FB17
S315080024C002000B00DFF8F41406A801F0E5FB48E06B
S315080024D0E4B2002C0DD003F042FB0200DFF8E01452
S315080024E006A801F0D9FB06A800F09EFA06A901F095
S315080024F01BF803F034FB0200DFF8C81406A801F045
S31508002500CBFB2EE0D8CC0008E4B2002C0DD003F0AB
S3150800251029FB0200DFF8B01406A801F0BDFB06A8E7
S3150800252000F082FA06A900F0FFFF03F01BFB020089
S31508002530DFF8981406A801F0AFFB12E0E4B2002C0D
S315080025400AD0DFF88C1406A800F098FA06A800F05E
S315080025506BFA06A900F0E8FFDFF8781406A800F081
S315080025608DFA16E0F4CC000810CD0008E4B2002C71
S315080025700AD0DFF8F41306A800F080FA06A800F0DF
S3150800258053FA06A900F0D0FFDFF84C1406A800F0AD
S3150800259075FACDE000265FFA89F9B9F1030F15DA65
S315080025A0E4B2002C0AD0DFF8341406A800F066FA64
S315080025B006A800F039FA06A900F0B6FFDFF82014DD
S315080025C006A800F05BFA4CE02CCD0008B878442841
S315080025D01CD0452832D1DFF80C1406A801F05CFBA4
S315080025E0E4B2002C0AD0DFF8001406A800F046FA78
S315080025F006A800F019FA06A900F096FF012003F0D4
S3150800260078FA06002DE000BF48CD0008DFF8DC1395
S3150800261006A801F041FBE4B2002C0AD0DFF8D0137B
S3150800262006A800F02BFA06A800F0FEF906A900F0A5
S315080026307BFF002003F05DFA060012E0E4B2002CEE
S315080026400AD0DFF8981306A800F018FA06A800F0D2
S31508002650EBF906A900F068FFDFF8981306A800F062
S315080026600DFA65E064CD000803F007FAE4B2002C21
S315080026700AD0DFF8841306A801F00EFB06A800F0BE
S31508002680D3F906A900F050FFDFF8701306A801F089
S3150800269003FB4DE080CD000803F0DFF80500E4B247
S315080026A0002C10D0D64906A801F0F6FA06A800F0C4
S315080026B0BBF906A900F038FFADB22A00A64906A85C
S315080026C001F0EAFA34E0CF4906A801F0E5FA06A8CF
S315080026D000F0A6FB0600F6B2002E03D03000C0B20A
S315080026E0FDF788BDC84906A801F0D6FA06A800F085
S315080026F097FB0600F6B2002E08D03000C0B2FDF7F0
S3150800270079BD00BF9CCD0008B8CD0008FEE7E4B24D
S31508002710002C09D0BD4906A800F0B0F906A800F0BB
S3150800272083F906A900F000FFAB4906A800F0A6F950
S3150800273010E0E4B2002C09D0B44906A800F09EF9CE
S3150800274006A800F071F906A900F0EEFEA24906A84F
S3150800275000F094F9F6B2002E05D0022E09D003D364
S31508002760032E0DD011E014E0A94906A800F086F959
S315080027700FE0A84906A800F081F90AE0D4CD0008C0
S31508002780A54906A800F07AF903E0A44906A800F0CE
S3150800279075F906A800F044FB0600F6B2002E05D02F
S315080027A03000C0B2FDF726BDF0CD00089C4906A84A
S315080027B000F064F906A800F033FB0600F6B2002E16
S315080027C03DF416AD3000C0B2FDF714BD0CCE0008BE
S315080027D028CE000874D1000810B50400200000F0C7
S315080027E023F90022002100E0491C81420EDA625CCE
S315080027F0303A0A2A03D3625C413A062A01D20022F9
S3150800280000E00122012AEFD1002000E0012010BDDE
S3150800281038B5040000220025200000F005F9002143
S3150800282004E0625C303A12EB0515491C81420DDA68
S31508002830625C303A0A2AF4D3625C413A062A02D22A
S31508002840625C373AEFE75FF0FF3000E0280032BD00
S3150800285044CE000860CE000844D100085CD10008C8
S315080028608CD10008A4D10008BCD10008E0B500202E
S315080028708DF8080002A803F039FA684603F096FABC
S31508002880002818D100200DE0694631F910104FF4E0
S315080028907A62514348F2120291FBF2F1614A22F838
S315080028A01010401C0328EFDB684603F0BAFA00282C
S315080028B01BD1002010E001202DE0694631F91010E7
S315080028C041F28832514346F69B7291FBF2F1554A22
S315080028D002EB4002D180401C0328EEDB684603F079
S315080028E093FD002816D1002010E0012013E0694668
S315080028F031F910104FF47A62514346F6E82291FBFB
S31508002900F2F1484A02EB40029181401C0328EEDBB3
S31508002910002000E001200EBDD4D10008ECD100084B
S315080029207CCE000898CE0008B4CE0008D0CE0008A9
S31508002930B4D30008E8C80008B8BB000854C30008A8
S3150800294078C3000808C90008ECCE000828C90008A2
S3150800295008CF000848C9000804D2000868C900085A
S31508002960E0BB00089CC3000888C9000808BC00082A
S31508002970C0C30008BCB70008E4C3000808C40008C0
S31508002980A8C90008B8D400082CC40008E8B700088D
S3150800299050C4000874C40008C8C9000898C40008D0
S315080029A014B80008BCC40008E0C40008E8C9000858
S315080029B004C500080000204108CA000840B80008FD
S315080029C024CF00081CD2000840CF000828CA0008F7
S315080029D048CA000828C5000868CA000888CA000846
S315080029E030BC000858BC00085CCF000880BC000852
S315080029F078CF0008A8BC000834D2000870B50008D3
S31508002A0094CF00084CC5000870C50008A8C6000881
S31508002A1094C50008D0BC0008F8BC00086CB80008CB
S31508002A20C4D600083825002000F10103810704D028
S31508002A3010F8011B89B18107FAD10268B2F1013198
S31508002A40914311F0803F04BF50F8042FF6E710F8C1
S31508002A50011B11B110F8011BFBE7C01A7047036888
S31508002A601AB95A1E026008467047197800290FBF1E
S31508002A704FF0FF30591C0160187870475FEA000C68
S31508002A80830706D011F8013B00F8013BB3B1830771
S31508002A90F8D10A68B2F1013323EA020313F0803F42
S31508002AA002BF40F8042B51F8042FF3E711F8013B55
S31508002AB000F8013B13B111F8013BF9E7604670478E
S31508002AC0012110F01F029140DFF8902340B240091F
S31508002AD042F820107047012110F01F029140DFF8DC
S31508002AE0802340B2400942F820107047401CC0B20B
S31508002AF0322800DB0020C0B2704710B50C00C0B207
S31508002B00FFF7F4FFE4B2A04201D1012000E0002063
S31508002B10C0B210BDC0B2C9B2401A002800D53230C2
S31508002B20C0B2704710B540F22771DFF8380303F0DA
S31508002B3051FD012806D1002240F22771DFF824034F
S31508002B4003F012FD40F26531C64803F043FD012843
S31508002B5003D1C44803F004FD28E040F22551C148DA
S31508002B6003F038FD012821D1BE4803F0F9FC040022
S31508002B70BD4890F83310BC4890F83200FFF7BDFF07
S31508002B80002813D1B848B84991F832104454B648C9
S31508002B9090F83200FFF7AAFFB34981F83200E4B291
S31508002BA00D2C03D10120B04981F8340010BDAE4880
S31508002BB090F8340070470020AB4981F8340070471C
S31508002BC010B504001CE0A84890F83300A64991F80F
S31508002BD03210884214D02520FFF77DFFA248A2496B
S31508002BE091F83310405C2070641C9F4890F83300BD
S31508002BF0FFF77CFF9C4981F833002520FFF760FF2B
S31508002C009948994991F83310405C0D2809D096489F
S31508002C1090F83210944890F83300FFF77BFF0028AD
S31508002C20D1D19148904991F83310405C0A2806D0D2
S31508002C308D488D4991F83310405C0D280DD125201B
S31508002C40FFF749FF884890F83300FFF74FFF86499A
S31508002C5081F833002520FFF733FF00202070641C1D
S31508002C60FFF7A9FF10BD00B587B000207E4981F89F
S31508002C70340000207C4981F8330000207A4981F825
S31508002C80320001214FF4804003F05BFD0121012051
S31508002C9003F057FD07220921744803F0E3FD0722D4
S31508002CA00A21724803F0DEFD4FF4C060019002204D
S31508002CB08DF8080000208DF80A0000208DF80B001A
S31508002CC001208DF8090001A9684803F06FFD4FF44B
S31508002CD0964003900020ADF818000C20ADF81600B9
S31508002CE00020ADF814000020ADF812000020ADF861
S31508002CF0100003A95B4803F0C3FB012240F22551EB
S31508002D00584803F031FC01226021564803F02CFC98
S31508002D1025208DF8000000208DF8010000208DF890
S31508002D20020001208DF80300684603F0C3FD012167
S31508002D304C4803F003FC01204D49086000204D492A
S31508002D40088007B000BD4FF4DC7000E0401E002884
S31508002D50FCD1704738B50400012502E0FFF7F3FF00
S31508002D60641EEDB2002D0AD080213E4803F025FCF2
S31508002D70012801D1002502E0002CEFD10025002C06
S31508002D8001D0002000E0032032BD38B5040015004C
S31508002D90002037480068012801D022283ED1002C9F
S31508002DA002D089B2002901D1012038E030480068F4
S31508002DB0222803D132202E4A106002E012202C4A23
S31508002DC010602C48018005E02178641C89B22548EA
S31508002DD003F0C2FB2748008800280BD02548008846
S31508002DE0401E244908802800FFF7B4FF0028EBD0CE
S31508002DF0032014E02800FFF7ADFF002801D00320C8
S31508002E000DE01B480068322803D1222018490860C3
S31508002E1002E0012016490860002000E0022032BDC9
S31508002E2010B504002000FFF7FFFD80B2512801DB32
S31508002E30012011E00E490968012901D002200BE0A2
S31508002E400D4A010089B22000FFF79FFFC0B2002893
S31508002E5001D0C0B200E0C0B210BD000000E100E041
S31508002E6080E100E000380140E8230020000002402D
S31508002E70A4250020AC250020E0930400012110F0D1
S31508002E801F029140DFF8642B40B2400942F8201037
S31508002E907047012110F01F029140DFF8542B40B211
S31508002EA0400942F82010704780B5DFF8BC27126841
S31508002EB01071DFF8B40700684171DFF8B007DFF872
S31508002EC0A81709680860DFF8A0070068011DDFF881
S31508002ED098070068006803F0BCFDDFF8180B006867
S31508002EE0001D02BD00B587B001215FF4802003F004
S31508002EF038FC0121022003F014FC07220A21DFF81E
S31508002F00F80A03F0AFFC07220B21DFF8EC0A03F0FE
S31508002F10A9FC07220D21DFF8E00A03F0A3FC07222B
S31508002F200E21DFF8D40A03F09DFC4FF4D840009038
S31508002F3002208DF8040000208DF8060000208DF888
S31508002F40070001208DF805006946DFF8AC0A03F092
S31508002F502DFC4FF40040009001208DF8040001205C
S31508002F608DF8060001208DF8070001208DF8050070
S31508002F706946DFF8840A03F019FC5FF4E130039030
S31508002F804FF44070ADF818000C20ADF8160000207C
S31508002F90ADF814000020ADF812000020ADF81000BE
S31508002FA003A9DFF8580A03F06BFA012240F225510B
S31508002FB0DFF8480A03F0D8FA01226021DFF83C0A54
S31508002FC003F0D2FA27208DF8080000208DF80900B2
S31508002FD000208DF80A0001208DF80B0002A803F0E6
S31508002FE069FC0121DFF8140A03F0A8FA0020DFF8CB
S31508002FF0101AA1F820030020DFF8081A81F89601B4
S315080030000020DFF8001A81F897010020DFF8F4198C
S3150800301081F898010020DFF8EC1981F89901002061
S31508003020DFF8E01981F89A010020DFF8D819A1F82D
S315080030309C010120DFF8CC1981F89E0107B000BD7C
S31508003040401CC0B2C82800DB0020C0B27047C0B21E
S31508003050C9B2401A002800D5C830C0B2704738B582
S3150800306004000D0020E02720FFF713FF0020DFF8FB
S31508003070941981F89501DFF88C09DFF8881991F819
S315080030809311084490F8CA0028706D1CDFF874097B
S3150800309090F89301FFF7D4FFDFF8681981F89301D8
S315080030A02720FFF7EBFE641E002C16D0DFF8540924
S315080030B090F89301DFF84C1991F892118842D2D111
S315080030C0012240F22551DFF8340903F04DFA0122B6
S315080030D06021DFF8280903F047FA002032BDDFF83F
S315080030E0240990F89501704780B5FFF7FBFE4FF469
S315080030F00041DFF8040903F0ACFB0FF22D40DFF8BE
S3150800310008190860DFF80409DFF804190860DFF811
S315080031100409DFF80419086002F0B5FA4FF4004113
S31508003120DFF8D40803F093FB01BD10B586B0002480
S31508003130DFF8D008D0F8A001002805D103F07BFC01
S31508003140DFF8C018C1F8A001DFF8B808D0F8A00168
S31508003150002800F00781DFF8AC08D0F8A001006865
S31508003160DFF8B8180840DFF89818DFF89428B2F89E
S31508003170202341F82200DFF88808B0F82003C0B2FF
S31508003180FFF75EFFDFF87818A1F82003DFF8740868
S31508003190D0F8A0010068DFF884180840DFF8801826
S315080031A00860DFF87C080068A02800F08B80DFF84C
S315080031B0741888422ED0DFF87018884257D0DFF886
S315080031C06C18884200F08480DFF8641888422ED094
S315080031D0DFF8601888427BD0DFF85C18884259D03F
S315080031E0DFF85818884200F09280DFF854188842B1
S315080031F05BD0DFF85018884264D0DFF84C18884254
S3150800320060D0DFF84818884262D0DFF84418884250
S3150800321058D086E0DFF83C08FFF702FEDFF83808EA
S3150800322002F086FA0120DFF8DC1781F89601002003
S31508003230DFF8D01781F8970102210220FFF734FE44
S315080032400088FF2812DCE4B2002C0AD1DFF80C084B
S31508003250FFF7E6FDDFF8080802F06AFA062002F032
S3150800326038FA0020DFF89C17C1F8A00169E0DFF8FA
S31508003270F407FFF7D5FDDFF8F00702F059FA012049
S31508003280DFF8801781F897010020DFF87817C1F872
S31508003290A00156E0A2A0FFF7C3FD02F08CFA0020B9
S315080032A0DFF86017C1F8A0014BE002F006FA9DA00E
S315080032B0FFF7B6FD02F07FFA0020DFF84817C1F8DD
S315080032C0A0013EE00020DFF83C17C1F8A00138E075
S315080032D0DFF89807FFF7A4FDDFF82807D0F8A00164
S315080032E0807A00280DD0DFF81C07D0F8A00110F16D
S315080032F00B02DFF87C17684600F0CEFC6846FFF73D
S315080033008FFD0020DFF8FC16C1F8A00119E0DFF8F0
S315080033106407FFF785FD0020DFF8E816C1F8A0016D
S315080033200FE0DFF8FC060268DFF84C17684600F085
S31508003330B3FC6846FFF774FD0020DFF8C816C1F82D
S31508003340A001DFF8C00690F89311DFF8B80690F8E8
S315080033509201FFF77CFE002804D00120DFF8A416AE
S3150800336081F8950106B010BDDFF8980690F8960129
S315080033707047DFF8900690F897017047DFF88406E3
S3150800338090F898017047DFF87C0690F89901704725
S31508003390DFF8701681F898017047DFF8681681F82B
S315080033A09901704700B58BB00020DFF8580690F8F1
S315080033B09A01032842D1DFF84C0690F89E010128AD
S315080033C001D101203BE001F0E9FC002834D001F0EE
S315080033D0E0FCDFF83006B0F89C01401CDFF8241644
S315080033E0A1F89C0102F0BBFB0300DFF81806B0F851
S315080033F09C21DFF88816684600F04EFC6846FFF701
S315080034000FFD6846FFF710FB694600F08DF802F0DD
S31508003410A6FBDFF8F015B1F89C1188420CD2DFF84C
S315080034206006FFF7FDFC0221122003F06CFB02F098
S31508003430B5F9122002F04DF9002000E00120C0B2D3
S315080034400BB000BDDFF8BC1581F89E017047DFF8A8
S31508003450B41591F89A11032903D1DFF8A81581F854
S315080034609E017047DFF89C0590F89A017047DFF8CF
S31508003470941581F89A01704780B540F22771DFF8F4
S315080034807C0503F0A7F8012827D1DFF8780590F81E
S31508003490C900DFF8701591F8C810884216D0DFF811
S315080034A06405DFF8601591F8C910415C89B2DFF848
S315080034B04C0503F051F8DFF84C0590F8C900FFF702
S315080034C0BFFDDFF8401581F8C90006E0002240F28A
S315080034D02771DFF8280503F047F840F26531DFF871
S315080034E01C0503F077F8012809D10020DFF8141528
S315080034F081F89401DFF8040503F032F80EE040F293
S315080035002551DFF8F80403F065F8012806D1DFF83D
S31508003510EC0403F025F8C0B200F0AAF801BD0000DB
S315080035202D2A2D002D4F2D00F8B504000D0054F05E
S315080035307F40DFF8CC14DFF8C824B2F8202341F81E
S315080035402200DFF8BC04B0F82003C0B2FFF778FD0C
S31508003550DFF8AC14A1F8200328786978090411EB80
S315080035600060A97810EB0120E9780818DFF89014B4
S31508003570DFF88C24B2F8202341F82200DFF8800413
S31508003580B0F82003C0B2FFF75BFDDFF87414A1F8AA
S31508003590200328796979090411EB0060A97910EBF1
S315080035A00120E9790818DFF85814DFF85424B2F82E
S315080035B0202341F82200DFF84804B0F82003C0B2FF
S315080035C0FFF73EFDDFF83814A1F820034FF4FA6739
S315080035D026E02878DFF82C14DFF8282492F8C8208B
S315080035E088542720FFF755FCDFF8180490F8C80020
S315080035F0DFF8101491F8C910884206D1012240F26A
S315080036002771DFF8F80302F0AFFFDFF8F80380F858
S31508003610C8602720FFF732FC641E6D1C4FF4FA675A
S31508003620002C1FD0DFF8DC0390F8C800FFF708FD70
S3150800363006003000DFF8CC1391F8C910C0B28842F2
S31508003640C7D13800471E0028EAD10020DFF8B41396
S3150800365081F8960102210F2003F055FA082002F09E
S3150800366038F8DDE7F1BD0000000000202002030164
S3150800367030B5A1B00024DFF80C14DFF80C2412785A
S315080036808854DFF804140978491CDFF8FC23117004
S31508003690C0B20A2803D0C0B23F2840F0A381002058
S315080036A0DFF8E4130870DFF8DC23DFF8E01302A87C
S315080036B000F0F2FA02A8FFF7B3FB0400E4B2002C0C
S315080036C002D02000C0B28FE10422DFF8C413DFF86D
S315080036D0B40301F015F9002811D10120C94981F870
S315080036E096010020C74981F898010020C54981F84C
S315080036F09901DFF8A003FFF793FB04006AE10922AA
S31508003700DFF89413DFF87C0301F0FAF8002811D1EA
S315080037100120BC4981F897010120BA4981F89A012C
S315080037200020B849A1F89C01DFF87003FFF778FB81
S3150800373004004FE10C22DFF86813DFF8480301F0B4
S31508003740DFF800281ED10020AE4981F89701002035
S31508003750AC4981F898010020AA4981F8990101200D
S31508003760A84981F89A010020A649A1F89C0102F00F
S315080037709DF801F061FA02F09DF8CA48FFF750FB80
S31508003780040027E10422C849BE4801F0B9F8002818
S315080037904DD102F0DEF9002817D002F0E3F9040053
S315080037A002F0DDF9050002F0D1F90194009500F068
S315080037B0A5F9BE4902F0E4F900F046FA02000B004A
S315080037C0BB49B04800F068FA16E002F0CBF90400ED
S315080037D002F0C5F9050002F0B9F90194009500F068
S315080037E08DF9B24902F0CCF900F02EFA02000B006E
S315080037F0B049A44800F050FAA248FFF711FB0400AC
S31508003800E4B2002C02D02000C0B2EDE09D48FFF7DC
S315080038100BF99C49FFF788FE0A2002F061F901209E
S31508003820FFF7BBFDA448FFF7FBFA0400D2E0062227
S31508003830A249944801F064F8002840F0B880FFF7E0
S31508003840A2FD00282CD09E4902A800F025FA02A85D
S31508003850FFF7E6FA0400E4B2002C02D02000C0B25A
S31508003860C2E002A8FFF7E0F802A9FFF75DFE002014
S31508003870FFF793FD0120FFF78BFD02F0E9F802F050
S3150800388065F902F02DF903205E4981F89A010020B6
S315080038905C49A1F89C018B48FFF7C2FA040035E0A1
S315080038A0584890F89A01022820D10320554981F8F2
S315080038B09A0100205349A1F89C01814902A800F009
S315080038C0EBF902A8FFF7ACFA0400E4B2002C02D028
S315080038D02000C0B288E002A8FFF7A6F802A9FFF701
S315080038E023FE7848FFF79CFA04000FE0454890F855
S315080038F09A0103280AD100204249A1F89C0172487E
S31508003900FFF78EFA04000120FFF79CFD6F4911A806
S31508003910FFF7B4F86E4911A803F05FF90100002912
S315080039202DD00020087011A8FFF77EF8002826D0B1
S3150800393011A8FCF7FDFB0400E4B2022C0ED1654980
S3150800394002A800F0A9F902A8FFF76AFA04004D4890
S31508003950FFF76AF84B49FFF7E7FD10E0E4B2002CE1
S315080039600DD05D4902A800F097F902A8FFF758FAAA
S3150800397004004448FFF758F84249FFF7D5FD02F01E
S315080039805DF8020055493F4800F086F93D48FFF7C3
S3150800399047FA0400E4B2002C02D02000C0B223E0AB
S315080039A03848FFF741F83749FFF7BEFD12E008220D
S315080039B04B49344800F0A4FF002807D102210E2005
S315080039C003F0A1F80E2001F084FE03E04548FFF756
S315080039D027FA0400002003E000212A4A1154401C5B
S315080039E03C28F9DB2000C0B221B030BD00E100E080
S315080039F080E100E004000020000402400048004086
S31508003A00281A002070200020842500205F30000836
S31508003A1088250020DF3000088C250020F800FFFFED
S31508003A2098250020A0000100A0000800A0000900B9
S31508003A30A0000801A000080220000A02A0000B024C
S31508003A40A0000A0320000A05A000000820000908B3
S31508003A50A000002088D20008D8D3000854D0000857
S31508003A609CD200086CD00008B0D2000848C60008EE
S31508003A7028D40008C4CA000834D40008C4D20008F0
S31508003A80D8D20008AC230020AE250020E0CA0008E2
S31508003A9004D50008E8D3000840D40008ECD2000892
S31508003AA0F8D3000808D400080CD500080000204107
S31508003AB030B600085CB6000884D0000814D50008A3
S31508003AC0FCCA000818CB000800D30008B22300205F
S31508003AD01CD5000834CB000850CB00086CCB000876
S31508003AE04CD4000814D30008002840F10980F44695
S31508003AF0404200F005F850F000406047002800BF3B
S31508003B000AD0B0FA80F18840D1F19D01C9050206B4
S31508003B1072F1004241EB102070470268531C0360A3
S31508003B201170704780B5002090224249424803F040
S31508003B30B3F8C0B2002801D0002007E03D4800686D
S31508003B40B0F15A3F01D1012000E0002002BD80B546
S31508003B5000205FF05A303749086038493848FEF780
S31508003B608DFF00200BE00021324A02EBC002916073
S31508003B705FF07E512F4A02EBC0025160401C0F28AD
S31508003B80F1DB902000902B4B2B4A0021002003F0FC
S31508003B9029F8C0B202BD80B5002090200090254BC0
S31508003BA0254A0021002003F01DF8C0B202BD38B531
S31508003BB004000D002000C0B200F02DF8290003F023
S31508003BC075F805002000C0B200F01FF8290003F0C0
S31508003BD0D9F832BD80B5C0B20F280DDA154BC0B280
S31508003BE003EBC00399601349C0B201EBC000426001
S31508003BF0FFF7D1FFC0B200E0012002BD80B5010089
S31508003C000F48FEF73BFF002002BD0A49C0B201EB90
S31508003C10C000806870470749C0B201EBC000406821
S31508003C2070470849C0B251F82000704704487047E9
S31508003C3000000000142200200081010828D3000893
S31508003C4090220020A0AA00085FF0FF0C1CEAD051C1
S31508003C5014BF614506E0C110400721F0E04101F1BB
S31508003C606051704779B900F0004100020AD0B0FAF5
S31508003C7080FC00FA0CF001F16051A1EB0C5101EB4C
S31508003C80D0214005704741020CBF40F4E0016FF0B7
S31508003C9000010020704700000CB41CB5044604A8B7
S31508003CA001900A46009401AB6946074878441830E3
S31508003CB003F0AAF8009A0021117000285CBF00984A
S31508003CC0001B16BC5DF80CFB53FEFFFF10B582B057
S31508003CD0040000208DF8000000F0E1F8002801D06B
S31508003CE0012074E001236A4620217C48007800F010
S31508003CF013FD002801D0012069E09DF8000010F0AE
S31508003D008F008DF800009DF80000217808438DF893
S31508003D1000009DF8000010F0F7008DF800009DF8EF
S31508003D200000E17808438DF800009DF8000010F0C7
S31508003D30FB008DF800009DF80000217908438DF8F6
S31508003D4000009DF8000010F0FE008DF800009DF8B8
S31508003D500000617908438DF8000001236A46202196
S31508003D605E48007800F07BFC002801D001202EE098
S31508003D7001236A4610215948007800F0CDFC002836
S31508003D8001D0012023E09DF8000010F0FC008DF81A
S31508003D9000009DF80000617808438DF800009DF842
S31508003DA0000010F0F3008DF800009DF80000A178DF
S31508003DB008438DF8000001236A4610214748007819
S31508003DC000F04DFC002801D0012000E0002016BDBF
S31508003DD038B50400002503236A46A8213F48007821
S31508003DE000F09AFC002801D0012012E0002007E02C
S31508003DF06946C0B2095CC0B2C20091400D43401C7E
S31508003E00C0B20328F4DB280201D555F07F452560AA
S31508003E10002032BD10B582B004000020009068462C
S31508003E20FFF7D6FF002801D0012008E00098FFF729
S31508003E305BFE5FF08B4101F0A3FE2060002016BDFB
S31508003E4010B582B00400002002236A46AB2123483D
S31508003E50007800F061FC002801D0012007E09DF8F9
S31508003E6001009DF8001011EB00202080002016BDEF
S31508003E7010B582B004006846FFF7E2FF002801D0BB
S31508003E8001200BE0BDF90000FFF72EFE144901F0F2
S31508003E9077FE144902F076FF2060002016BD80B533
S31508003EA001236A4620210D48007800F035FC0028D9
S31508003EB001D0012011E09DF8000050F080008DF837
S31508003EC0000001236A4620210448007800F0C7FB59
S31508003ED0002801D0012000E0002002BDAC0200202D
S31508003EE00000F04300002A42002101E04008491C76
S31508003EF0B0F5805FFAD250EA013080B2704780B2DE
S31508003F000105090D80B2000B11FA00F0704738B5AB
S31508003F10040000250020002C01D101204BE07E2161
S31508003F20882000F074FB45F24941884207D17F2179
S31508003F30882000F06CFB43F20101884201D0012081
S31508003F4039E0207855EA0035608810F400600543AA
S31508003F50A08810F4C0600543A07910F0100005434E
S31508003F60E07910F008000543207A10F003000543B5
S31508003F702A0092B20121882000F037FBC0B200283F
S31508003F8001D0C0B217E0E068FFF7AEFF020092B2B8
S31508003F900221882000F029FBC0B2002801D0C0B257
S31508003FA009E02069FFF7A0FF020092B203218820EA
S31508003FB000F01BFBC0B232BD80B50021882000F09E
S31508003FC026FB80B2FFF79BFF02BD000000B59BB041
S31508003FD00121DFF8340502F0C4FB01214FF401701A
S31508003FE002F0AFFB0121032002F09BFB012002F047
S31508003FF023FB0E220521DFF8140502F033FC01220B
S315080040000321DFF80C0502F02DFC0E220421DFF84F
S31508004010000502F027FC02220121DFF8F00402F075
S3150800402021FC0E220021DFF8E40402F01BFC042028
S31508004030009001208DF8040000208DF8060000206D
S315080040408DF8070001208DF805006946DFF8C004E1
S3150800405002F0ACFB01220421DFF8B40402F0FBFBFA
S315080040600820009002208DF8040001208DF8060033
S3150800407000208DF8070001208DF805006946DFF855
S31508004080900402F093FB0220009002208DF80400B1
S3150800409000208DF8060000208DF8070003208DF813
S315080040A005006946DFF8640402F080FB20200090D2
S315080040B003208DF8040000208DF8070001208DF8F4
S315080040C005006946DFF8440402F070FB10200090F2
S315080040D06946DFF83C0402F069FB01200090694656
S315080040E0DFF8280402F062FB5FF0804003F074FEFC
S315080040F00020ADF820000020ADF81A000020ADF829
S3150800410018004FF47A40079006A95FF0804003F044
S315080041106DFD0820ADF85C000020ADF85E000220B9
S31508004120ADF8600017A95FF0804003F0E5FD702048
S31508004130ADF80C000020ADF814000120ADF80E0013
S315080041400020049003A95FF0804003F0B2FD4FF40D
S31508004150A0715FF0804003F0CDFD0220139000208F
S315080041601090002011900020129010A9002003F052
S31508004170A9FE0121002003F0BCFE40F25C410020AC
S3150800418003F0CDFE002014905FF4C01015900020B7
S31508004190169014A803F0D4FE0121202003F0E2FEB5
S315080041A00121DFF8700303F0DDFE1C208DF80800FE
S315080041B000208DF8090000208DF80A0001208DF8EE
S315080041C00B0002A802F076FB012201215FF0804075
S315080041D003F0F2FD01215FF0804003F03DFDDFF8BA
S315080041E0380303F0F9FD0020ADF820000020ADF8F3
S315080041F01A000020ADF818000020079006A9DFF87D
S31508004200180303F0F3FC6020ADF80C000020ADF8AD
S3150800421014000120ADF80E000020049003A9BE4842
S3150800422003F047FD0121BC4803F016FD5FF480301A
S31508004230099009A803F0E5FE00208DF82D0000205E
S315080042400E9000200D905FF080500C9001208DF8A4
S315080042503C0000200A9000208DF82C000AA9AF48DF
S3150800426003F0AAFE052301220821AC4803F0E6FE66
S315080042700121AA4803F0CFFE4021A84803F097FF82
S315080042800028F9D04FF48071A44803F090FF012864
S31508004290F8D0A34803F0A0FD0020ADF820000020C8
S315080042A0ADF81A000120ADF8180041F63F700790E6
S315080042B006A99B4803F09AFC6020ADF80C00002084
S315080042C0ADF814000120ADF80E000020049003A9F3
S315080042D0934803F0CFFC4FF4F051914803F008FDE2
S315080042E019208DF8080000208DF8090000208DF8A7
S315080042F00A0001208DF80B0002A802F0DBFA012261
S315080043000121874803F058FD0121854803F0A4FCE4
S315080043101BB000BD80B501215FF0804003F058FD59
S315080043205FF0804003F020FD7E4909687D4A1268E7
S3150800433080B28018B0EBD1107A49086079480068D5
S3150800434078494968774A526812EBD010B0EB1120C9
S315080043507449486073480068C00972494968B0EBF7
S3150800436011207049097A002910D111281FDB012074
S315080043706C49087200206B4948816A48007B401CDA
S3150800438068490873022003F01DFF10E06549498952
S31508004390491C644A518163494989FA2907D3042883
S315080043A005DA00205F490872022003F017FF5D480E
S315080043B0008C401C5B4908845A48008CB0F5FA7F8B
S315080043C036D30020574908845648007B5549554A34
S315080043D0527E114448730020524908735148407E62
S315080043E0401C504948764F48407E0C2802DB002086
S315080043F04C4948760020002104E04A4A0A44527B88
S315080044001018491C0C29F8DB002807D14548C06953
S31508004410002802D05FF0FF3000E000204149C9695A
S31508004420404AD2698018891CB0EB91003D49C861A1
S3150800443001BD10B501213A4803F0CAFC3A48008884
S31508004440962818DA354803F0AFFE3749364A1288F7
S3150800445001EB82014968344A334B1B8802EB83021D
S31508004460526880B28018B0EB11102F492E4A128874
S3150800447001EB820148602C480088401C2A490880C4
S3150800448029480088962818DB00202749088000203C
S3150800449000210DE0244A02EB81025268904206D2BE
S315080044A0214800EB810040681F4AA2F85C12491CAB
S315080044B09629EFDB1C49A1F85E021C481A490988AF
S315080044C030F81140A4B2611E134803F0C3FBA4B22E
S315080044D0610889B2104803F00DFC00210E4803F06C
S315080044E0B7FB10BD0F48C069642148430C21B0FBD7
S315080044F0F1F0800880B270470B48B0F85C0270474C
S315080045000948B0F85E027047030000A000040240A4
S315080045100000024000010080000400400024014021
S31508004520000801409424002008000020E8B1000893
S31508004530024600E0521C1378002BFBD111F8013B10
S31508004540137012F8013B002BF8D170471CB50024F4
S31508004550C020009000208DF8040000208DF8070088
S3150800456001208DF805006946DFF8480302F01EF9B8
S3150800457001F089F84021DFF83C0303F065FE0028C6
S3150800458013D10321052002F0BEFA0021032001F011
S3150800459025F901248021C74803F056FE002819D1C1
S315080045A00321062002F0AFFA14E08021C14803F087
S315080045B04BFE002809D10321062002F0A4FA0021A7
S315080045C0032001F00BF9012404E00121032001F086
S315080045D005F900242000C0B216BD04B501236A46B9
S315080045E0C9B2C0B200F03BF802BD80B5ADF80020F4
S315080045F09DF800209DF801308DF800308DF80120D7
S3150800460002236A46C9B2C0B200F029F802BD80B5D5
S3150800461002236A46C9B2C0B200F07EF800280AD161
S315080046209DF800009DF801108DF800108DF8010026
S31508004630BDF8000001E04FF6FF7002BD38B5040072
S315080046404FF4204521009C4803F0B7FE012804D00A
S315080046506D1E002DF6D1032000E0002032BDF8B50E
S3150800466004000D0016001F0094480078002851D158
S31508004670012092490870032003F0A4FD01218E4809
S3150800468003F060FE8E48FFF7D9FF032804D1002007
S315080046908A49087003203EE000222100C9B28648F4
S315080046A003F07AFE8748FFF7C9FF032804D10020E4
S315080046B08249087003202EE02900C9B27E4803F01B
S315080046C076FE8148FFF7BAFF032804D100207B490C
S315080046D0087003201FE0BFB2002F0FD0317876484C
S315080046E003F065FE761C7F1E7848FFF7A7FF0328B0
S315080046F0F1D100207149087003200CE001216E48B1
S3150800470003F02EFE032003F069FD00206B490870B4
S31508004710002000E00220F2BDF8B504000D001600E6
S315080047201F006B48007800287AD101206849087074
S31508004730032003F047FD01215F4803F003FE6048AC
S31508004740FFF77CFF032804D1002061490870032085
S3150800475067E000222100C9B2574803F01DFE5948F8
S31508004760FFF76CFF032804D100205949087003207D
S3150800477057E02900C9B2504803F019FE5348FFF71D
S315080047805DFF032804D1002051490870032048E042
S315080047900121494803F0D6FD4948FFF74FFF032892
S315080047A004D100204A49087003203AE0012221007A
S315080047B0C9B2414803F0F0FD4648FFF73FFF03281A
S315080047C00AD100204249087003202AE03A4803F03B
S315080047D0F1FD3070761C7F1EBFB2002F10D0BFB21D
S315080047E0012F03D10021344803F0C8FD3A48FFF7EA
S315080047F025FF0328EAD1002035490870032010E078
S3150800480001212D4803F0ACFD01212B4803F0B6FD2C
S31508004810032003F0E3FC00202D490870002000E087
S315080048200220F2BD00B587B001215FF4001001F047
S3150800483098FF0121022001F074FF042206211D4879
S3150800484002F010F8042207211A4802F00BF8C020DB
S31508004850009002208DF8040001208DF80600012042
S315080048608DF8070001208DF805006946114801F00A
S315080048709DFF44F6206002900020ADF80C004BF630
S31508004880FF70ADF80E000020ADF810004FF4806000
S31508004890ADF812004FF48040ADF8140002A906489E
S315080048A003F0DCFC0121044803F03EFD002007B0BC
S315080048B000BD00000004024000540040AF2500205F
S315080048C0010003008200070080000700840007003B
S315080048D0B025002002000300400003000DB400B517
S315080048E082B004A800900A466B4603A90348784498
S315080048F00A3003F095FD06BC5DF810FB63E1FFFF87
S3150800490010B401E0491C521E6AB10B7804789C4227
S3150800491005D010BC2CBF01204FF0FF30704710F8AF
S31508004920013B002BEED110BC00207047BFF34F8F20
S31508004930DFF8700D006810F4E060DFF884140843AF
S31508004940DFF8601D0860BFF34F8F00BFFDE700B5B5
S3150800495087B0DFF8700404905FF081400590082066
S315080049608DF8180010208DF8190020208DF81A00EF
S31508004970DFF850040190DFF82C0E029008208DF81D
S315080049800C0010208DF80D0020208DF80E0001A8CF
S3150800499001F074F9002801D0012013E010208DF8E9
S315080049A0000000208DF8010000208DF8020060202C
S315080049B08DF80300684601F0B3FC002801D00120F9
S315080049C000E0002007B000BDE0B500208DF8080023
S315080049D002A801F08BF9684601F0E8F900281AD117
S315080049E000200FE0694631F910104FF47A625143FE
S315080049F048F2120291FBF2F1DFF8DC2D02EB4002DD
S31508004A005180401C0328EDDB684601F00AFA0028AD
S31508004A101CD1002011E001202FE0694631F9101061
S31508004A2041F28832514346F69B7291FBF2F1DFF868
S31508004A30A82D02EB40021181401C0328EDDB6846D5
S31508004A4001F0E2FC002817D1002011E0012014E053
S31508004A50694631F910104FF47A62514346F6E82256
S31508004A6091FBF2F1DFF8702D02EB4002D181401C78
S31508004A700328EDDB002000E001200EBD00B587B05D
S31508004A8020208DF8000001208DF8010008208DF8FF
S31508004A90020000208DF8030000208DF80400002095
S31508004AA08DF805006846FFF711F9002801D00120A6
S31508004AB01AE000208DF8080000208DF80900002073
S31508004AC08DF80A0000208DF80B00002003900020C6
S31508004AD0049002208DF8140002A804F041FA002878
S31508004AE001D0012000E0002007B000BD80B568466F
S31508004AF0FFF7BEF9002809D10099B24802F0D6F8A6
S31508004B0004F088FADFF8D01C888209E004F075FA08
S31508004B10AC4902F0CBF804F07DFADFF8BC1C8882B9
S31508004B206846FFF777F900280AD10099A54802F0E8
S31508004B30BDF804F06FFADFF8A01CC882002000E078
S31508004B40012002BD00B585B00C208DF800000020BC
S31508004B50ADF802004FF48060ADF8040000208DF82F
S31508004B60060000208DF8070000208DF808000020B8
S31508004B7003905FF0FF3004906846FFF7C8F905B068
S31508004B8000BD00B585B00121102001F0EAFD4FF403
S31508004B90FA40ADF8040000F0DFFF642148430290B4
S31508004BA001A9DFF8C40D03F021F82B208DF80000C9
S31508004BB000208DF8010000208DF8020001208DF8F4
S31508004BC00300684601F076FE01220121DFF8980D00
S31508004BD003F0F2F80121DFF8900D03F03DF805B077
S31508004BE000BDE0B50021DFF8800D03F035F84FF47D
S31508004BF0FA40ADF8000000F0AFFF64214843019089
S31508004C006946DFF8640D02F0F1FF0121DFF8580D5F
S31508004C1003F022F807BD80B5FFF764FCDFF84C1DEA
S31508004C208883FFF769FCDFF8441DC883FFF768FC33
S31508004C30DFF8381D088401BD0120DFF8341D4870EF
S31508004C40DFF8940CDFF8281D4880DFF88C0CDFF8B5
S31508004C50201D0881DFF8800CDFF8141DC881DFF8F5
S31508004C60780CDFF80C1D8882DFF86C0CDFF8001D65
S31508004C70C882DFF8640CDFF8F81C88614FF6FF700D
S31508004C80DFF8EC1C88834FF6FF70DFF8E41CC88356
S31508004C90704780B50120DFF8D81C4870FFF7CCFFB5
S31508004CA00020DFF8381C48720020DFF8301C086046
S31508004CB00020DFF8281C88800020DFF8201CC88028
S31508004CC00020DFF8181C08725FF0FF30DFF8A01C20
S31508004CD048805FF0FF30DFF8981C08815FF0FF30EE
S31508004CE0DFF88C1CC8815FF0FF30DFF8841C8882EF
S31508004CF05FF0FF30DFF8781CC8824FF6FF70DFF8E8
S31508004D00701C88614FF6FF70DFF8641C88834FF6C5
S31508004D10FF70DFF85C1CC883FFF784FDFFF717FEFA
S31508004D20C0B2002804D10121002000F057FD07E099
S31508004D3005210A2001F0E7FE0021002000F04EFDC3
S31508004D40FFF79CFEC0B2002804D10121022000F022
S31508004D5045FD07E00521032001F0D5FE00210220CC
S31508004D6000F03CFDFFF7EEFEC0B2002804D1012199
S31508004D70012000F033FD07E005210B2001F0C3FEFA
S31508004D800021012000F02AFDFFF720F9FFF7F9FEC0
S31508004D9001BD0020DFF8D81B08707047DFF8D00B7C
S31508004DA00078704780B50121DFF8BC0B03F010F8D6
S31508004DB00120DFF8BC1B087000F080FD01BD000073
S31508004DC00400FA050000204170B5B2B0DFF8A00B68
S31508004DD0007800284AD0FEF7C7FA002846D0FEF722
S31508004DE0C8FA002842D0FEF7CEFA00283ED0DFF8EF
S31508004DF0EC0A007A401CDFF8E41A0872DFF8DC0ACD
S31508004E00027ADFF8701B0EA8FEF746FF0EA8FEF71B
S31508004E1007F800F0A7FEDFF8C41A097A814221D301
S31508004E20DFF8540BFDF7FCFF0020DFF8B01A087214
S31508004E30DFF8481B0EA8FEF72FFF0EA8FDF7F0FFB8
S31508004E400EA8FDF7F1FD0EA9FEF76EFB0020FEF792
S31508004E50A4FA0120FEF79CFA00F0FAFD00F076FEAF
S31508004E6000F03EFE0020DFF8081B0870DFF8000B94
S31508004E700078002800F00584FEF776FA002800F08E
S31508004E800084FEF776FA002800F0FB83FEF776FA30
S31508004E90002800F0F683FEF785FA002800F0F18373
S31508004EA0DFF8DC0AFDF7BCFFDFF8D41A0520FEF7A9
S31508004EB03BFBDFF8D00A0068401CDFF8C81A086018
S31508004EC0DFF8C40A0068401CDFF8BC1A0860DFF87F
S31508004ED0B40A0068012847DB0020DFF8A81A086032
S31508004EE000F0FEFC02002BA122A8FEF7D5FE22A8A0
S31508004EF000F0A6FD22AADFF8941A0EA8FEF7CCFE4B
S31508004F000EA8FDF78DFF0EA8FDF78EFD0EA9FEF77C
S31508004F100BFB0EA800F00CFC0020FEF798FAFEF733
S31508004F20A1FA012807D10220FEF7A1FADFF8600AE4
S31508004F30FDF776FF18E0FEF795FA022814D104204B
S31508004F40FEF795FADFF84C0AFDF76AFFDFF82C1A28
S31508004F500EA8FEF7A1FE0EA8FDF762FF0EA8FDF744
S31508004F6063FD0EA9FEF7E0FA00F0FCFB0020DFF86F
S31508004F70001A0870002000F050FC002814D0FFF733
S31508004F8023FDC0B2002807D10121002000F026FC2D
S31508004F900AE000BF2573000005210C2001F0B3FDCF
S31508004FA00021002000F01AFC022000F036FC002840
S31508004FB011D0FFF79BFDC0B2002804D101210220C1
S31508004FC000F00CFC07E005210D2001F09CFD0021F6
S31508004FD0022000F003FC012000F01FFC002804D08A
S31508004FE0FEF7EAFFDFF8F0178861FFF714FEDFF82F
S31508004FF0E807B0F9160000281DD1DFF89C090068FB
S31508005000401CDFF894190860DFF88C090268DFF89D
S315080050108C192AA8FEF740FE2AA8FDF701FFDFF83B
S3150800502078090068052806DB0020DFF86C19086097
S31508005030072000F04EFBDFF8A408C088052808DA28
S31508005040DFF89808C088401CDFF89018C880FFF77A
S31508005050F3FD012003F0B6F8DFF87C07B0F902008B
S31508005060DFF80C19B1F90210884213D1DFF8680786
S31508005070B0F90400DFF8F818B1F90410884209D12C
S31508005080DFF85407B0F90600DFF8E418B1F906109E
S3150800509088424FD0DFF840074088DFF8D4184880A8
S315080050A0DFF834078088DFF8C8188880DFF8280713
S315080050B0C088DFF8BC188880DFF8B408B0F90600A5
S315080050C0FEF712FD01000220FEF771FD0400DFF86D
S315080050D0A008B0F90400FEF707FD01000120FEF75D
S315080050E066FD0500DFF88808B0F90200FEF7FCFC4B
S315080050F001000020FEF75BFD06002000FEF7A4FD78
S31508005100CDE902012800FEF79FFDCDE90001300038
S31508005110FEF79AFD02000B00DFF8841804A8FEF7D4
S31508005120BBFD04A8FDF77CFE04A8FDF77DFC04A9D9
S31508005130FEF7FAF9DFF8A006B0F90800DFF830182C
S31508005140B1F90810884213D1DFF88C06B0F90A00C5
S31508005150DFF81C18B1F90A10884209D1DFF8780679
S31508005160B0F90C00DFF80818B1F90C1088424FD0D6
S31508005170DFF864060089DFF8F8170881DFF85806B3
S315080051804089DFF8EC174881DFF84C068089DFF89C
S31508005190E0178881DFF8D807B0F90C00FEF7A4FC01
S315080051A001000520FEF703FD0400DFF8C407B0F987
S315080051B00A00FEF799FC01000420FEF7F8FC05003A
S315080051C0DFF8AC07B0F90800FEF78EFC01000320F3
S315080051D0FEF7EDFC06002000FEF736FDCDE90201DC
S315080051E02800FEF731FDCDE900013000FEF72CFD61
S315080051F002000B00DFF8AC1704A8FEF74DFD04A863
S31508005200FDF70EFE04A8FDF70FFC04A9FEF78CF9BE
S31508005210DFF8C405B0F90E00DFF85417B1F90E101F
S31508005220884213D1DFF8B005B0F91000DFF840174F
S31508005230B1F91010884209D1DFF89C05B0F91200BF
S31508005240DFF82C17B1F9121088424FD0DFF888051D
S31508005250C089DFF81C17C881DFF87C05008ADFF8EB
S3150800526010170882DFF87005408ADFF804174882AD
S31508005270DFF8FC06B0F91200FEF736FC010008203C
S31508005280FEF795FC0400DFF8E806B0F91000FEF713
S315080052902BFC01000720FEF78AFC0500DFF8D00684
S315080052A0B0F90E00FEF720FC01000620FEF77FFC91
S315080052B006002000FEF7C8FCCDE902012800FEF72B
S315080052C0C3FCCDE900013000FEF7BEFC02000B006E
S315080052D0DFF8D41604A8FEF7DFFC04A8FDF7A0FD46
S315080052E004A8FDF7A1FB04A9FEF71EF9DFF8E804F8
S315080052F0B0F91400DFF87816B1F91410884243D0D3
S31508005300DFF8D404808ADFF86816888200F021FC6A
S31508005310002819D0DFF85806B0F91400FEF7E4FBA8
S3150800532001000920FEF743FCDFF8801600F028FC90
S31508005330FEF78AFCCDE9000122232222DFF8701647
S3150800534004A8FEF7A9FC16E0DFF82406B0F9140055
S31508005350FEF7CAFB01000920FEF729FCDFF84C1608
S3150800536000F00EFCFEF770FC02000B00DFF8441696
S3150800537004A8FEF791FC04A8FDF752FD04A8FDF762
S3150800538053FB04A9FEF7D0F8DFF84C04B0F9160071
S31508005390DFF8DC15B1F9161088423BD0DFF838047F
S315080053A0C08ADFF8CC15C88200F0D3FB002815D0D8
S315080053B0DFF8BC05B0F91600FEF796FB01000A20D7
S315080053C0FEF7F5FBFEF740FCCDE900012223222279
S315080053D0DFF8E41504A8FEF75FFC12E0DFF8900595
S315080053E0B0F91600FEF780FB01000A20FEF7DFFB86
S315080053F0FEF72AFC02000B00DFF8C01504A8FEF72A
S315080054004BFC04A8FDF70CFD04A8FDF70DFB04A949
S31508005410FEF78AF8DFF8C0038069DFF85415896952
S31508005420884239D0DFF8B0038069DFF8441588610F
S3150800543000F08FFB002814D0DFF834058069FEF7EA
S3150800544053FB01000B20FEF7B2FBFEF7FDFBCDE98F
S31508005450000122232222DFF8681504A8FEF71CFCA7
S3150800546011E0DFF80C058069FEF73EFB01000B2012
S31508005470FEF79DFBFEF7E8FB02000B00DFF844157C
S3150800548004A8FEF709FC04A8FDF7CAFC04A8FDF762
S31508005490CBFA04A9FEF748F8CF48808BDFF8D0147A
S315080054A0898B884240D0CC48808BDFF8C414888327
S315080054B000F04FFB002818D0DFF8B404808BFEF705
S315080054C01DFB01000C20FEF772FBDFF8FC1400F050
S315080054D057FBFEF7B9FBCDE9000122232222DFF8AC
S315080054E0EC1404A8FEF7D8FB15E0DFF88404808BDB
S315080054F0FEF704FB01000C20FEF759FBDFF8C81481
