S0100000536B7950617463682E73726563ED
S31508000000B00A002051970008E19800084D520008F0
S3150800001063520008E59800087952000800000000BD
S31508000020000000000000000000000000E998000839
S31508000030ED98000800000000F1980008F5980008FF
S31508000040CF400008F9980008FD98000801990008B3
S3150800005005990008099900080D99000811990008E2
S3150800006015990008199900081D9900082199000892
S3150800007025990008299900082D9900083199000842
S3150800008035990008399900083D99000841990008F2
S3150800009045990008499900084D99000851990008A2
S315080000A055990008DB2C0008599900085D99000845
S315080000B0BD2B000861990008659900086999000830
S315080000C06D990008719900087599000879990008D2
S315080000D07D9900083115000881990008851E0008D9
S315080000E085990008899900088D9900080336000843
S315080000F0919900080022284904E003780B70491CEE
S31508000100521C401C0378002B07D00378082BF4D127
S31508000110012AF6DB491E521EF3E700200870491C27
S315080001201D48704701201D4981F8280000207047A6
S3150800013010B50400194890F82800022801D10220B9
S3150800014016E0164890F82800002801D101200FE093
S31508000150200001F079F9282801D3012008E02100C0
S315080001600E4801F091F902200C4981F82800002078
S3150800017010BD80B5094890F82800022809D1012148
S31508000180064800F00DF80121044A82F82810C0B28A
S3150800019000E0002002BD0000B02400201824002042
S315080001A02DE9F047BAB080460D00404601F04CF9FB
S315080001B00600DFF8980D007800281FD098F8000090
S315080001C01B2812D10020DFF8841D0870DFF8801D77
S315080001D003A801F059F903A801F028FB0400E4B2CA
S315080001E0002C06D02000C0B205E04146012001F0EF
S315080001F0A1FE2000C0B23AB0BDE8F08798F800002A
S31508000200302818D031286CD0322800F0C080412818
S3150800021000F01381432800F0A681442800F0CF811E
S31508000220472800F03F81482800F07181542800F0E3
S31508000230188200F07BBF01F02BF80400E4B2002C12
S315080002404DD1EDB2002D0AD0DFF89C1D03A801F0B0
S315080002501BF903A801F0F8F803A901F06BFEDFF813
S31508000260BC1D03A801F010F903A801F0DFFA040089
S31508000270E4B2002C02D02000C0B2BCE7DFF8A00D23
S31508000280B0F90020DFF89C1D03A802F033F903A893
S3150800029001F0CCFA0400E4B2002C02D02000C0B26F
S315080002A0A9E7DFF87C0DB0F90220DFF8A41D03A842
S315080002B002F020F903A801F0B9FA0400E4B2002C10
S315080002C002D02000C0B296E7DFF8540DB0F904203A
S315080002D0DFF8801D03A802F00DF900F038BF00F022
S315080002E036BF00F0D5FF0400E4B2002C4DD1EDB2C4
S315080002F0002D0AD0DFF8F01C03A801F0C5F803A802
S3150800030001F0A2F803A901F015FEDFF8C81D03A83D
S3150800031001F0BAF803A801F089FA0400E4B2002C47
S3150800032002D02000C0B266E7DFF8F40CB0F9062068
S31508000330DFF8A41D03A802F0DDF803A801F076FA99
S315080003400400E4B2002C02D02000C0B253E7DFF864
S31508000350D00CB0F90820DFF8841D03A802F0CAF80B
S3150800036003A801F063FA0400E4B2002C02D02000CE
S31508000370C0B240E7DFF8A80CB0F90A20DFF8601D24
S3150800038003A802F0B7F800F0E2BE00F0E0BE00F005
S315080003907FFF0400E4B2002C4DD1EDB2002D0AD047
S315080003A0DFF8441C03A801F06FF803A801F04CF825
S315080003B003A901F0BFFDDFF82C1D03A801F064F8BE
S315080003C003A801F033FA0400E4B2002C02D020009E
S315080003D0C0B210E7DFF8480CB0F90C20DFF8A01D12
S315080003E003A802F087F803A801F020FA0400E4B293
S315080003F0002C02D02000C0B2FDE6DFF8240CB0F9CC
S315080004000E20DFF8801D03A802F074F803A801F097
S315080004100DFA0400E4B2002C02D02000C0B2EAE6CD
S31508000420DFF8FC0BB0F91020DFF89C1D03A802F0DA
S3150800043061F800F08CBE00F08ABEDFF8900D02F07D
S3150800044017F90400E4B2002C2AD1EDB2002D0AD027
S31508000450DFF8941B03A801F017F803A800F0F4FFCF
S3150800046003A901F067FDDFF8681D03A801F00CF881
S3150800047003A801F0DBF90400E4B2002C02D0200046
S31508000480C0B2B8E6DFF8440D006802F05BF9020076
S315080004900B00DFF8401D03A802F02CF800F057BE49
S315080004A000F055BEDFF8240D02F010F90400E4B29E
S315080004B0002C2AD1EDB2002D0AD0DFF82C1B03A898
S315080004C000F0E2FF03A800F0BFFF03A901F032FD28
S315080004D0DFF8041D03A800F0D7FF03A801F0A6F96A
S315080004E00400E4B2002C02D02000C0B283E6DFF894
S315080004F0DC0C006802F026F902000B00DFF8DC1CB1
S3150800050003A801F0F7FF00F022BE00F020BE02F0BB
S31508000510A8F9DFF8581D0860EDB2002D0AD0DFF8FB
S31508000520C81A03A800F0B0FF03A800F08DFF03A9BE
S3150800053001F000FDDFF8381D03A800F0A5FF03A8A9
S3150800054001F074F90400E4B2002C02D02000C0B215
S3150800055051E6DFF8180D0268DFF8181D03A801F048
S31508000560C9FF00F0F4BD02F011FCDFF80C1D08808D
S31508000570EDB2002D0AD0DFF8701A03A800F084FF48
S3150800058003A800F061FF03A901F0D4FCDFF8EC1C16
S3150800059003A800F079FF03A801F048F90400E4B2C3
S315080005A0002C02D02000C0B225E6DFF8CC0C028869
S315080005B0DFF8CC1C03A801F09DFF00F0C8BD02F0CF
S315080005C0EFFBDFF8B41C488002F0EEFBDFF8A81C4E
S315080005D08880EDB2002D0AD0DFF80C1A03A800F0C7
S315080005E053FF03A800F030FF03A901F0A3FCDFF8CE
S315080005F0F01B03A800F048FF03A801F017F9040050
S31508000600E4B2002C02D02000C0B2F4E5DFF8D41B17
S3150800061003A800F039FF03A801F008F90400E4B2C2
S31508000620002C02D02000C0B2E5E5DFF84C0C428869
S31508000630DFF8B41B03A801F05DFF03A801F0F6F884
S315080006400400E4B2002C02D02000C0B2D3E5DFF8E3
S31508000650280C8288DFF8941B03A801F04BFF00F0F2
S3150800066076BDF6B2022E06DADFF8841B03A800F080
S315080006700BFF00F05ABD98F80100432800F00882E5
S31508000680442800F00C82462800F0E68449280DD05C
S315080006904B2800F03E824C2800F0F484522800F0E3
S315080006A01982552800F06A8400F02EBDDFF8D41BA5
S315080006B003A800F0E9FEF6B2092E13DAEDB2002D12
S315080006C00AD0DFF8241903A800F0DEFE03A800F01C
S315080006D0BBFE03A901F02EFCDFF8AC1B03A800F053
S315080006E0D3FED4E198F80200522800F0C3805328BC
S315080006F040F0C88198F803003A2803D198F8060014
S315080007002E2813D0EDB2002D0AD0DFF8DC1803A886
S3150800071000F0BAFE03A800F097FE03A901F00AFC50
S31508000720DFF8681B03A800F0AFFEA2E0EDB2002DCB
S315080007300AD0DFF8B41803A800F0A6FE03A800F054
S3150800074083FE03A901F0F6FB98F904008DF8000072
S3150800075098F905008DF8010000208DF8020068461A
S3150800076000F048FD002805D1DFF8D01B03A800F0EB
S315080007708BFE7EE0684600F059FD050098F90700F3
S315080007808DF8000098F908008DF8010000208DF812
S315080007900200684600F02EFD002805D1DFF8A01BF0
S315080007A003A800F071FE64E0684600F03FFD06000D
S315080007B0002E06D12A00DFF88C1B03A801F09AFE4A
S315080007C02DE05FF000095FF0000A07E0684600F0D8
S315080007D02DFD26A901F80A001AF1010AB2451EDA0A
S315080007E0032000FB0AF0404490F90A008DF8000047
S315080007F0032000FB0AF0404490F90B008DF8010035
S3150800080000208DF80200684600F0F4FC0028DDD1CF
S31508000810DFF8281B03A800F037FE5FF00109B9F1DD
S31508000820000F05D12A00DFF8201B03A801F062FE9D
S315080008305FF0000A0CE026A810F80A20D6A1684640
S3150800084001F058FE694603A802F0C6FA1AF1010A31
S31508000850B245F0DBD1A103A802F0BEFA731E9BB223
S315080008600DF199029DF898102800C0B202F04BFBD2
S3150800087004000CE198F803003A2807D198F8060016
S315080008802E2803D198F809002E2813D0EDB2002D92
S315080008900AD0DFF8541703A800F0F6FD03A800F005
S315080008A0D3FD03A901F046FBDFF8A01A03A800F060
S315080008B0EBFDE6E0EDB2002D0AD0DFF82C1703A811
S315080008C000F0E2FD03A800F0BFFD03A901F032FB2A
S315080008D098F904008DF8000098F905008DF80100D4
S315080008E000208DF80200684600F084FC002805D137
S315080008F0DFF85C1A03A800F0C7FDC2E0684600F0FE
S3150800090095FC050098F907008DF8000098F908008D
S315080009108DF8010000208DF80200684600F06AFC98
S31508000920002805D1DFF82C1A03A800F0ADFDA8E0D1
S31508000930684600F07BFC060098F90A008DF800006E
S3150800094098F90B008DF8010000208DF80200684622
S3150800095000F050FC002805D1DFF8FC1903A800F0C8
S3150800096093FD8EE0684600F061FC0700002E06D174
S315080009702A00DFF8E81903A801F0BCFD2DE05FF0B6
S3150800098000095FF0000A07E0684600F04FFC26A958
S3150800099001F80A001AF1010AB2451EDA032000FB23
S315080009A00AF0404490F90D008DF80000032000FB82
S315080009B00AF0404490F90E008DF8010000208DF8E9
S315080009C00200684600F016FC0028DDD1DFF8901911
S315080009D003A800F059FD5FF00109B9F1000F05D130
S315080009E02A00DFF8801903A801F084FD5FF0000AE9
S315080009F00CE026A810F80A2067A1684601F07AFDDF
S31508000A00694603A802F0E8F91AF1010AB245F0DBD3
S31508000A1062A103A802F0E0F99DF8981038000300D7
S31508000A209BB226AAC9B22800C0B202F0C9FA0400CD
S31508000A30E4B2002C25D103A800F0F8FE0400E4B2C5
S31508000A40002C03D02000C0B2FFF7D5BBDFF8181979
S31508000A5003A801F04FFD5FF0000A0CE026A810F885
S31508000A600A204DA1684601F045FD694603A802F033
S31508000A70B3F91AF1010ABA45F0DB48A103A802F056
S31508000A80ABF904E0DFF8E41803A800F0FDFC4CE33A
S31508000A900024DFF8DC1803A800F0F6FC45E303F0B1
S31508000AA01AFA0600EDB2002D0CD0B6B23200DFF805
S31508000AB0C41803A801F01EFD03A800F0C5FC03A98D
S31508000AC001F038FAB6B23200DFF8AC1803A801F024
S31508000AD011FD2AE3EDB2002D0DD0DFF8A01803A80A
S31508000AE000F0D2FC03A800F0AFFC03A901F022FA3B
S31508000AF0012003F017F9DFF8881803A800F0C4FCF2
S31508000B00002003F024F9DFF87C1803A801F0F2FCB2
S31508000B100BE30024F6B2042E13DAEDB2002D0AD048
S31508000B20DFF8641803A800F0AFFC03A800F08CFCFB
S31508000B3003A901F0FFF9DFF8541803A800F0A4FC94
S31508000B401BE298F80200522800F08281532840F0F0
S31508000B50018298F80300422800F0FC80532803D04D
S31508000B60542800F07E806DE198F804003A2817D0E2
S31508000B70EDB2002D0AD0DFF8181803A800F084FC9F
S31508000B8003A800F061FC03A901F0D4F9DFF8041802
S31508000B9003A800F079FC63E025782E000D0A000012
S31508000BA0F6B2062E0FDB01275FF0050AF6B2B2454C
S31508000BB00ADA18F80A0003F069FA002800D10027B3
S31508000BC01AF1010AF2E70027002F13D1EDB2002D22
S31508000BD00AD0DFF8C41703A800F056FC03A800F0F3
S31508000BE033FC03A901F0A6F9DFF8B01703A800F053
S31508000BF04BFC35E018F1050121A800F045FC21A8B9
S31508000C0003F049FA011E42F21072914213D3EDB273
S31508000C10002D0AD0DFF8801703A800F035FC03A8DA
S31508000C2000F012FC03A901F085F9DFF8701703A894
S31508000C3000F02AFC14E003F082FAEDB2002D0AD087
S31508000C40DFF85C1703A800F01FFC03A800F0FCFB04
S31508000C5003A901F06FF9DFF84C1703A801F04AFC65
S31508000C60F5E098F804003A2813D0EDB2002D0AD022
S31508000C70DFF8341703A800F007FC03A800F0E4FB2C
S31508000C8003A901F057F9DFF8241703A800F0FCFBC5
S31508000C905FE0F6B2062E0FDB01275FF0050AF6B213
S31508000CA0B2450ADA18F80A0003F0F0F9002800D16C
S31508000CB000271AF1010AF2E70027002F13D1EDB237
S31508000CC0002D0AD0DFF8E81603A800F0DDFB03A81C
S31508000CD000F0BAFB03A901F02DF9DFF8D81603A82E
S31508000CE000F0D2FB35E018F1050121A800F0CCFB95
S31508000CF021A803F0D0F9011E42F21072914213D3D3
S31508000D00EDB2002D0AD0DFF8A81603A800F0BCFB48
S31508000D1003A800F099FB03A901F00CF9DFF87C168B
S31508000D2003A800F0B1FB14E003F032FAEDB2002D8F
S31508000D300AD0DFF8841603A800F0A6FB03A800F083
S31508000D4083FB03A901F0F6F8DFF8581603A801F0AB
S31508000D50D1FB7CE098F804003A2813D0EDB2002DB8
S31508000D600AD0DFF8581603A800F08EFB03A800F097
S31508000D706BFB03A901F0DEF8DFF8441603A800F0C0
S31508000D8083FB5EE0F6B2062E0FDB01275FF0050A4D
S31508000D90F6B2B2450ADA18F80A0003F077F900281D
S31508000DA000D100271AF1010AF2E70027002F13D114
S31508000DB0EDB2002D0AD0DFF80C1603A800F064FB8C
S31508000DC003A800F041FB03A901F0B4F8DFF8F81511
S31508000DD003A800F059FB34E018F1050121A800F03A
S31508000DE053FB21A803F057F9011EB1F57A7F13D3F7
S31508000DF0EDB2002D0AD0DFF8CC1503A800F044FBAD
S31508000E0003A800F021FB03A901F094F8DFF8B81550
S31508000E1003A800F039FB14E003F0C9F9EDB2002D80
S31508000E200AD0DFF8A81503A800F02EFB03A800F0E7
S31508000E300BFB03A901F07EF8DFF8681503A801F09B
S31508000E4059FB04E0DFF8881503A800F01DFB94E0C1
S31508000E5098F8030042284AD0532802D054282CD0A8
S31508000E605FE0EDB2002D16D003F0B6F903F0D2F923
S31508000E70DFF8601503F0DEF901F064FC02000B00F0
S31508000E80DFF8541503A801F035FB03A800F0DCFAD7
S31508000E9003A901F04FF803F09FF903F0BBF9DFF857
S31508000EA0341503F0C7F901F04DFC02000B00DFF81A
S31508000EB02C1503A801F01EFB46E0EDB2002D0DD05F
S31508000EC003F08DF90200DFF8181503A801F012FBEC
S31508000ED003A800F0B9FA03A901F02CF803F07FF98A
S31508000EE00200DFF8001503A801F004FB2CE0EDB2C0
S31508000EF0002D0DD003F076F90200DFF8EC1403A8F4
S31508000F0001F0F8FA03A800F09FFA03A901F012F815
S31508000F1003F068F90200DFF8D41403A801F0EAFA2E
S31508000F2012E0EDB2002D0AD0DFF8C41403A800F0D1
S31508000F30ABFA03A800F088FA03A900F0FBFFDFF874
S31508000F40B41403A800F0A0FA17E000BFA9250020F2
S31508000F50E8830008EDB2002D0AD0DFF82C1403A8A8
S31508000F6000F092FA03A800F06FFA03A900F0E2FF76
S31508000F70DFF8841403A800F087FAD6E00024F6B256
S31508000F80032E13DAEDB2002D0AD0DFF8701403A889
S31508000F9000F07AFA03A800F057FA03A900F0CAFF8E
S31508000FA0DFF85C1403A800F06FFA50E098F8020026
S31508000FB044281BD0452837D1DFF8481403A801F088
S31508000FC099FAEDB2002D0AD0DFF83C1403A800F018
S31508000FD05BFA03A800F038FA03A900F0ABFF01207A
S31508000FE003F0C7F8040032E02C8E0008DFF81C1462
S31508000FF003A801F07FFAEDB2002D0AD0DFF810142D
S3150800100003A800F041FA03A800F01EFA03A900F0AD
S3150800101091FF002003F0ADF8040018E04C8E00089C
S31508001020302500206C8E0008EDB2002D0AD0DFF8BE
S31508001030CC1303A800F028FA03A800F005FA03A9C0
S3150800104000F078FFDFF8CC1303A800F01DFA6CE077
S315080010508C8E0008AC8E000803F04FF8EDB2002D18
S315080010600AD0DFF8B41303A801F044FA03A800F085
S31508001070EBF903A900F05EFFDFF8A01303A801F05F
S3150800108039FA52E002F027FF0600EDB2002D11D022
S31508001090DFF88C1303A801F02DFA03A800F0D4F9A1
S315080010A003A900F047FFB6B23200B34903A801F01E
S315080010B021FA3AE0DFF86C1303A801F01BFA03A83B
S315080010C000F0B4FB0400E4B2002C0DD02000C0B23E
S315080010D0FFF791B8B4960008CC8E0008EC8E00088D
S315080010E00C8F0008DC920008CF4903A801F002FA29
S315080010F003A800F09BFB0400E4B2002C03D02000F8
S31508001100C0B2FFF778B8FEE7EDB2002D09D0C7499F
S3150800111003A800F0B9F903A800F096F903A900F0AE
S3150800112009FFB54903A800F0AFF910E0EDB2002DAC
S3150800113009D0BE4903A800F0A7F903A800F084F96E
S3150800114003A900F0F7FEAC4903A800F09DF9E4B244
S31508001150002C05D0022C09D003D3032C0BD013E0A6
S3150800116016E0B34903A800F08FF911E0B14903A8C6
S3150800117000F08AF90CE0B04903A800F085F907E009
S315080011802C8F00084C8F0008AC4903A800F07CF9A6
S3150800119003A800F04BFB0400E4B2002C03D02000A7
S315080011A0C0B2FFF728B8A64903A800F06DF903A84E
S315080011B000F03CFB0400E4B2002C3FF41AA820001F
S315080011C0C0B2FFF718B800BF6C8F0008982500203A
S315080011D078940008F8920008909400081493000880
S315080011E0A894000820840008EC870008908400086A
S315080011F00C90000810B50400200000F025F9002224
S31508001200002100E0491C81420EDA625C303A0A2A63
S3150800121003D3625C413A062A01D2002200E0012289
S31508001220012AEFD1002000E0012010BD38B50400E6
S3150800123000220025200000F007F9002104E0625C86
S31508001240303A12EB0515491C81420DDA625C303AD8
S315080012500A2AF4D3625C413A062A02D2625C373A19
S31508001260EFE75FF0FF3000E0280032BD942500204C
S315080012708C8F0008AC8F000868250020CC8F0008EA
S31508001280EC8F00081C8B0008148800083C880008AE
S31508001290E0B500208DF8080002A803F081F868463A
S315080012A003F0DEF8002818D100200DE0694631F970
S315080012B010104FF47A62514348F2120291FBF2F190
S315080012C0604A22F81010401C0328EFDB684603F03A
S315080012D002F900281BD1002010E001202DE0694604
S315080012E031F9101041F28832514346F69B7291FB50
S315080012F0F2F1544A02EB4002D180401C0328EEDB8F
S31508001300684603F0DBFB002816D1002010E0012018
S3150800131013E0694631F910104FF47A62514346F6E4
S31508001320E82291FBF2F1474A02EB40029181401C08
S315080013300328EEDB002000E001200EBD148600081D
S31508001340C4840008C0940008C89600086488000889
S3150800135040860008F8840008AC830008D894000882
S315080013608C880008DC96000890970008B488000866
S315080013706C8600082C900008F09400084C90000831
S31508001380DC880008408B00086C9000080489000877
S31508001390648B000898860008888B0008AC8B0008C8
S315080013A08C9000089C970008D08B0008C48600081B
S315080013B0F48B0008188C0008AC9000083C8C0008D8
S315080013C0F0860008608C0008848C0008CC90000821
S315080013D0A88C000800002041EC9000081C87000833
S315080013E030930008089500084C9300080C910008F3
S315080013F02C910008CC8C00084C9100086C910008D0
S315080014002C89000854890008689300087C8900081C
S3150800141084930008A4890008209500082C850008F4
S31508001420A0930008F08C0008148D00082C8E000884
S31508001430388D0008CC890008F48900084887000818
S31508001440D89800083025002000F10103810704D050
S3150800145010F8011B89B18107FAD10268B2F101318E
S31508001460914311F0803F04BF50F8042FF6E710F8B7
S31508001470011B11B110F8011BFBE7C01A704702687F
S31508001480531C0360117070475FEA000C830706D08F
S3150800149011F8013B00F8013BB3B18307F8D10A689C
S315080014A0B2F1013323EA020313F0803F02BF40F88A
S315080014B0042B51F8042FF3E711F8013B00F8013B20
S315080014C013B111F8013BF9E760467047012110F0A6
S315080014D01F029140DFF8902340B2400942F82010DD
S315080014E07047012110F01F029140DFF8802340B2B7
S315080014F0400942F820107047401CC0B2322800DB71
S315080015000020C0B2704710B50C00C0B2FFF7F4FF58
S31508001510E4B2A04201D1012000E00020C0B210BD13
S31508001520C0B2C9B2401A002800D53230C0B27047DE
S3150800153010B540F22771DFF8380303F0A5FB012840
S3150800154006D1002240F22771DFF8240303F066FB78
S3150800155040F26531C64803F097FB012803D1C44819
S3150800156003F058FB28E040F22551C14803F08CFBF4
S31508001570012821D1BE4803F04DFB0400BD4890F870
S315080015803310BC4890F83200FFF7BDFF002813D18E
S31508001590B848B84991F832104454B64890F8320021
S315080015A0FFF7AAFFB34981F83200E4B20D2C03D144
S315080015B00120B04981F8340010BDAE4890F83400D7
S315080015C070470020AB4981F83400704710B5040015
S315080015D01CE0A84890F83300A64991F832108842D2
S315080015E014D02520FFF77DFFA248A24991F83310B1
S315080015F0405C2070641C9F4890F83300FFF77CFF1E
S315080016009C4981F833002520FFF760FF99489949DE
S3150800161091F83310405C0D2809D0964890F832109E
S31508001620944890F83300FFF77BFF0028D1D1914802
S31508001630904991F83310405C0A2806D08D488D49A8
S3150800164091F83310405C0D280DD12520FFF749FF8E
S31508001650884890F83300FFF74FFF864981F8330032
S315080016602520FFF733FF00202070641CFFF7A9FF31
S3150800167010BD00B587B000207E4981F834000020EF
S315080016807C4981F8330000207A4981F8320001212B
S315080016904FF4804003F0AFFB0121012003F0ABFBC0
S315080016A007220921744803F037FC07220A217248E9
S315080016B003F032FC4FF4C060019002208DF8080058
S315080016C000208DF80A0000208DF80B0001208DF807
S315080016D0090001A9684803F0C3FB4FF4964003903C
S315080016E00020ADF818000C20ADF816000020ADF863
S315080016F014000020ADF812000020ADF8100003A970
S315080017005B4803F017FA012240F22551584803F0C6
S3150800171085FA01226021564803F080FA25208DF8C3
S31508001720000000208DF8010000208DF8020001203D
S315080017308DF80300684603F017FC01214C4803F0B6
S3150800174057FA01204D49086000204D49088007B026
S3150800175000BD4FF4DC7000E0401E0028FCD1704745
S3150800176038B50400012502E0FFF7F3FF641EEDB269
S31508001770002D0AD080213E4803F079FA012801D1CC
S31508001780002502E0002CEFD10025002C01D0002016
S3150800179000E0032032BD38B50400150000203748A4
S315080017A00068012801D022283ED1002C02D089B237
S315080017B0002901D1012038E030480068222803D1E9
S315080017C032202E4A106002E012202C4A10602C4863
S315080017D0018005E02178641C89B2254803F016FAD1
S315080017E02748008800280BD025480088401E244931
S315080017F008802800FFF7B4FF0028EBD0032014E088
S315080018002800FFF7ADFF002801D003200DE01B4894
S315080018100068322803D122201849086002E0012016
S3150800182016490860002000E0022032BD10B5040009
S315080018302000FFF709FE80B2512801DB012011E0E4
S315080018400E490968012901D002200BE00D4A010062
S3150800185089B22000FFF79FFFC0B2002801D0C0B2AE
S3150800186000E0C0B210BD000000E100E080E100E049
S3150800187000380140E0230020000002409C2500209B
S31508001880A4250020E0930400012110F01F029140D6
S31508001890DFF8642B40B2400942F820107047012156
S315080018A010F01F029140DFF8542B40B2400942F86D
S315080018B02010704780B5DFF8BC2712681071DFF872
S315080018C0B40700684171DFF8B007DFF8A8170968A0
S315080018D00860DFF8A0070068011DDFF898070068B0
S315080018E0006803F010FCDFF8180B0068001D02BD45
S315080018F000B587B001215FF4802003F08CFA01213E
S31508001900022003F068FA07220A21DFF8F80A03F032
S3150800191003FB07220B21DFF8EC0A03F0FDFA072286
S315080019200D21DFF8E00A03F0F7FA07220E21DFF8A7
S31508001930D40A03F0F1FA4FF4D840009002208DF84B
S31508001940040000208DF8060000208DF8070001200D
S315080019508DF805006946DFF8AC0A03F081FA4FF402
S315080019600040009001208DF8040001208DF8060043
S3150800197001208DF8070001208DF805006946DFF87B
S31508001980840A03F06DFA5FF4E13003904FF4407077
S31508001990ADF818000C20ADF816000020ADF81400BC
S315080019A00020ADF812000020ADF8100003A9DFF8FA
S315080019B0580A03F0BFF8012240F22551DFF8480A19
S315080019C003F02CF901226021DFF83C0A03F026F91E
S315080019D027208DF8080000208DF8090000208DF8D2
S315080019E00A0001208DF80B0002A803F0BDFA0121B8
S315080019F0DFF8140A03F0FCF80020DFF8101AA1F843
S31508001A0020030020DFF8081A81F896010020DFF885
S31508001A10001A81F897010020DFF8F41981F8980177
S31508001A200020DFF8EC1981F899010020DFF8E019A9
S31508001A3081F89A010020DFF8D819A1F89C01012045
S31508001A40DFF8CC1981F89E0107B000BD401CC0B272
S31508001A50C82800DB0020C0B27047C0B2C9B2401A1D
S31508001A60002800D5C830C0B2704738B504000D004C
S31508001A7020E02720FFF713FF0020DFF8941981F8EC
S31508001A809501DFF88C09DFF8881991F89311084455
S31508001A9090F8CA0028706D1CDFF8740990F8930155
S31508001AA0FFF7D4FFDFF8681981F893012720FFF7BD
S31508001AB0EBFE641E002C16D0DFF8540990F893014B
S31508001AC0DFF84C1991F892118842D2D1012240F2DE
S31508001AD02551DFF8340903F0A1F801226021DFF867
S31508001AE0280903F09BF8002032BDDFF8240990F896
S31508001AF09501704780B5FFF7FBFE4FF40041DFF80C
S31508001B00040903F000FA0FF22D40DFF808190860FF
S31508001B10DFF80409DFF804190860DFF80409DFF8BC
S31508001B200419086002F0F0F84FF40041DFF8D40811
S31508001B3003F0E7F901BD10B586B00024DFF8D00838
S31508001B40D0F8A001002805D103F0CFFADFF8C018B5
S31508001B50C1F8A001DFF8B808D0F8A001002800F005
S31508001B600781DFF8AC08D0F8A0010068DFF8B818DC
S31508001B700840DFF89818DFF89428B2F8202341F8CF
S31508001B802200DFF88808B0F82003C0B2FFF75EFF2E
S31508001B90DFF87818A1F82003DFF87408D0F8A00158
S31508001BA00068DFF884180840DFF880180860DFF856
S31508001BB07C080068A02800F08B80DFF8741888423B
S31508001BC02ED0DFF87018884257D0DFF86C18884294
S31508001BD000F08480DFF8641888422ED0DFF8601899
S31508001BE088427BD0DFF85C18884259D0DFF858184D
S31508001BF0884200F09280DFF8541888425BD0DFF8FC
S31508001C005018884264D0DFF84C18884260D0DFF854
S31508001C104818884262D0DFF84418884258D086E0CF
S31508001C20DFF83C08FFF702FEDFF8380802F0BEF8D6
S31508001C300120DFF8DC1781F896010020DFF8D017BD
S31508001C4081F8970102210220FFF734FE0088FF2859
S31508001C5012DCE4B2002C0AD1DFF80C08FFF7E6FD27
S31508001C60DFF8080802F0A2F8062002F070F8002053
S31508001C70DFF89C17C1F8A00169E0DFF8F407FFF761
S31508001C80D5FDDFF8F00702F091F80120DFF880179C
S31508001C9081F897010020DFF87817C1F8A00156E00F
S31508001CA0A2A0FFF7C3FD02F0C2F80020DFF8601714
S31508001CB0C1F8A0014BE002F03EF89DA0FFF7B6FD83
S31508001CC002F0B5F80020DFF84817C1F8A0013EE099
S31508001CD00020DFF83C17C1F8A00138E0DFF89807C4
S31508001CE0FFF7A4FDDFF82807D0F8A001807A0028BE
S31508001CF00DD0DFF81C07D0F8A00110F10B02DFF8B1
S31508001D007C17684600F0F6FB6846FFF78FFD002053
S31508001D10DFF8FC16C1F8A00119E0DFF86407FFF741
S31508001D2085FD0020DFF8E816C1F8A0010FE0DFF80E
S31508001D30FC060268DFF84C17684600F0DBFB6846CD
S31508001D40FFF774FD0020DFF8C816C1F8A001DFF818
S31508001D50C00690F89311DFF8B80690F89201FFF7DD
S31508001D607CFE002804D00120DFF8A41681F895012E
S31508001D7006B010BDDFF8980690F896017047DFF8B0
S31508001D80900690F897017047DFF8840690F8980156
S31508001D907047DFF87C0690F899017047DFF87016EF
S31508001DA081F898017047DFF8681681F8990170473D
S31508001DB000B58BB00020DFF8580690F89A01032882
S31508001DC042D1DFF84C0690F89E01012801D1012086
S31508001DD03BE001F012FC002834D001F009FCDFF8E2
S31508001DE03006B0F89C01401CDFF82416A1F89C01C7
S31508001DF002F0F5F90300DFF81806B0F89C21DFF8C1
S31508001E008816684600F076FB6846FFF70FFD6846B9
S31508001E10FFF71AFB694600F08DF802F0E0F9DFF8E3
S31508001E20F015B1F89C1188420CD2DFF86006FFF76E
S31508001E30FDFC0221122003F0C0F901F0EDFF12208B
S31508001E4001F085FF002000E00120C0B20BB000BD04
S31508001E50DFF8BC1581F89E017047DFF8B41591F8D4
S31508001E609A11032903D1DFF8A81581F89E01704756
S31508001E70DFF89C0590F89A017047DFF8941581F809
S31508001E809A01704780B540F22771DFF87C0502F0A9
S31508001E90FBFE012827D1DFF8780590F8C900DFF89E
S31508001EA0701591F8C810884216D0DFF86405DFF877
S31508001EB0601591F8C910415C89B2DFF84C0502F04B
S31508001EC0A5FEDFF84C0590F8C900FFF7BFFDDFF85F
S31508001ED0401581F8C90006E0002240F22771DFF8B4
S31508001EE0280502F09BFE40F26531DFF81C0502F07A
S31508001EF0CBFE012809D10020DFF8141581F89401DA
S31508001F00DFF8040502F086FE0EE040F22551DFF800
S31508001F10F80402F0B9FE012806D1DFF8EC0402F055
S31508001F2079FEC0B200F0AAF801BD00002D2A2D00E6
S31508001F302D4F2D00F8B504000D0054F07F40DFF852
S31508001F40CC14DFF8C824B2F8202341F82200DFF8C1
S31508001F50BC04B0F82003C0B2FFF778FDDFF8AC1474
S31508001F60A1F8200328786978090411EB0060A9789C
S31508001F7010EB0120E9780818DFF89014DFF88C24B4
S31508001F80B2F8202341F82200DFF88004B0F82003D5
S31508001F90C0B2FFF75BFDDFF87414A1F820032879B7
S31508001FA06979090411EB0060A97910EB0120E97938
S31508001FB00818DFF85814DFF85424B2F8202341F83B
S31508001FC02200DFF84804B0F82003C0B2FFF73EFD50
S31508001FD0DFF83814A1F820034FF4FA6726E02878CA
S31508001FE0DFF82C14DFF8282492F8C8208854272014
S31508001FF0FFF755FCDFF8180490F8C800DFF810144E
S3150800200091F8C910884206D1012240F22771DFF8FB
S31508002010F80302F003FEDFF8F80380F8C86027200B
S31508002020FFF732FC641E6D1C4FF4FA67002C1FD0B4
S31508002030DFF8DC0390F8C800FFF708FD060030005B
S31508002040DFF8CC1391F8C910C0B28842C7D138005E
S31508002050471E0028EAD10020DFF8B41381F896015C
S3150800206002210F2003F0A9F8082001F070FEDDE731
S31508002070F1BD0000000000202002030130B5A1B028
S315080020800024DFF80C14DFF80C2412788854DFF8E3
S3150800209004140978491CDFF8FC231170C0B20A2819
S315080020A003D0C0B23F2840F0A3810020DFF8E41334
S315080020B00870DFF8DC23DFF8E01302A800F01AFA4C
S315080020C002A8FFF7B3FB0400E4B2002C02D02000FC
S315080020D0C0B28FE10422DFF8C413DFF8B40303F0BB
S315080020E0D6F8002811D10120C94981F896010020A7
S315080020F0C74981F898010020C54981F89901DFF898
S31508002100A003FFF793FB04006AE10922DFF89413A2
S31508002110DFF87C0303F0BBF8002811D10120BC4985
S3150800212081F897010120BA4981F89A010020B84937
S31508002130A1F89C01DFF87003FFF778FB04004FE174
S315080021400C22DFF86813DFF8480303F0A0F800282C
S315080021501ED10020AE4981F897010020AC4981F8CC
S3150800216098010020AA4981F899010120A84981F817
S315080021709A010020A649A1F89C0101F0D5FE01F0BC
S315080021808AF901F0D7FECA48FFF750FB040027E199
S315080021900422C849BE4803F07AF800284DD102F057
S315080021A018F8002817D002F01DF8040002F017F8F6
S315080021B0050002F00BF80194009502F02BF8BE49D1
S315080021C002F038F800F0BEFA02000B00BB49B0482E
S315080021D000F090F916E002F005F8040001F0FFFFA0
S315080021E0050001F0F3FF0194009502F013F8B249D7
S315080021F002F020F800F0A6FA02000B00B049A44845
S3150800220000F078F9A248FFF711FB0400E4B2002CAD
S3150800221002D02000C0B2EDE09D48FFF715F99C49B1
S31508002220FFF788FE0A2001F09BFF0120FFF7BBFDA0
S31508002230A448FFF7FBFA0400D2E00622A249944814
S3150800224003F025F8002840F0B880FFF7A2FD002823
S315080022502CD09E4902A800F04DF902A8FFF7E6FA2D
S315080022600400E4B2002C02D02000C0B2C2E002A8EA
S31508002270FFF7EAF802A9FFF75DFE0020FFF793FDD6
S315080022800120FFF78BFD01F023FF01F09FFF01F00E
S3150800229067FF03205E4981F89A0100205C49A1F88E
S315080022A09C018B48FFF7C2FA040035E0584890F8BD
S315080022B09A01022820D10320554981F89A01002065
S315080022C05349A1F89C01814902A800F013F902A814
S315080022D0FFF7ACFA0400E4B2002C02D02000C0B22A
S315080022E088E002A8FFF7B0F802A9FFF723FE7848AE
S315080022F0FFF79CFA04000FE0454890F89A01032876
S315080023000AD100204249A1F89C017248FFF78EFACB
S3150800231004000120FFF79CFD6F4911A8FFF7B4F8E8
S315080023206E4911A802F0C9FF010000292DD000202E
S31508002330087011A8FFF788F8002826D011A8FDF71D
S31508002340F7FE0400E4B2022C0ED1654902A800F09B
S31508002350D1F802A8FFF76AFA04004D48FFF774F8A7
S315080023604B49FFF7E7FD10E0E4B2002C0DD05D49BC
S3150800237002A800F0BFF802A8FFF758FA040044487C
S31508002380FFF762F84249FFF7D5FD01F097FE020014
S3150800239055493F4800F0AEF83D48FFF747FA0400B4
S315080023A0E4B2002C02D02000C0B223E03848FFF780
S315080023B04BF83749FFF7BEFD12E008224B4934486F
S315080023C002F065FF002807D102210E2002F0F5FE73
S315080023D00E2001F0BCFC03E04548FFF727FA04008D
S315080023E0002003E000212A4A1154401C3C28F9DB4E
S315080023F02000C0B221B030BD00E100E080E100E07D
S31508002400040000200004024000480040281A00206A
S31508002410702000207C2500206B1A000880250020EB
S31508002420EB1A000884250020F800FFFF90250020FD
S31508002430A0000100A0000800A0000900A0000801F3
S31508002440A000080220000A02A0000B02A0000A034E
S3150800245020000A05A000000820000908A0000020A6
S31508002460C49500080097000818940008D895000835
S3150800247030940008EC950008CC8D00086097000899
S31508002480FC9100086C97000800960008149600084E
S31508002490A4230020A625002018920008E897000823
S315080024A010970008789700082896000820970008D3
S315080024B030970008F0970008000020419085000832
S315080024C0BC85000848940008F8970008349200086C
S315080024D0509200083C960008AA230020009800089D
S315080024E06C92000888920008A49200088497000855
S315080024F0509600080CB41CB5044604A801900A4678
S31508002500009401AB694607487844183002F0DAFEB1
S31508002510009A0021117000285CBF0098001B16BCA9
S315080025205DF80CFB5BEFFFFF10B582B004000020DE
S315080025308DF8000000F0E1F8002801D0012074E0D1
S3150800254001236A4620217C48007800F039FD0028DE
S3150800255001D0012069E09DF8000010F08F008DF889
S3150800256000009DF80000217808438DF800009DF8CA
S31508002570000010F0F7008DF800009DF80000E178E3
S3150800258008438DF800009DF8000010F0FB008DF858
S3150800259000009DF80000217908438DF800009DF899
S315080025A0000010F0FE008DF800009DF8000061792B
S315080025B008438DF8000001236A4620215E4800780A
S315080025C000F0A1FC002801D001202EE001236A4674
S315080025D010215948007800F0F3FC002801D00120AA
S315080025E023E09DF8000010F0FC008DF800009DF82F
S315080025F00000617808438DF800009DF8000010F08F
S31508002600F3008DF800009DF80000A17808438DF8C6
S31508002610000001236A4610214748007800F073FC41
S31508002620002801D0012000E0002016BD38B50400BE
S31508002630002503236A46A8213F48007800F0C0FC1D
S31508002640002801D0012012E0002007E06946C0B248
S31508002650095CC0B2C20091400D43401CC0B20328B9
S31508002660F4DB280201D555F07F452560002032BDF0
S3150800267010B582B00400002000906846FFF7D6FF28
S31508002680002801D0012008E0009801F0B9FD5FF0AC
S315080026908B4101F0CFFD2060002016BD10B582B039
S315080026A00400002002236A46AB212348007800F084
S315080026B087FC002801D0012007E09DF801009DF85D
S315080026C0001011EB00202080002016BD10B582B046
S315080026D004006846FFF7E2FF002801D001200BE05E
S315080026E0BDF9000001F08CFD144901F0A3FD144961
S315080026F003F0DAFC2060002016BD80B501236A4687
S3150800270020210D48007800F05BFC002801D001204C
S3150800271011E09DF8000050F080008DF800000123BC
S315080027206A4620210448007800F0EDFB002801D015
S31508002730012000E0002002BDAC0200200000F043AA
S3150800274000002A425FF0FF0C1CEAD05114BF614515
S3150800275006E0C110400721F0E04101F160517047E1
S3150800276079B900F0004100020AD0B0FA80FC00FAFC
S315080027700CF001F16051A1EB0C5101EBD0214005A1
S31508002780704741020CBF40F4E0016FF000010020E1
S315080027907047002101E04008491CB0F5805FFAD275
S315080027A050EA013080B2704780B20105090D80B247
S315080027B0000B11FA00F0704738B504000025002018
S315080027C0002C01D101204BE07E21882000F073FB0C
S315080027D045F24941884207D17F21882000F06BFBEA
S315080027E043F20101884201D0012039E0207855EAF8
S315080027F00035608810F400600543A08810F4C060B6
S315080028000543A07910F010000543E07910F00800A0
S315080028100543207A10F0030005432A0092B20121ED
S31508002820882000F036FBC0B2002801D0C0B217E0FD
S31508002830E068FFF7AEFF020092B20221882000F09E
S3150800284028FBC0B2002801D0C0B209E02069FFF712
S31508002850A0FF020092B20321882000F01AFBC0B242
S3150800286032BD80B50021882000F025FB80B2FFF735
S315080028709BFF02BD00B59BB00121DFF8340502F0CD
S31508002880CAFA01214FF4017002F0B5FA01210320BA
S3150800289002F0A1FA012002F029FA0E220521DFF83A
S315080028A0140502F039FB01220321DFF80C0502F0BA
S315080028B033FB0E220421DFF8000502F02DFB02226D
S315080028C00121DFF8F00402F027FB0E220021DFF8D1
S315080028D0E40402F021FB0420009001208DF8040096
S315080028E000208DF8060000208DF8070001208DF8DD
S315080028F005006946DFF8C00402F0B2FA0122042195
S31508002900DFF8B40402F001FB0820009002208DF8DD
S31508002910040001208DF8060000208DF8070001202C
S315080029208DF805006946DFF8900402F099FA02204E
S31508002930009002208DF8040000208DF80600002083
S315080029408DF8070003208DF805006946DFF8640452
S3150800295002F086FA2020009003208DF8040000205B
S315080029608DF8070001208DF805006946DFF8440454
S3150800297002F076FA102000906946DFF83C0402F06F
S315080029806FFA012000906946DFF8280402F068FA19
S315080029905FF0804003F0C0FC0020ADF82000002066
S315080029A0ADF81A000020ADF818004FF47A400790E9
S315080029B006A95FF0804003F0B9FB0820ADF85C007B
S315080029C00020ADF85E000220ADF8600017A95FF0A0
S315080029D0804003F031FC7020ADF80C000020ADF803
S315080029E014000120ADF80E000020049003A95FF042
S315080029F0804003F0FEFB4FF4A0715FF0804003F0C7
S31508002A0019FC02201390002010900020119000203D
S31508002A10129010A9002003F0F5FC0121002003F014
S31508002A2008FD40F25C41002003F019FD00201490D7
S31508002A305FF4C01015900020169014A803F020FD2E
S31508002A400121202003F02EFD0121DFF8700303F099
S31508002A5029FD1C208DF8080000208DF809000020AB
S31508002A608DF80A0001208DF80B0002A802F07CFA06
S31508002A70012201215FF0804003F03EFC01215FF056
S31508002A80804003F089FBDFF8380303F045FC00209B
S31508002A90ADF820000020ADF81A000020ADF81800A7
S31508002AA00020079006A9DFF8180303F03FFB602013
S31508002AB0ADF80C000020ADF814000120ADF80E00AA
S31508002AC00020049003A9BE4803F093FB0121BC48EB
S31508002AD003F062FB5FF48030099009A803F031FD2A
S31508002AE000208DF82D0000200E9000200D905FF03C
S31508002AF080500C9001208DF83C0000200A900020A0
S31508002B008DF82C000AA9AF4803F0F6FC052301222C
S31508002B100821AC4803F032FD0121AA4803F01BFD49
S31508002B204021A84803F0E3FD0028F9D04FF480714E
S31508002B30A44803F0DCFD0128F8D0A34803F0ECFB19
S31508002B400020ADF820000020ADF81A000120ADF8ED
S31508002B50180041F63F70079006A99B4803F0E6FA6D
S31508002B606020ADF80C000020ADF814000120ADF887
S31508002B700E000020049003A9934803F01BFB4FF4B2
S31508002B80F051914803F054FB19208DF808000020F5
S31508002B908DF8090000208DF80A0001208DF80B0039
S31508002BA002A802F0E1F901220121874803F0A4FBFB
S31508002BB00121854803F0F0FA1BB000BD80B501215C
S31508002BC05FF0804003F0A4FB5FF0804003F06CFBED
S31508002BD07E4909687D4A126880B28018B0EBD11028
S31508002BE07A4908607948006878494968774A526896
S31508002BF012EBD010B0EB1120744948607348006896
S31508002C00C00972494968B0EB11207049097A002950
S31508002C1010D111281FDB01206C49087200206B496E
S31508002C2048816A48007B401C68490873022003F003
S31508002C3069FD10E065494989491C644A518163491F
S31508002C404989FA2907D3042805DA00205F4908725A
S31508002C50022003F063FD5D48008C401C5B49088434
S31508002C605A48008CB0F5FA7F36D3002057490884B5
S31508002C705648007B5549554A527E114448730020F0
S31508002C80524908735148407E401C504948764F487F
S31508002C90407E0C2802DB00204C49487600200021A3
S31508002CA004E04A4A0A44527B1018491C0C29F8DBEE
S31508002CB0002807D14548C069002802D05FF0FF30D8
S31508002CC000E000204149C969404AD2698018891C38
S31508002CD0B0EB91003D49C86101BD10B501213A48E4
S31508002CE003F016FB3A480088962818DA354803F0A8
S31508002CF0FBFC3749364A128801EB82014968344A97
S31508002D00334B1B8802EB8302526880B28018B0EB03
S31508002D1011102F492E4A128801EB820148602C486F
S31508002D200088401C2A49088029480088962818DB0C
S31508002D30002027490880002000210DE0244A02EBE4
S31508002D4081025268904206D2214800EB8100406811
S31508002D501F4AA2F85C12491C9629EFDB1C49A1F808
S31508002D605E021C481A49098830F81140A4B2611E4F
S31508002D70134803F00FFAA4B2610889B2104803F0A9
S31508002D8059FA00210E4803F003FA10BD0F48C0692E
S31508002D90642148430C21B0FBF1F0800880B27047EB
S31508002DA00B48B0F85C0270470948B0F85E027047F5
S31508002DB0030000A000040240000002400001008059
S31508002DC00004004000240140000801408C24002033
S31508002DD008000020A8810008024600E0521C13786B
S31508002DE0002BFBD111F8013B137012F8013B002BA5
S31508002DF0F8D170471CB50024C020009000208DF83B
S31508002E00040000208DF8070001208DF805006946AA
S31508002E10DFF8480302F024F800F076FF4021DFF8D7
S31508002E203C0303F0B1FC002813D10321052002F06E
S31508002E30C4F90021032001F00FF801248021C748B6
S31508002E4003F0A2FC002819D10321062002F0B5F9E7
S31508002E5014E08021C14803F097FC002809D103211A
S31508002E60062002F0AAF90021032000F0F5FF01244C
S31508002E7004E00121032000F0EFFF00242000C0B287
S31508002E8016BD04B501236A46C9B2C0B200F03BF8C4
S31508002E9002BD80B5ADF800209DF800209DF80130F0
S31508002EA08DF800308DF8012002236A46C9B2C0B2F7
S31508002EB000F029F802BD80B502236A46C9B2C0B23D
S31508002EC000F07EF800280AD19DF800009DF8011050
S31508002ED08DF800108DF80100BDF8000001E04FF6EE
S31508002EE0FF7002BD38B504004FF4204521009C4808
S31508002EF003F003FD012804D06D1E002DF6D1032032
S31508002F0000E0002032BDF8B504000D0016001F00D1
S31508002F1094480078002851D101209249087003206E
S31508002F2003F0F0FB01218E4803F0ACFC8E48FFF756
S31508002F30D9FF032804D100208A49087003203EE0FF
S31508002F4000222100C9B2864803F0C6FC8748FFF76D
S31508002F50C9FF032804D100208249087003202EE007
S31508002F602900C9B27E4803F0C2FC8148FFF7BAFFC0
S31508002F70032804D100207B49087003201FE0BFB254
S31508002F80002F0FD03178764803F0B1FC761C7F1EEF
S31508002F907848FFF7A7FF0328F1D100207149087088
S31508002FA003200CE001216E4803F07AFC032003F0AD
S31508002FB0B5FB00206B490870002000E00220F2BD36
S31508002FC0F8B504000D0016001F006B4800780028AD
S31508002FD07AD1012068490870032003F093FB012188
S31508002FE05F4803F04FFC6048FFF77CFF032804D1D5
S31508002FF0002061490870032067E000222100C9B259
S31508003000574803F069FC5948FFF76CFF032804D1B9
S31508003010002059490870032057E02900C9B25048D2
S3150800302003F065FC5348FFF75DFF032804D1002031
S3150800303051490870032048E00121494803F022FC61
S315080030404948FFF74FFF032804D100204A49087072
S3150800305003203AE001222100C9B2414803F03CFCB2
S315080030604648FFF73FFF03280AD100204249087067
S3150800307003202AE03A4803F03DFC3070761C7F1E98
S31508003080BFB2002F10D0BFB2012F03D100213448A0
S3150800309003F014FC3A48FFF725FF0328EAD100207D
S315080030A035490870032010E001212D4803F0F8FB8C
S315080030B001212B4803F002FC032003F02FFB00201C
S315080030C02D490870002000E00220F2BD00B587B047
S315080030D001215FF4001001F09EFE0121022001F09B
S315080030E07AFE042206211D4801F016FF0422072154
S315080030F01A4801F011FFC020009002208DF8040044
S3150800310001208DF8060001208DF8070001208DF8B2
S3150800311005006946114801F0A3FE44F620600290B6
S315080031200020ADF80C004BF6FF70ADF80E0000203D
S31508003130ADF810004FF48060ADF812004FF48040EF
S31508003140ADF8140002A9064803F028FB012104483B
S3150800315003F08AFB002007B000BD0000000402400F
S3150800316000540040A7250020010003008200070044
S315080031708000070084000700A8250020020003003D
S3150800318040000300BFF34F8FDFF8A40D006810F46A
S31508003190E060DFF8BC1C0843DFF8941D0860BFF345
S315080031A04F8F00BFFDE700B587B0DFF8A80C049085
S315080031B05FF08140059008208DF8180010208DF8E2
S315080031C0190020208DF81A00DFF8880C0190DFF826
S315080031D0880D029008208DF80C0010208DF80D003F
S315080031E020208DF80E0001A801F0A2F8002801D0D1
S315080031F0012013E010208DF8000000208DF8010052
S3150800320000208DF8020060208DF80300684601F062
S31508003210E1FB002801D0012000E0002007B000BD36
S31508003220E0B500208DF8080002A801F0B9F8684654
S3150800323001F016F900281AD100200FE0694631F985
S3150800324010104FF47A62514348F2120291FBF2F1E0
S31508003250DFF8082D02EB40025180401C0328EDDB05
S31508003260684601F038F900281CD1002011E0012039
S315080032702FE0694631F9101041F28832514346F67B
S315080032809B7291FBF2F1DFF8D42C02EB400211811C
S31508003290401C0328EDDB684601F010FC002817D116
S315080032A0002011E0012014E0694631F910104FF4AE
S315080032B07A62514346F6E82291FBF2F1DFF89C2C3C
S315080032C002EB4002D181401C0328EDDB002000E020
S315080032D001200EBD00B587B020208DF80000012022
S315080032E08DF8010008208DF8020000208DF80300F3
S315080032F000208DF8040000208DF805006846FFF7C9
S3150800330013F9002801D001201AE000208DF80800E2
S3150800331000208DF8090000208DF80A0000208DF89D
S315080033200B00002003900020049002208DF8140062
S3150800333002A803F0F7FA002801D0012000E00020D7
S3150800334007B000BD80B56846FFF7C0F900280AD166
S315080033500099DFF8000B03F03FFB03F0A9FBDFF849
S31508003360881C88820AE003F02AFBDFF8E81A03F0D3
S3150800337033FB03F09DFBDFF8701C88826846FFF775
S3150800338077F900280BD10099DFF8C80A03F024FB67
S3150800339003F08EFBDFF8501CC882002000E00120F5
S315080033A002BD00B585B00C208DF800000020ADF8F0
S315080033B002004FF48060ADF8040000208DF8060086
S315080033C000208DF8070000208DF8080000200390E3
S315080033D05FF0FF3004906846FFF7EEF905B000BDD0
S315080033E000B585B00121102001F015FD4FF4FA4013
S315080033F0ADF8040000F0F0FE64214843029001A9EC
S31508003400DFF8E80B02F092FE2B208DF80000002072
S315080034108DF8010000208DF8020001208DF80300C8
S31508003420684601F0A1FD01220121DFF8C00B02F078
S3150800343063FF0121DFF8B40B02F0AEFE05B000BD54
S31508003440E0B50021DFF8A40B02F0A6FE4FF4FA401F
S31508003450ADF8000000F0C0FE6421484301906946BB
S31508003460DFF8880B02F062FE0121DFF8800B02F01C
S3150800347093FE07BD80B5FFF789FCDFF86C1B8883D0
S31508003480FFF78EFCDFF8601BC883FFF78DFCDFF8BB
S31508003490581B088401BD0120DFF8541B4870DFF86B
S315080034A0540BDFF84C1B4880DFF8480BDFF8401B4D
S315080034B00881DFF8400BDFF8381BC881DFF8340BCA
S315080034C0DFF82C1B8882DFF82C0BDFF8241BC88258
S315080034D0DFF8200BDFF8181B88614FF6FF70DFF85E
S315080034E0101B88834FF6FF70DFF8041BC8837047EC
S315080034F080B50120DFF8F81A4870FFF7CCFF0020E6
S31508003500DFF8F41A48720020DFF8EC1A0860002089
S31508003510DFF8E41A88800020DFF8DC1AC88000206B
S31508003520DFF8D41A08725FF0FF30DFF8C41A488053
S315080035305FF0FF30DFF8B81A08815FF0FF30DFF878
S31508003540B01AC8815FF0FF30DFF8A41A88825FF0EE
S31508003550FF30DFF89C1AC8824FF6FF70DFF8901A22
S3150800356088614FF6FF70DFF8881A88834FF6FF7078
S31508003570DFF87C1AC883FFF7A9FDFFF714FEC0B26F
S31508003580002804D10121002000F066FC07E005218F
S315080035900A2001F012FE0021002000F05DFCFFF772
S315080035A099FEC0B2002804D10121022000F054FC83
S315080035B007E00521032001F000FE0021022000F0AB
S315080035C04BFCFFF7EEFEC0B2002804D10121012012
S315080035D000F042FC07E005210B2001F0EEFD00217A
S315080035E0012000F039FCFFF745F9FFF7F9FE01BDA8
S315080035F00020DFF8FC1908707047DFF8F409007836
S31508003600704780B50121DFF8E40902F081FE012048
S31508003610DFF8DC19087000F091FC01BD00B5B1B007
S31508003620DFF8CC09007800284AD0FEF7A3FB00286B
S3150800363046D0FEF7A4FB002842D0FEF7AAFB0028D6
S315080036403ED0DFF8B409007A401CDFF8AC190872DE
S31508003650DFF8A409027ADFF8A4190CA8FEF74AFFD6
S315080036600CA8FEF7E3F800F0BDFDDFF88C19097A1F
S31508003670814221D3DFF88809FEF7D8F80020DFF861
S3150800368078190872DFF87C190CA8FEF733FF0CA826
S31508003690FEF7CCF80CA8FDF7D7FE0CA9FEF74AFCF6
S315080036A00020FEF780FB0120FEF778FB00F010FDF6
S315080036B000F08CFD00F054FD0020DFF83419087086
S315080036C0DFF82C090078002800F01C83FEF752FB6F
S315080036D0002800F01783FEF752FB002800F012833B
S315080036E0FEF752FB002800F00D83FEF761FB002869
S315080036F000F00883DFF81009FEF798F8DFF80819D4
S315080037000520FEF717FCDFF804090068401CDFF8FF
S31508003710FC180860DFF8F8080068401CDFF8F018A5
S315080037200860DFF8E8080068012847DB0020DFF8B2
S31508003730DC18086000F014FC02002BA120A8FEF794
S31508003740D9FE20A800F0BCFC20AADFF8C8180CA8EF
S31508003750FEF7D0FE0CA8FEF769F80CA8FDF774FE74
S315080037600CA9FEF7E7FB0CA800F020FB0020FEF7EB
S3150800377074FBFEF77DFB012807D10220FEF77DFBCF
S31508003780DFF89408FEF752F818E0FEF771FB0228F6
S3150800379014D10420FEF771FBDFF88008FEF746F81F
S315080037A0DFF860180CA8FEF7A5FE0CA8FEF73EF891
S315080037B00CA8FDF749FE0CA9FEF7BCFB00F010FBB0
S315080037C00020DFF82C180870002000F064FB0028A1
S315080037D014D0FFF725FDC0B2002807D1012100202B
S315080037E000F03AFB0AE000BF2573000005210C2013
S315080037F001F0E3FC0021002000F02EFB022000F07F
S315080038004AFB002811D0FFF79DFDC0B2002804D15D
S315080038100121022000F020FB07E005210D2001F020
S31508003820CCFC0021022000F017FB012000F033FB3E
S31508003830002804D0FFF715F8DFF820178861FFF78E
S3150800384019FEDFF81807B0F9160000281DD1DFF8B1
S31508003850D0070068401CDFF8C8170860DFF8C00703
S315080038600268DFF8C01728A8FEF744FE28A8FDF767
S31508003870DDFFDFF8AC070068052806DB0020DFF867
S31508003880A0170860072000F062FADFF86C07C08806
S31508003890052808DADFF86007C088401CDFF85817E3
S315080038A0C880FFF7F8FD012002F02CFFDFF8AC0610
S315080038B0B0F90200DFF83817B1F90210884213D1BF
S315080038C0DFF89806B0F90400DFF82417B1F90410F8
S315080038D0884209D1DFF88406B0F90600DFF8101728
S315080038E0B1F9061088422CD0DFF870064088DFF858
S315080038F000174880DFF864068088DFF8F4168880A9
S31508003900DFF85806C088DFF8E8168880DFF8E00692
S31508003910B0F906000090DFF8D806B0F90430DFF8F1
S31508003920D006B0F90220DFF8001702A8FEF7E2FD7C
S3150800393002A8FDF77BFF02A8FDF786FD02A9FEF7A0
S31508003940F9FADFF81806B0F90800DFF8A416B1F995
S315080039500810884213D1DFF80406B0F90A00DFF828
S315080039609016B1F90A10884209D1DFF8F005B0F9C6
S315080039700C00DFF87C16B1F90C1088422CD0DFF861
S31508003980DC050089DFF868160881DFF8D00540896C
S31508003990DFF85C164881DFF8C4058089DFF8501621
S315080039A08881DFF84C06B0F90C000090DFF8400675
S315080039B0B0F90A30DFF83806B0F90820DFF86C16D7
S315080039C002A8FEF797FD02A8FDF730FF02A8FDF74B
S315080039D03BFD02A9FEF7AEFADFF88005B0F90E0046
S315080039E0DFF80C16B1F90E10884213D1DFF86C0512
S315080039F0B0F91000DFF8F815B1F91010884209D1AE
S31508003A00DFF85805B0F91200DFF8E415B1F912101D
S31508003A1088422CD0DFF84405C089DFF8D415C88160
S31508003A20DFF83805008ADFF8C8150882DFF82C05A4
S31508003A30408ADFF8BC154882DFF8B405B0F91200F1
S31508003A400090DFF8AC05B0F91030DFF8A405B0F93E
S31508003A500E20DFF8DC1502A8FEF74CFD02A8FDF7DC
S31508003A60E5FE02A8FDF7F0FC02A9FEF763FADFF807
S31508003A70EC04B0F91400DFF87815B1F9141088428F
S31508003A8028D0DFF8D804808ADFF86415888200F029
S31508003A90A0FB00280CD0DFF85805B0F914000090F8
S31508003AA022232222DFF88C1502A8FEF723FD08E060
S31508003AB0DFF83C05B0F91420DFF87C1502A8FEF7FC
S31508003AC019FD02A8FDF7B2FE02A8FDF7BDFC02A982
S31508003AD0FEF730FADFF88404B0F91600DFF810159F
S31508003AE0B1F91610884228D0DFF87004C08ADFF8CA
S31508003AF00015C88200F06DFB00280CD0DFF8F00432
S31508003B00B0F91600009022232222DFF8301502A809
S31508003B10FEF7F0FC08E0DFF8D804B0F91620DFF865
S31508003B20201502A8FEF7E6FC02A8FDF77FFE02A80C
S31508003B30FDF78AFC02A9FEF7FDF9DFF82004806983
S31508003B40DFF8AC148969884226D0DFF8100480694A
S31508003B50DFF89C14886100F03CFB00280BD0DFF8E6
S31508003B6090048069009022232222DFF8D81402A844
S31508003B70FEF7C0FC07E0DFF878048269DFF8C814AE
S31508003B8002A8FEF7B7FC02A8FDF750FE02A8FDF74B
S31508003B905BFC02A9FEF7CEF9DFF8C003808BDFF8DD
S31508003BA05014898B884226D0DFF8B003808BDFF863
S31508003BB04014888300F00DFB00280BD0DFF8300492
S31508003BC0808B009022232222DFF8801402A8FEF7B9
S31508003BD091FC07E0DFF81804828BDFF8741402A85A
S31508003BE0FEF788FC02A8FDF721FE02A8FDF72CFCCB
S31508003BF002A9FEF79FF9DFF86403C08BDFF8F0131C
S31508003C00C98B884207D1DFF85403008CDFF8E0132C
S31508003C10098C884233D0DFF84403C08BDFF8D01311
S31508003C20C883DFF83803008CDFF8C413088400F073
S31508003C30D0FA00280FD0DFF8B803008C0190DFF81F
S31508003C40B003C08B009022232222DFF8081402A8B2
S31508003C50FEF750FC0AE0DFF89803038CDFF89003C0
S31508003C60C28BDFF8F41302A8FEF744FC02A8FDF79E
S31508003C70DDFD02A8FDF7E8FB02A9FEF75BF9DFF810
S31508003C8078038088411CDFF87023918080B212285F
S31508003C900BDB0020DFF8601388800020DFF858135C
S31508003CA0C880FFF7F8FB00F0BEF8DFF84403407859
S31508003CB0002813D00020DFF838134870DFF89C235B
S31508003CC0DFF89C1302A8FEF715FC02A8FDF7AEFD67
S31508003CD002A8FDF7B9FB02A9FEF72CF9012002F0AC
S31508003CE01DFDDFF88003FDF7A1FDDFF87813062038
S31508003CF0FEF720F9DFF870130CA8FEF7FBFB0CA8FB
S31508003D00FDF794FD31B000BD4AF6E03000E0401EF4
S31508003D100028FCD17047DFF8540300E0401E002855
S31508003D20FCD1704710B5040002E0FFF7F4FF641EEB
S31508003D30012CFADA10BD80B5012002F0E3FCFFF78A
S31508003D40E3FF012002F0EAFCFFF7DEFF01BD38B50C
S31508003D500400200001F012FA042180B201F02DFAC5
S31508003D6000250CE0012002F0CDFC0120FFF7DAFF68
S31508003D70012002F0D3FC0120FFF7D4FF6D1CA542F9
S31508003D80F0DB012002F0BEFC0A20FFF7CBFF012082
S31508003D9002F0C4FC0A20FFF7C5FF002002F051FF1D
S31508003DA06420FFF7BFFFFFF7EDF931BD10B588B006
S31508003DB00400FDF7DFFF002810D014222100684612
S31508003DC002F076FF2000FDF73FFB152801D31434D7
S31508003DD0FFE714222100684602F06AFF08B010BD0A
S31508003DE080B5FDF7CCFF002810D00020A049088038
S31508003DF000F016F8002805D09E480088401C9D490A
S31508003E00088008E000209B49088004E0984800885C
S31508003E10401C9749088001BD002077498880704773
S31508003E207548407A704701207349487270470020E8
S31508003E3071494872704700208F49887000208E4962
S31508003E40487000208C49087000208B49C87070475C
S31508003E500400FA0500002041C0B2002808D0022854
S31508003E600CD008D304280FD00BD305280FD011E0A7
S31508003E70814881700EE0804801700BE07E484170F1
S31508003E8008E07D48C17005E07B48017102E07A4888
S31508003E904171FFE77047C0B2002808D002280CD04D
S31508003EA008D304280FD00BD305280FD011E0724889
S31508003EB080780FE0704800780CE06F48407809E099
S31508003EC06D48C07806E06C48007903E06A48407996
S31508003ED000E00020704710B500240020FFF7DBFF44
S31508003EE0002800D0641C0120FFF7D5FF002800D069
S31508003EF0A41C0220FFF7CFFF002800D0241D0320B2
S31508003F00FFF7C9FF002800D008340420FFF7C3FFD5
S31508003F10002800D010340520FFF7BDFF002800D088
S31508003F202034200080B210BD002033490872704743
S31508003F300CED00E000203049C880704780B500F0DD
S31508003F404BF92D490968642202FB00102A490860CA
S31508003F5001BD2948006870470000FA434424002040
S31508003F607CB5FFF7F6FF0500280000F053F9434932
S31508003F7000F060F9FEF7E6FB02F0D0FE02F0FEFE66
S31508003F8004004FF47A70B5FBF0F100FB11552000E0
S31508003F9000F036F93A4900F04DF9FEF7D3FB02F086
S31508003FA0BDFE02F0EBFE06003C2094FBF0F100FBA0
S31508003FB01144300000F024F9314900F03BF9FEF7CE
S31508003FC0C1FB02F0ABFE02F0D9FE3C2196FBF1F2F2
S31508003FD001FB1266019500943300020029492A481C
S31508003FE0FEF788FA284876BD4424002000100040D1
S31508003FF068240020C7CFFFFF54250020C09700087B
S31508004000C89700088C910008D097000874250020EE
S3150800401070250020389500088C8D0008AC8D0008A6
S3150800402078250020448A0008A8910008C491000851
S31508004030E0910008688A00084C9500088C8A0008F8
S3150800404060950008B08A000874950008D48A0008AC
S31508004050889500087487000800940008F096000800
S315080040609C950008D8970008E0970008C0B6060097
S31508004070A0250020A22500206025002000007A4403
S3150800408000007042B09500084425002030380A2800
S315080040908041C00F70470A22002102F03FBF00008E
S315080040A080B552495248FDF7EFF9002002BD80B5A8
S315080040B04E495048FDF7E8F9002002BD4D487047C3
S315080040C080B501004B48FDF7DFF9002002BD7047B7
S315080040D080B5002020224849484802F0A3FFC0B214
S315080040E0002801D0002007E043480068B0F15A3F95
S315080040F001D1012000E0002002BD80B500205FF05C
S315080041005A303D49086064203B49486004203A49D2
S3150800411088600F203849C860002037490874002095
S315080041203549887400203449487420200090324B61
S31508004130324A0021002002F01BFFC0B202BD80B542
S31508004140010000202C484160FFF77AF920200090F2
S31508004150294B2A4A0021002002F00AFFC0B202BDFC
S3150800416010B5254948600024FFF76AF92000C0B257
S3150800417010BD80B5010000201F4801742020009062
S315080041801D4B1E4A0021002002F0F2FEC0B202BDFD
S3150800419080B5010000201848816020200090164B49
S315080041A0164A0021002002F0E3FEC0B202BD80B527
S315080041B0010000201048C160202000900E4B0F4AD5
S315080041C00021002002F0D4FEC0B202BD0A484068B1
S315080041D070470948007C704707484068704706489A
S315080041E0806870470448C06870470000A8970008B0
S315080041F0F024002010250020D0240020008001088B
S31508004200002840F10980F446404200F005F850F0D5
S3150800421000406047002800BF0AD0B0FA80F1884005
S31508004220D1F19D01C905020672F1004241EB102049
S315080042307047000010B5FF2313EAD0541DBF13EAD8
S31508004240D1529C429A4239E0A41ADA0780EA01035D
S31508004250134042EA012142EA0020421A3CBF641E8A
S3150800426001EB4202090AB2FBF1FE01FB1E22120211
S31508004270B2FBF1F001FB10226EF30F201202B2FB23
S31508004280F1FE4EEA00207F3406DDFE2C24DA53EADE
S31508004290500050EBC45010BDD4F1020401FB1E229D
S315080042A040F08071192C1DDC21FA04F0C4F12004B9
S315080042B0A140114371F10042584110BD9C421ABFFA
S315080042C003EAD1529A420FE080EA010E0EF000434B
S315080042D0400004D0490016D143F0FF4010BD490004
S315080042E008BFD343180010BD9C4205D1D21AF7D097
S315080042F001F00041484010BD4A0212BF0846484036
S3150800430000F0004010BD4AB90902B1FA81F29140A5
S3150800431044B1A418C00140F000409EE7C90141F02D
S31508004320004152420002B0FA80F4A040141B94E700
S3150800433010B5040000F046F8002801D001202EE050
S31508004340206800F04FFA002801D0012027E06068B5
S3150800435000F0A0FA002801D0012020E0A27A617AB4
S31508004360207A00F044F9002801D0012017E0E0681F
S3150800437000F08EF9002801D0012010E0206900F035
S31508004380F4F9002801D0012009E0A27D617D207D95
S3150800439000F0DCF8002801D0012000E0002010BD64
S315080043A080B5002801D101200BE0012302000F216E
S315080043B0D420FEF705FE002801D1002000E00120E8
S315080043C0C0B202BD80B500208DF8000001236A4600
S315080043D01221D420FEF7F4FD002801D001203EE08A
S315080043E09DF8000010F0FB008DF800009DF8000015
S315080043F050F004008DF8000001236A461221D420EB
S31508004400FEF781FD002801D0012028E001236A4635
S315080044100A21D420FEF7D4FD002801D001201EE091
S315080044209DF8000010F087008DF800009DF8000048
S315080044308DF800009DF8000010F0F8008DF80000D7
S315080044409DF800008DF8000001236A460A21D42051
S31508004450FEF759FD002801D0012000E0002002BD2A
S3150800446010B582B004000020ADF8000002236A46A9
S315080044702821D420FEF7A4FD002801D0012029E038
S315080044809DF801009DF8001011EB00202080022302
S315080044906A462A21D420FEF793FD002801D0012080
S315080044A018E09DF801009DF8001011EB00206080CF
S315080044B002236A462C21D420FEF782FD002801D06B
S315080044C0012007E09DF801009DF8001011EB00207F
S315080044D0A080002016BD10B582B004000020ADF8FB
S315080044E0000002236A462221D420FEF769FD00282F
S315080044F001D0012029E09DF801009DF8001011EB7C
S315080045000020208002236A462421D420FEF758FD85
S31508004510002801D0012018E09DF801009DF8001040
S3150800452011EB0020608002236A462621D420FEF77C
S3150800453047FD002801D0012007E09DF801009DF8FD
S31508004540001011EB0020A080002016BD70B582B0C7
S3150800455000238DF80030002600250024C0B200286C
S3150800456001D1002600E00826C9B2002901D100259C
S3150800457000E01025D2B2002A01D1002400E0202450
S3150800458001236A461821D420FEF71AFD002801D017
S3150800459001202BE09DF8000010F0F7008DF80000D0
S315080045A09DF8000030438DF800009DF8000010F0DB
S315080045B0EF008DF800009DF8000028438DF80000F4
S315080045C09DF8000010F0DF008DF800009DF800004F
S315080045D020438DF8000001236A461821D420FEF7EF
S315080045E092FC002801D0012000E0002076BD70B5BD
S315080045F082B000238DF80030002600250024C0B2C2
S31508004600002801D1002600E00826C9B2002901D1F8
S31508004610002500E01025D2B2002A01D1002400E0CE
S31508004620202401236A461921D420FEF7C9FC002854
S3150800463001D001202BE09DF8000010F0F7008DF85E
S3150800464000009DF8000030438DF800009DF800003A
S3150800465010F0EF008DF800009DF8000028438DF853
S3150800466000009DF8000010F0DF008DF800009DF8AE
S31508004670000020438DF8000001236A461921D42042
S31508004680FEF741FC002801D0012000E0002076BD9D
S3150800469010B582B0002400218DF80010002102F028
S315080046A0CBFC01D800243FE0DFF8E81202F0C4FC96
S315080046B001D2102438E0DFF8E01202F0BDFC01D286
S315080046C0202431E0DFF8D41202F0B6FC01D23024FF
S315080046D02AE0DFF8CC1202F0AFFC01D2402423E036
S315080046E0DFF8C01202F0A8FC01D250241CE0DFF863
S315080046F0B81202F0A1FC01D2602415E0DFF8AC1272
S3150800470002F09AFC01D270240EE0DFF8A41202F03F
S3150800471093FC01D2802407E0DFF8981202F08CFCA3
S3150800472001D2902400E0A02401236A461021D42057
S31508004730FEF746FC002801D0012015E09DF8000090
S3150800474010F00F008DF800009DF8000020438DF84A
S31508004750000001236A461021D420FEF7D4FB002866
S3150800476001D0012000E0002016BD10B582B000245B
S3150800477000218DF80010DFF8401202F05DFC01D22E
S3150800478000240EE0DFF8341202F056FC01D20824A9
S3150800479007E0DFF82C1202F04FFC01D20C2400E0EF
S315080047A0042401236A461021D420FEF709FC0028B8
S315080047B001D0012015E09DF8000010F0F3008DF8F7
S315080047C000009DF8000020438DF8000001236A468A
S315080047D01021D420FEF797FB002801D0012000E025
S315080047E0002016BD10B582B0002400218DF80010F7
S315080047F0002102F021FC01D800242AE0654902F0D4
S315080048001BFC01D2102424E0634902F015FC01D2F6
S3150800481020241EE0614902F00FFC01D2302418E082
S315080048205F4902F009FC01D2402412E05D4902F01A
S3150800483003FC01D250240CE05B4902F0FDFB01D2D7
S31508004840602406E0594902F0F7FB01D2702400E023
S31508004850802401236A461121D420FEF7B1FB0028E3
S3150800486001D0012015E09DF8000010F00F008DF82A
S3150800487000009DF8000020438DF8000001236A46D9
S315080048801121D420FEF73FFB002801D0012000E0CB
S31508004890002016BD38B50400002500208DF800005C
S315080048A02000484902F0C8FB1FD2022501236A46A8
S315080048B01121D420FEF784FB002801D0012068E0EE
S315080048C09DF8000010F0FD008DF800009DF800002E
S315080048D028438DF8000001236A461121D420FEF7EB
S315080048E012FB002854D0012053E001236A46112107
S315080048F0D420FEF765FB002801D0012049E09DF889
S31508004900000010F0FD008DF800009DF800008DF8FD
S31508004910000001236A461121D420FEF7F4FA002884
S3150800492001D0012035E02000274902F085FB01D29D
S3150800493000250EE02000254902F07EFB01D2042561
S3150800494007E02000224902F077FB01D2082500E0A3
S315080049500C2501236A461121D420FEF731FB0028D5
S3150800496001D0012015E09DF8000010F0F3008DF845
S3150800497000009DF8000028438DF8000001236A46D0
S315080049801121D420FEF7BFFA002801D0012000E04B
S31508004990002032BD010050410100D04101005042C3
S315080049A00100D042010050430100D0430140504469
S315080049B00180CF440120504501000040010080409D
S315080049C0010000410100FA42010075430100FA4363
S315080049D001007A4410B582B0040000208DF800006A
S315080049E001236A4622213C20FEF7EAFA002801D074
S315080049F0012062E09DF8000010F0FC008DF8000030
S31508004A009DF80000617808438DF8000001236A4686
S31508004A1022213C20FEF777FA002801D001204CE03D
S31508004A2001236A4620213C20FEF7CAFA002801D055
S31508004A30012042E09DF8000010F0E3008DF8000028
S31508004A409DF80000217808438DF800009DF80000C5
S31508004A5010F09F008DF800009DF80000E1780843EB
S31508004A608DF8000001236A4620213C20FEF74BFA08
S31508004A70002801D0012020E001236A4621213C209C
S31508004A80FEF79EFA002801D0012016E09DF80000E6
S31508004A9010F09F008DF800009DF80000A1780843EB
S31508004AA08DF8000001236A4621213C20FEF72BFAE7
S31508004AB0002801D0012000E0002016BD10B582B004
S31508004AC004000020ADF8000002236A46A8213C2015
S31508004AD0FEF776FA002801D0012029E09DF80100AA
S31508004AE09DF8001011EB0020208002236A46AA21B7
S31508004AF03C20FEF765FA002801D0012018E09DF851
S31508004B0001009DF8001011EB0020608002236A4620
S31508004B10AC213C20FEF754FA002801D0012007E01A
S31508004B209DF801009DF8001011EB0020A0800020E0
S31508004B3016BD000030B585B004000D000020002029
S31508004B4000210021A8890028208A30F44050E988ED
S31508004B5008432082A08925490840A9882A89114343
S31508004B606A8911430843A081A08A30F44070A98954
S31508004B700843A082684600F0BEF81B48844201D16B
S31508004B80039800E00298A189090406D5192148432B
S31508004B9029684900B0FBF1F105E019214843296865
S31508004BA08900B0FBF1F16420B1FBF0F000010209C5
S31508004BB0642303FB1211A289120408D5C9003231F5
S31508004BC06422B1FBF2F111F00701084307E009017D
S31508004BD032316422B1FBF2F111F00F010843208152
S31508004BE005B030BD0000000000380140F3E9FFFFC2
S31508004BF0C9B2002904D0818951F40051818104E0A9
S31508004C0081894DF6FF72114081817047C905C90D2A
S31508004C10818070478088C005C00D704730B4002376
S31508004C2000240024002589B240F66A13994205003B
S31508004C300800C0B24309DBB289B211F01F04012093
S31508004C4010FA04F4012B01D10C3504E0022B01D132
S31508004C50103500E01435D2B2002A03D02868204364
S31508004C60286002E02868A043286030BC704700220C
S31508004C7089B2B1F5007F0088084201D0012200E020
S31508004C8000221000C0B2704710B400220023002290
S31508004C90002289B240F66A1291420A00D2B252093B
S31508004CA0D2B289B211F01F03012414FA03F3012AC0
S31508004CB002D18289134006E0022A02D1028A1340F1
S31508004CC001E0828A134089B20A0A92B2012111FAD6
S31508004CD002F200880240002B03D0002A01D00122EC
S31508004CE000E000221000C0B210BC7047C0B2DFF866
S31508004CF0501108607047002100210022002300217E
S31508004D0000214D49096811F00C01002906D0042933
S31508004D1011D0082912D00C2913D031E04749096867
S31508004D20C1F342310122491C12FA01F14FF4004243
S31508004D305143016030E0434901602DE0424901607A
S31508004D402AE03D49096811F470113B4A126812F4C9
S31508004D5040023E4B890C595C920D521C364B1B681F
S31508004D6013F48033002B05D1364B5943B1FBF2F1CE
S31508004D70016004E0344B5943B1FBF2F101600BE0EA
S31508004D802E490968C1F342310122491C12FA01F180
S31508004D904FF40042514301602749096811F0F001B8
S31508004DA009092B4A515C0268CA40426022490968CF
S31508004DB011F4E061090A264A515C4268CA408260D9
S31508004DC01D49096811F46051C90A214A515C4268B3
S31508004DD0CA40C2607047C9B2002905D01D49096892
S31508004DE008431C49086005E01A49096831EA0000C9
S31508004DF0184908607047C9B2002905D016490968DC
S31508004E0008431549086005E01349096831EA0000B6
S31508004E10114908607047C9B2002905D00F490968C9
S31508004E2008430E49086005E00C49096831EA0000A4
S31508004E300A490860704700000838024004380240F2
S31508004E40000047420024F40000127A008C02002079
S31508004E50980200201C3802402038024024380240BC
S31508004E6030B4002200230024002246E001239340A8
S31508004E700C681C409C423FD1036803241500EDB220
S31508004E806D00AC40A343036003680C791500EDB2CE
S31508004E906D00AC40234303600B79012B02D00B79DC
S31508004EA0022B19D1836803241500EDB26D00AC40BE
S31508004EB0A343836083684C791500EDB26D00AC405E
S31508004EC023438360838801249440A3438380838893
S31508004ED08C79944023438380C36803241500EDB27C
S31508004EE06D00AC40A343C360C368CC791500EDB22E
S31508004EF06D00AC402343C360521C102AB6D330BCA5
S31508004F0070470183704741837047D2B2002A01D0A7
S31508004F10018300E04183704770B400230023D2B2B6
S31508004F2011F00703DBB29B0012FA03F389B2CA1029
S31508004F3000EB820289B2CC1000EB8404246A0F25A8
S31508004F4011F00706F6B2B600B540AC43146289B252
S31508004F50CA1000EB8202126A134389B2C91000EB29
S31508004F608100036270BC7047002100220F23C178BC
S31508004F7000291ED01449096811F4E061D1F5E061F1
S31508004F80090AD1F10402DBB20B41417891408278DB
S31508004F901A40114309010D4A0378D15401210278B8
S31508004FA012F01F0291400A4A0078401142F8201078
S31508004FB009E00121027812F01F029140054A0078A3
S31508004FC0401142F8201070470CED00E000E400E0C4
S31508004FD000E100E080E100E038B5002469460120E0
S31508004FE0544A12689047002804D4009810F07800B4
S31508004FF0202801D000204CE00DF1010103204D4A84
S3150800500012689047002801D5002042E00098000267
S3150800501010F4E0600099C1F307210843009911F0E4
S31508005020F801A02929D144490968491C1E2291FB87
S31508005030F2F302FB1311414A1268914201D1002092
S3150800504027E03F493C4A126884235A4311443A4AA6
S315080050501268521C1E2392FBF3F503FB1522364BEE
S315080050601A60009A0A60091D002811D0314A126890
S31508005070904700280CD500200BE0009911F0F801A4
S31508005080202903D12F4909680C00EAE7002000E02F
S31508005090200032BD10B50400274800682749096872
S315080050A0884210D026482549096884225143084475
S315080050B022490968491C1E2291FBF2F302FB1311CF
S315080050C01E4A116010E0002C0AD11F48006800280B
S315080050D006D01D4800688047002801D1002003E05B
S315080050E0FFF77AFF0028D7D010BD80B50020FFF75C
S315080050F0D1FF02BD80B5FFF76FFF0028FBD001780E
S315080051000906F8D402BD80B5104801680F48006842
S315080051100068000210F4E0600C4A12681268C2F3D4
S3150800512007221043001D0A4A12689047FFF7E2FF5C
S3150800513001BD000080250020882500208C25002040
S31508005140B00A00200400002084250020000000206A
S315080051507C250020401C80B2642800DB002080B239
S31508005160704710B50C0080B2FFF7F4FFA4B2A04256
S3150800517001D1012000E00020C0B210BD02280CD0E9
S3150800518003280CD004280CD005280CD006280CD0EF
S3150800519007280CD020280CD00DE002200CE00220B5
S315080051A00AE0042008E0082006E0072004E00120C1
S315080051B002E0092000E00920704730B595B00400E8
S315080051C00D001E48B0F822131C48B0F82003FFF75C
S315080051D0C8FF002801D001202CE018481749B1F86B
S315080051E0201300EBC100458014481449B1F8201378
S315080051F020F8314000201149104AB2F8202301EB6B
S31508005200C20148600D48B0F82003FFF7A3FF0B4919
S31508005210A1F820030A48A4B250F824300948ADB2D0
S3150800522050F8252008496846FDF764F96846FCF7F2
S31508005230FDFAC0B215B030BD000000004C1D0020BC
S31508005240D4820008F88A00087896000880B501F02C
S3150800525005FF02210E20FFF7B0FF0020FEF777FDBD
S3150800526001BD80B501F0FAFE02210E20FFF7A5FF69
S315080052700020FEF76CFD01BD80B501F0EFFE0221AE
S315080052800E20FFF79AFF0020FEF761FD01BD10B45E
S3150800529001E0491C521E6AB10B7804789C4205D07D
S315080052A010BC2CBF01204FF0FF30704710F8013BAF
S315080052B0002BEED110BC0020704780B501F088FFA6
S315080052C002BD00002DE9F04FA1B082460020164627
S315080052D01D4602910B900DF144086FF000490AE053
S315080052E016F8011B0298D0470028029000F0B982F0
S315080052F00B98401C0B903078010001D10B98B2E254
S315080053002528EDD100200590069007900890099071
S315080053100A9001E040F0010016F8011F2029F9D093
S3150800532023290DD02B2904D02D2906D030290AD0BF
S315080053300CE040F0020080B2EEE740F00400FAE725
S3150800534040F00800F7E740F01000F4E72A290ED1EC
S315080053502968296051F8042B2960002A0D9204D582
S31508005360514240F004000D9180B2761C11E00021F4
S315080053700D9109E00D99494505D001EB810302EB32
S31508005380430130390D91761C3278A2F130010A2991
S31508005390F0D331782E2903D04FF0FF310C911DE060
S315080053A016F8011F2A2907D129682960761C51F8A1
S315080053B0042B29600C9211E000210C9109E00C994C
S315080053C0494505D001EB810302EB430130390C91C5
S315080053D0761C3278A2F130010A29F0D3ADF83800EC
S315080053E00FF6A840317801F00BFF08B116F8010B4B
S315080053F08DF83A009DF83A00682802BF3178682986
S31508005400622005D06C2804BF30786C2803D171203F
S315080054108DF83A00761C11A8049016F8017BB7F1AE
S3150800542025002AD01C3800F0CA80001F022840F246
S31508005430C680133800F0ED80093800F0C080801E61
S3150800544000F05A81401E00F03081401E022840F2CA
S31508005450B680001F00F02981401F00F08180401EA1
S3150800546000F0D780401E24D0C01E0BD0801E00F04E
S31508005470D080C01E00F0CD8048E125208DF844007C
S3150800548001204DE12868286050F8044B28600394F1
S315080054900C9F002F04D52046FBF7D6FF074606E0EB
S315080054A03A460021204601F0B7FE00B1071B0697D1
S315080054B037E129682960002251F8040B2960002188
S315080054C0CDE9000111A80390DDE900019142049F8E
S315080054D008BF90424FF03C0C01D10C9AC2B100F0C3
S315080054E00F033033DBB23A2BA8BF2733ACF10102E6
S315080054F00009BB54944640EA01700909002291420A
