S0100000536B7950617463682E73726563ED
S31508000000B00A002059DA000809DD0008656F000803
S315080000107B6F00080DDD0008916F000800000000E6
S3150800002000000000000000000000000011DD0008CC
S3150800003015DD00080000000019DD00081DDD0008B8
S31508000040F75D000821DD000825DD000829DD000828
S315080000502DDD000831DD000835DD000839DD000832
S315080000603DDD000841DD000845DD000849DD0008E2
S315080000704DDD000851DD000855DD000859DD000892
S315080000805DDD000861DD000865DD000869DD000842
S315080000906DDD000871DD000875DD000879DD0008F2
S315080000A07DDD0008C746000881DD000885DD0008FB
S315080000B0A945000889DD00088DDD000891DD0008E6
S315080000C095DD000899DD00089DDD0008A1DD000822
S315080000D0A5DD0008AD2D0008A9DD000801370008D8
S315080000E0ADDD0008B1DD0008B5DD00089150000857
S315080000F0B9DD00080022284904E003780B70491C82
S31508000100521C401C0378002B07D00378082BF4D127
S31508000110012AF6DB491E521EF3E700200870491C27
S315080001201D48704701201D4981F8280000207047A6
S3150800013010B50400194890F82800022801D10220B9
S3150800014016E0164890F82800002801D101200FE093
S31508000150200002F0ADFD282801D3012008E0210087
S315080001600E4802F0CFFD02200C4981F82800002035
S3150800017010BD80B5094890F82800022809D1012148
S31508000180064800F00DF80121044A82F82810C0B28A
S3150800019000E0002002BD0000B82400202024002032
S315080001A02DE9F047CAB007000C00380002F080FDC0
S315080001B08146DFF8200E007800281ED038781B28E4
S315080001C012D10020DFF80C1E0870DFF80C1E0CA8F0
S315080001D002F098FD0CA802F067FF0600F6B2002EA2
S315080001E006D03000C0B205E03900012003F0E0FA7D
S315080001F03000C0B24AB0BDE8F0873878302819D048
S31508000200312800F0D680322800F09281412800F08B
S315080002104E82432800F03983442800F0918347280A
S3150800022000F09582482800F0E282542800F01B84EA
S3150800023002F0C3BB02F05EFC0600F6B2002E40F0E8
S31508000240B680E4B2002C48D0DFF8040EB0F90400FA
S3150800025003F08EFD0100022003F0EDFD0400DFF837
S31508000260F00DB0F9020003F083FD0100012003F050
S31508000270E2FD0500DFF8D80DB0F9000003F078FDBF
S315080002800100002003F0D7FD0600200003F020FE41
S31508000290CDE90801DFF8B80DB0F90400069028008A
S315080002A003F016FECDE90401DFF8A40DB0F902004B
S315080002B00290300003F00CFECDE90001DFF8900D46
S315080002C0B0F90020DFF8001E0CA803F029FE0CA8E0
S315080002D002F0EEFC0CA903F06BFADFF8F01D0CA88F
S315080002E002F010FD0CA802F0DFFE0600F6B2002EA2
S315080002F002D03000C0B27DE7DFF8540DB0F9000037
S3150800030003F036FD0100002003F095FD03F0E0FD43
S31508000310CDE90001DFF8380DB0F90020DFF8241E1A
S315080003200CA803F0FDFD0CA802F0BEFE0600F6B20E
S31508000330002E02D03000C0B25CE7DFF8140DB0F929
S31508000340020003F015FD0100012003F074FD03F01F
S31508000350BFFDCDE90001DFF8F80CB0F90220DFF89F
S31508000360E81D0CA803F0DCFD0CA802F09DFE0600B3
S31508000370F6B2002E02D03000C0B23BE7DFF8D00C50
S31508000380B0F9040003F0F4FC0100022003F053FD69
S3150800039003F09EFDCDE90001DFF8B40CB0F90420A6
S315080003A0DFF8A81D0CA803F0BBFD02F017BB02F08E
S315080003B015BB02F09FFB0600F6B2002E40F0B68091
S315080003C0E4B2002C48D0DFF8880CB0F90A0003F034
S315080003D0CFFC0100052003F02EFD0400DFF8700CA9
S315080003E0B0F9080003F0C4FC0100042003F023FD63
S315080003F00500DFF85C0CB0F9060003F0B9FC010053
S31508000400032003F018FD0600200003F061FDCDE986
S315080004100801DFF83C0CB0F90A000690280003F042
S3150800042057FDCDE90401DFF8280CB0F90800029061
S31508000430300003F04DFDCDE90001DFF8140CB0F9EA
S315080004400620DFF8F01D0CA803F06AFD0CA802F0E0
S315080004502FFC0CA903F0ACF9DFF8DC1D0CA802F0A0
S3150800046051FC0CA802F020FE0600F6B2002E02D0BF
S315080004703000C0B2BEE6DFF8D80BB0F9060003F0CC
S3150800048077FC0100032003F0D6FC03F021FDCDE93B
S315080004900001DFF8BC0BB0F90620DFF8141E0CA823
S315080004A003F03EFD0CA802F0FFFD0600F6B2002E92
S315080004B002D03000C0B29DE6DFF8940BB0F9080010
S315080004C003F056FC0100042003F0B5FC03F000FD20
S315080004D0CDE90001DFF8780BB0F90820DFF8D41D64
S315080004E00CA803F01DFD0CA802F0DEFD0600F6B20E
S315080004F0002E02D03000C0B27CE6DFF8540BB0F90B
S315080005000A0003F035FC0100052003F094FC03F013
S31508000510DFFCCDE90001DFF8380BB0F90A20DFF877
S31508000520981D0CA803F0FCFC02F058BA02F056BA63
S3150800053002F0E0FA0600F6B2002E40F0B680E4B209
S31508000540002C48D0DFF8080BB0F9100003F010FCB7
S315080005500100082003F06FFC0400DFF8F40AB0F984
S315080005600E0003F005FC0100072003F064FC0500FB
S31508000570DFF8DC0AB0F90C0003F0FAFB01000620EC
S3150800058003F059FC0600200003F0A2FCCDE908019F
S31508000590DFF8BC0AB0F910000690280003F098FCB2
S315080005A0CDE90401DFF8A80AB0F90E000290300080
S315080005B003F08EFCCDE90001DFF8940AB0F90C20AF
S315080005C0DFF8DC1D0CA803F0ABFC0CA802F070FBEE
S315080005D00CA903F0EDF8DFF8CC1D0CA802F092FB8D
S315080005E00CA802F061FD0600F6B2002E02D030001B
S315080005F0C0B2FFE5DFF8580AB0F90C0003F0B8FB03
S315080006000100062003F017FC03F062FCCDE90001A7
S31508000610DFF83C0AB0F90C20DFF8001E0CA803F03E
S315080006207FFC0CA802F040FD0600F6B2002E02D0B0
S315080006303000C0B2DEE5DFF8180AB0F90E0003F0A4
S3150800064097FB0100072003F0F6FB03F041FCCDE918
S315080006500001DFF8FC09B0F90E20DFF8C41D0CA86C
S3150800066003F05EFC0CA802F01FFD0600F6B2002E91
S3150800067002D03000C0B2BDE5DFF8D409B0F91000E9
S3150800068003F076FB0100082003F0D5FB03F020FCFD
S31508000690CDE90001DFF8B809B0F91020DFF8F81D38
S315080006A00CA803F03DFC02F099B902F097B9DFF8FF
S315080006B0EC0D03F0F3FC0600F6B2002E45D1E4B2C9
S315080006C0002C1BD0DFF8D40D01680A2003F0B3FB19
S315080006D003F0FEFBCDE90001DFF8C00D006803F06A
S315080006E0F7FB02000B00DFF8B81D0CA803F018FC96
S315080006F00CA802F0DDFA0CA903F05AF8DFF8181E68
S315080007000CA802F0FFFA0CA802F0CEFC0600F6B21E
S31508000710002E02D03000C0B26CE5DFF8800D01680B
S315080007200A2003F088FB03F0D3FBCDE90001DFF8CC
S315080007306C0D006803F0CCFB02000B00DFF8DC1D33
S315080007400CA803F0EDFB02F049B902F047B9DFF84F
S315080007504C0D03F0D1FC0600F6B2002E45D1E4B2EA
S31508000760002C1BD0DFF8340D0168092003F063FB69
S3150800077003F0AEFBCDE90001DFF8200D006803F0B9
S31508000780A7FB02000B00DFF80C1E0CA803F0C8FB41
S315080007900CA802F08DFA0CA903F00AF8DFF8F81D88
S315080007A00CA802F0AFFA0CA802F07EFC0600F6B21E
S315080007B0002E02D03000C0B21CE5DFF8E00C01685C
S315080007C0092003F038FB03F083FBCDE90001DFF8CD
S315080007D0CC0C006803F07CFB02000B00DFF8BC1DA4
S315080007E00CA803F09DFB02F0F9B802F0F7B803F085
S315080007F027FDDFF8AC1D0860E4B2002C1FD0DFF837
S31508000800A00D006803F0B4FA01000B2003F013FBF7
S3150800081003F05EFBCDE90001DFF8840D0268DFF81E
S31508000820F81D0CA803F07CFBDFF8F01D0CA802F0FD
S3150800083069FA0CA802F03CFA0CA902F0B9FFDFF835
S31508000840E01D0CA802F05EFA0CA802F02DFC0600CA
S31508000850F6B2002E02D03000C0B2CBE4DFF8400D6D
S31508000860006803F085FA01000B2003F0E4FA03F0B0
S315080008702FFBCDE90001DFF8280D0268DFF8A41D7B
S315080008800CA803F04DFB02F0A9B803F075FFDFF8DA
S31508000890981D0880E4B2002C23D0DFF88C0D008860
S315080008A003F070FA01000C2003F0C5FA03F010FB00
S315080008B0CDE90001DFF8700D0088642190FBF1F0A6
S315080008C003F056FA03F004FB02000B00DFF8F81DEC
S315080008D00CA803F025FB0CA802F0EAF90CA902F013
S315080008E067FFDFF8E81D0CA802F00CFA0CA802F066
S315080008F0DBFB0600F6B2002E02D03000C0B279E467
S31508000900DFF8240D008803F03DFA01000C2003F0FF
S3150800091092FA03F0DDFACDE90001DFF80C0D008844
S31508000920642190FBF1F003F023FA03F0D1FA0200F8
S315080009300B00DFF8F01D0CA803F0F2FA02F04EB82F
S3150800094003F024FFDFF8E01C488003F023FFDFF8FC
S31508000950D81C8880E4B2002C2FD0DFF8CC0C808815
S3150800096003F010FA01000E2003F065FA0400DFF820
S31508000970B80C408803F006FA01000D2003F05BFA74
S315080009800500200003F0A4FACDE90401DFF8980C6D
S3150800099080880290280003F09BFACDE90001DFF871
S315080009A0880C4288DFF8E41D0CA803F0B9FA0CA8F5
S315080009B002F07EF90CA902F0FBFEDFF8D41D0CA8A4
S315080009C002F0A0F90CA802F06FFB0600F6B2002EA2
S315080009D002D03000C0B20DE4DFF8B81D0CA802F052
S315080009E091F90CA802F060FB0600F6B2002E03D0BF
S315080009F03000C0B2FFF7FEBBDFF82C0C408803F0CE
S31508000A00C1F901000D2003F016FA03F061FACDE9E9
S31508000A100001DFF8140C4288DFF87C1D0CA803F0EF
S31508000A207FFA0CA802F040FB0600F6B2002E03D0AF
S31508000A303000C0B2FFF7DEBBDFF8EC0B808803F0AE
S31508000A40A1F901000E2003F0F6F903F041FACDE909
S31508000A500001DFF8D40B8288DFF8401D0CA803F0EC
S31508000A605FFA01F0BBBF5FFA89F9B9F1020F06DA3E
S31508000A70DFF8181E0CA802F045F901F09DBF78783A
S31508000A80432800F0F981442801F01C84462801F027
S31508000A902F8749280DD04B2801F052844C2801F0A5
S31508000AA03F87522801F02984552801F0B78601F0BE
S31508000AB072BFDFF8DC1D0CA802F024F95FFA89F989
S31508000AC0B9F1090F13DAE4B2002C0AD0DFF84C1B8F
S31508000AD00CA802F017F90CA802F0EAF80CA902F023
S31508000AE067FEDFF8B01D0CA802F00CF9C2E1B87871
S31508000AF0522800F0BD80532840F0B781F8783A288C
S31508000B0002D1B8792E2813D0E4B2002C0AD0DFF827
S31508000B100C1B0CA802F0F6F80CA802F0C9F80CA9F0
S31508000B2002F046FEDFF8041E0CA802F0EBF89EE081
S31508000B30E4B2002C0AD0DFF8E41A0CA802F0E2F8B6
S31508000B400CA802F0B5F80CA902F032FE97F90400D9
S31508000B508DF8A80097F905008DF8A90000208DF8F2
S31508000B60AA002AA801F07CFF002805D1DFF8C01DDD
S31508000B700CA802F0C7F87AE02AA801F08DFF040055
S31508000B8097F907008DF8A80097F908008DF8A900CD
S31508000B9000208DF8AA002AA801F062FF002805D1D6
S31508000BA0DFF8201E0CA802F0ADF860E02AA801F0D4
S31508000BB073FF8146B9F1000F06D12200DFF8081E3F
S31508000BC00CA803F0ADF92AE05FF00008002505E05F
S31508000BD02AA801F061FF35A948556D1C4D451EDA56
S31508000BE0032000FB05F0384490F90A008DF8A800A8
S31508000BF0032000FB05F0384490F90B008DF8A90096
S31508000C0000208DF8AA002AA801F02AFF0028DFD1C3
S31508000C10DFF81C1D0CA802F075F85FF00108B8F1A2
S31508000C20000F05D12200DFF8341E0CA803F078F96E
S31508000C3000250AE035A8425DBFA12AA803F070F98D
S31508000C402AA90CA803F0BEFD6D1C4D45F2DBBBA11D
S31508000C500CA803F0B7FDB9F101039BB20DF1D5025B
S31508000C609DF8D4102000C0B203F045FE060001E14D
S31508000C70F8783A2805D1B8792E2802D1787A2E281C
S31508000C8013D0E4B2002C0AD0DFF890190CA802F0B1
S31508000C9039F80CA802F00CF80CA902F089FDDFF867
S31508000CA0C01D0CA802F02EF8DEE0E4B2002C0AD033
S31508000CB0DFF868190CA802F025F80CA801F0F8FF6F
S31508000CC00CA902F075FD97F904008DF8A80097F9AC
S31508000CD005008DF8A90000208DF8AA002AA801F0C1
S31508000CE0BFFE002805D1DFF80C1E0CA802F00AF892
S31508000CF0BAE02AA801F0D0FE040097F907008DF89B
S31508000D00A80097F908008DF8A90000208DF8AA0018
S31508000D102AA801F0A5FE002805D1DFF8DC1D0CA8DD
S31508000D2001F0F0FFA0E02AA801F0B6FE814697F987
S31508000D300A008DF8A80097F90B008DF8A900002085
S31508000D408DF8AA002AA801F08BFE002805D1DFF845
S31508000D503C1E0CA801F0D6FF86E02AA801F09CFEEE
S31508000D608246B9F1000F06D12200DFF8241E0CA82E
S31508000D7003F0D6F82AE05FF00008002505E02AA867
S31508000D8001F08AFE35A948556D1C4D451EDA03202B
S31508000D9000FB05F0384490F90D008DF8A8000320F3
S31508000DA000FB05F0384490F90E008DF8A9000020E4
S31508000DB08DF8AA002AA801F053FE0028DFD1DFF833
S31508000DC0D41D0CA801F09EFF5FF00108B8F1000FD2
S31508000DD005D12200DFF8501E0CA803F0A1F8002563
S31508000DE00AE035A8425D54A12AA803F099F82AA971
S31508000DF00CA803F0E7FC6D1C4D45F2DB4FA10CA8CF
S31508000E0003F0E0FC9DF8D410504603009BB235AAC7
S31508000E10C9B22000C0B203F0CBFD0600F6B2002E20
S31508000E2022D10CA802F040F90600F6B2002E03D033
S31508000E303000C0B2FFF7DEB9DFF8F01D0CA803F0EA
S31508000E406FF800250AE035A8425D3BA12AA803F001
S31508000E5067F82AA90CA803F0B5FC6D1C5545F2DB0A
S31508000E6036A10CA803F0AEFC04E0DFF8541E0CA86B
S31508000E7001F048FF01F0A0BD0026DFF8481E0CA8C7
S31508000E8001F040FF5FFA89F9B9F1020F14D1E4B213
S31508000E90002C0AD0DFF884170CA801F033FF0CA841
S31508000EA001F006FF0CA902F083FCDFF81C1E0CA853
S31508000EB003F036F801F0FDB9B878492801F0CA817F
S31508000EC0522800F03184532804D0542801F04E816A
S31508000ED001F0EFB9F8783A2814D0E4B2002C0AD019
S31508000EE0DFF8E81D0CA801F00DFF0CA801F0E0FEE4
S31508000EF00CA902F05DFCDFF8681E0CA801F002FFE1
S31508000F0000F00EBC5FFA89F9B9F1050F18DAE4B2F8
S31508000F10002C0AD0DFF84C1E0CA801F0F3FE0CA832
S31508000F2001F0C6FE0CA902F043FCDFF83C1E0CA833
S31508000F3001F0E8FE00F0F4BB25782E000D0A00004B
S31508000F403D1D290030A801F0DDFE00200B90002091
S31508000F500A900AA800900BAB2DAADFF8101E30A83D
S31508000F6003F032FE032840F0C8830A9802F0B0FF67
S31508000F70CDE902010B9802F0ABFFCDE900012DAADD
S31508000F80DFF8EC1D0CA802F0CBFF0522DFF8E41D04
S31508000F902DA803F02BFE002834D10B9A0A990020BD
S31508000FA002F05CFF0600F6B2002E17D1E4B2002C60
S31508000FB00AD0DFF8541E0CA801F0A4FE0CA801F014
S31508000FC077FE0CA902F0F4FBDFF8401E0CA802F02D
S31508000FD0A7FF90E3B525002050B90008E4B2002C1D
S31508000FE00AD0DFF82C1E0CA801F08CFE0CA801F024
S31508000FF05FFE0CA902F0DCFBDFF8181E0CA802F055
S315080010008FFF78E30522DFF8101E2DA803F0EEFD0A
S31508001010002833D10B9A0A99012002F01FFF060017
S31508001020F6B2002E16D1E4B2002C0AD0DFF8EC1D79
S315080010300CA801F067FE0CA801F03AFE0CA902F014
S31508001040B7FBDFF86C1E0CA802F06AFF53E300BF7B
S3150800105038250020E4B2002C0AD0DFF8581E0CA868
S3150800106001F050FE0CA801F023FE0CA902F0A0FB2B
S31508001070DFF8A01D0CA802F053FF3CE30522DFF8B9
S31508001080381E2DA803F0B2FD002835D10B9A0A990F
S31508001090022002F0E3FE0600F6B2002E18D1E4B2F2
S315080010A0002C0AD0DFF8141E0CA801F02BFE0CA8A1
S315080010B001F0FEFD0CA902F07BFBDFF8041E0CA86C
S315080010C002F02EFF17E300BF14B80008A4CC0008EE
S315080010D0E4B2002C0AD0DFF87C1E0CA801F012FE40
S315080010E00CA801F0E5FD0CA902F062FBDFF8241D4F
S315080010F00CA802F015FFFEE20522DFF85C1E2DA8FB
S3150800110003F074FD002837D10B9A0A99032002F0E0
S31508001110A5FE0600F6B2002E1AD1E4B2002C0AD0BB
S31508001120DFF8381E0CA801F0EDFD0CA801F0C0FD93
S315080011300CA902F03DFBDFF8281E0CA802F0F0FE11
S31508001140D9E200BF1CC4000840C4000864C40008F3
S31508001150E4B2002C0AD0DFF80C1E0CA801F0D2FD70
S315080011600CA801F0A5FD0CA902F022FBDFF8A41CCF
S315080011700CA802F0D5FEBEE20522DFF87C1E2DA8DB
S3150800118003F034FD002830D10B9A0A99042002F0A6
S3150800119065FE0600F6B2002E13D1E4B2002C0AD082
S315080011A0DFF8581E0CA801F0ADFD0CA801F080FD73
S315080011B00CA902F0FDFADFF8481E0CA802F0B0FEF2
S315080011C099E2E4B2002C0AD0DFF8381E0CA801F028
S315080011D099FD0CA801F06CFD0CA902F0E9FADFF8FC
S315080011E0341C0CA802F09CFE85E20522DFF8181EC6
S315080011F02DA803F0FBFC002834D10B9A0A99052088
S3150800120002F02CFE0600F6B2002E17D1E4B2002C2E
S315080012100AD0DFF8881E0CA801F074FD0CA801F0AE
S3150800122047FD0CA902F0C4FADFF8741E0CA802F0F8
S3150800123077FE60E254B80008A8D90008E4B2002C8A
S315080012400AD0DFF8601E0CA801F05CFD0CA801F0BE
S315080012502FFD0CA902F0ACFADFF8B81B0CA802F0B7
S315080012605FFE48E20522DFF8401E2DA803F0BEFC0B
S31508001270002837D10B9A0A99062002F0EFFD0600DE
S31508001280F6B2002E1AD1E4B2002C0AD0DFF81C1EE2
S315080012900CA801F037FD0CA801F00AFD0CA902F014
S315080012A087FADFF8B41E0CA802F03AFE23E200BF64
S315080012B088C40008ACC40008D0C40008E4B2002CF6
S315080012C00AD0DFF8981E0CA801F01CFD0CA801F046
S315080012D0EFFC0CA902F06CFADFF8381B0CA802F038
S315080012E01FFE08E20522DFF8B41E2DA803F07EFCD7
S315080012F0002830D10B9A0A99072002F0AFFD0600A4
S31508001300F6B2002E13D1E4B2002C0AD0DFF8901EF4
S315080013100CA801F0F7FC0CA801F0CAFC0CA902F015
S3150800132047FADFF8B41E0CA802F0FAFDE3E1E4B2CE
S31508001330002C0AD0DFF8A41E0CA801F0E3FC0CA8C8
S3150800134001F0B6FC0CA902F033FADFF8C81A0CA8AB
S3150800135002F0E6FDCFE10522DFF8841E2DA803F092
S3150800136045FC002834D10B9A0A99082002F076FD2C
S315080013700600F6B2002E17D1E4B2002C0AD0DFF828
S31508001380641E0CA801F0BEFC0CA801F091FC0CA987
S3150800139002F00EFADFF8501E0CA802F0C1FDAAE111
S315080013A094B80008BCD10008E4B2002C0AD0DFF8D3
S315080013B03C1E0CA801F0A6FC0CA801F079FC0CA9AF
S315080013C002F0F6F9DFF84C1A0CA802F0A9FD92E132
S315080013D00422DFF8B01E2DA803F008FC002835D13A
S315080013E00B9A0A99092002F039FD0600F6B2002E7A
S315080013F018D1E4B2002C0AD0DFF88C1E0CA801F034
S3150800140081FC0CA801F054FC0CA902F0D1F9DFF814
S31508001410A41E0CA802F084FD6DE100BFF4C4000808
S3150800142018C50008E4B2002C0AD0DFF88C1E0CA8F8
S3150800143001F068FC0CA801F03BFC0CA902F0B8F915
S31508001440DFF8D0190CA802F06BFD54E10422DFF88E
S315080014506C1E2DA803F0CAFB002837D10B9A0A99EF
S315080014600A2002F0FBFC0600F6B2002E1AD1E4B2FE
S31508001470002C0AD0DFF8481E0CA801F043FC0CA883
S3150800148001F016FC0CA902F093F9DFF8AC1E0CA8C3
S3150800149002F046FD2FE100BF3CC50008A425002048
S315080014A0E8BE0008E4B2002C0AD0DFF8901E0CA8AB
S315080014B001F028FC0CA801F0FBFB0CA902F078F956
S315080014C0DFF850190CA802F02BFD14E10422DFF80E
S315080014D0A41E2DA803F08AFB002835D10B9A0A9979
S315080014E00B2002F0BBFC0600F6B2002E18D1E4B2BF
S315080014F0002C0AD0DFF8801E0CA801F003FC0CA80B
S3150800150001F0D6FB0CA902F053F9DFF8701E0CA8FF
S3150800151002F006FDEFE000BFE4D6000860C500084B
S31508001520E4B2002C0AD0DFF8581E0CA801F0EAFB3A
S315080015300CA801F0BDFB0CA902F03AF9DFF8D418A3
S315080015400CA802F0EDFCD6E00422DFF8881E2DA8D0
S3150800155003F04CFB002839D10B9A0A990C2002F0AB
S315080015607DFC0600F6B2002E1CD1E4B2002C0AD08F
S31508001570DFF8641E0CA801F0C5FB0CA801F098FB67
S315080015800CA902F015F9DFF8541E0CA802F0C8FCE5
S31508001590B1E000BF10BF0008FCD6000884C50008EB
S315080015A0A0250020E4B2002C0AD0DFF8341E0CA8CF
S315080015B001F0A8FB0CA801F07BFB0CA902F0F8F8D7
S315080015C0DFF850180CA802F0ABFC94E00522DFF80F
S315080015D0141E2DA803F00AFB00283BD10B9A0A9982
S315080015E00D2002F03BFC0600F6B2002E1ED1E4B236
S315080015F0002C0AD0DFF8F01D0CA801F083FB0CA81C
S3150800160001F056FB0CA902F0D3F8DFF8E01D0CA890
S3150800161002F086FC6FE000BF0CBC0008C4CC0008D2
S31508001620E4CC000838BF000870250020E4B2002C7E
S315080016300AD0DFF8BC1D0CA801F064FB0CA801F069
S3150800164037FB0CA902F0B4F8DFF8C8170CA802F0AB
S3150800165067FC50E00522DFF8941E2DA803F0C6FAB1
S31508001660002835D10B9A0A990E2002F0F7FB0600DE
S31508001670F6B2002E13D1E4B2002C0AD0DFF8701EA1
S315080016800CA801F03FFB0CA801F012FB0CA902F014
S315080016908FF8DFF8601E0CA802F042FC2BE0E4B2DB
S315080016A0002C0AD0DFF8AC1E0CA801F02BFB0CA806
S315080016B001F0FEFA0CA902F07BF8DFF858170CA81F
S315080016C002F02EFC17E000BFFCBA000804CD0008A3
S315080016D0E4B2002C0AD0DFF8801E0CA801F012FB39
S315080016E00CA801F0E5FA0CA902F062F8DFF86C1E06
S315080016F00CA802F015FC002612E0E4B2002C0AD071
S31508001700DFF860160CA801F0FDFA0CA801F0D0FA73
S315080017100CA902F04DF8DFF88C1E0CA801F0F2FABD
S3150800172000F0C7BD60BF0008E4B2002C0AD0DFF89D
S31508001730781E0CA801F0E6FA0CA801F0B9FA0CA973
S3150800174002F036F802F0B6FB0200DFF8601E0CA8BD
S3150800175002F0E6FB0CA801F0A7FC0600F6B2002E84
S3150800176003D03000C0B2FEF745BDDFF8441E0CA812
S3150800177002F0D6FB0CA801F097FC0600F6B2002E84
S315080017800ED03000C0B2FEF735BD00BF38BC000829
S3150800179014D7000888B9000888BF0008C0B900082F
S315080017A0002500E06D1C0F2D80F2DA84002D23D071
S315080017B0022D00F0BF806FD3042D00F05381C0F0D6
S315080017C00581062D00F0E881C0F09881082D00F00B
S315080017D07F82C0F02D820A2D00F02283C0F0CC82D1
S315080017E00C2D00F0C183C0F06D830E2D00F06084CF
S315080017F0C0F00C8400F0A3BCE4B2002C24D028006E
S31508001800C0B202F046FB06002800C0B202F047FB51
S3150800181007002800C0B202F048FB8046300002F0FC
S3150800182057FBCDE90201380002F052FBCDE9000171
S315080018304246DFF8781E0CA802F072FB0CA801F0ED
S3150800184037FA0CA901F0B4FF2800C0B202F021FB58
S3150800185006002800C0B202F022FB07002800C0B22A
S3150800186002F023FB8046300002F032FBCDE902018C
S31508001870380002F02DFBCDE900014246DFF8681E6C
S315080018800CA802F04DFB00F05ABC00BF24CD00089E
S31508001890A8C50008B0BF0008E4B2002C24D0280070
S315080018A0C0B202F0F6FA06002800C0B202F0F7FA53
S315080018B007002800C0B202F0F8FA8046300002F0AD
S315080018C007FBCDE90201380002F002FBCDE9000171
S315080018D04246DFF8181E0CA802F022FB0CA801F0FD
S315080018E0E7F90CA901F064FF2800C0B202F0D1FAAA
S315080018F006002800C0B202F0D2FA07002800C0B2DB
S3150800190002F0D3FA8046300002F0E2FACDE902018D
S31508001910380002F0DDFACDE900014246DFF86C1E18
S315080019200CA802F0FDFA00F00ABC00BFD8BF0008F8
S3150800193064BC0008E4B2002C24D02800C0B202F02F
S31508001940A8FA06002800C0B202F0A9FA0700280083
S31508001950C0B202F0AAFA8046300002F0B9FACDE920
S315080019600201380002F0B4FACDE900014246DFF878
S315080019707C1E0CA802F0D4FA0CA801F099F90CA95F
S3150800198001F016FF2800C0B202F083FA060028000C
S31508001990C0B202F084FA07002800C0B202F085FA45
S315080019A08046300002F094FACDE90201380002F0D0
S315080019B08FFACDE900014246DFF8341E0CA802F082
S315080019C0AFFABCE330BA00082CD70008E4B2002C02
S315080019D024D02800C0B202F05CFA06002800C0B283
S315080019E002F05DFA07002800C0B202F05EFA8046EF
S315080019F0300002F06DFACDE90201380002F068FA0B
S31508001A00CDE900014246DFF8481E0CA802F088FA24
S31508001A100CA801F04DF90CA901F0CAFE2800C0B2C5
S31508001A2002F037FA06002800C0B202F038FA0700BA
S31508001A302800C0B202F039FA8046300002F048FAAF
S31508001A40CDE90201380002F043FACDE90001424629
S31508001A50DFF83C1E0CA802F063FA70E3BCD9000854
S31508001A6000C00008E4B2002C24D02800C0B202F05E
S31508001A7010FA06002800C0B202F011FA0700280082
S31508001A80C0B202F012FA8046300002F021FACDE91F
S31508001A900201380002F01CFACDE900014246DFF8DF
S31508001AA04C1E0CA802F03CFA0CA801F001F90CA98E
S31508001AB001F07EFE2800C0B202F0EBF9060028000D
S31508001AC0C0B202F0ECF907002800C0B202F0EDF946
S31508001AD08046300002F0FCF9CDE90201380002F038
S31508001AE0F7F9CDE900014246DFF8301E0CA802F0EE
S31508001AF017FA24E390BC000864BA0008E4B2002C84
S31508001B0024D02800C0B202F0C4F906002800C0B2EA
S31508001B1002F0C5F907002800C0B202F0C6F98046EF
S31508001B20300002F0D5F9CDE90201380002F0D0F90B
S31508001B30CDE900014246DFF8541E0CA802F0F0F980
S31508001B400CA801F0B5F80CA901F032FE2800C0B2C5
S31508001B5002F09FF906002800C0B202F0A0F90700BB
S31508001B602800C0B202F0A1F98046300002F0B0F9B0
S31508001B70CDE90201380002F0ABF9CDE90001424691
S31508001B80DFF80C1E0CA802F0CBF9D8E214B900084D
S31508001B9044D7000828C00008E4B2002C24D0280046
S31508001BA0C0B202F076F906002800C0B202F077F952
S31508001BB007002800C0B202F078F98046300002F02B
S31508001BC087F9CDE90201380002F082F9CDE9000172
S31508001BD04246DFF8301E0CA802F0A2F90CA801F064
S31508001BE067F80CA901F0E4FD2800C0B202F051F92B
S31508001BF006002800C0B202F052F907002800C0B259
S31508001C0002F053F98046300002F062F9CDE902018C
S31508001C10380002F05DF9CDE900014246DFF8101EF2
S31508001C200CA802F07DF98AE2D0D90008D4DA0008B7
S31508001C30E4B2002C24D02800C0B202F02AF906002B
S31508001C402800C0B202F02BF907002800C0B202F043
S31508001C502CF98046300002F03BF9CDE90201380044
S31508001C6002F036F9CDE900014246DFF8E81D0CA876
S31508001C7002F056F90CA801F01BF80CA901F098FD22
S31508001C802800C0B202F005F906002800C0B202F02A
S31508001C9006F907002800C0B202F007F980463000AE
S31508001CA002F016F9CDE90201380002F011F9CDE982
S31508001CB000014246DFF8A01D0CA802F031F93EE209
S31508001CC050C00008BCBC000878C0000844CD000815
S31508001CD0E4B2002C24D02800C0B202F0DAF80600DC
S31508001CE02800C0B202F0DBF807002800C0B202F0F4
S31508001CF0DCF88046300002F0EBF8CDE90201380046
S31508001D0002F0E6F8CDE900014246DFF8CC1D0CA842
S31508001D1002F006F90CA800F0CBFF0CA901F048FD6B
S31508001D202800C0B202F0B5F806002800C0B202F0DA
S31508001D30B6F807002800C0B202F0B7F880463000AF
S31508001D4002F0C6F8CDE90201380002F0C1F8CDE983
S31508001D5000014246DFF8841D0CA802F0E1F8EEE126
S31508001D60A0C00008CCC50008F0C50008E0DA0008E5
S31508001D705CD7000888DC0008E4B2002C24D02800D0
S31508001D80C0B202F086F806002800C0B202F087F852
S31508001D9007002800C0B202F088F88046300002F03A
S31508001DA097F8CDE90201380002F092F8CDE9000172
S31508001DB04246DFF82C1D0CA802F0B2F80CA800F079
S31508001DC077FF0CA901F0F4FC2800C0B202F061F814
S31508001DD006002800C0B202F062F807002800C0B268
S31508001DE002F063F88046300002F072F8CDE902018D
S31508001DF0380002F06DF8CDE900014246DFF8E41C30
S31508001E000CA802F08DF89AE164CD000814C6000803
S31508001E1038C60008D8D1000890DC000884CD000830
S31508001E20E4B2002C24D02800C0B202F032F8060032
S31508001E302800C0B202F033F807002800C0B202F04A
S31508001E4034F88046300002F043F8CDE90201380044
S31508001E5002F03EF8CDE900014246DFF8001C0CA866
S31508001E6002F05EF80CA800F023FF0CA901F0A0FC14
S31508001E702800C0B202F00DF806002800C0B202F031
S31508001E800EF807002800C0B202F00FF880463000AE
S31508001E9002F01EF8CDE90201380002F019F8CDE982
S31508001EA000014246DFF8401C0CA802F039F846E16A
S31508001EB05CC6000880C6000898DC0008A4CD0008A7
S31508001EC0A4C60008E4B2002C24D02800C0B201F051
S31508001ED0E0FF06002800C0B201F0E1FF0700280075
S31508001EE0C0B201F0E2FF8046300001F0F1FFCDE913
S31508001EF00201380001F0ECFFCDE900014246DFF8A7
S31508001F00EC1B0CA802F00CF80CA800F0D1FE0CA9EA
S31508001F1001F04EFC2800C0B201F0BBFF0600280005
S31508001F20C0B201F0BCFF07002800C0B201F0BDFF37
S31508001F308046300001F0CCFFCDE90201380001F0FF
S31508001F40C7FFCDE900014246DFF8A41B0CA801F043
S31508001F50E7FFF4E0C8C60008A0DC0008C4CD000806
S31508001F60F4D10008ECC60008E4B2002C24D02800FE
S31508001F70C0B201F08EFF06002800C0B201F08FFF44
S31508001F8007002800C0B201F090FF8046300001F03B
S31508001F909FFFCDE90201380001F09AFFCDE9000163
S31508001FA04246DFF8FC1B0CA801F0BAFF0CA800F0AB
S31508001FB07FFE0CA901F0FCFB2800C0B201F069FF06
S31508001FC006002800C0B201F06AFF07002800C0B268
S31508001FD001F06BFF8046300001F07AFFCDE902017F
S31508001FE0380001F075FFCDE900014246DFF8B41B61
S31508001FF00CA801F095FFA2E0A8DC0008E4CD0008D3
S3150800200010D2000810C70008B0DC0008E4B2002CA3
S3150800201024D02800C0B201F03CFF06002800C0B258
S3150800202001F03DFF07002800C0B201F03EFF8046E0
S31508002030300001F04DFFCDE90201380001F048FFFC
S31508002040CDE900014246DFF8601B0CA801F068FFE5
S315080020500CA800F02DFE0CA901F0AAFB2800C0B2BE
S3150800206001F017FF06002800C0B201F018FF0700AC
S315080020702800C0B201F019FF8046300001F028FFA1
S31508002080CDE90201380001F023FFCDE900014246FF
S31508002090DFF8181B0CA801F043FF50E004CE000837
S315080020A02CD2000834C70008B8DC000824CE000883
S315080020B0E4B2002C24D02800C0B201F0EAFE0600E3
S315080020C02800C0B201F0EBFE07002800C0B201F0FC
S315080020D0ECFE8046300001F0FBFECDE90201380037
S315080020E001F0F6FECDE900014246DFF8C41A0CA855
S315080020F001F016FF0CA800F0DBFD0CA901F058FB57
S315080021002800C0B201F0C5FE06002800C0B201F0E2
S31508002110C6FE07002800C0B201F0C7FE80463000A0
S3150800212001F0D6FECDE90201380001F0D1FECDE975
S3150800213000014246DFF87C1A0CA801F0F1FE0CA853
S3150800214000F0B2FF0600F6B2002E3FF42BAB3000CB
S31508002150C0B2FEF74FB800BF58C700087CC70008D2
S31508002160DFF8541A0CA801F0DBFEA2E0F8783A284A
S3150800217018D0E4B2002C0AD0DFF8401A0CA800F0F8
S31508002180C1FD0CA800F094FD0CA901F011FBDFF8C5
S31508002190301A0CA800F0B6FD5BE000BFC0DC0008F2
S315080021A044CE00085FFA89F9B9F1050F20DAE4B2DE
S315080021B0002C0AD0DFF80C1A0CA800F0A3FD0CA816
S315080021C000F076FD0CA901F0F3FADFF8FC190CA86B
S315080021D000F098FD3DE000BFA0C70008C4C700088E
S315080021E0C8DC000864CE0008E8C700080CC8000868
S315080021F03D1D290030A800F085FD280001F042FEAB
S315080022000600F6B2002E11D0E4B2002C0AD0DFF890
S31508002210BC190CA800F076FD0CA800F049FD0CA925
S3150800222001F0C6FA3000C0B2FDF7E4BFE4B2002CF4
S315080022300AD0DFF89C190CA800F064FD0CA800F081
S3150800224037FD0CA901F0B4FADFF86C190CA801F0F7
S3150800225067FE2EE001F0BFFD0600F6B2002E15D08F
S31508002260E4B2002C0AD0DFF86C190CA800F04AFD7D
S315080022700CA800F01DFD0CA901F09AFA3000C0B2B6
S31508002280FDF7B8BFD0DC000884CE0008E4B2002C05
S315080022900AD0DFF844190CA800F034FD0CA800F0A9
S315080022A007FD0CA901F084FADFF80C190CA801F057
S315080022B037FE81E348D2000830C80008D8DC000899
S315080022C054C8000803F09AFC0500E4B2002C0CD0B0
S315080022D0ADB22A00DFF804190CA801F021FE0CA8FB
S315080022E000F0E6FC0CA901F063FAADB22A00DFF8AB
S315080022F0F0180CA801F014FE5EE3E4B2002C0DD031
S31508002300DFF8E0180CA800F0FDFC0CA800F0D0FCE3
S315080023100CA901F04DFA012003F096FBDFF8C81866
S315080023200CA800F0EFFC002003F0A3FBDFF8BC18B4
S315080023300CA801F0F5FD3FE364D20008C8C0000808
S3150800234000265FFA89F9B9F1040F1BDAE4B2002C0A
S315080023500AD0DFF89C180CA800F0D4FC0CA800F0F2
S31508002360A7FC0CA901F024FADFF888180CA800F0DD
S31508002370C9FC52E2E0DC000878C8000880D20008F0
S31508002380F0C00008B878522800F0B281532840F00F
S315080023903182F878422800F02381532803D0542844
S315080023A000F08D809AE138793A2823D0E4B2002CDF
S315080023B00AD0DFF844180CA800F0A4FC0CA800F01A
S315080023C077FC0CA901F0F4F9DFF830180CA800F036
S315080023D099FC73E0E8DC00089CC80008E8BC000823
S315080023E018C10008F0DC0008C0C8000814BD0008C1
S315080023F040C100085FFA89F9B9F1060F0FDB5FF0F3
S31508002400010805255FFA89F94D450ADA785D03F072
S31508002410D1FC002801D15FF000086D1CF2E75FF0DF
S315080024200008B8F1000F13D1E4B2002C0AD0DFF887
S31508002430D0170CA800F066FC0CA800F039FC0CA913
S3150800244001F0B6F9DFF8BC170CA800F05BFC35E024
S315080024507D1D290030A800F055FC30A803F0AFFC1C
S31508002460011E42F21072914213D3E4B2002C0AD034
S31508002470DFF88C170CA800F045FC0CA800F018FC37
S315080024800CA901F095F9DFF87C170CA800F03AFCC6
S3150800249014E003F0E8FCE4B2002C0AD0DFF8681771
S315080024A00CA800F02FFC0CA800F002FC0CA901F007
S315080024B07FF9DFF858170CA801F032FD13E13879D7
S315080024C03A2819D0E4B2002C0AD0DFF844170CA831
S315080024D000F018FC0CA800F0EBFB0CA901F068F959
S315080024E0DFF830170CA800F00DFC78E0F8DC0008DF
S315080024F0E4C8000840BD00085FFA89F9B9F1060F7B
S315080025000FDB5FF0010805255FFA89F94D450ADA00
S31508002510785D03F04FFC002801D15FF000086D1CC0
S31508002520F2E75FF00008B8F1000F19D1E4B2002C09
S315080025300AD0DFF8E4160CA800F0E4FB0CA800F0BB
S31508002540B7FB0CA901F034F9DFF8D0160CA800F097
S31508002550D9FB44E068C1000808C90008A4CE0008F1
S315080025607D1D290030A800F0CDFB30A803F027FC1C
S31508002570011E42F2107291421CD3E4B2002C0AD01A
S31508002580DFF894160CA800F0BDFB0CA800F090FB31
S315080025900CA901F00DF9DFF86C160CA800F0B2FBD7
S315080025A01DE000BF2CBB0008C4CC0008C4CE000840
S315080025B02CC9000803F080FCE4B2002C0AD0DFF82E
S315080025C060160CA800F09EFB0CA800F071FB0CA985
S315080025D001F0EEF8DFF834160CA801F0A1FC82E051
S315080025E038793A2813D0E4B2002C0AD0DFF834162A
S315080025F00CA800F087FB0CA800F05AFB0CA901F008
S31508002600D7F8DFF824160CA800F07CFB65E05FFA23
S3150800261089F9B9F1060F0FDB5FF0010805255FFAA6
S3150800262089F94D450ADA785D03F0C4FB002801D123
S315080026305FF000086D1CF2E75FF00008B8F1000FC4
S3150800264013D1E4B2002C0AD0DFF8E0150CA800F08C
S3150800265059FB0CA800F02CFB0CA901F0A9F8DFF82F
S31508002660D0150CA800F04EFB37E07D1D290030A8D8
S3150800267000F048FB30A803F0A2FB011EB1F57A7FF3
S3150800268016D3E4B2002C0AD0DFF8A0150CA800F087
S3150800269039FB0CA800F00CFB0CA901F089F8DFF84F
S315080026A090150CA800F02EFB17E000BF9CD200087E
S315080026B003F011FCE4B2002C0AD0DFF878150CA858
S315080026C000F020FB0CA800F0F3FA0CA901F070F852
S315080026D0DFF838150CA801F023FC04E0DFF85815DC
S315080026E00CA800F00FFB98E0B8D20008D4D2000876
S315080026F0F87842284CD0532802D054282CD061E0D0
S31508002700E4B2002C16D003F0FBFB01F03BFBDFF82C
S315080027102C1503F009FC01F0DBFB02000B00DFF8C7
S3150800272020150CA801F0FCFB0CA800F0C1FA0CA9B6
S3150800273001F03EF803F0E4FB01F024FBDFF8FC149B
S3150800274003F0F2FB01F0C4FB02000B00DFF8F414FF
S315080027500CA801F0E5FB48E0E4B2002C0DD003F02C
S31508002760D2FB0200DFF8E0140CA801F0D9FB0CA894
S3150800277000F09EFA0CA901F01BF803F0C4FB020056
S31508002780DFF8C8140CA801F0CBFB2EE0F0D2000845
S31508002790E4B2002C0DD003F0B9FB0200DFF8B01448
S315080027A00CA801F0BDFB0CA800F082FA0CA900F0F9
S315080027B0FFFF03F0ABFB0200DFF898140CA801F04A
S315080027C0AFFB12E0E4B2002C0AD0DFF88C140CA898
S315080027D000F098FA0CA800F06BFA0CA900F0E8FFD4
S315080027E0DFF878140CA800F08DFA16E00CD3000870
S315080027F028D30008E4B2002C0AD0DFF8F4130CA89A
S3150800280000F080FA0CA800F053FA0CA900F0D0FFEB
S31508002810DFF84C140CA800F075FACDE000265FFA34
S3150800282089F9B9F1030F15DAE4B2002C0AD0DFF8FA
S3150800283034140CA800F066FA0CA800F039FA0CA9B2
S3150800284000F0B6FFDFF820140CA800F05BFA4CE0A5
S3150800285044D30008B87844281CD0452832D1DFF87C
S315080028600C140CA801F05CFBE4B2002C0AD0DFF8CB
S3150800287000140CA800F046FA0CA800F019FA0CA9E6
S3150800288000F096FF012003F008FB06002DE000BFCC
S3150800289060D30008DFF8DC130CA801F041FBE4B2B2
S315080028A0002C0AD0DFF8D0130CA800F02BFA0CA8DD
S315080028B000F0FEF90CA900F07BFF002003F0EDFA0A
S315080028C0060012E0E4B2002C0AD0DFF898130CA830
S315080028D000F018FA0CA800F0EBF90CA900F068FF54
S315080028E0DFF898130CA800F00DFA65E07CD3000811
S315080028F003F097FAE4B2002C0AD0DFF884130CA888
S3150800290001F00EFB0CA800F0D3F90CA900F050FF5B
S31508002910DFF870130CA801F003FB4DE098D300080C
S3150800292003F06CF90500E4B2002C10D0D6490CA8C7
S3150800293001F0F6FA0CA800F0BBF90CA900F038FF74
S31508002940ADB22A00A6490CA801F0EAFA34E0CF494C
S315080029500CA801F0E5FA0CA800F0A6FB0600F6B2F2
S31508002960002E03D03000C0B2FDF744BCC8490CA8FD
S3150800297001F0D6FA0CA800F097FB0600F6B2002E76
S3150800298008D03000C0B2FDF735BC00BFB4D300088C
S31508002990D0D30008FEE7E4B2002C09D0BD490CA844
S315080029A000F0B0F90CA800F083F90CA900F000FFBC
S315080029B0AB490CA800F0A6F910E0E4B2002C09D047
S315080029C0B4490CA800F09EF90CA800F071F90CA9FE
S315080029D000F0EEFEA2490CA800F094F9F6B2002E1B
S315080029E005D0022E09D003D3032E0DD011E014E032
S315080029F0A9490CA800F086F90FE0A8490CA800F030
S31508002A0081F90AE0ECD30008A5490CA800F07AF988
S31508002A1003E0A4490CA800F075F90CA800F044FBE3
S31508002A200600F6B2002E05D03000C0B2FDF7E2BBB4
S31508002A3008D400089C490CA800F064F90CA800F01A
S31508002A4033FB0600F6B2002E3DF4D2AB3000C0B21E
S31508002A50FDF7D0BB24D4000840D40008A4D700084A
S31508002A6010B50400200000F023F90022002100E040
S31508002A70491C81420EDA625C303A0A2A03D3625C48
S31508002A80413A062A01D2002200E00122012AEFD1AA
S31508002A90002000E0012010BD38B504000022002502
S31508002AA0200000F005F9002104E0625C303A12EBE0
S31508002AB00515491C81420DDA625C303A0A2AF4D3BC
S31508002AC0625C413A062A02D2625C373AEFE75FF067
S31508002AD0FF3000E0280032BD5CD4000878D4000836
S31508002AE074D700088CD70008BCD70008D4D70008CC
S31508002AF0ECD70008E0B500208DF8080002A803F01E
S31508002B00C9FA684603F026FB002818D100200DE014
S31508002B10694631F910104FF47A62514348F21202AD
S31508002B2091FBF2F1614A22F81010401C0328EFDBF2
S31508002B30684603F04AFB00281BD1002010E001205C
S31508002B402DE0694631F9101041F28832514346F6B4
S31508002B509B7291FBF2F1554A02EB4002D180401C70
S31508002B600328EEDB684603F023FE002816D1002072
S31508002B7010E0012013E0694631F910104FF47A622B
S31508002B80514346F6E82291FBF2F1484A02EB40022D
S31508002B909181401C0328EEDB002000E001200EBDD9
S31508002BA004D800081CD8000894D40008B0D400083B
S31508002BB0CCD40008E8D40008E4D90008E4CE00081C
S31508002BC090C1000850C9000874C9000804CF00085D
S31508002BD004D5000824CF000820D5000844CF0008F3
S31508002BE034D8000864CF0008B8C1000898C900089E
S31508002BF084CF0008E0C10008BCC900086CBD000805
S31508002C00E0C9000804CA0008A4CF0008ECDA0008E6
S31508002C1028CA000898BD00084CCA000870CA0008EF
S31508002C20C4CF000894CA0008C4BD0008B8CA000882
S31508002C30DCCA0008E4CF000800CB000800002041E9
S31508002C4004D00008F0BD00083CD500084CD80008A0
S31508002C5058D5000824D0000844D0000824CB000822
S31508002C6064D0000884D0000808C2000830C20008F2
S31508002C7074D5000858C2000890D5000880C200081C
S31508002C8064D8000898BA0008ACD5000848CB0008F4
S31508002C906CCB0008C4CC000890CB0008A8C200087A
S31508002CA0D0C200081CBE000800DD00083825002038
S31508002CB000F10103810704D010F8011B89B18107CF
S31508002CC0FAD10268B2F10131914311F0803F04BF95
S31508002CD050F8042FF6E710F8011B11B110F8011B84
S31508002CE0FBE7C01A704703681AB95A1E02600846FD
S31508002CF07047197800290FBF4FF0FF30591C016043
S31508002D00187870475FEA000C830706D011F8013B74
S31508002D1000F8013BB3B18307F8D10A68B2F1013371
S31508002D2023EA020313F0803F02BF40F8042B51F850
S31508002D30042FF3E711F8013B00F8013B13B111F832
S31508002D40013BF9E760467047012110F01F029140E8
S31508002D50DFF8902340B2400942F82010704701215D
S31508002D6010F01F029140DFF8802340B2400942F874
S31508002D7020107047401CC0B2322800DB0020C0B2C9
S31508002D80704710B50C00C0B2FFF7F4FFE4B2A042DA
S31508002D9001D1012000E00020C0B210BDC0B2C9B206
S31508002DA0401A002800D53230C0B2704710B540F23C
S31508002DB02771DFF8380303F0E1FD012806D1002268
S31508002DC040F22771DFF8240303F0A2FD40F26531D3
S31508002DD0C64803F0D3FD012803D1C44803F094FD87
S31508002DE028E040F22551C14803F0C8FD012821D149
S31508002DF0BE4803F089FD0400BD4890F83310BC486E
S31508002E0090F83200FFF7BDFF002813D1B848B8493B
S31508002E1091F832104454B64890F83200FFF7AAFFEA
S31508002E20B34981F83200E4B20D2C03D10120B04930
S31508002E3081F8340010BDAE4890F834007047002081
S31508002E40AB4981F83400704710B504001CE0A84867
S31508002E5090F83300A64991F83210884214D02520FC
S31508002E60FFF77DFFA248A24991F83310405C207015
S31508002E70641C9F4890F83300FFF77CFF9C4981F853
S31508002E8033002520FFF760FF9948994991F83310D8
S31508002E90405C0D2809D0964890F83210944890F86E
S31508002EA03300FFF77BFF0028D1D19148904991F86C
S31508002EB03310405C0A2806D08D488D4991F83310A6
S31508002EC0405C0D280DD12520FFF749FF884890F86A
S31508002ED03300FFF74FFF864981F833002520FFF7B7
S31508002EE033FF00202070641CFFF7A9FF10BD00B552
S31508002EF087B000207E4981F8340000207C4981F89B
S31508002F00330000207A4981F8320001214FF48040CD
S31508002F1003F0EBFD0121012003F0E7FD072209215B
S31508002F20744803F085FE07220A21724803F080FEE2
S31508002F304FF4C060019002208DF8080000208DF83B
S31508002F400A0000208DF80B0001208DF8090001A960
S31508002F50684803F011FE4FF4964003900020ADF840
S31508002F6018000C20ADF816000020ADF8140000205B
S31508002F70ADF812000020ADF8100003A95B4803F075
S31508002F8053FC012240F22551584803F0C1FC0122A6
S31508002F906021564803F0BCFC25208DF8000000206F
S31508002FA08DF8010000208DF8020001208DF803003D
S31508002FB0684603F065FE01214C4803F093FC0120A6
S31508002FC04D49086000204D49088007B000BD4FF400
S31508002FD0DC7000E0401E0028FCD1704738B50400BC
S31508002FE0012502E0FFF7F3FF641EEDB2002D0AD0BB
S31508002FF080213E4803F0B5FC012801D1002502E0F6
S31508003000002CEFD10025002C01D0002000E0032081
S3150800301032BD38B50400150000203748006801287D
S3150800302001D022283ED1002C02D089B2002901D134
S31508003030012038E030480068222803D132202E4A81
S31508003040106002E012202C4A10602C48018005E02E
S315080030502178641C89B2254803F052FC2748008869
S3150800306000280BD025480088401E244908802800DF
S31508003070FFF7B4FF0028EBD0032014E02800FFF781
S31508003080ADFF002801D003200DE01B480068322858
S3150800309003D122201849086002E001201649086079
S315080030A0002000E0022032BD10B504002000FFF722
S315080030B0FFFD80B2512801DB012011E00E490968A5
S315080030C0012901D002200BE00D4A010089B2200037
S315080030D0FFF79FFFC0B2002801D0C0B200E0C0B21F
S315080030E010BD000000E100E080E100E0003801408A
S315080030F0E823002000000240A8250020B025002073
S31508003100E0930400012110F01F029140DFF8642BC0
S3150800311040B2400942F820107047012110F01F0202
S315080031209140DFF8542B40B2400942F8201070470E
S3150800313080B5DFF8BC2712681071DFF8B40700689D
S315080031404171DFF8B007DFF8A81709680860DFF8EB
S31508003150A0070068011DDFF898070068006803F0FB
S315080031605EFEDFF8180B0068001D02BD00B587B0CB
S3150800317001215FF4802003F0C8FC0121022003F03E
S31508003180A4FC07220A21DFF8F80A03F051FD0722FA
S315080031900B21DFF8EC0A03F04BFD07220D21DFF8BF
S315080031A0E00A03F045FD07220E21DFF8D40A03F0F2
S315080031B03FFD4FF4D840009002208DF8040000200F
S315080031C08DF8060000208DF8070001208DF805000F
S315080031D06946DFF8AC0A03F0CFFC4FF400400090D4
S315080031E001208DF8040001208DF8060001208DF8D5
S315080031F0070001208DF805006946DFF8840A03F008
S31508003200BBFC5FF4E13003904FF44070ADF8180052
S315080032100C20ADF816000020ADF814000020ADF81B
S3150800322012000020ADF8100003A9DFF8580A03F0D1
S31508003230FBFA012240F22551DFF8480A03F068FB41
S3150800324001226021DFF83C0A03F062FB27208DF893
S31508003250080000208DF8090000208DF80A000120DA
S315080032608DF80B0002A803F00BFD0121DFF8140A04
S3150800327003F038FB0020DFF8101AA1F8200300201D
S31508003280DFF8081A81F896010020DFF8001A81F89D
S3150800329097010020DFF8F41981F898010020DFF87B
S315080032A0EC1981F899010020DFF8E01981F89A01F4
S315080032B00020DFF8D819A1F89C010120DFF8CC1905
S315080032C081F89E0107B000BD401CC0B2C82800DBCB
S315080032D00020C0B27047C0B2C9B2401A002800D553
S315080032E0C830C0B2704738B504000D0020E027206A
S315080032F0FFF713FF0020DFF8941981F89501DFF82E
S315080033008C09DFF8881991F89311084490F8CA00D7
S3150800331028706D1CDFF8740990F89301FFF7D4FF45
S31508003320DFF8681981F893012720FFF7EBFE641E82
S31508003330002C16D0DFF8540990F89301DFF84C19E1
S3150800334091F892118842D2D1012240F22551DFF834
S31508003350340903F0DDFA01226021DFF8280903F0B9
S31508003360D7FA002032BDDFF8240990F89501704796
S3150800337080B5FFF7FBFE4FF40041DFF8040903F0C0
S315080033804EFC0FF22D40DFF808190860DFF8040933
S31508003390DFF804190860DFF80409DFF80419086083
S315080033A002F042FB4FF40041DFF8D40803F035FC85
S315080033B001BD10B586B00024DFF8D008D0F8A0010A
S315080033C0002805D103F01DFDDFF8C018C1F8A001DB
S315080033D0DFF8B808D0F8A001002800F00781DFF868
S315080033E0AC08D0F8A0010068DFF8B8180840DFF884
S315080033F09818DFF89428B2F8202341F82200DFF85D
S315080034008808B0F82003C0B2FFF75EFFDFF8781827
S31508003410A1F82003DFF87408D0F8A0010068DFF8E7
S3150800342084180840DFF880180860DFF87C08006810
S31508003430A02800F08B80DFF8741888422ED0DFF8B9
S315080034407018884257D0DFF86C18884200F08480DC
S31508003450DFF8641888422ED0DFF8601888427BD0DF
S31508003460DFF85C18884259D0DFF85818884200F00F
S315080034709280DFF8541888425BD0DFF850188842EB
S3150800348064D0DFF84C18884260D0DFF848188842C4
S3150800349062D0DFF84418884258D086E0DFF83C0846
S315080034A0FFF702FEDFF8380802F00FFB0120DFF80D
S315080034B0DC1781F896010020DFF8D01781F897010C
S315080034C002210220FFF734FE0088FF2812DCE4B24E
S315080034D0002C0AD1DFF80C08FFF7E6FDDFF808082C
S315080034E002F0F3FA062002F0C4FA0020DFF89C176F
S315080034F0C1F8A00169E0DFF8F407FFF7D5FDDFF8AA
S31508003500F00702F0E2FA0120DFF8801781F8970148
S315080035100020DFF87817C1F8A00156E0A2A0FFF74F
S31508003520C3FD02F013FB0020DFF86017C1F8A00105
S315080035304BE002F092FA9DA0FFF7B6FD02F006FBFB
S315080035400020DFF84817C1F8A0013EE00020DFF8A8
S315080035503C17C1F8A00138E0DFF89807FFF7A4FD8B
S31508003560DFF82807D0F8A001807A00280DD0DFF808
S315080035701C07D0F8A00110F10B02DFF87C1768468B
S3150800358000F0CEFC6846FFF78FFD0020DFF8FC163A
S31508003590C1F8A00119E0DFF86407FFF785FD0020F0
S315080035A0DFF8E816C1F8A0010FE0DFF8FC060268AC
S315080035B0DFF84C17684600F0B3FC6846FFF774FD61
S315080035C00020DFF8C816C1F8A001DFF8C00690F899
S315080035D09311DFF8B80690F89201FFF77CFE0028F1
S315080035E004D00120DFF8A41681F8950106B010BDB5
S315080035F0DFF8980690F896017047DFF8900690F87D
S3150800360097017047DFF8840690F898017047DFF84D
S315080036107C0690F899017047DFF8701681F89801D2
S315080036207047DFF8681681F89901704700B58BB0C6
S315080036300020DFF8580690F89A01032842D1DFF8EF
S315080036404C0690F89E01012801D101203BE001F0CB
S315080036501BFD002834D001F012FDDFF83006B0F863
S315080036609C01401CDFF82416A1F89C0102F04BFCD3
S315080036700300DFF81806B0F89C21DFF888166846BC
S3150800368000F04EFC6846FFF70FFD6846FFF710FB93
S31508003690694600F08DF802F036FCDFF8F015B1F84F
S315080036A09C1188420CD2DFF86006FFF7FDFC022168
S315080036B0122003F00EFC02F03EFA122002F0D9F9AD
S315080036C0002000E00120C0B20BB000BDDFF8BC1539
S315080036D081F89E017047DFF8B41591F89A1103290D
S315080036E003D1DFF8A81581F89E017047DFF89C051D
S315080036F090F89A017047DFF8941581F89A01704797
S3150800370080B540F22771DFF87C0503F037F9012808
S3150800371027D1DFF8780590F8C900DFF8701591F819
S31508003720C810884216D0DFF86405DFF8601591F8EE
S31508003730C910415C89B2DFF84C0503F0E1F8DFF8FF
S315080037404C0590F8C900FFF7BFFDDFF8401581F872
S31508003750C90006E0002240F22771DFF8280503F0C9
S31508003760D7F840F26531DFF81C0503F007F90128A0
S3150800377009D10020DFF8141581F89401DFF8040553
S3150800378003F0C2F80EE040F22551DFF8F80403F022
S31508003790F5F8012806D1DFF8EC0403F0B5F8C0B255
S315080037A000F0AAF801BD00002D2A2D002D4F2D008E
S315080037B0F8B504000D0054F07F40DFF8CC14DFF8AC
S315080037C0C824B2F8202341F82200DFF8BC04B0F878
S315080037D02003C0B2FFF778FDDFF8AC14A1F8200388
S315080037E028786978090411EB0060A97810EB0120A4
S315080037F0E9780818DFF89014DFF88C24B2F820234B
S3150800380041F82200DFF88004B0F82003C0B2FFF7C1
S315080038105BFDDFF87414A1F8200328796979090497
S3150800382011EB0060A97910EB0120E9790818DFF897
S315080038305814DFF85424B2F8202341F82200DFF8A0
S315080038404804B0F82003C0B2FFF73EFDDFF838148D
S31508003850A1F820034FF4FA6726E02878DFF82C143D
S31508003860DFF8282492F8C82088542720FFF755FC4B
S31508003870DFF8180490F8C800DFF8101491F8C9109A
S31508003880884206D1012240F22771DFF8F80303F0D7
S315080038903FF8DFF8F80380F8C8602720FFF732FC06
S315080038A0641E6D1C4FF4FA67002C1FD0DFF8DC038A
S315080038B090F8C800FFF708FD06003000DFF8CC13C3
S315080038C091F8C910C0B28842C7D13800471E0028EF
S315080038D0EAD10020DFF8B41381F8960102210F20FF
S315080038E003F0F7FA082002F0C4F8DDE7F1BD00009E
S315080038F0000000202002030130B5A1B00024DFF843
S315080039000C14DFF80C2412788854DFF804140978AC
S31508003910491CDFF8FC231170C0B20A2803D0C0B2D4
S315080039203F2840F0A3810020DFF8E4130870DFF891
S31508003930DC23DFF8E01302A800F0F2FA02A8FFF78A
S31508003940B3FB0400E4B2002C02D02000C0B28FE121
S315080039500422DFF8C413DFF8B40301F047F900289E
S3150800396011D10120C94981F896010020C74981F87B
S3150800397098010020C54981F89901DFF8A003FFF7EF
S3150800398093FB04006AE10922DFF89413DFF87C034D
S3150800399001F02CF9002811D10120BC4981F89701C2
S315080039A00120BA4981F89A010020B849A1F89C017A
S315080039B0DFF87003FFF778FB04004FE10C22DFF80D
S315080039C06813DFF8480301F011F900281ED100201A
S315080039D0AE4981F897010020AC4981F8980100208A
S315080039E0AA4981F899010120A84981F89A0100207D
S315080039F0A649A1F89C0102F02AF901F093FA02F00F
S31508003A002AF9CA48FFF750FB040027E10422C849EF
S31508003A10BE4801F0EBF800284DD102F06EFA0028F6
S31508003A2017D002F073FA040002F06DFA050002F0EE
S31508003A3061FA0194009500F0A5F9BE4902F074FAFE
S31508003A4000F046FA02000B00BB49B04800F068FADD
S31508003A5016E002F05BFA040002F055FA050002F0DF
S31508003A6049FA0194009500F08DF9B24902F05CFA22
S31508003A7000F02EFA02000B00B049A44800F050FAF4
S31508003A80A248FFF711FB0400E4B2002C02D0200084
S31508003A90C0B2EDE09D48FFF70BF99C49FFF788FE99
S31508003AA00A2002F0F1F90120FFF7BBFDA448FFF751
S31508003AB0FBFA0400D2E00622A249944801F096F8DF
S31508003AC0002840F0B880FFF7A2FD00282CD09E49B8
S31508003AD002A800F025FA02A8FFF7E6FA0400E4B205
S31508003AE0002C02D02000C0B2C2E002A8FFF7E0F81E
S31508003AF002A9FFF75DFE0020FFF793FD0120FFF7FF
S31508003B008BFD02F079F902F0F5F902F0BDF9032010
S31508003B105E4981F89A0100205C49A1F89C018B480E
S31508003B20FFF7C2FA040035E0584890F89A010228CF
S31508003B3020D10320554981F89A0100205349A1F85C
S31508003B409C01814902A800F0EBF902A8FFF7ACFA3C
S31508003B500400E4B2002C02D02000C0B288E002A81B
S31508003B60FFF7A6F802A9FFF723FE7848FFF79CFAA5
S31508003B7004000FE0454890F89A0103280AD100206E
S31508003B804249A1F89C017248FFF78EFA0400012009
S31508003B90FFF79CFD6F4911A8FFF7B4F86E4911A805
S31508003BA003F001FA010000292DD00020087011A8A1
S31508003BB0FFF77EF8002826D011A8FCF7B9FA04000A
S31508003BC0E4B2022C0ED1654902A800F0A9F902A8B0
S31508003BD0FFF76AFA04004D48FFF76AF84B49FFF702
S31508003BE0E7FD10E0E4B2002C0DD05D4902A800F014
S31508003BF097F902A8FFF758FA04004448FFF758F85F
S31508003C004249FFF7D5FD02F0EDF8020055493F4855
S31508003C1000F086F93D48FFF747FA0400E4B2002CA5
S31508003C2002D02000C0B223E03848FFF741F83749F0
S31508003C30FFF7BEFD12E008224B49344800F0D6FFD4
S31508003C40002807D102210E2003F043F90E2001F0C7
S31508003C5010FF03E04548FFF727FA0400002003E0B9
S31508003C6000212A4A1154401C3C28F9DB2000C0B226
S31508003C7021B030BD00E100E080E100E00400002052
S31508003C800004024000480040281A00207020002046
S31508003C9088250020E73200088C25002067330008B5
S31508003CA090250020F800FFFF9C250020A0000100B9
S31508003CB0A0000800A0000900A0000801A000080252
S31508003CC020000A02A0000B02A0000A0320000A0531
S31508003CD0A000000820000908A0000020B8D80008A5
S31508003CE008DA00086CD60008CCD8000884D6000884
S31508003CF0E0D8000844CC000868DA0008DCD00008E0
S31508003D0074DA0008F4D8000808D90008AC230020A3
S31508003D10B2250020F8D0000838DB000818DA0008B9
S31508003D2080DA00081CD9000828DA000838DA000802
S31508003D3040DB00080000204188BB0008B4BB00082F
S31508003D409CD6000848DB000814D1000830D10008CA
S31508003D5030D90008B223002050DB00084CD10008F7
S31508003D6068D1000884D100088CDA000844D9000814
S31508003D70002840F10980F446404200F005F850F06A
S31508003D8000406047002800BF0AD0B0FA80F188409A
S31508003D90D1F19D01C905020672F1004241EB1020DE
S31508003DA070470268531C03601170704780B5002085
S31508003DB090224249424803F055F9C0B2002801D082
S31508003DC0002007E03D480068B0F15A3F01D10120C4
S31508003DD000E0002002BD80B500205FF05A30374968
S31508003DE0086038493848FEF78DFF00200BE00021AF
S31508003DF0324A02EBC00291605FF07E512F4A02EB15
S31508003E00C0025160401C0F28F1DB902000902B4B1C
S31508003E102B4A0021002003F0CBF8C0B202BD80B5C2
S31508003E20002090200090254B254A0021002003F011
S31508003E30BFF8C0B202BD38B504000D002000C0B2FC
S31508003E4000F02DF8290003F017F905002000C0B28C
S31508003E5000F01FF8290003F07BF932BD80B5C0B227
S31508003E600F280DDA154BC0B203EBC003996013494E
S31508003E70C0B201EBC0004260FFF7D1FFC0B200E05C
S31508003E80012002BD80B501000F48FEF73BFF002068
S31508003E9002BD0A49C0B201EBC000806870470749F5
S31508003EA0C0B201EBC000406870470849C0B251F87B
S31508003EB020007047044870470000000014220020C4
S31508003EC00081010858D900089022002070B7000820
S31508003ED05FF0FF0C1CEAD05114BF614506E0C11023
S31508003EE0400721F0E04101F16051704779B900F0CF
S31508003EF0004100020AD0B0FA80FC00FA0CF001F189
S31508003F006051A1EB0C5101EBD021400570474102ED
S31508003F100CBF40F4E0016FF000010020704700007C
S31508003F200CB41CB5044604A801900A46009401ABDB
S31508003F30694607487844183003F04CF9009A00217E
S31508003F40117000285CBF0098001B16BC5DF80CFBBE
S31508003F5053FEFFFF10B582B0040000208DF8000064
S31508003F6000F0E1F8002801D0012074E001236A4638
S31508003F7020217C48007800F01BFD002801D0012094
S31508003F8069E09DF8000010F08F008DF800009DF89C
S31508003F900000217808438DF800009DF8000010F015
S31508003FA0F7008DF800009DF80000E17808438DF8C9
S31508003FB000009DF8000010F0FB008DF800009DF849
S31508003FC00000217908438DF800009DF8000010F0E4
S31508003FD0FE008DF800009DF80000617908438DF811
S31508003FE0000001236A4620215E48007800F083FC21
S31508003FF0002801D001202EE001236A4610215948E5
S31508004000007800F0D5FC002801D0012023E09DF8B7
S31508004010000010F0FC008DF800009DF800006178A3
S3150800402008438DF800009DF8000010F0F3008DF8A5
S3150800403000009DF80000A17808438DF800000123D0
S315080040406A4610214748007800F055FC002801D040
S31508004050012000E0002016BD38B504000025032322
S315080040606A46A8213F48007800F0A2FC002801D043
S31508004070012012E0002007E06946C0B2095CC0B220
S31508004080C20091400D43401CC0B20328F4DB28024D
S3150800409001D555F07F452560002032BD10B582B0A8
S315080040A00400002000906846FFF7D6FF002801D0DC
S315080040B0012008E00098FFF75BFE5FF08B4101F0F6
S315080040C033FF2060002016BD10B582B00400002022
S315080040D002236A46AB212348007800F069FC0028D1
S315080040E001D0012007E09DF801009DF8001011EBB2
S315080040F000202080002016BD10B582B00400684656
S31508004100FFF7E2FF002801D001200BE0BDF900000F
S31508004110FFF72EFE144901F007FF144903F018F8BB
S315080041202060002016BD80B501236A4620210D486F
S31508004130007800F03DFC002801D0012011E09DF830
S31508004140000050F080008DF8000001236A46202107
S315080041500448007800F0CFFB002801D0012000E0D9
S31508004160002002BDAC0200200000F04300002A42F5
S31508004170002101E04008491CB0F5805FFAD250EAF8
S31508004180013080B2704780B20105090D80B2000B7C
S3150800419011FA00F0704738B5040000250020002CFD
S315080041A001D101204BE07E21882000F07CFB45F2FE
S315080041B04941884207D17F21882000F074FB43F2E9
S315080041C00101884201D0012039E0207855EA0035FE
S315080041D0608810F400600543A08810F4C0600543A9
S315080041E0A07910F010000543E07910F008000543A7
S315080041F0207A10F0030005432A0092B20121882094
S3150800420000F03FFBC0B2002801D0C0B217E0E0685A
S31508004210FFF7AEFF020092B20221882000F031FBC0
S31508004220C0B2002801D0C0B209E02069FFF7A0FF9C
S31508004230020092B20321882000F023FBC0B232BDEF
S3150800424080B50021882000F02EFB80B24FF6FF7162
S31508004250884201D180B202E080B2FFF794FF02BD26
S3150800426000B59BB00121DFF8340502F04EFC0121B0
S315080042704FF4017002F039FC0121032002F025FCFD
S31508004280012002F0ADFB0E220521DFF8140502F02D
S31508004290CFFC01220321DFF80C0502F0C9FC0E222F
S315080042A00421DFF8000502F0C3FC02220121DFF831
S315080042B0F00402F0BDFC0E220021DFF8E40402F04F
S315080042C0B7FC0420009001208DF8040000208DF82A
S315080042D0060000208DF8070001208DF805006946C4
S315080042E0DFF8C00402F048FC01220421DFF8B40418
S315080042F002F097FC0820009002208DF804000120A7
S315080043008DF8060000208DF8070001208DF80500BD
S315080043106946DFF8900402F02FFC02200090022084
S315080043208DF8040000208DF8060000208DF807009F
S3150800433003208DF805006946DFF8640402F01CFCCA
S315080043402020009003208DF8040000208DF8070037
S3150800435001208DF805006946DFF8440402F00CFCDC
S31508004360102000906946DFF83C0402F005FC0120A5
S3150800437000906946DFF8280402F0FEFB5FF08040F3
S3150800438003F010FF0020ADF820000020ADF81A0059
S315080043900020ADF818004FF47A40079006A95FF0A0
S315080043A0804003F009FE0820ADF85C000020ADF857
S315080043B05E000220ADF8600017A95FF0804003F0A8
S315080043C081FE7020ADF80C000020ADF81400012025
S315080043D0ADF80E000020049003A95FF0804003F0BA
S315080043E04EFE4FF4A0715FF0804003F069FE022094
S315080043F0139000201090002011900020129010A910
S31508004400002003F045FF0121002003F058FF40F289
S315080044105C41002003F069FF002014905FF4C0108F
S3150800442015900020169014A803F070FF0121202093
S3150800443003F07EFF0121DFF8700303F079FF1C20EB
S315080044408DF8080000208DF8090000208DF80A0074
S3150800445001208DF80B0002A802F012FC01220121AE
S315080044605FF0804003F08EFE01215FF0804003F08C
S31508004470D9FDDFF8380303F095FE0020ADF82000DB
S315080044800020ADF81A000020ADF8180000200790AB
S3150800449006A9DFF8180303F08FFD6020ADF80C00BD
S315080044A00020ADF814000120ADF80E00002004909D
S315080044B003A9BE4803F0E3FD0121BC4803F0B2FDA1
S315080044C05FF48030099009A803F081FF00208DF879
S315080044D02D0000200E9000200D905FF080500C906B
S315080044E001208DF83C0000200A9000208DF82C0051
S315080044F00AA9AF4803F046FF052301220821AC4864
S3150800450003F082FF0121AA4803F06BFF4021A84867
S3150800451004F033F80028F9D04FF48071A44804F069
S315080045202CF80128F8D0A34803F03CFE0020ADF88B
S3150800453020000020ADF81A000120ADF8180041F659
S315080045403F70079006A99B4803F036FD6020ADF83A
S315080045500C000020ADF814000120ADF80E00002074
S31508004560049003A9934803F06BFD4FF4F05191486A
S3150800457003F0A4FD19208DF8080000208DF8090025
S3150800458000208DF80A0001208DF80B0002A802F021
S3150800459077FB01220121874803F0F4FD01218548B4
S315080045A003F040FD1BB000BD80B501215FF08040DF
S315080045B003F0F4FD5FF0804003F0BCFD7E49096816
S315080045C07D4A126880B28018B0EBD1107A4908602B
S315080045D07948006878494968774A526812EBD010DA
S315080045E0B0EB11207449486073480068C0097249E5
S315080045F04968B0EB11207049097A002910D11128B1
S315080046001FDB01206C49087200206B4948816A4803
S31508004610007B401C68490873022003F0B9FF10E0CC
S3150800462065494989491C644A518163494989FA2976
S3150800463007D3042805DA00205F490872022003F030
S31508004640B3FF5D48008C401C5B4908845A48008CBF
S31508004650B0F5FA7F36D30020574908845648007BC0
S315080046605549554A527E11444873002052490873E9
S315080046705148407E401C504948764F48407E0C2899
S3150800468002DB00204C4948760020002104E04A4A13
S315080046900A44527B1018491C0C29F8DB002807D15C
S315080046A04548C069002802D05FF0FF3000E00020CE
S315080046B04149C969404AD2698018891CB0EB910002
S315080046C03D49C86101BD10B501213A4803F066FDB0
S315080046D03A480088962818DA354803F04BFF3749D8
S315080046E0364A128801EB82014968344A334B1B88E3
S315080046F002EB8302526880B28018B0EB11102F4982
S315080047002E4A128801EB820148602C480088401C1A
S315080047102A49088029480088962818DB0020274956
S315080047200880002000210DE0244A02EB810252682D
S31508004730904206D2214800EB810040681F4AA2F841
S315080047405C12491C9629EFDB1C49A1F85E021C483D
S315080047501A49098830F81140A4B2611E134803F0BB
S315080047605FFCA4B2610889B2104803F0A9FC0021D5
S315080047700E4803F053FC10BD0F48C0696421484336
S315080047800C21B0FBF1F0800880B270470B48B0F8F6
S315080047905C0270470948B0F85E027047030000A043
S315080047A000040240000002400001008000040040AE
S315080047B0002401400008014094240020080000203D
S315080047C0D8B50008024600E0521C1378002BFBD12E
S315080047D011F8013B137012F8013B002BF8D1704712
S315080047E01CB50024C020009000208DF8040000208D
S315080047F08DF8070001208DF805006946DFF8A0034B
S3150800480002F0BAF901F017F94021DFF8940303F032
S3150800481001FF002814D10321052002F05AFB0021CC
S31508004820032001F0A7F901248021DFF8740303F0BF
S31508004830F1FE00281AD10321062002F04AFB15E0F2
S315080048408021DFF85C0303F0E5FE002809D1032187
S31508004850062002F03EFB0021032001F08BF901241B
S3150800486004E00121032001F085F900242000C0B2EC
S3150800487016BD04B501236A46C9B2C0B200F03BF8BA
S3150800488002BD80B5ADF800209DF800209DF80130E6
S315080048908DF800308DF8012002236A46C9B2C0B2ED
S315080048A000F029F802BD80B502236A46C9B2C0B233
S315080048B000F07EF800280AD19DF800009DF8011046
S315080048C08DF800108DF80100BDF8000001E04FF6E4
S315080048D0FF7002BD38B504004FF420452100B148E9
S315080048E003F06DFF012804D06D1E002DF6D10320BC
S315080048F000E0002032BDF8B504000D0016001F00C8
S31508004900A9480078002851D10120A749087003203A
S3150800491003F03EFE0121A34803F016FFA348FFF764
S31508004920D9FF032804D100209F49087003203EE0E0
S3150800493000222100C9B29B4803F030FF9C48FFF7CC
S31508004940C9FF032804D100209749087003202EE0E8
S315080049502900C9B2934803F02CFF9648FFF7BAFF1F
S31508004960032804D100209049087003201FE0BFB235
S31508004970002F0FD031788B4803F01BFF761C7F1E63
S315080049808D48FFF7A7FF0328F1D100208649087054
S3150800499003200CE00121834803F0E4FE032003F022
S315080049A003FE002080490870002000E00220F2BDC6
S315080049B0F8B504000D0016001F008048007800288E
S315080049C07AD101207D490870032003F0E1FD012119
S315080049D0744803F0B9FE7548FFF77CFF032804D135
S315080049E0002076490870032067E000222100C9B23A
S315080049F06C4803F0D3FE6E48FFF76CFF032804D11A
S31508004A0000206E490870032057E02900C9B265489E
S31508004A1003F0CFFE6848FFF75DFF032804D10020A6
S31508004A2066490870032048E001215E4803F08CFEC1
S31508004A305E48FFF74FFF032804D100205F4908703E
S31508004A4003203AE001222100C9B2564803F0A6FE27
S31508004A505B48FFF73FFF03280AD100205749087033
S31508004A6003202AE04F4803F0A7FE3070761C7F1E0D
S31508004A70BFB2002F10D0BFB2012F03D10021494881
S31508004A8003F07EFE4F48FFF725FF0328EAD10020F2
S31508004A904A490870032010E00121424803F062FEEB
S31508004AA00121404803F06CFE032003F07DFD002041
S31508004AB042490870002000E00220F2BD00B587B028
S31508004AC001215FF4001002F020F80121022001F014
S31508004AD0FCFF04220621324802F0AAF80422072124
S31508004AE02F4802F0A5F8C020009002208DF8040097
S31508004AF001208DF8060001208DF8070001208DF8A9
S31508004B0005006946264802F037F844F62060029008
S31508004B100020ADF80C004BF6FF70ADF80E00002033
S31508004B20ADF810004FF48060ADF812004FF48040E5
S31508004B30ADF8140002A91B4803F090FD012119489D
S31508004B4003F0F4FD002007B000BD00B583B015489A
S31508004B5003F06AFD4020009000208DF80400002034
S31508004B608DF8060000208DF8070001208DF8050055
S31508004B7069460B4802F000F88020009000208DF866
S31508004B80040000208DF8060000208DF8070001209B
S31508004B908DF805006946024801F0EEFF00200EBDBB
S31508004BA00004024000540040B32500200100030021
S31508004BB0820007008000070084000700B425002053
S31508004BC002000300400003000DB400B582B004A83B
S31508004BD000900A466B4603A9034878440A3003F056
S31508004BE021FE06BC5DF810FBFFE0FFFF10B401E0F4
S31508004BF0491C521E6AB10B7804789C4205D010BC39
S31508004C002CBF01204FF0FF30704710F8013B002BF6
S31508004C10EED110BC00207047BFF34F8FDFF88C042D
S31508004C20006810F4E060DFF888140843DFF87C14A5
S31508004C300860BFF34F8F00BFFDE700B587B0DFF808
S31508004C40740404905FF08140059008208DF81800E0
S31508004C5010208DF8190020208DF81A00DFF854046A
S31508004C600190DFF8C00D029008208DF80C00102086
S31508004C708DF80D0020208DF80E0001A801F0D2F95C
S31508004C80002801D0012013E010208DF80000002034
S31508004C908DF8010000208DF8020060208DF80300D1
S31508004CA0684601F011FD002801D0012000E000202F
S31508004CB007B000BDE0B500208DF8080002A801F095
S31508004CC0E9F9684601F046FA00281AD100200FE0F3
S31508004CD0694631F910104FF47A62514348F21202CC
S31508004CE091FBF2F1DFF85C2D02EB40025180401C8B
S31508004CF00328EDDB684601F068FA00281CD100207D
S31508004D0011E001202FE0694631F9101041F288328E
S31508004D10514346F69B7291FBF2F1DFF8282D02EB20
S31508004D2040021181401C0328EDDB684601F040FD76
S31508004D30002817D1002011E0012014E0694631F956
S31508004D4010104FF47A62514346F6E82291FBF2F1CD
S31508004D50DFF8F02C02EB4002D181401C0328EDDB82
S31508004D60002000E001200EBD00B587B020208DF898
S31508004D70000001208DF8010008208DF802000020AF
S31508004D808DF8030000208DF8040000208DF805003A
S31508004D906846FFF7DFF8002801D001201AE0002056
S31508004DA08DF8080000208DF8090000208DF80A000B
S31508004DB000208DF80B0000200390002004900220AC
S31508004DC08DF8140002A804F0CDFA002801D00120BD
S31508004DD000E0002007B000BD80B56846FFF78CF9F3
S31508004DE0002809D10099B34802F046F904F014FBEB
S31508004DF0DFF8501C888209E004F001FBAD4902F097
S31508004E003BF904F009FBDFF83C1C88826846FFF78B
S31508004E1045F900280AD10099A64802F02DF904F0B0
S31508004E20FBFADFF8201CC882002000E0012002BD42
S31508004E3000B585B00C208DF800000020ADF8020002
S31508004E404FF48060ADF8040000208DF806000020BD
S31508004E508DF8070000208DF80800002003905FF009
S31508004E60FF3004906846FFF796F905B000BD00B517
S31508004E7085B00121102001F048FE4FF4FA40ADF844
S31508004E80040001F03DF864214843029001A9DFF8C7
S31508004E90240D03F091F82B208DF8000000208DF8E2
S31508004EA0010000208DF8020001208DF803006846F5
S31508004EB001F0E6FE01220121DFF8F80C03F062F9A1
S31508004EC00121DFF8F00C03F0ADF805B000BDE0B540
S31508004ED00021DFF8E00C03F0A5F84FF4FA40ADF82E
S31508004EE0000001F00DF86421484301906946DFF897
S31508004EF0C40C03F061F80121DFF8B80C03F092F84E
S31508004F0007BD80B5FFF738FCDFF8381B8883FFF745
S31508004F103DFCDFF8301BC883FFF73CFCDFF8241B99
S31508004F20088401BD0120DFF8381D4870DFF8400C01
S31508004F30DFF82C1D4880DFF8380CDFF8241D0881BF
S31508004F40DFF82C0CDFF8181DC881DFF8240CDFF811
S31508004F50101D8882DFF8180CDFF8041DC882DFF8F8
S31508004F60100CDFF8FC1C88614FF6FF70DFF8F01CA8
S31508004F7088834FF6FF70DFF8E81CC883704780B552
S31508004F800120DFF8841D4870FFF7CCFF0020DFF80A
S31508004F90281C48720020DFF8201C08600020DFF873
S31508004FA0181C88800020DFF8101CC8800020DFF855
S31508004FB0081C08725FF0FF30DFF84C1D48805FF070
S31508004FC0FF30DFF8441D08815FF0FF30DFF8381D39
S31508004FD0C8815FF0FF30DFF8301D88825FF0FF3050
S31508004FE0DFF8241DC8824FF6FF70DFF81C1D8861A4
S31508004FF04FF6FF70DFF8101D88834FF6FF70DFF855
S31508005000081DC883FFF75AFDFFF717FEC0B2002830
S3150800501004D10121002000F0ADFD07E005210A209A
S3150800502001F057FF0021002000F0A4FDFFF79CFEC9
S31508005030C0B2002804D10121022000F09BFD07E040
S315080050400521032001F045FF0021022000F092FD12
S31508005050FFF7EEFEC0B2002804D10121012000F0BE
S3150800506089FD07E005210B2001F033FF002101200F
S3150800507000F080FDFFF7F4F8FFF7F9FE01BD002008
S31508005080DFF8841C08707047DFF87C0C00787047DE
S3150800509080B50121DFF81C0B03F080F80120DFF84A
S315080050A0681C087000F0DEFD01BD00000CED00E094
S315080050B00400FA050000204170B5B2B0012000F0E6
S315080050C07DFD00280CD1DFF8440CFDF7EDFF052126
S315080050D0012001F0FEFE00F02EFD012000F0C9FCC3
S315080050E0DFF87C0B007800281DD1FEF781FA00282E
S315080050F019D0FEF782FA002815D0DFF8140C0068DC
S31508005100401CDFF80C1C0860DFF8040C0068DFF8A8
S31508005110041C88420BD30521132001F0DAFE132064
S3150800512000F0A7FC03E00020DFF8E41B0860DFF8C6
S31508005130300B007800284AD0FEF75AFA002846D0E5
S31508005140FEF75BFA002842D0FEF761FA00283ED047
S31508005150DFF8640A007A401CDFF85C1A0872DFF888
S31508005160580A027ADFF8B01B0EA8FEF7D9FE0EA879
S31508005170FDF79AFF00F0CAFEDFF83C1A097A814269
S3150800518021D3DFF8980BFDF78FFF0020DFF8281AE8
S315080051900872DFF88C1B0EA8FEF7C2FE0EA8FDF7F4
S315080051A083FF0EA8FDF784FD0EA9FEF701FB00207C
S315080051B0FEF737FA0120FEF72FFA00F01DFE00F081
S315080051C099FE00F061FE0020DFF8941A0870DFF8F7
S315080051D0900A0078002800F02284FEF709FA0028D1
S315080051E000F01D84FEF709FA002800F01884FEF77F
S315080051F009FA002800F01384FEF718FA002800F0D0
S315080052000E84DFF8200BFDF74FFFDFF8181B05208B
S31508005210FEF7CEFADFF8100B0068401CDFF8081B13
S315080052200860DFF8080B0068401CDFF8001B086000
S31508005230DFF8F40A0068012847DB0020DFF8E81ADF
S31508005240086000F01DFD02002AA122A8FEF768FEEC
S3150800525022A800F0C9FD22AADFF8D41A0EA8FEF784
S315080052605FFE0EA8FDF720FF0EA8FDF721FD0EA98B
S31508005270FEF79EFA0EA800F028FC0020FEF72BFA8F
S31508005280FEF734FA012807D10220FEF734FADFF8D0
S31508005290A40AFDF709FF18E0FEF728FA022814D138
S315080052A00420FEF728FADFF8900AFDF7FDFEDFF87E
S315080052B0701A0EA8FEF734FE0EA8FDF7F5FE0EA826
S315080052C0FDF7F6FC0EA9FEF773FA00F018FC0020AD
S315080052D0DFF88C190870002000F070FC002813D045
S315080052E0FFF7E8FCC0B2002806D10121002000F033
S315080052F041FC09E02573000005210C2001F0E9FDB9
S315080053000021002000F036FC022000F057FC00289F
S3150800531011D0FFF761FDC0B2002804D10121022097
S3150800532000F028FC07E005210D2001F0D2FD002140
S31508005330022000F01FFC012000F040FC002810D0DD
S31508005340FEF77EFF80B24FF6FF71884204D1002037
S315080053500021012000F00EFCFEF772FFDFF8E416CC
S315080053608861FFF7CEFDDFF8DC06B0F916000028E5
S315080053701DD1DFF8C8090068401CDFF8C0190860AD
S31508005380DFF8B8090268DFF8B8192AA8FEF7C8FDD9
S315080053902AA8FDF789FEDFF8A4090068052806DBB8
S315080053A00020DFF898190860072000F062FBDFF894
S315080053B00808C088052808DADFF8FC07C088401CFA
S315080053C0DFF8F417C880FFF7ADFD012003F0E0F819
S315080053D0DFF87006B0F90200DFF88418B1F9021098
S315080053E0884213D1DFF85C06B0F90400DFF87018BC
S315080053F0B1F90410884209D1DFF84806B0F9060069
S31508005400DFF85C18B1F9061088424FD0DFF8340689
S315080054104088DFF84C184880DFF828068088DFF8CF
S3150800542040188880DFF81C06C088DFF834188880A2
S31508005430DFF82C08B0F90600FEF79AFC01000220F6
S31508005440FEF7F9FC0400DFF81808B0F90400FEF7C7
S315080054508FFC01000120FEF7EEFC0500DFF80008CE
S31508005460B0F90200FEF784FC01000020FEF7E3FC19
S3150800547006002000FEF72CFDCDE902012800FEF704
S3150800548027FDCDE900013000FEF722FD02000B00E2
S31508005490DFF8B01804A8FEF743FD04A8FDF704FEDC
S315080054A004A8FDF705FC04A9FEF782F9DFF89405C0
S315080054B0B0F90800DFF8A817B1F90810884213D127
S315080054C0DFF88005B0F90A00DFF89417B1F90A1079
S315080054D0884209D1DFF86C05B0F90C00DFF88017AF
S315080054E0B1F90C1088424FD0DFF858050089DFF86B
S315080054F070170881DFF84C054089DFF86417488182
