S0100000536B7950617463682E73726563ED
S31508000000B00A00206993000801950008BD4F000852
S31508000010D34F000805950008E94F000800000000C6
S31508000020000000000000000000000000099500081C
S315080000300D950008000000001195000815950008A8
S31508000040433E0008199500081D95000821950008EB
S3150800005025950008299500082D9500083195000872
S3150800006035950008399500083D9500084195000822
S3150800007045950008499500084D95000851950008D2
S3150800008055950008599500085D9500086195000882
S3150800009065950008699500086D9500087195000832
S315080000A075950008532B0008799500087D9500087A
S315080000B0352A000881950008859500088995000865
S315080000C08D95000891950008959500089995000862
S315080000D09D9500083D140008A1950008051D000817
S315080000E0A5950008A9950008AD9500086134000893
S315080000F0B195000801201C4981F8280000207047A6
S3150800010010B50400184890F82800022801D10220EA
S3150800011016E0154890F82800002801D101200FE0C4
S31508000120200001F017F9282801D3012008E0210052
S315080001300D4801F02FF902200B4981F8280000200C
S3150800014010BD80B5084890F82800022809D1012179
S31508000150054800F00BF80121034A82F82810C0B2BE
S3150800016000E0002002BD0000182400202DE9F04719
S31508000170BAB080460D00404601F0ECF80600DFF8FC
S315080001808C0D007800281FD098F800001B2812D183
S315080001900020DFF8781D0870DFF8741D03A801F049
S315080001A0F9F803A801F0C0FA0400E4B2002C06D05E
S315080001B02000C0B205E04146012001F0FBFD200009
S315080001C0C0B23AB0BDE8F08798F80000302818D0D9
S315080001D031286CD0322800F0C080412800F0138105
S315080001E0432800F0A681442800F0CF81472800F074
S315080001F03F81482800F07181542800F0188200F0E9
S315080002001BBF00F0CDFF0400E4B2002C4DD1EDB2C7
S31508000210002D0AD0DFF8901D03A801F0BBF803A84B
S3150800022001F098F803A901F0C5FDDFF8B01D03A891
S3150800023001F0B0F803A801F077FA0400E4B2002C44
S3150800024002D02000C0B2BCE7DFF8B80DB0F9002034
S31508000250DFF8B41D03A802F089F803A801F064FAD0
S315080002600400E4B2002C02D02000C0B2A9E7DFF8EF
S31508000270940DB0F90220DFF8941D03A802F076F871
S3150800028003A801F051FA0400E4B2002C02D02000C1
S31508000290C0B296E7DFF86C0DB0F90420DFF8701DE0
S315080002A003A802F063F800F0D8BE00F0D6BE00F04E
S315080002B077FF0400E4B2002C4DD1EDB2002D0AD030
S315080002C0DFF8E41C03A801F065F803A801F042F87A
S315080002D003A901F06FFDDFF8A01D03A801F05AF885
S315080002E003A801F021FA0400E4B2002C02D0200091
S315080002F0C0B266E7DFF80C0DB0F90620DFF8901DEE
S3150800030003A802F033F803A801F00EFA0400E4B2D9
S31508000310002C02D02000C0B253E7DFF8E80CB0F991
S315080003200820DFF8701D03A802F020F803A801F0E2
S31508000330FBF90400E4B2002C02D02000C0B240E76A
S31508000340DFF8C00CB0F90A20DFF88C1D03A802F00C
S315080003500DF800F082BE00F080BE00F021FF040018
S31508000360E4B2002C4DD1EDB2002D0AD0DFF8381CCE
S3150800037003A801F00FF803A800F0ECFF03A901F0A9
S3150800038019FDDFF8581D03A801F004F803A801F0C9
S31508000390CBF90400E4B2002C02D02000C0B210E76A
S315080003A0DFF8600CB0F90C20DFF8341D03A801F063
S315080003B0DDFF03A801F0B8F90400E4B2002C02D06E
S315080003C02000C0B2FDE6DFF83C0CB0F90E20DFF8DD
S315080003D0141D03A801F0CAFF03A801F0A5F904003B
S315080003E0E4B2002C02D02000C0B2EAE6DFF8140C12
S315080003F0B0F91020DFF8F01C03A801F0B7FF00F0F1
S315080004002CBE00F02ABEDFF8E40C02F06DF80400FA
S31508000410E4B2002C2AD1EDB2002D0AD0DFF8881BF1
S3150800042003A800F0B7FF03A800F094FF03A901F0A2
S31508000430C1FCDFF8481D03A800F0ACFF03A801F0D3
S3150800044073F90400E4B2002C02D02000C0B2B8E66A
S31508000450DFF8980C006802F0B1F802000B00DFF82C
S31508000460201D03A801F082FF00F0F7BD00F0F5BDDE
S31508000470DFF8780C02F066F80400E4B2002C2AD102
S31508000480EDB2002D0AD0DFF8201B03A800F082FF8A
S3150800049003A800F05FFF03A901F08CFCDFF8E41C59
S315080004A003A800F077FF03A801F03EF90400E4B2C0
S315080004B0002C02D02000C0B283E6DFF8300C0068BA
S315080004C002F07CF802000B00DFF8BC1C03A801F060
S315080004D04DFF00F0C2BD00F0C0BD02F0FEF8DFF827
S315080004E0AC1C0860EDB2002D0AD0DFF8BC1A03A8D0
S315080004F000F050FF03A800F02DFF03A901F05AFCF5
S31508000500DFF8EC1B03A800F045FF03A801F00CF97F
S315080005100400E4B2002C02D02000C0B251E6DFF895
S315080005206C0C0268DFF8CC1B03A801F01FFF00F073
S3150800053094BD02F067FBDFF8C01B0880EDB2002D02
S315080005400AD0DFF8641A03A800F024FF03A800F015
S3150800055001FF03A901F02EFCDFF8A01B03A800F099
S3150800056019FF03A801F0E0F80400E4B2002C02D059
S315080005702000C0B225E6DFF8800B0288DFF8801B72
S3150800058003A801F0F3FE00F068BD02F045FBDFF8B2
S31508000590681B488002F044FBDFF85C1B8880EDB2DC
S315080005A0002D0AD0DFF8001A03A800F0F3FE03A80E
S315080005B000F0D0FE03A901F0FDFBDFF8D41B03A869
S315080005C000F0E8FE03A801F0AFF80400E4B2002C3E
S315080005D002D02000C0B2F4E5DFF8B81B03A800F08B
S315080005E0D9FE03A801F0A0F80400E4B2002C02D05A
S315080005F02000C0B2E5E5DFF8000B4288DFF8981B5B
S3150800060003A801F0B3FE03A801F08EF80400E4B2D3
S31508000610002C02D02000C0B2D3E5DFF8DC0A8288BD
S31508000620DFF8781B03A801F0A1FE00F016BDF6B2AC
S31508000630022E06DADFF8141C03A800F0ABFE00F061
S31508000640FABC98F80100432800F00282442800F01A
S31508000650068249280AD04B2800F03B82522800F02F
S315080006601982552800F06A8400F0D4BCDFF8E01B34
S3150800067003A800F08FFEF6B2092E13DAEDB2002DAC
S315080006800AD0DFF8241903A800F084FE03A800F0B6
S3150800069061FE03A901F08EFBDFF8B81B03A800F082
S315080006A079FED4E198F80200522800F0C380532856
S315080006B040F0C88198F803003A2803D198F8060054
S315080006C02E2813D0EDB2002D0AD0DFF8DC1803A8C7
S315080006D000F060FE03A800F03DFE03A901F06AFBE6
S315080006E0DFF8741B03A800F055FEA2E0EDB2002D5A
S315080006F00AD0DFF8B41803A800F04CFE03A800F0EF
S3150800070029FE03A901F056FB98F904008DF80000AC
S3150800071098F905008DF8010000208DF8020068465A
S3150800072000F0F0FC002805D1DFF8301B03A800F024
S3150800073031FE7EE0684600F001FD050098F90700E5
S315080007408DF8000098F908008DF8010000208DF852
S315080007500200684600F0D6FC002805D1DFF8001B29
S3150800076003A800F017FE64E0684600F0E7FC060000
S31508000770002E06D12A00DFF8EC1A03A801F0F6FDD0
S315080007802DE05FF000095FF0000A07E0684600F018
S31508000790D5FC26A901F80A001AF1010AB2451EDAA3
S315080007A0032000FB0AF0404490F90A008DF8000087
S315080007B0032000FB0AF0404490F90B008DF8010075
S315080007C000208DF80200684600F09CFC0028DDD168
S315080007D0DFF8881A03A800F0DDFD5FF00109B9F11A
S315080007E0000F05D12A00DFF8801A03A801F0BEFD24
S315080007F05FF0000A0CE026A810F80A20D6A1684681
S3150800080001F0B4FD694603A802F022FA1AF1010ABA
S31508000810B245F0DBD1A103A802F01AFA731E9BB207
S315080008200DF199029DF898102800C0B202F0A7FAB7
S3150800083004000CE198F803003A2807D198F8060056
S315080008402E2803D198F809002E2813D0EDB2002DD2
S315080008500AD0DFF8541703A800F09CFD03A800F09F
S3150800086079FD03A901F0A6FADFF8001A03A800F03B
S3150800087091FDE6E0EDB2002D0AD0DFF82C1703A8AB
S3150800088000F088FD03A800F065FD03A901F092FABF
S3150800089098F904008DF8000098F905008DF8010014
S315080008A000208DF80200684600F02CFC002805D1CF
S315080008B0DFF8BC1903A800F06DFDC2E0684600F039
S315080008C03DFC050098F907008DF8000098F9080026
S315080008D08DF8010000208DF80200684600F012FC31
S315080008E0002805D1DFF88C1903A800F053FDA8E00D
S315080008F0684600F023FC060098F90A008DF8000007
S3150800090098F90B008DF8010000208DF80200684662
S3150800091000F0F8FB002805D1DFF85C1903A800F001
S3150800092039FD8EE0684600F009FC0700002E06D166
S315080009302A00DFF8481903A801F018FD2DE05FF03A
S3150800094000095FF0000A07E0684600F0F7FB26A9F1
S3150800095001F80A001AF1010AB2451EDA032000FB63
S315080009600AF0404490F90D008DF80000032000FBC2
S315080009700AF0404490F90E008DF8010000208DF829
S315080009800200684600F0BEFB0028DDD1DFF8F0184B
S3150800099003A800F0FFFC5FF00109B9F1000F05D1CB
S315080009A02A00DFF8E01803A801F0E0FC5FF0000A6F
S315080009B00CE026A810F80A2067A1684601F0D6FCC4
S315080009C0694603A802F044F91AF1010AB245F0DBB8
S315080009D062A103A802F03CF99DF8981038000300BC
S315080009E09BB226AAC9B22800C0B202F025FA0400B2
S315080009F0E4B2002C25D103A800F096FE0400E4B268
S31508000A00002C03D02000C0B2FFF7DBBBDFF8781854
S31508000A1003A801F0ABFC5FF0000A0CE026A810F86A
S31508000A200A204DA1684601F0A1FC694603A802F018
S31508000A300FF91AF1010ABA45F0DB48A103A802F03A
S31508000A4007F904E0DFF8441803A800F0A3FCF2E273
S31508000A500024DFF83C1803A800F09CFCEBE203F046
S31508000A604EF90600EDB2002D0CD0B6B23200DFF812
S31508000A70241803A801F07AFC03A800F06BFC03A96C
S31508000A8001F098F9B6B23200DFF80C1803A801F0A5
S31508000A906DFCD0E2EDB2002D0DD0DFF8001803A8EA
S31508000AA000F078FC03A800F055FC03A901F082F9D0
S31508000AB0012003F04EF8DFF8E81703A800F06AFCF7
S31508000AC0002003F05BF8DFF8DC1703A801F04EFC02
S31508000AD0B1E20024F6B2042E13DAEDB2002D0AD0E4
S31508000AE0DFF8C41703A800F055FC03A800F032FC91
S31508000AF003A901F05FF9DFF8B41703A800F04AFC70
S31508000B001BE298F80200522800F08281532840F030
S31508000B10018298F80300422800F0FC80532803D08D
S31508000B20542800F07E806DE198F804003A2817D022
S31508000B30EDB2002D0AD0DFF8781703A800F02AFCDA
S31508000B4003A800F007FC03A901F034F9DFF86417DD
S31508000B5003A800F01FFC63E025782E000D0A0000AC
S31508000B60F6B2062E0FDB01275FF0050AF6B2B2458C
S31508000B700ADA18F80A0003F043F9002800D100271A
S31508000B801AF1010AF2E70027002F13D1EDB2002D62
S31508000B900AD0DFF8241703A800F0FCFB03A800F02E
S31508000BA0D9FB03A901F006F9DFF8101703A800F02E
S31508000BB0F1FB35E018F1050121A800F0EBFB21A8AF
S31508000BC003F023F9011E42F21072914213D3EDB2DB
S31508000BD0002D0AD0DFF8E01603A800F0DBFB03A817
S31508000BE000F0B8FB03A901F0E5F8DFF8D01603A872
S31508000BF000F0D0FB14E003F05CF9EDB2002D0AD04A
S31508000C00DFF8BC1603A800F0C5FB03A800F0A2FB9A
S31508000C1003A901F0CFF8DFF8AC1603A801F0A6FB8C
S31508000C20F5E098F804003A2813D0EDB2002D0AD062
S31508000C30DFF8941603A800F0ADFB03A800F08AFBC2
S31508000C4003A901F0B7F8DFF8841603A800F0A2FBA1
S31508000C505FE0F6B2062E0FDB01275FF0050AF6B253
S31508000C60B2450ADA18F80A0003F0CAF8002800D1D3
S31508000C7000271AF1010AF2E70027002F13D1EDB277
S31508000C80002D0AD0DFF8481603A800F083FB03A856
S31508000C9000F060FB03A901F08DF8DFF8381603A809
S31508000CA000F078FB35E018F1050121A800F072FB89
S31508000CB021A803F0AAF8011E42F21072914213D33A
S31508000CC0EDB2002D0AD0DFF8081603A800F062FB83
S31508000CD003A800F03FFB03A901F06CF8DFF8DC1568
S31508000CE003A800F057FB14E003F00AF9EDB2002D53
S31508000CF00AD0DFF8E41503A800F04CFB03A800F0BF
S31508000D0029FB03A901F056F8DFF8B81503A801F086
S31508000D102DFB7CE098F804003A2813D0EDB2002D9C
S31508000D200AD0DFF8B81503A800F034FB03A800F0D2
S31508000D3011FB03A901F03EF8DFF8A41503A800F09B
S31508000D4029FB5EE0F6B2062E0FDB01275FF0050AE7
S31508000D50F6B2B2450ADA18F80A0003F051F8002884
S31508000D6000D100271AF1010AF2E70027002F13D154
S31508000D70EDB2002D0AD0DFF86C1503A800F00AFBC7
S31508000D8003A800F0E7FA03A901F014F8DFF85815EC
S31508000D9003A800F0FFFA34E018F1050121A800F0D5
S31508000DA0F9FA21A803F031F8011EB1F57A7F13D3B9
S31508000DB0EDB2002D0AD0DFF82C1503A800F0EAFAE8
S31508000DC003A800F0C7FA03A900F0F4FFDFF8181526
S31508000DD003A800F0DFFA14E003F0A1F8EDB2002D45
S31508000DE00AD0DFF8081503A800F0D4FA03A800F023
S31508000DF0B1FA03A900F0DEFFDFF8C81403A801F072
S31508000E00B5FA04E0DFF8E81403A800F0C3FA94E0A2
S31508000E1098F8030042284AD0532802D054282CD0E8
S31508000E205FE0EDB2002D16D003F08EF803F0AAF8B5
S31508000E30DFF8C01403F0B6F801F0C0FB02000B009F
S31508000E40DFF8B41403A801F091FA03A800F082FAB7
S31508000E5003A900F0AFFF03F077F803F093F8DFF883
S31508000E60941403F09FF801F0A9FB02000B00DFF8C9
S31508000E708C1403A801F07AFA46E0EDB2002D0DD0E5
S31508000E8003F065F80200DFF8781403A801F06EFA9B
S31508000E9003A800F05FFA03A900F08CFF03F057F8E7
S31508000EA00200DFF8601403A801F060FA2CE0EDB246
S31508000EB0002D0DD003F04EF80200DFF84C1403A8FD
S31508000EC001F054FA03A800F045FA03A900F072FFEE
S31508000ED003F040F80200DFF8341403A801F046FADC
S31508000EE012E0EDB2002D0AD0DFF8241403A800F0B2
S31508000EF051FA03A800F02EFA03A900F05BFFDFF809
S31508000F00141403A800F046FA17E000BF7525002060
S31508000F10F0800008EDB2002D0AD0DFF88C1303A884
S31508000F2000F038FA03A800F015FA03A900F042FF0A
S31508000F30DFF8E41303A800F02DFA7CE00024F6B2EB
S31508000F40032E13DAEDB2002D0AD0DFF8D01303A86A
S31508000F5000F020FA03A800F0FDF903A900F02AFF23
S31508000F60DFF8BC1303A800F015FA4AE098F8020067
S31508000F7044281BD0452833D1DFF8A81303A801F06D
S31508000F80F5F9EDB2002D0AD0DFF89C1303A800F09E
S31508000F9001FA03A800F0DEF903A900F00BFF01200F
S31508000FA002F09FFF04002CE0B48A0008DFF87C13E7
S31508000FB003A801F0DBF9EDB2002D0AD0DFF87013B3
S31508000FC003A800F0E7F903A800F0C4F903A900F0A4
S31508000FD0F1FE002002F085FF040012E0D48A000822
S31508000FE0EDB2002D09D0CD4903A800F0D3F903A826
S31508000FF000F0B0F903A900F0DDFECE4903A800F021
S31508001000C9F918E010250020F48A0008148B000896
S31508001010348B0008EDB2002D09D0C74903A800F0AB
S31508001020B9F903A800F096F903A900F0C3FEBA4976
S3150800103003A800F0AFF910E0EDB2002D09D0BE49C3
S3150800104003A800F0A7F903A800F084F903A900F0A3
S31508001050B1FEB14903A800F09DF9E4B2002C05D011
S31508001060022C0BD003D3032C0DD015E018E0B3499E
S3150800107003A800F08FF913E0CC920008B04903A842
S3150800108000F088F90CE0AF4903A800F083F907E0FF
S31508001090548B0008748B0008AB4903A800F07AF952
S315080010A003A800F041FB0400E4B2002C03D02000A2
S315080010B0C0B2FFF786B8A54903A800F06BF903A8E4
S315080010C000F032FB0400E4B2002C3FF478A82000BC
S315080010D0C0B2FFF776B800BF948B0008648F00088B
S315080010E0B48B0008D48B0008F48B00086425002014
S315080010F0148C0008348C000834250020548C000811
S31508001100748C000810B50400200000F023F90022B2
S31508001110002100E0491C81420EDA625C303A0A2A54
S3150800112003D3625C413A062A01D2002200E001227A
S31508001130012AEFD1002000E0012010BD38B50400D7
S3150800114000220025200000F005F9002104E0625C79
S31508001150303A12EB0515491C81420DDA625C303AC9
S315080011600A2AF4D3625C413A062A02D2625C373A0A
S31508001170EFE75FF0FF3000E0280032BDE49000089A
S31508001180808F0008FC9000089C8F000860250020CE
S315080011901491000828810008C08400089881000876
S315080011A0E0B500208DF8080002A802F0B1FF6846F5
S315080011B003F00EF8002818D100200DE0694631F931
S315080011C010104FF47A62514348F2120291FBF2F181
S315080011D05F4A22F81010401C0328EFDB684603F02C
S315080011E032F800281BD1002010E001202DE06946C6
S315080011F031F9101041F28832514346F69B7291FB41
S31508001200F2F1534A02EB4002D180401C0328EEDB80
S31508001210684603F00BFB002816D1002010E00120D9
S3150800122013E0694631F910104FF47A62514346F6D5
S31508001230E82291FBF2F1464A02EB40029181401CFA
S315080012400328EEDB002000E001200EBD948C000888
S31508001250CC870008E884000810850008E8820008A2
S31508001260CC8100082C910008E09200083885000817
S315080012701483000800820008B4800008449100081E
S3150800128060850008F4920008A8930008888500087D
S3150800129040830008B48C00085C910008D48C0008D0
S315080012A0B0850008F0870008F48C0008D885000887
S315080012B0148800086C830008388800085C880008D1
S315080012C0148D0008B49300088088000898830008E5
S315080012D0A4880008C8880008348D0008EC8800082F
S315080012E0C48300081089000834890008548D000852
S315080012F05889000800002041748D0008F083000812
S31508001300B88F000874910008D48F0008948D0008DF
S31508001310B48D00087C890008D48D0008F48D000877
S315080013200086000828860008F08F00085086000806
S315080013300C90000878860008B48A0008A08900087E
S31508001340A0860008C88600081C840008F8940008CF
S315080013501025002000F10103810704D010F8011BB5
S3150800136089B18107FAD10268B2F10131914311F0CE
S31508001370803F04BF50F8042FF6E710F8011B11B19F
S3150800138010F8011BFBE7C01A70470268531C03607C
S31508001390117070475FEA000C830706D011F8013B0D
S315080013A000F8013BB3B18307F8D10A68B2F10133FB
S315080013B023EA020313F0803F02BF40F8042B51F8DA
S315080013C0042FF3E711F8013B00F8013B13B111F8BC
S315080013D0013BF9E760467047012110F01F02914072
S315080013E0DFF8802340B2400942F8201070470121F7
S315080013F010F01F029140DFF8702340B2400942F80E
S3150800140020107047401CC0B2322800DB0020C0B252
S31508001410704710B50C00C0B2FFF7F4FFE4B2A04263
S3150800142001D1012000E00020C0B210BDC0B2C9B28F
S31508001430401A002800D53230C0B2704710B540F2C5
S315080014402771DFF8280303F0D7FA012805D100220F
S3150800145040F22771C54803F099FA40F26531C3484E
S3150800146003F0CAFA012803D1C04803F08BFA28E032
S3150800147040F22551BD4803F0BFFA012821D1BB48E7
S3150800148003F080FA0400BA4890F83310B84890F888
S315080014903200FFF7BEFF002813D1B548B44991F8CA
S315080014A032104454B24890F83200FFF7ABFFB04907
S315080014B081F83200E4B20D2C03D10120AC4981F841
S315080014C0340010BDAA4890F8340070470020A84997
S315080014D081F83400704710B504001CE0A44890F861
S315080014E03300A34991F83210884214D02520FFF71B
S315080014F07EFF9F489E4991F83310405C2070641C1B
S315080015009B4890F83300FFF77DFF994981F833002F
S315080015102520FFF761FF9648954991F83310405CFE
S315080015200D2809D0924890F83210914890F8330067
S31508001530FFF77CFF0028D1D18D488D4991F83310EB
S31508001540405C0D280DD12520FFF751FF884890F8FB
S315080015503300FFF757FF864981F833002520FFF748
S315080015603BFF00202070641CFFF7B0FF10BD00B5DC
S3150800157087B000207E4981F8340000207C4981F834
S31508001580330000207A4981F8320001214FF4804067
S3150800159003F0E9FA0121012003F0E5FA07220921FF
S315080015A0744803F071FB07220A21724803F06CFBAA
S315080015B04FF4C060019002208DF8080000208DF8D5
S315080015C00A0000208DF80B0001208DF8090001A9FA
S315080015D0684803F0FDFA4FF4964003900020ADF8F2
S315080015E018000C20ADF816000020ADF814000020F5
S315080015F0ADF812000020ADF8100003A95B4803F00F
S3150800160051F9012240F22551584803F0BFF9012249
S315080016106021564803F0BAF925208DF8000000200D
S315080016208DF8010000208DF8020001208DF80300D6
S31508001630684603F051FB01214C4803F091F901205B
S315080016404D49086000204D49088007B000BD4FF499
S31508001650DC7000E0401E0028FCD1704738B5040055
S31508001660012502E0FFF7F3FF641EEDB2002D0AD054
S3150800167080213E4803F0B3F9012801D1002502E094
S31508001680002CEFD10025002C01D0002000E003201B
S3150800169032BD38B504001500002037480068012817
S315080016A001D022283ED1002C02D089B2002901D1CE
S315080016B0012038E030480068222803D132202E4A1B
S315080016C0106002E012202C4A10602C48018005E0C8
S315080016D02178641C89B2254803F050F92748008808
S315080016E000280BD025480088401E24490880280079
S315080016F0FFF7B4FF0028EBD0032014E02800FFF71B
S31508001700ADFF002801D003200DE01B4800683228F1
S3150800171003D122201849086002E001201649086012
S31508001720002000E0022032BD10B504002000FFF7BB
S3150800173011FE80B2512801DB012011E00E4909682B
S31508001740012901D002200BE00D4A010089B22000D0
S31508001750FFF79FFFC0B2002801D0C0B200E0C0B2B8
S3150800176010BD000000E100E080E100E00038014023
S31508001770E023002000000240682500207025002094
S31508001780E0930400012110F01F029140DFF8E82AD7
S3150800179040B2400942F820107047012110F01F029C
S315080017A09140DFF8D82A40B2400942F82010704725
S315080017B080B5DFF8402712681071DFF8380700682F
S315080017C04171DFF83407DFF82C1709680860DFF87D
S315080017D024070068011DDFF81C070068006803F08D
S315080017E04AFBDFF89C0A0068001D02BD00B587B0F9
S315080017F001215FF4802003F0C6F90121022003F0DD
S31508001800A2F907220A21DFF87C0A03F03DFA07222B
S315080018100B21DFF8700A03F037FA07220D21DFF8EB
S31508001820640A03F031FA07220E21DFF8580A03F09A
S315080018302BFA4FF4D840009002208DF804000020BF
S315080018408DF8060000208DF8070001208DF80500A8
S315080018506946DFF8300A03F0BBF94FF40040009000
S3150800186001208DF8040001208DF8060001208DF86E
S31508001870070001208DF805006946DFF8080A03F01D
S31508001880A7F95FF4E13003904FF44070ADF8180003
S315080018900C20ADF816000020ADF814000020ADF8B5
S315080018A012000020ADF8100003A9DFF8DC0902F0E9
S315080018B0F9FF012240F22551DFF8CC0903F066F85A
S315080018C001226021DFF8C00903F060F827208DF8AF
S315080018D0080000208DF8090000208DF80A00012074
S315080018E08DF80B0002A803F0F7F90121DFF8980933
S315080018F003F036F80020DFF89419A1F82003002039
S31508001900DFF88C1981F896010020DFF8841981F830
S3150800191097010020DFF8781981F898010020DFF890
S31508001920701981F899010020DFF8641981F89A0185
S315080019300020DFF85C1981F89B010120DFF85019B7
S3150800194081F89C0107B000BD401CC0B2C82800DB66
S315080019500020C0B27047C0B2C9B2401A002800D5EC
S31508001960C830C0B2704738B504000D0020E0272003
S31508001970FFF713FF0020DFF8181981F89501DFF843
S315080019801009DFF80C1991F89311084490F8CA0069
S3150800199028706D1CDFF8F80890F89301FFF7D4FF5C
S315080019A0DFF8EC1881F893012720FFF7EBFE641E99
S315080019B0002C16D0DFF8D80890F89301DFF8D01875
S315080019C091F892118842D2D1012240F22551DFF8CE
S315080019D0B80802F0DBFF01226021DFF8AC0802F04C
S315080019E0D5FF002032BDDFF8A80890F895017047AA
S315080019F080B5FFF7FBFE4FF40041DFF8880803F0D7
S31508001A003AF90FF2B130DFF88C180860DFF8880869
S31508001A10DFF888180860DFF88808DFF88818086093
S31508001A2002F08AF84FF40041DFF8580803F021F96C
S31508001A3001BD10B586B00024DFF85408D0F8A0011F
S31508001A40002805D103F009FADFF84418C1F8A00107
S31508001A50DFF83C08D0F8A001002800F00781DFF87D
S31508001A603008D0F8A0010068DFF83C180840DFF815
S31508001A701C18DFF81828B2F8202341F82200DFF8EE
S31508001A800C08B0F82003C0B2FFF75EFFDFF8FC17BA
S31508001A90A1F82003DFF8F807D0F8A0010068DFF8FE
S31508001AA008180840DFF804180860DFF8000800681E
S31508001AB0A02800F08B80DFF8F81788422ED0DFF8D0
S31508001AC0F417884257D0DFF8F017884200F0848070
S31508001AD0DFF8E81788422ED0DFF8E41788427BD073
S31508001AE0DFF8E017884259D0DFF8DC17884200F0A3
S31508001AF09280DFF8D81788425BD0DFF8D41788427F
S31508001B0064D0DFF8D017884260D0DFF8CC17884257
S31508001B1062D0DFF8C817884258D086E0DFF8C007D9
S31508001B20FFF702FEDFF8BC0702F057F80120DFF8DE
S31508001B30601781F896010020DFF8541781F897019D
S31508001B4002210220FFF734FE0088FF2812DCE4B2E7
S31508001B50002C0AD1DFF89007FFF7E6FDDFF88C07BF
S31508001B6002F03BF8062002F009F80020DFF82017FB
S31508001B70C1F8A00169E0DFF87807FFF7D5FDDFF8BF
S31508001B80740702F02AF80120DFF8041781F8970194
S31508001B900020DFF8FC16C1F8A00156E083A0FFF785
S31508001BA0C3FD02F057F80020DFF8E416C1F8A001DB
S31508001BB04BE001F0D7FF7EA0FFF7B6FD02F04AF82A
S31508001BC00020DFF8CC16C1F8A0013EE00020DFF8BF
S31508001BD0C016C1F8A00138E0DFF81C07FFF7A4FD1E
S31508001BE0DFF8AC06D0F8A001807A00280DD0DFF81F
S31508001BF0A006D0F8A00110F10B02DFF8001768461E
S31508001C0000F0B4FB6846FFF78FFD0020DFF880166A
S31508001C10C1F8A00119E0DFF8E806FFF785FD002006
S31508001C20DFF86C16C1F8A0010FE0DFF8800602683D
S31508001C30DFF8D016684600F099FB6846FFF774FD92
S31508001C400020DFF84C16C1F8A001DFF8440690F82A
S31508001C509311DFF83C0690F89201FFF77CFE002806
S31508001C6004D00120DFF8281681F8950106B010BDCA
S31508001C70DFF81C0690F896017047DFF8140690F80E
S31508001C8097017047DFF8080690F898017047DFF863
S31508001C90000690F899017047DFF8F41581F8980165
S31508001CA07047DFF8EC1581F899017047DFF8E00511
S31508001CB090F89A01032809D1DFF8D40590F89C0119
S31508001CC0012801D1012002E0002000E00120704730
S31508001CD0DFF8BC1581F89C017047DFF8B41591F858
S31508001CE09A11032903D1DFF8A81581F89C017047DA
S31508001CF0DFF89C0590F89A017047DFF8941581F88B
S31508001D009A01704780B540F22771DFF87C0502F02A
S31508001D1073FE012827D1DFF8780590F8C900DFF8A7
S31508001D20701591F8C810884216D0DFF86405DFF8F8
S31508001D30601591F8C910415C89B2DFF84C0502F0CC
S31508001D401DFEDFF84C0590F8C900FFF7FDFDDFF82A
S31508001D50401581F8C90006E0002240F22771DFF835
S31508001D60280502F013FE40F26531DFF81C0502F083
S31508001D7043FE012809D10020DFF8141581F89401E3
S31508001D80DFF8040502F0FEFD0EE040F22551DFF80B
S31508001D90F80402F031FE012806D1DFF8EC0402F05F
S31508001DA0F1FDC0B200F0AAF801BD00002D2A2D00F1
S31508001DB02D4F2D00F8B504000D0054F07F40DFF8D4
S31508001DC0CC14DFF8C824B2F8202341F82200DFF843
S31508001DD0BC04B0F82003C0B2FFF7B6FDDFF8AC14B8
S31508001DE0A1F8200328786978090411EB0060A9781E
S31508001DF010EB0120E9780818DFF89014DFF88C2436
S31508001E00B2F8202341F82200DFF88004B0F8200356
S31508001E10C0B2FFF799FDDFF87414A1F820032879FA
S31508001E206979090411EB0060A97910EB0120E979B9
S31508001E300818DFF85814DFF85424B2F8202341F8BC
S31508001E402200DFF84804B0F82003C0B2FFF77CFD93
S31508001E50DFF83814A1F820034FF4FA6726E028784B
S31508001E60DFF82C14DFF8282492F8C8208854272095
S31508001E70FFF793FCDFF8180490F8C800DFF8101491
S31508001E8091F8C910884206D1012240F22771DFF87D
S31508001E90F80302F07BFDDFF8F80380F8C860272016
S31508001EA0FFF770FC641E6D1C4FF4FA67002C1FD0F8
S31508001EB0DFF8DC0390F8C800FFF746FD060030009F
S31508001EC0DFF8CC1391F8C910C0B28842C7D13800E0
S31508001ED0471E0028EAD10020DFF8B41381F89601DE
S31508001EE002210F2003F021F8082001F047FEDDE764
S31508001EF0F1BD0000000000202002030130B5A1B0AA
S31508001F000024DFF80414DFF8042412788854DFF874
S31508001F10FC130978491CDFF8F4231170C0B20A28AB
S31508001F2003D0C0B23F2840F0A3810020DFF8DC13BD
S31508001F300870DFF8D423DFF8D81302A800F016FAE1
S31508001F4002A8FFF7F1FB0400E4B2002C02D020003F
S31508001F50C0B28FE10422DFF8BC13DFF8AC0303F04C
S31508001F604EF8002811D10120C94981F896010020B0
S31508001F70C74981F898010020C54981F89901DFF819
S31508001F809803FFF7D1FB04006AE10922DFF88C13F6
S31508001F90DFF8740303F033F8002811D10120BC4997
S31508001FA081F897010120BA4981F89A010020B849B9
S31508001FB081F89B01DFF86803FFF7B6FB04004FE1E1
S31508001FC00C22DFF86013DFF8400303F018F8002846
S31508001FD01ED10020AE4981F897010020AC4981F84E
S31508001FE098010020AA4981F899010120A84981F899
S31508001FF09A010020A64981F89B0101F0A9FE01F08B
S3150800200086F901F0ADFEC848FFF78EFB040027E10C
S315080020100422C649BC4802F0F2FF00284DD101F05F
S3150800202090FF002817D001F095FF040001F08FFFFC
S31508002030050001F083FF0194009501F0A3FFBC4958
S3150800204001F0B0FF00F0BAFA02000B00B949AE4839
S3150800205000F08CF916E001F07DFF040001F077FF2F
S31508002060050001F06BFF0194009501F08BFFB04964
S3150800207001F098FF00F0A2FA02000B00AE49A24850
S3150800208000F074F9A048FFF74FFB0400E4B2002CF7
S3150800209002D02000C0B2EDE09B48FFF75BF99A49F1
S315080020A0FFF788FE0A2001F015FF0120FFF7F9FD6A
S315080020B0A248FFF739FB0400D2E00622A04992485D
S315080020C002F09DFF002840F0B880FFF7E0FD0028E9
S315080020D02CD09C4902A800F049F902A8FFF724FB76
S315080020E00400E4B2002C02D02000C0B2C2E002A86C
S315080020F0FFF730F902A9FFF75DFE0020FFF7D1FDD3
S315080021000120FFF7C9FD01F09DFE01F017FF01F060
S31508002110E1FE03205E4981F89A0100205C4981F8B6
S315080021209B018948FFF700FB040035E0584890F802
S315080021309A01022820D10320554981F89A010020E6
S31508002140534981F89B017F4902A800F00FF902A8BC
S31508002150FFF7EAFA0400E4B2002C02D02000C0B26D
S3150800216088E002A8FFF7F6F802A9FFF723FE7648EB
S31508002170FFF7DAFA04000FE0454890F89A010328B9
S315080021800AD10020424981F89B017048FFF7CCFA32
S3150800219004000120FFF79CFD6D4911A8FFF7FAF826
S315080021A06C4911A802F041FF010000292DD000203A
S315080021B0087011A8FFF7CEF8002826D011A8FDF759
S315080021C09FFF0400E4B2022C0ED1634902A800F076
S315080021D0CDF802A8FFF7A8FA04004B48FFF7BAF8AB
S315080021E04949FFF7E7FD10E0E4B2002C0DD05B4942
S315080021F002A800F0BBF802A8FFF796FA04004248C6
S31508002200FFF7A8F84049FFF7D5FD01F011FE0200D7
S3150800221053493D4800F0AAF83B48FFF785FA040001
S31508002220E4B2002C02D02000C0B223E03648FFF703
S3150800223091F83549FFF7BEFD12E0082249493248B0
S3150800224002F0DDFE002807D102210E2002F06DFE05
S315080022500E2001F093FC03E04348FFF765FA0400FB
S31508002260002003E00021284A1154401C3C28F9DBD1
S315080022702000C0B221B030BD00E100E080E100E0FE
S31508002280040000200004024000480040281A0020EC
S315080022907020002048250020671900084C250020DA
S315080022A0E719000850250020F800FFFF5C250020EC
S315080022B0A0000100A0000800A0000900A000080175
S315080022C0A000080220000A02A0000B02A0000A03D0
S315080022D020000A05A000000820000908A000002028
S315080022E004920008189300088490000818920008C1
S315080022F09C9000082C920008548A000878930008DD
S31508002300848E000884930008A423002072250020E8
S31508002310A08E0008089400082893000890930008E7
S315080023204092000838930008489300081094000863
S31508002330000020416482000890820008B4900008DA
S3150800234018940008BC8E0008D88E0008549200081D
S31508002350AA23002020940008F48E0008108F000895
S315080023602C8F00089C930008689200080CB41CB5D2
S31508002370044604A801900A46009401AB694607483A
S315080023807844183002F056FE009A00211170002891
S315080023905CBF0098001B16BC5DF80CFBEFEFFFFF57
S315080023A010B582B0040000208DF8000000F0E1F8B6
S315080023B0002801D0012074E001236A4620217C48C8
S315080023C0007800F039FD002801D0012069E09DF869
S315080023D0000010F08F008DF800009DF800002178AD
S315080023E008438DF800009DF8000010F0F7008DF8FE
S315080023F000009DF80000E17808438DF800009DF87C
S31508002400000010F0FB008DF800009DF8000021790F
S3150800241008438DF800009DF8000010F0FE008DF8C6
S3150800242000009DF80000617908438DF8000001233B
S315080024306A4620215E48007800F0A1FC002801D0F9
S3150800244001202EE001236A4610215948007800F041
S31508002450F3FC002801D0012023E09DF8000010F0CD
S31508002460FC008DF800009DF80000617808438DF89F
S3150800247000009DF8000010F0F3008DF800009DF8AC
S315080024800000A17808438DF8000001236A46102150
S315080024904748007800F073FC002801D0012000E0CE
S315080024A0002016BD38B50400002503236A46A82176
S315080024B03F48007800F0C0FC002801D0012012E057
S315080024C0002007E06946C0B2095CC0B2C20091406C
S315080024D00D43401CC0B20328F4DB280201D555F091
S315080024E07F452560002032BD10B582B0040000206B
S315080024F000906846FFF7D6FF002801D0012008E0C3
S31508002500009801F035FD5FF08B4101F04BFD20602E
S31508002510002016BD10B582B00400002002236A46CA
S31508002520AB212348007800F087FC002801D0012061
S3150800253007E09DF801009DF8001011EB00202080AF
S31508002540002016BD10B582B004006846FFF7E2FF0A
S31508002550002801D001200BE0BDF9000001F008FDBC
S31508002560144901F01FFD144903F056FC20600020B1
S3150800257016BD80B501236A4620210D48007800F073
S315080025805BFC002801D0012011E09DF8000050F006
S3150800259080008DF8000001236A462021044800784F
S315080025A000F0EDFB002801D0012000E0002002BD6C
S315080025B0AC0200200000F04300002A425FF0FF0C46
S315080025C01CEAD05114BF614506E0C110400721F04E
S315080025D0E04101F16051704779B900F0004100020D
S315080025E00AD0B0FA80FC00FA0CF001F16051A1EBB8
S315080025F00C5101EBD0214005704741020CBF40F455
S31508002600E0016FF0000100207047002101E040085A
S31508002610491CB0F5805FFAD250EA013080B27047A3
S3150800262080B20105090D80B2000B11FA00F070475F
S3150800263038B5040000250020002C01D101204BE00C
S315080026407E21882000F073FB45F24941884207D174
S315080026507F21882000F06BFB43F20101884201D0FC
S31508002660012039E0207855EA0035608810F40060CA
S315080026700543A08810F4C0600543A07910F0100047
S315080026800543E07910F008000543207A10F00300AE
S3150800269005432A0092B20121882000F036FBC0B219
S315080026A0002801D0C0B217E0E068FFF7AEFF0200CD
S315080026B092B20221882000F028FBC0B2002801D07F
S315080026C0C0B209E02069FFF7A0FF020092B2032119
S315080026D0882000F01AFBC0B232BD80B500218820E0
S315080026E000F025FB80B2FFF79BFF02BD00B59BB04B
S315080026F00121DFF8340502F046FA01214FF4017092
S3150800270002F031FA0121032002F01DFA012002F03D
S31508002710A5F90E220521DFF8140502F0B5FA012203
S315080027200321DFF80C0502F0AFFA0E220421DFF8C8
S31508002730000502F0A9FA02220121DFF8F00402F0EE
S31508002740A3FA0E220021DFF8E40402F09DFA042021
S31508002750009001208DF8040000208DF80600002066
S315080027608DF8070001208DF805006946DFF8C004DA
S3150800277002F02EFA01220421DFF8B40402F07DFAF1
S315080027800820009002208DF8040001208DF806002C
S3150800279000208DF8070001208DF805006946DFF84E
S315080027A0900402F015FA0220009002208DF8040029
S315080027B000208DF8060000208DF8070003208DF80C
S315080027C005006946DFF8640402F002FA202000904A
S315080027D003208DF8040000208DF8070001208DF8ED
S315080027E005006946DFF8440402F0F2F9102000906B
S315080027F06946DFF83C0402F0EBF9012000906946CF
S31508002800DFF8280402F0E4F95FF0804003F03CFCAE
S315080028100020ADF820000020ADF81A000020ADF821
S3150800282018004FF47A40079006A95FF0804003F03D
S3150800283035FB0820ADF85C000020ADF85E000220EC
S31508002840ADF8600017A95FF0804003F0ADFB70207B
S31508002850ADF80C000020ADF814000120ADF80E000C
S315080028600020049003A95FF0804003F07AFB4FF440
S31508002870A0715FF0804003F095FB022013900020C2
S315080028801090002011900020129010A9002003F04B
S3150800289071FC0121002003F084FC40F25C41002019
S315080028A003F095FC002014905FF4C01015900020EA
S315080028B0169014A803F09CFC0121202003F0AAFC22
S315080028C00121DFF8700303F0A5FC1C208DF8080031
S315080028D000208DF8090000208DF80A0001208DF8E7
S315080028E00B0002A802F0F8F9012201215FF08040EE
S315080028F003F0BAFB01215FF0804003F005FBDFF827
S31508002900380303F0C1FB0020ADF820000020ADF825
S315080029101A000020ADF818000020079006A9DFF875
S31508002920180303F0BBFA6020ADF80C000020ADF8E0
S3150800293014000120ADF80E000020049003A9BE483B
S3150800294003F00FFB0121BC4803F0DEFA5FF4803088
S31508002950099009A803F0ADFC00208DF82D00002091
S315080029600E9000200D905FF080500C9001208DF89D
S315080029703C0000200A9000208DF82C000AA9AF48D8
S3150800298003F072FC052301220821AC4803F0AEFCD3
S315080029900121AA4803F097FC4021A84803F05FFDEF
S315080029A00028F9D04FF48071A44803F058FD012897
S315080029B0F8D0A34803F068FB0020ADF820000020FB
S315080029C0ADF81A000120ADF8180041F63F700790DF
S315080029D006A99B4803F062FA6020ADF80C000020B7
S315080029E0ADF814000120ADF80E000020049003A9EC
S315080029F0934803F097FA4FF4F051914803F0D0FA50
S31508002A0019208DF8080000208DF8090000208DF89F
S31508002A100A0001208DF80B0002A802F05DF90122D8
S31508002A200121874803F020FB0121854803F06CFA51
S31508002A301BB000BD80B501215FF0804003F020FB8C
S31508002A405FF0804003F0E8FA7E4909687D4A12681B
S31508002A5080B28018B0EBD1107A49086079480068CE
S31508002A6078494968774A526812EBD010B0EB1120C2
S31508002A707449486073480068C00972494968B0EBF0
S31508002A8011207049097A002910D111281FDB01206D
S31508002A906C49087200206B4948816A48007B401CD3
S31508002AA068490873022003F0E5FC10E06549498986
S31508002AB0491C644A518163494989FA2907D304287C
S31508002AC005DA00205F490872022003F0DFFC5D4842
S31508002AD0008C401C5B4908845A48008CB0F5FA7F84
S31508002AE036D30020574908845648007B5549554A2D
S31508002AF0527E114448730020524908735148407E5B
S31508002B00401C504948764F48407E0C2802DB00207E
S31508002B104C4948760020002104E04A4A0A44527B80
S31508002B201018491C0C29F8DB002807D14548C0694C
S31508002B30002802D05FF0FF3000E000204149C96953
S31508002B40404AD2698018891CB0EB91003D49C8619A
S31508002B5001BD10B501213A4803F092FA3A480088B7
S31508002B60962818DA354803F077FC3749364A12882A
S31508002B7001EB82014968344A334B1B8802EB830216
S31508002B80526880B28018B0EB11102F492E4A12886D
S31508002B9001EB820148602C480088401C2A490880BD
S31508002BA029480088962818DB002027490880002035
S31508002BB000210DE0244A02EB81025268904206D2B7
S31508002BC0214800EB810040681F4AA2F85C12491CA4
S31508002BD09629EFDB1C49A1F85E021C481A490988A8
S31508002BE030F81140A4B2611E134803F08BF9A4B261
S31508002BF0610889B2104803F0D5F900210E4803F0A0
S31508002C007FF910BD0F48C069642148430C21B0FB09
S31508002C10F1F0800880B270470B48B0F85C02704744
S31508002C200948B0F85E027047030000A0000402409D
S31508002C30000002400001008000040040002401401A
S31508002C40000801408C24002008000020B07E0008FF
S31508002C50024600E0521C1378002BFBD111F8013B09
S31508002C60137012F8013B002BF8D170471CB50024ED
S31508002C70C020009000208DF8040000208DF8070081
S31508002C8001208DF805006946DFF8480301F0A0FF2A
S31508002C9000F052FF4021DFF83C0303F02DFC00282A
S31508002CA013D10321052002F040F90021032000F08A
S31508002CB0E7FF01248021C74803F01EFC002819D12C
S31508002CC00321062002F031F914E08021C14803F0FF
S31508002CD013FC002809D10321062002F026F9002159
S31508002CE0032000F0CDFF012404E00121032000F0B9
S31508002CF0C7FF00242000C0B216BD04B501236A46EA
S31508002D00C9B2C0B200F03BF802BD80B5ADF80020EC
S31508002D109DF800209DF801308DF800308DF80120CF
S31508002D2002236A46C9B2C0B200F029F802BD80B5CE
S31508002D3002236A46C9B2C0B200F07EF800280AD15A
S31508002D409DF800009DF801108DF800108DF801001F
S31508002D50BDF8000001E04FF6FF7002BD38B504006B
S31508002D604FF4204521009C4803F07FFC012804D03D
S31508002D706D1E002DF6D1032000E0002032BDF8B507
S31508002D8004000D0016001F0094480078002851D151
S31508002D90012092490870032003F06CFB01218E483C
S31508002DA003F028FC8E48FFF7D9FF032804D100203A
S31508002DB08A49087003203EE000222100C9B28648ED
S31508002DC003F042FC8748FFF7C9FF032804D1002017
S31508002DD08249087003202EE02900C9B27E4803F014
S31508002DE03EFC8148FFF7BAFF032804D100207B493F
S31508002DF0087003201FE0BFB2002F0FD03178764845
S31508002E0003F02DFC761C7F1E7848FFF7A7FF0328E2
S31508002E10F1D100207149087003200CE001216E48A9
S31508002E2003F0F6FB032003F031FB00206B49087022
S31508002E30002000E00220F2BDF8B504000D001600DF
S31508002E401F006B48007800287AD10120684908706D
S31508002E50032003F00FFB01215F4803F0CBFB60481A
S31508002E60FFF77CFF032804D100206149087003207E
S31508002E7067E000222100C9B2574803F0E5FB59482C
S31508002E80FFF76CFF032804D1002059490870032076
S31508002E9057E02900C9B2504803F0E1FB5348FFF751
S31508002EA05DFF032804D1002051490870032048E03B
S31508002EB00121494803F09EFB4948FFF74FFF0328C5
S31508002EC004D100204A49087003203AE00122210073
S31508002ED0C9B2414803F0B8FB4648FFF73FFF03284D
S31508002EE00AD100204249087003202AE03A4803F034
S31508002EF0B9FB3070761C7F1EBFB2002F10D0BFB250
S31508002F00012F03D10021344803F090FB3A48FFF71C
S31508002F1025FF0328EAD1002035490870032010E070
S31508002F2001212D4803F074FB01212B4803F07EFB99
S31508002F30032003F0ABFA00202D490870002000E0BA
S31508002F400220F2BD00B587B001215FF4001001F040
S31508002F501AFE0121022001F0F6FD042206211D4871
S31508002F6001F092FE042207211A4801F08DFEC020C6
S31508002F70009002208DF8040001208DF8060001203B
S31508002F808DF8070001208DF805006946114801F003
S31508002F901FFE44F6206002900020ADF80C004BF6A8
S31508002FA0FF70ADF80E000020ADF810004FF48060F9
S31508002FB0ADF812004FF48040ADF8140002A9064897
S31508002FC003F0A4FA0121044803F006FB002007B029
S31508002FD000BD000000040240005400407325002094
S31508002FE00100030082000700800007008400070034
S31508002FF0742500200200030040000300BFF34F8F32
S31508003000DFF8540D006810F4E060DFF86C1C084324
S31508003010DFF8441D0860BFF34F8F00BFFDE700B51A
S3150800302087B0DFF8580C04905FF0814005900820BF
S315080030308DF8180010208DF8190020208DF81A0038
S31508003040DFF8380C0190DFF8140D029008208DF88F
S315080030500C0010208DF80D0020208DF80E0001A818
S3150800306001F01EF8002801D0012013E010208DF889
S31508003070000000208DF8010000208DF80200602075
S315080030808DF80300684601F05DFB002801D0012099
S3150800309000E0002007B000BDE0B500208DF808006C
S315080030A002A801F035F8684601F092F800281AD10E
S315080030B000200FE0694631F910104FF47A62514347
S315080030C048F2120291FBF2F1DFF89C2C02EB400267
S315080030D05180401C0328EDDB684601F0B4F800284F
S315080030E01CD1002011E001202FE0694631F91010AB
S315080030F041F28832514346F69B7291FBF2F1DFF8B2
S31508003100682C02EB40021181401C0328EDDB68465F
S3150800311001F08CFB002817D1002011E0012014E0F3
S31508003120694631F910104FF47A62514346F6E8229F
S3150800313091FBF2F1DFF8302C02EB4002D181401C02
S315080031400328EDDB002000E001200EBD00B587B0A6
S3150800315020208DF8000001208DF8010008208DF848
S31508003160020000208DF8030000208DF804000020DE
S315080031708DF805006846FFF713F9002801D00120ED
S315080031801AE000208DF8080000208DF809000020BC
S315080031908DF80A0000208DF80B000020039000200F
S315080031A0049002208DF8140002A803F073FA002890
S315080031B001D0012000E0002007B000BD80B56846B8
S315080031C0FFF7C0F900280AD10099DFF8B00A03F022
S315080031D0BBFA03F025FBDFF8901B88820AE003F0B0
S315080031E0A6FADFF8981A03F0AFFA03F019FBDFF82E
S315080031F0781B88826846FFF777F900280BD1009973
S31508003200DFF8780A03F0A0FA03F00AFBDFF8581B88
S31508003210C882002000E0012002BD00B585B00C2060
S315080032208DF800000020ADF802004FF48060ADF87C
S31508003230040000208DF8060000208DF80700002005
S315080032408DF80800002003905FF0FF300490684670
S31508003250FFF7EEF905B000BD00B585B001211020D5
S3150800326001F091FC4FF4FA40ADF8040000F06CFE52
S3150800327064214843029001A9DFF8F00A02F00EFE25
S315080032802B208DF8000000208DF8010000208DF815
S31508003290020001208DF80300684601F01DFD012299
S315080032A00121DFF8C80A02F0DFFE0121DFF8BC0AB7
S315080032B002F02AFE05B000BDE0B50021DFF8AC0A31
S315080032C002F022FE4FF4FA40ADF8000000F03CFE92
S315080032D06421484301906946DFF8900A02F0DEFD52
S315080032E00121DFF8880A02F00FFE07BD80B5FFF757
S315080032F089FCDFF8741A8883FFF78EFCDFF8681AF2
S31508003300C883FFF78DFCDFF8601A088401BD012029
S31508003310DFF85C1A4870DFF85C0ADFF8541A488050
S31508003320DFF8500ADFF8481A0881DFF8480ADFF89C
S31508003330401AC881DFF83C0ADFF8341A8882DFF8B9
S31508003340340ADFF82C1AC882DFF8280ADFF8201AB0
S3150800335088614FF6FF70DFF8181A88834FF6FF70FA
S31508003360DFF80C1AC883704780B50120DFF8001A09
S315080033704870FFF7CCFF0020DFF8FC190870002022
S31508003380DFF8F41948800020DFF8EC19888000205F
S31508003390DFF8E41988715FF0FF30DFF8D419488048
S315080033A05FF0FF30DFF8C81908815FF0FF30DFF8FB
S315080033B0C019C8815FF0FF30DFF8B41988825FF062
S315080033C0FF30DFF8AC19C8824FF6FF70DFF8A01996
S315080033D088614FF6FF70DFF8981988834FF6FF70FB
S315080033E0DFF88C19C883FFF7ADFDFFF718FEC0B2EA
S315080033F0002804D10121002000F042FC07E0052145
S315080034000A2001F092FD0021002000F039FCFFF7A8
S315080034109DFEC0B2002804D10121022000F030FC34
S3150800342007E00521032001F080FD0021022000F0BD
S3150800343027FCFFF7F2FEC0B2002804D101210120C3
S3150800344000F01EFC07E005210B2001F06EFD0021AF
S31508003450012000F015FCFFF749F9FFF7FDFE01BD55
S3150800346080B50121DFF8040902F00AFE0120DFF821
S315080034700019087001BD00B5B1B0DFF8F40800788E
S3150800348000284AD0FEF7F4FB002846D0FEF7F5FBE5
S31508003490002842D0FEF7FBFB00283ED0DFF8D8080C
S315080034A08079401CDFF8D0188871DFF8CC0882795B
S315080034B0DFF8C8180CA8FEF759FF0CA8FEF734F970
S315080034C000F048FDDFF8B0188979814221D3DFF88A
S315080034D0B008FEF729F90020DFF89C188871DFF894
S315080034E0A4180CA8FEF742FF0CA8FEF71DF90CA8B5
S315080034F0FDF730FF0CA9FEF75DFC0020FEF7D1FBB7
S315080035000120FEF7C9FB00F09DFC00F017FD00F056
S31508003510E1FC0020DFF858180870DFF85408007836
S31508003520002800F00783FEF7A3FB002800F00283BB
S31508003530FEF7A3FB002800F0FD82FEF7A3FB002898
S3150800354000F0F882FEF7B2FB002800F0F382DFF8FD
S315080035503808FEF7E9F8DFF830180520FEF72AFCE8
S31508003560DFF828080068401CDFF820180860DFF834
S3150800357020080068401CDFF818180860DFF80C08F7
S315080035800068032848DB0020DFF800180860DFF829
S3150800359000080268DFF8FC1720A8FEF7E7FE20A857
S315080035A000F048FC20AADFF8F0170CA8FEF7DEFEAC
S315080035B00CA8FEF7B9F80CA8FDF7CCFE0CA9FEF787
S315080035C0F9FB0CA800F009FB0020FEF786FBFEF7C6
S315080035D08FFB012807D10220FEF78FFBDFF8BC0717
S315080035E0FEF7A2F818E0FEF783FB022814D10420A0
S315080035F0FEF783FBDFF8A807FEF796F8DFF88417CF
S315080036000CA8FEF7B3FE0CA8FEF78EF80CA8FDF77B
S31508003610A1FE0CA9FEF7CEFB00F0F9FA0020DFF8B0
S3150800362050170870002000F04AFB002811D0FFF759
S3150800363033FDC0B2002804D10121002000F020FB90
S3150800364007E005210C2001F070FC0021002000F0A5
S3150800365017FB022000F033FB002811D0FFF7AEFD60
S31508003660C0B2002804D10121022000F009FB07E0BE
S3150800367005210D2001F059FC0021022000F000FB75
S31508003680012000F01CFB002804D0FFF726F8DFF81D
S31508003690D8168861FFF72AFEDFF8CC06B0F91600BF
S315080036A000281DD1DFF8FC060068401CDFF8F41678
S315080036B00860DFF8F0060268DFF8EC1628A8FEF7BF
S315080036C055FE28A8FEF730F8DFF8D8060068052862
S315080036D006DB0020DFF8CC160860072000F04EFA5B
S315080036E0DFF894068088052808DADFF88C068088D3
S315080036F0401CDFF884168880FFF709FE012002F0D7
S31508003700B9FEDFF86406B0F90200DFF86416B1F90D
S315080037100210884213D1DFF85006B0F90400DFF82A
S315080037205016B1F90410884209D1DFF83C06B0F901
S315080037300600DFF83C16B1F9061088422CD0DFF8EF
S3150800374028064088DFF828164880DFF81C06808897
S31508003750DFF81C168880DFF81006C088DFF8101618
S315080037608880DFF80C06B0F906000090DFF800063E
S31508003770B0F90430DFF8F805B0F90220DFF82C16A6
S3150800378002A8FEF7F3FD02A8FDF7CEFF02A8FDF793
S31508003790E1FD02A9FEF70EFBDFF8CC05B0F908003B
S315080037A0DFF8CC15B1F90810884213D1DFF8B8054F
S315080037B0B0F90A00DFF8B815B1F90A10884209D13C
S315080037C0DFF8A405B0F90C00DFF8A415B1F90C1060
S315080037D088422CD0DFF890050089DFF89415088117
S315080037E0DFF884054089DFF888154881DFF8780511
S315080037F08089DFF87C158881DFF87405B0F90C003C
S315080038000090DFF86C05B0F90A30DFF86405B0F906
S315080038100820DFF89C1502A8FEF7A8FD02A8FDF708
S3150800382083FF02A8FDF796FD02A9FEF7C3FADFF8A3
S315080038303805B0F90E00DFF83815B1F90E108842D0
S3150800384013D1DFF82405B0F91000DFF82415B1F913
S315080038501010884209D1DFF81005B0F91200DFF818
S315080038601015B1F9121088422CD0DFF8FC04C08973
S31508003870DFF8FC14C881DFF8F004008ADFF8F014DA
S315080038800882DFF8E404408ADFF8E4144882DFF8A7
S31508003890E004B0F912000090DFF8D404B0F9103053
S315080038A0DFF8CC04B0F90E20DFF8081502A8FEF7F9
S315080038B05DFD02A8FDF738FF02A8FDF74BFD02A93A
S315080038C0FEF778FADFF8A004B0F91400DFF8A014C0
S315080038D0B1F91410884228D0DFF88C04808ADFF802
S315080038E09014888200F02DFB00280CD0DFF88004A5
S315080038F0B0F91400009022232222DFF8BC1402A893
S31508003900FEF734FD08E0DFF86804B0F91420DFF8A4
S31508003910AC1402A8FEF72AFD02A8FDF705FF02A8C7
S31508003920FDF718FD02A9FEF745FADFF83C04B0F9E1
S315080039301600DFF83C14B1F91610884228D0DFF8D3
S315080039402804C08ADFF82814C88200F0FAFA00288A
S315080039500CD0DFF81C04B0F91600009022232222AE
S31508003960DFF85C1402A8FEF701FD08E0DFF80004A2
S31508003970B0F91620DFF84C1402A8FEF7F7FC02A8E7
S31508003980FDF7D2FE02A8FDF7E5FC02A9FEF712FA3A
S31508003990DFF8D4038069DFF8D8138969884226D00E
S315080039A0DFF8C4038069DFF8C813886100F0C9FA34
S315080039B000280BD0DFF8B803806900902223222262
S315080039C0DFF8041402A8FEF7D1FC07E0DFF8A0032D
S315080039D08269DFF8F81302A8FEF7C8FC02A8FDF70B
S315080039E0A3FE02A8FDF7B6FC02A9FEF7E3F9DFF885
S315080039F07803808BDFF87813898B884226D0DFF826
S31508003A006803808BDFF86813888300F09AFA002829
S31508003A100BD0DFF85C03808B009022232222DFF88C
S31508003A20B01302A8FEF7A2FC07E0DFF84403828B76
S31508003A30DFF8A01302A8FEF799FC02A8FDF774FEAA
S31508003A4002A8FDF787FC02A9FEF7B4F9DFF8180308
S31508003A50C08BDFF81C13C98B884207D1DFF808032F
S31508003A60008CDFF80C13098C88422BD0BE48C08B1B
S31508003A70BF49C883BC48008CBD49088400F061FA78
S31508003A8000280DD0BA48008C0190B948C08B009028
S31508003A9022232222DFF8401302A8FEF767FC08E07B
S31508003AA0B348038CB248C28BDFF8301302A8FEF77E
S31508003AB05DFC02A8FDF738FE02A8FDF74BFC02A93B
S31508003AC0FEF778F9AC484088411CAB4A518080B271
S31508003AD0122809DB0020A84948800020A6498880CA
S31508003AE0FFF715FC00F0B2F8A1484078002810D07E
S31508003AF000209F494870BA4ABA4902A8FEF736FC20
S31508003B0002A8FDF711FE02A8FDF724FC02A9FEF79C
S31508003B1051F9012002F0BAFCB348FDF705FEB24997
S31508003B200620FEF747F9B1490CA8FEF71FFC0CA8BA
S31508003B30FDF7FAFD31B000BD4AF6E03000E0401E60
S31508003B400028FCD17047AA4800E0401E0028FCD196
S31508003B50704710B5040002E0FFF7F5FF641E012C5C
S31508003B60FADA10BD80B5012002F084FCFFF7E4FF05
S31508003B70012002F08BFCFFF7DFFF01BD38B504001A
S31508003B80200001F0B3F9042180B201F0CEF9002536
S31508003B900CE0012002F06EFC0120FFF7DAFF01209D
S31508003BA002F074FC0120FFF7D4FF6D1CA542F0DB80
S31508003BB0012002F05FFC0A20FFF7CBFF012002F08C
S31508003BC065FC0A20FFF7C5FF002002F0F2FE64201C
S31508003BD0FFF7BFFFFFF712FA31BD10B588B0040032
S31508003BE0FEF746F8002810D014222100684602F095
S31508003BF017FF2000FDF7AEFB152801D31434FFE7A5
S31508003C0014222100684602F00BFF08B010BD80B5EB
S31508003C10FEF733F8002810D000207649088000F017
S31508003C2012F8002805D074480088401C724908809C
S31508003C3008E000207049088004E06E480088401CAF
S31508003C406C49088001BD4C480078704701204A49F4
S31508003C500870704700204849087070470020674977
S31508003C608870002065494870002064490870002063
S31508003C706249C870704700000400FA050000204138
S31508003C80C0B2002808D002280CD008D304280FD0C8
S31508003C900BD305280FD011E0584881700EE057481D
S31508003CA001700BE05548417008E05448C17005E0C2
S31508003CB05248017102E051484171FFE77047C0B2AE
S31508003CC0002808D002280CD008D304280FD00BD31C
S31508003CD005280FD011E0494880780FE0474800785A
S31508003CE00CE04648407809E04448C07806E0434876
S31508003CF0007903E04148407900E00020704710B59C
S31508003D0000240020FFF7DBFF002800D0641C0120F8
S31508003D10FFF7D5FF002800D0A41C0220FFF7CFFF2D
S31508003D20002800D0241D0320FFF7C9FF002800D073
S31508003D3008340420FFF7C3FF002800D010340520FC
S31508003D40FFF7BDFF002800D02034200080B210BD48
S31508003D5000200949887170470CED00E00000FA431D
S31508003D600020054988807047442400200010004040
S31508003D7068240020C7CFFFFF2C250020D893000811
S31508003D80E0930008148E0008E893000840250020F8
S31508003D903C250020F09300088C910008F48900085F
S31508003DA0148A000844250020348A0008308E00084A
S31508003DB04C8E0008688E000818870008A091000835
S31508003DC03C870008B491000860870008C89100087D
S31508003DD084870008DC910008488400086C90000875
S31508003DE008930008F0910008F8930008009400086A
S31508003DF0C0B606006C2500206E250020242500206C
S31508003E0030380A288041C00F70470A22002102F084
S31508003E10E1BE000080B551495148FDF7BBFA0020C4
S31508003E2002BD80B54D494F48FDF7B4FA002002BDE2
S31508003E304C48704780B501004A48FDF7ABFA0020A8
S31508003E4002BD704780B5002020224749474802F046
S31508003E5045FFC0B2002801D0002007E042480068AC
S31508003E60B0F15A3F01D1012000E0002002BD80B523
S31508003E7000205FF05A303C49086064203A4948609F
S31508003E800420394988600F203749C8600020364920
S31508003E900874002034498874002033494874202067
S31508003EA00090314B314A0021002002F0BDFEC0B21D
S31508003EB002BD80B5010000202B484160FFF7FCF9E0
S31508003EC020200090284B294A0021002002F0ACFE51
S31508003ED0C0B202BD10B50024FFF7EEF92000C0B24B
S31508003EE010BD80B5010000201F48017420200090F5
S31508003EF01D4B1E4A0021002002F096FEC0B202BDEC
S31508003F0080B5010000201848816020200090164BDB
S31508003F10164A0021002002F087FEC0B202BD80B515
S31508003F20010000201048C160202000900E4B0F4A67
S31508003F300021002002F078FEC0B202BD0A4840689F
S31508003F4070470948007C704707484068704706482C
S31508003F50806870470448C06870470000C09300082E
S31508003F60D0240020F0240020B0240020008001087E
S31508003F70002840F10980F446404200F005F850F068
S31508003F8000406047002800BF0AD0B0FA80F1884098
S31508003F90D1F19D01C905020672F1004241EB1020DC
S31508003FA07047000010B5FF2313EAD0541DBF13EA6B
S31508003FB0D1529C429A4239E0A41ADA0780EA0103F0
S31508003FC0134042EA012142EA0020421A3CBF641E1D
S31508003FD001EB4202090AB2FBF1FE01FB1E221202A4
S31508003FE0B2FBF1F001FB10226EF30F201202B2FBB6
S31508003FF0F1FE4EEA00207F3406DDFE2C24DA53EA71
S31508004000500050EBC45010BDD4F1020401FB1E222F
S3150800401040F08071192C1DDC21FA04F0C4F120044B
S31508004020A140114371F10042584110BD9C421ABF8C
S3150800403003EAD1529A420FE080EA010E0EF00043DD
S31508004040400004D0490016D143F0FF4010BD490096
S3150800405008BFD343180010BD9C4205D1D21AF7D029
S3150800406001F00041484010BD4A0212BF08464840C8
S3150800407000F0004010BD4AB90902B1FA81F2914038
S3150800408044B1A418C00140F000409EE7C90141F0C0
S31508004090004152420002B0FA80F4A040141B94E793
S315080040A010B5040000F046F8002801D001202EE0E3
S315080040B0206800F04FFA002801D0012027E0606848
S315080040C000F0A0FA002801D0012020E0A27A617A47
S315080040D0207A00F044F9002801D0012017E0E068B2
S315080040E000F08EF9002801D0012010E0206900F0C8
S315080040F0F4F9002801D0012009E0A27D617D207D28
S3150800410000F0DCF8002801D0012000E0002010BDF6
S3150800411080B5002801D101200BE0012302000F2100
S31508004120D420FEF789FE002801D1002000E00120F6
S31508004130C0B202BD80B500208DF8000001236A4692
S315080041401221D420FEF778FE002801D001203EE097
S315080041509DF8000010F0FB008DF800009DF80000A7
S3150800416050F004008DF8000001236A461221D4207D
S31508004170FEF705FE002801D0012028E001236A4643
S315080041800A21D420FEF758FE002801D001201EE09F
S315080041909DF8000010F087008DF800009DF80000DB
S315080041A08DF800009DF8000010F0F8008DF800006A
S315080041B09DF800008DF8000001236A460A21D420E4
S315080041C0FEF7DDFD002801D0012000E0002002BD39
S315080041D010B582B004000020ADF8000002236A463C
S315080041E02821D420FEF728FE002801D0012029E046
S315080041F09DF801009DF8001011EB00202080022395
S315080042006A462A21D420FEF717FE002801D001208D
S3150800421018E09DF801009DF8001011EB0020608061
S3150800422002236A462C21D420FEF706FE002801D078
S31508004230012007E09DF801009DF8001011EB002011
S31508004240A080002016BD10B582B004000020ADF88D
S31508004250000002236A462221D420FEF7EDFD00283D
S3150800426001D0012029E09DF801009DF8001011EB0E
S315080042700020208002236A462421D420FEF7DCFD94
S31508004280002801D0012018E09DF801009DF80010D3
S3150800429011EB0020608002236A462621D420FEF70F
S315080042A0CBFD002801D0012007E09DF801009DF80C
S315080042B0001011EB0020A080002016BD70B582B05A
S315080042C000238DF80030002600250024C0B20028FF
S315080042D001D1002600E00826C9B2002901D100252F
S315080042E000E01025D2B2002A01D1002400E02024E3
S315080042F001236A461821D420FEF79EFD002801D026
S3150800430001202BE09DF8000010F0F7008DF8000062
S315080043109DF8000030438DF800009DF8000010F06D
S31508004320EF008DF800009DF8000028438DF8000086
S315080043309DF8000010F0DF008DF800009DF80000E1
S3150800434020438DF8000001236A461821D420FEF781
S3150800435016FD002801D0012000E0002076BD70B5CA
S3150800436082B000238DF80030002600250024C0B254
S31508004370002801D1002600E00826C9B2002901D18B
S31508004380002500E01025D2B2002A01D1002400E061
S31508004390202401236A461921D420FEF74DFD002862
S315080043A001D001202BE09DF8000010F0F7008DF8F1
S315080043B000009DF8000030438DF800009DF80000CD
S315080043C010F0EF008DF800009DF8000028438DF8E6
S315080043D000009DF8000010F0DF008DF800009DF841
S315080043E0000020438DF8000001236A461921D420D5
S315080043F0FEF7C5FC002801D0012000E0002076BDAC
S3150800440010B582B0002400218DF80010002102F0BA
S315080044106FFC01D800243FE0DFF8E81202F068FCE0
S3150800442001D2102438E0DFF8E01202F061FC01D274
S31508004430202431E0DFF8D41202F05AFC01D23024ED
S315080044402AE0DFF8CC1202F053FC01D2402423E024
S31508004450DFF8C01202F04CFC01D250241CE0DFF851
S31508004460B81202F045FC01D2602415E0DFF8AC1260
S3150800447002F03EFC01D270240EE0DFF8A41202F02E
S3150800448037FC01D2802407E0DFF8981202F030FCEE
S3150800449001D2902400E0A02401236A461021D420EA
S315080044A0FEF7CAFC002801D0012015E09DF800009F
S315080044B010F00F008DF800009DF8000020438DF8DD
S315080044C0000001236A461021D420FEF758FC002874
S315080044D001D0012000E0002016BD10B582B00024EE
S315080044E000218DF80010DFF8401202F001FC01D21D
S315080044F000240EE0DFF8341202F0FAFB01D2082499
S3150800450007E0DFF82C1202F0F3FB01D20C2400E0DE
S31508004510042401236A461021D420FEF78DFC0028C6
S3150800452001D0012015E09DF8000010F0F3008DF889
S3150800453000009DF8000020438DF8000001236A461C
S315080045401021D420FEF71BFC002801D0012000E032
S31508004550002016BD10B582B0002400218DF8001089
S31508004560002102F0C5FB01D800242AE0654902F0C3
S31508004570BFFB01D2102424E0634902F0B9FB01D243
S3150800458020241EE0614902F0B3FB01D2302418E072
S315080045905F4902F0ADFB01D2402412E05D4902F00A
S315080045A0A7FB01D250240CE05B4902F0A1FB01D223
S315080045B0602406E0594902F09BFB01D2702400E012
S315080045C0802401236A461121D420FEF735FC0028F1
S315080045D001D0012015E09DF8000010F00F008DF8BD
S315080045E000009DF8000020438DF8000001236A466C
S315080045F01121D420FEF7C3FB002801D0012000E0DA
S31508004600002016BD38B50400002500208DF80000EE
S315080046102000484902F06CFB1FD2022501236A4696
S315080046201121D420FEF708FC002801D0012068E0FB
S315080046309DF8000010F0FD008DF800009DF80000C0
S3150800464028438DF8000001236A461121D420FEF77D
S3150800465096FB002854D0012053E001236A46112115
S31508004660D420FEF7E9FB002801D0012049E09DF897
S31508004670000010F0FD008DF800009DF800008DF890
S31508004680000001236A461121D420FEF778FB002892
S3150800469001D0012035E02000274902F029FB01D28C
S315080046A000250EE02000254902F022FB01D2042550
S315080046B007E02000224902F01BFB01D2082500E092
S315080046C00C2501236A461121D420FEF7B5FB0028E4
S315080046D001D0012015E09DF8000010F0F3008DF8D8
S315080046E000009DF8000028438DF8000001236A4663
S315080046F01121D420FEF743FB002801D0012000E059
S31508004700002032BD010050410100D0410100504255
S315080047100100D042010050430100D04301405044FB
S315080047200180CF440120504501000040010080402F
S31508004730010000410100FA42010075430100FA43F5
S3150800474001007A4410B582B0040000208DF80000FC
S3150800475001236A4622213C20FEF76EFB002801D081
S31508004760012062E09DF8000010F0FC008DF80000C2
S315080047709DF80000617808438DF8000001236A4619
S3150800478022213C20FEF7FBFA002801D001204CE04C
S3150800479001236A4620213C20FEF74EFB002801D063
S315080047A0012042E09DF8000010F0E3008DF80000BB
S315080047B09DF80000217808438DF800009DF8000058
S315080047C010F09F008DF800009DF80000E17808437E
S315080047D08DF8000001236A4620213C20FEF7CFFA17
S315080047E0002801D0012020E001236A4621213C202F
S315080047F0FEF722FB002801D0012016E09DF80000F4
S3150800480010F09F008DF800009DF80000A17808437D
S315080048108DF8000001236A4621213C20FEF7AFFAF5
S31508004820002801D0012000E0002016BD10B582B096
S3150800483004000020ADF8000002236A46A8213C20A7
S31508004840FEF7FAFA002801D0012029E09DF80100B8
S315080048509DF8001011EB0020208002236A46AA2149
S315080048603C20FEF7E9FA002801D0012018E09DF85F
S3150800487001009DF8001011EB0020608002236A46B3
S31508004880AC213C20FEF7D8FA002801D0012007E029
S315080048909DF801009DF8001011EB0020A080002073
S315080048A016BD000030B585B004000D0000200020BC
S315080048B000210021A8890028208A30F44050E98880
S315080048C008432082A08925490840A9882A891143D6
S315080048D06A8911430843A081A08A30F44070A989E7
S315080048E00843A082684600F0BEF81B48844201D1FE
S315080048F0039800E00298A189090406D519214843BE
S3150800490029684900B0FBF1F105E0192148432968F7
S315080049108900B0FBF1F16420B1FBF0F00001020957
S31508004920642303FB1211A289120408D5C900323187
S315080049306422B1FBF2F111F00701084307E009010F
S3150800494032316422B1FBF2F111F00F0108432081E4
S3150800495005B030BD0000000000380140F3E9FFFF54
S31508004960C9B2002904D0818951F40051818104E03B
S3150800497081894DF6FF72114081817047C905C90DBD
S31508004980818070478088C005C00D704730B4002309
S3150800499000240024002589B240F66A1399420500CE
S315080049A00800C0B24309DBB289B211F01F04012026
S315080049B010FA04F4012B01D10C3504E0022B01D1C5
S315080049C0103500E01435D2B2002A03D028682043F7
S315080049D0286002E02868A043286030BC704700229F
S315080049E089B2B1F5007F0088084201D0012200E0B3
S315080049F000221000C0B2704710B400220023002223
S31508004A00002289B240F66A1291420A00D2B25209CD
S31508004A10D2B289B211F01F03012414FA03F3012A52
S31508004A2002D18289134006E0022A02D1028A134083
S31508004A3001E0828A134089B20A0A92B2012111FA68
S31508004A4002F200880240002B03D0002A01D001227E
S31508004A5000E000221000C0B210BC7047C0B2DFF8F8
S31508004A605011086070470021002100220023002110
S31508004A7000214D49096811F00C01002906D00429C6
S31508004A8011D0082912D00C2913D031E047490968FA
S31508004A90C1F342310122491C12FA01F14FF40042D6
S31508004AA05143016030E0434901602DE0424901600D
S31508004AB02AE03D49096811F470113B4A126812F45C
S31508004AC040023E4B890C595C920D521C364B1B68B2
S31508004AD013F48033002B05D1364B5943B1FBF2F161
S31508004AE0016004E0344B5943B1FBF2F101600BE07D
S31508004AF02E490968C1F342310122491C12FA01F113
S31508004B004FF40042514301602749096811F0F0014A
S31508004B1009092B4A515C0268CA4042602249096861
S31508004B2011F4E061090A264A515C4268CA4082606B
S31508004B301D49096811F46051C90A214A515C426845
S31508004B40CA40C2607047C9B2002905D01D49096824
S31508004B5008431C49086005E01A49096831EA00005B
S31508004B60184908607047C9B2002905D0164909686E
S31508004B7008431549086005E01349096831EA000049
S31508004B80114908607047C9B2002905D00F4909685C
S31508004B9008430E49086005E00C49096831EA000037
S31508004BA00A49086070470000083802400438024085
S31508004BB0000047420024F40000127A008C0200200C
S31508004BC0980200201C38024020380240243802404F
S31508004BD030B4002200230024002246E0012393403B
S31508004BE00C681C409C423FD1036803241500EDB2B3
S31508004BF06D00AC40A343036003680C791500EDB261
S31508004C006D00AC40234303600B79012B02D00B796E
S31508004C10022B19D1836803241500EDB26D00AC4050
S31508004C20A343836083684C791500EDB26D00AC40F0
S31508004C3023438360838801249440A3438380838825
S31508004C408C79944023438380C36803241500EDB20E
S31508004C506D00AC40A343C360C368CC791500EDB2C0
S31508004C606D00AC402343C360521C102AB6D330BC37
S31508004C7070470183704741837047D2B2002A01D03A
S31508004C80018300E04183704770B400230023D2B249
S31508004C9011F00703DBB29B0012FA03F389B2CA10BC
S31508004CA000EB820289B2CC1000EB8404246A0F253B
S31508004CB011F00706F6B2B600B540AC43146289B2E5
S31508004CC0CA1000EB8202126A134389B2C91000EBBC
S31508004CD08100036270BC7047002100220F23C1784F
S31508004CE000291ED01449096811F4E061D1F5E06184
S31508004CF0090AD1F10402DBB20B414178914082786E
S31508004D001A40114309010D4A0378D154012102784A
S31508004D1012F01F0291400A4A0078401142F820100A
S31508004D2009E00121027812F01F029140054A007835
S31508004D30401142F8201070470CED00E000E400E056
S31508004D4000E100E080E100E038B500246946012072
S31508004D50544A12689047002804D4009810F0780046
S31508004D60202801D000204CE00DF1010103204D4A16
S31508004D7012689047002801D5002042E000980002FA
S31508004D8010F4E0600099C1F307210843009911F077
S31508004D90F801A02929D144490968491C1E2291FB1A
S31508004DA0F2F302FB1311414A1268914201D1002025
S31508004DB027E03F493C4A126884235A4311443A4A39
S31508004DC01268521C1E2392FBF3F503FB1522364B81
S31508004DD01A60009A0A60091D002811D0314A126823
S31508004DE0904700280CD500200BE0009911F0F80137
S31508004DF0202903D12F4909680C00EAE7002000E0C2
S31508004E00200032BD10B50400274800682749096804
S31508004E10884210D026482549096884225143084407
S31508004E2022490968491C1E2291FBF2F302FB131161
S31508004E301E4A116010E0002C0AD11F48006800289D
S31508004E4006D01D4800688047002801D1002003E0ED
S31508004E50FFF77AFF0028D7D010BD80B50020FFF7EE
S31508004E60D1FF02BD80B5FFF76FFF0028FBD00178A0
S31508004E700906F8D402BD80B5104801680F480068D5
S31508004E800068000210F4E0600C4A12681268C2F367
S31508004E9007221043001D0A4A12689047FFF7E2FFEF
S31508004EA001BD00004C25002054250020582500206F
S31508004EB0B00A002004000020502500200000002031
S31508004EC048250020401C80B2642800DB002080B200
S31508004ED0704710B50C0080B2FFF7F4FFA4B2A042E9
S31508004EE001D1012000E00020C0B210BD02280CD07C
S31508004EF003280CD004280CD005280CD006280CD082
S31508004F0007280CD020280CD00DE002200CE0022047
S31508004F100AE0042008E0082006E0072004E0012053
S31508004F2002E0092000E00920704730B595B004007A
S31508004F300D001E48B0F822131C48B0F82003FFF7EE
S31508004F40C8FF002801D001202CE018481749B1F8FD
S31508004F50201300EBC100458014481449B1F820130A
S31508004F6020F8314000201149104AB2F8202301EBFD
S31508004F70C20148600D48B0F82003FFF7A3FF0B49AC
S31508004F80A1F820030A48A4B250F824300948ADB263
S31508004F9050F8252008496846FDF7E8F96846FCF701
S31508004FA0C3FBC0B215B030BD000000004C1D002088
S31508004FB0DC7F0008A88700089092000880B501F0F9
S31508004FC0A9FE02210E20FFF7B0FF0020FEF7D6FD4E
S31508004FD001BD80B501F09EFE02210E20FFF7A5FF58
S31508004FE00020FEF7CBFD01BD80B501F093FE02213E
S31508004FF00E20FFF79AFF0020FEF7C0FD01BD10B492
S3150800500001E0491C521E6AB10B7804789C4205D00F
S3150800501010BC2CBF01204FF0FF30704710F8013B41
S31508005020002BEED110BC0020704780B501F02CFF94
S3150800503002BD00002DE9F04FA1B0824600201646B9
S315080050401D4602910B900DF144086FF000490AE0E5
S3150800505016F8011B0298D0470028029000F0B98282
S315080050600B98401C0B903078010001D10B98B2E2E6
S315080050702528EDD100200590069007900890099004
S315080050800A9001E040F0010016F8011F2029F9D026
S3150800509023290DD02B2904D02D2906D030290AD052
S315080050A00CE040F0020080B2EEE740F00400FAE7B8
S315080050B040F00800F7E740F01000F4E72A290ED17F
S315080050C02968296051F8042B2960002A0D9204D515
S315080050D0514240F004000D9180B2761C11E0002187
S315080050E00D9109E00D99494505D001EB810302EBC5
S315080050F0430130390D91761C3278A2F130010A2924
S31508005100F0D331782E2903D04FF0FF310C911DE0F2
S3150800511016F8011F2A2907D129682960761C51F833
S31508005120042B29600C9211E000210C9109E00C99DE
S31508005130494505D001EB810302EB430130390C9157
S31508005140761C3278A2F130010A29F0D3ADF838007E
S315080051500FF6A840317801F0AFFE08B116F8010B3A
S315080051608DF83A009DF83A00682802BF3178682918
S31508005170622005D06C2804BF30786C2803D17120D2
S315080051808DF83A00761C11A8049016F8017BB7F141
S3150800519025002AD01C3800F0CA80001F022840F2D9
S315080051A0C680133800F0ED80093800F0C080801EF4
S315080051B000F05A81401E00F03081401E022840F25D
S315080051C0B680001F00F02981401F00F08180401E34
S315080051D000F0D780401E24D0C01E0BD0801E00F0E1
S315080051E0D080C01E00F0CD8048E125208DF844000F
S315080051F001204DE12868286050F8044B2860039484
S315080052000C9F002F04D52046FCF7A4F8074606E0B5
S315080052103A460021204601F05BFE00B1071B0697BF
S3150800522037E129682960002251F8040B296000211A
S31508005230CDE9000111A80390DDE900019142049F20
S3150800524008BF90424FF03C0C01D10C9AC2B100F055
S315080052500F033033DBB23A2BA8BF2733ACF1010278
S315080052600009BB54944640EA01700909002291429C
S3150800527008BF904204D0039A07EB0C039A42E6D380
S3150800528007EB0C000390CCF13C010C980691814287
S3150800529009DA401A08904FF6EF71BDF83800084051
S315080052A0ADF83800F5E0002840F1F3809DF83800A5
S315080052B000F01400102840F0EC800D98059A801A2A
S315080052C0089A801A401A0128C0F2E3800890E0E0A4
S315080052D09DF83A0062281AD0682806D06A280CD0A9
S315080052E06C281CD0712808D019E02868286050F866
S315080052F0041B28600B980880CBE02868286050F8C3
S31508005300042B28600B98C117C2E90001C1E0286880
S31508005310286050F8041B28600B980870B9E02868C4
S31508005320286050F8041B28600B980860B1E02868CC
S31508005330C01D6FF0070101EA00022A60D2E90001E8
S3150800534008322A60CDE90001002902D505982D21E9
S315080053500AE0BDF83800810702D505982B2103E03D
S31508005360C00705D50598202108F80010401C0590AF
S3150800537011A80599084403903946684600F0ECF9E7
S3150800538087E09DF83A006C280FD0712818BF6A2864
S315080053900BD12868C01D6FF0070101EA00022A60D8
S315080053A0D2E9000108322A6005E02968296051F827
S315080053B0040B29600021CDE900019DF83A00682810
S315080053C003D1DDE9000180B20BE0622803D1DDE9F3
S315080053D00001C0B205E0742818BF7A2804D1DDE9B7
S315080053E000010021CDE900019DF83800000732D5FB
S315080053F0DDE900230020834208BF82422BD047F014
S315080054002000782827D10598302108F80010401C7C
S31508005410411C059108F800701DE09DF83A002946E0
S3150800542000F0DCF8CDE90001DDE9002300218B421C
S3150800543002DA05982D210AE0BDF83800810702D561
S3150800544005982B2103E0C00705D50598202108F803
S315080054500010401C059011A8059908440390394688
S31508005460684600F0F3F814E00120059028682860E3
S3150800547050F8041B28608DF844100AE025208DF8A2
S31508005480440001200590380003D088F801700220F6
S3150800549005900D980599401A0899401A0699401AD8
S315080054A00999401A0799401A0A99471A9DF8380027
S315080054B0400710D42020012F8DF840000BDB3C4616
S315080054C0012310AA6946504600F081FC002840F0E6
S315080054D08080641EF4D1DDF814B0BBF1000F11AC66
S315080054E00CD014F8011B0298D0470028029070D0FF
S315080054F00B98401CBBF1010B0B90F2D130208DF8B4
