S0100000536B7950617463682E73726563ED
S31508000000B00A002031940008C99500085950000824
S315080000106F500008CD9500088550000800000000C4
S31508000020000000000000000000000000D195000854
S31508000030D595000800000000D9950008DD95000850
S31508000040DF3E0008E1950008E5950008E9950008F7
S31508000050ED950008F1950008F5950008F995000852
S31508000060FD950008019600080596000809960008FF
S315080000700D960008119600081596000819960008AE
S315080000801D9600082196000825960008299600085E
S315080000902D9600083196000835960008399600080E
S315080000A03D960008D72B000841960008459600089B
S315080000B0B92A0008499600084D9600085196000886
S315080000C055960008599600085D960008619600083E
S315080000D0659600083D14000869960008811D000809
S315080000E06D9600087196000875960008F7340008A2
S315080000F07996000801201C4981F8280000207047DD
S3150800010010B50400184890F82800022801D10220EA
S3150800011016E0154890F82800002801D101200FE0C4
S31508000120200001F017F9282801D3012008E0210052
S315080001300D4801F02FF902200B4981F8280000200C
S3150800014010BD80B5084890F82800022809D1012179
S31508000150054800F00BF80121034A82F82810C0B2BE
S3150800016000E0002002BD0000182400202DE9F04719
S31508000170BAB080460D00404601F0ECF80600DFF8FC
S315080001808C0D007800281FD098F800001B2812D183
S315080001900020DFF8781D0870DFF8741D03A801F049
S315080001A0F9F803A801F0C0FA0400E4B2002C06D05E
S315080001B02000C0B205E04146012001F039FE2000CA
S315080001C0C0B23AB0BDE8F08798F80000302818D0D9
S315080001D031286CD0322800F0C080412800F0138105
S315080001E0432800F0A681442800F0CF81472800F074
S315080001F03F81482800F07181542800F0188200F0E9
S315080002001BBF00F0CDFF0400E4B2002C4DD1EDB2C7
S31508000210002D0AD0DFF8901D03A801F0BBF803A84B
S3150800022001F098F803A901F003FEDFF8B01D03A852
S3150800023001F0B0F803A801F077FA0400E4B2002C44
S3150800024002D02000C0B2BCE7DFF8B80DB0F9002034
S31508000250DFF8B41D03A802F0CBF803A801F064FA8E
S315080002600400E4B2002C02D02000C0B2A9E7DFF8EF
S31508000270940DB0F90220DFF8941D03A802F0B8F82F
S3150800028003A801F051FA0400E4B2002C02D02000C1
S31508000290C0B296E7DFF86C0DB0F90420DFF8701DE0
S315080002A003A802F0A5F800F0D8BE00F0D6BE00F00C
S315080002B077FF0400E4B2002C4DD1EDB2002D0AD030
S315080002C0DFF8E41C03A801F065F803A801F042F87A
S315080002D003A901F0ADFDDFF8A01D03A801F05AF847
S315080002E003A801F021FA0400E4B2002C02D0200091
S315080002F0C0B266E7DFF80C0DB0F90620DFF8901DEE
S3150800030003A802F075F803A801F00EFA0400E4B297
S31508000310002C02D02000C0B253E7DFF8E80CB0F991
S315080003200820DFF8701D03A802F062F803A801F0A0
S31508000330FBF90400E4B2002C02D02000C0B240E76A
S31508000340DFF8C00CB0F90A20DFF88C1D03A802F00C
S315080003504FF800F082BE00F080BE00F021FF0400D6
S31508000360E4B2002C4DD1EDB2002D0AD0DFF8381CCE
S3150800037003A801F00FF803A800F0ECFF03A901F0A9
S3150800038057FDDFF8581D03A801F004F803A801F08B
S31508000390CBF90400E4B2002C02D02000C0B210E76A
S315080003A0DFF8600CB0F90C20DFF8341D03A802F062
S315080003B01FF803A801F0B8F90400E4B2002C02D033
S315080003C02000C0B2FDE6DFF83C0CB0F90E20DFF8DD
S315080003D0141D03A802F00CF803A801F0A5F90400FF
S315080003E0E4B2002C02D02000C0B2EAE6DFF8140C12
S315080003F0B0F91020DFF8F01C03A801F0F9FF00F0AF
S315080004002CBE00F02ABEDFF8E40C02F0AFF80400B8
S31508000410E4B2002C2AD1EDB2002D0AD0DFF8881BF1
S3150800042003A800F0B7FF03A800F094FF03A901F0A2
S31508000430FFFCDFF8481D03A800F0ACFF03A801F095
S3150800044073F90400E4B2002C02D02000C0B2B8E66A
S31508000450DFF8980C006802F0F3F802000B00DFF8EA
S31508000460201D03A801F0C4FF00F0F7BD00F0F5BD9C
S31508000470DFF8780C02F0A8F80400E4B2002C2AD1C0
S31508000480EDB2002D0AD0DFF8201B03A800F082FF8A
S3150800049003A800F05FFF03A901F0CAFCDFF8E41C1B
S315080004A003A800F077FF03A801F03EF90400E4B2C0
S315080004B0002C02D02000C0B283E6DFF8300C0068BA
S315080004C002F0BEF802000B00DFF8BC1C03A801F01E
S315080004D08FFF00F0C2BD00F0C0BD02F040F9DFF8A2
S315080004E0AC1C0860EDB2002D0AD0DFF8BC1A03A8D0
S315080004F000F050FF03A800F02DFF03A901F098FCB7
S31508000500DFF8EC1B03A800F045FF03A801F00CF97F
S315080005100400E4B2002C02D02000C0B251E6DFF895
S315080005206C0C0268DFF8CC1B03A801F061FF00F031
S3150800053094BD02F0A9FBDFF8C01B0880EDB2002DC0
S315080005400AD0DFF8641A03A800F024FF03A800F015
S3150800055001FF03A901F06CFCDFF8A01B03A800F05B
S3150800056019FF03A801F0E0F80400E4B2002C02D059
S315080005702000C0B225E6DFF8800B0288DFF8801B72
S3150800058003A801F035FF00F068BD02F087FBDFF82D
S31508000590681B488002F086FBDFF85C1B8880EDB29A
S315080005A0002D0AD0DFF8001A03A800F0F3FE03A80E
S315080005B000F0D0FE03A901F03BFCDFF8D41B03A82A
S315080005C000F0E8FE03A801F0AFF80400E4B2002C3E
S315080005D002D02000C0B2F4E5DFF8B81B03A800F08B
S315080005E0D9FE03A801F0A0F80400E4B2002C02D05A
S315080005F02000C0B2E5E5DFF8000B4288DFF8981B5B
S3150800060003A801F0F5FE03A801F08EF80400E4B291
S31508000610002C02D02000C0B2D3E5DFF8DC0A8288BD
S31508000620DFF8781B03A801F0E3FE00F016BDF6B26A
S31508000630022E06DADFF8141C03A800F0ABFE00F061
S31508000640FABC98F80100432800F00282442800F01A
S31508000650068249280AD04B2800F03B82522800F02F
S315080006601982552800F06A8400F0D4BCDFF8E01B34
S3150800067003A800F08FFEF6B2092E13DAEDB2002DAC
S315080006800AD0DFF8241903A800F084FE03A800F0B6
S3150800069061FE03A901F0CCFBDFF8B81B03A800F044
S315080006A079FED4E198F80200522800F0C380532856
S315080006B040F0C88198F803003A2803D198F8060054
S315080006C02E2813D0EDB2002D0AD0DFF8DC1803A8C7
S315080006D000F060FE03A800F03DFE03A901F0A8FBA8
S315080006E0DFF8741B03A800F055FEA2E0EDB2002D5A
S315080006F00AD0DFF8B41803A800F04CFE03A800F0EF
S3150800070029FE03A901F094FB98F904008DF800006E
S3150800071098F905008DF8010000208DF8020068465A
S3150800072000F0F0FC002805D1DFF8301B03A800F024
S3150800073031FE7EE0684600F001FD050098F90700E5
S315080007408DF8000098F908008DF8010000208DF852
S315080007500200684600F0D6FC002805D1DFF8001B29
S3150800076003A800F017FE64E0684600F0E7FC060000
S31508000770002E06D12A00DFF8EC1A03A801F038FE8D
S315080007802DE05FF000095FF0000A07E0684600F018
S31508000790D5FC26A901F80A001AF1010AB2451EDAA3
S315080007A0032000FB0AF0404490F90A008DF8000087
S315080007B0032000FB0AF0404490F90B008DF8010075
S315080007C000208DF80200684600F09CFC0028DDD168
S315080007D0DFF8881A03A800F0DDFD5FF00109B9F11A
S315080007E0000F05D12A00DFF8801A03A801F000FEE1
S315080007F05FF0000A0CE026A810F80A20D6A1684681
S3150800080001F0F6FD694603A802F064FA1AF1010A36
S31508000810B245F0DBD1A103A802F05CFA731E9BB2C5
S315080008200DF199029DF898102800C0B202F0E9FA75
S3150800083004000CE198F803003A2807D198F8060056
S315080008402E2803D198F809002E2813D0EDB2002DD2
S315080008500AD0DFF8541703A800F09CFD03A800F09F
S3150800086079FD03A901F0E4FADFF8001A03A800F0FD
S3150800087091FDE6E0EDB2002D0AD0DFF82C1703A8AB
S3150800088000F088FD03A800F065FD03A901F0D0FA81
S3150800089098F904008DF8000098F905008DF8010014
S315080008A000208DF80200684600F02CFC002805D1CF
S315080008B0DFF8BC1903A800F06DFDC2E0684600F039
S315080008C03DFC050098F907008DF8000098F9080026
S315080008D08DF8010000208DF80200684600F012FC31
S315080008E0002805D1DFF88C1903A800F053FDA8E00D
S315080008F0684600F023FC060098F90A008DF8000007
S3150800090098F90B008DF8010000208DF80200684662
S3150800091000F0F8FB002805D1DFF85C1903A800F001
S3150800092039FD8EE0684600F009FC0700002E06D166
S315080009302A00DFF8481903A801F05AFD2DE05FF0F8
S3150800094000095FF0000A07E0684600F0F7FB26A9F1
S3150800095001F80A001AF1010AB2451EDA032000FB63
S315080009600AF0404490F90D008DF80000032000FBC2
S315080009700AF0404490F90E008DF8010000208DF829
S315080009800200684600F0BEFB0028DDD1DFF8F0184B
S3150800099003A800F0FFFC5FF00109B9F1000F05D1CB
S315080009A02A00DFF8E01803A801F022FD5FF0000A2C
S315080009B00CE026A810F80A2067A1684601F018FD81
S315080009C0694603A802F086F91AF1010AB245F0DB76
S315080009D062A103A802F07EF99DF89810380003007A
S315080009E09BB226AAC9B22800C0B202F067FA040070
S315080009F0E4B2002C25D103A800F096FE0400E4B268
S31508000A00002C03D02000C0B2FFF7DBBBDFF8781854
S31508000A1003A801F0EDFC5FF0000A0CE026A810F828
S31508000A200A204DA1684601F0E3FC694603A802F0D6
S31508000A3051F91AF1010ABA45F0DB48A103A802F0F8
S31508000A4049F904E0DFF8441803A800F0A3FCF2E231
S31508000A500024DFF83C1803A800F09CFCEBE203F046
S31508000A609CF90600EDB2002D0CD0B6B23200DFF8C4
S31508000A70241803A801F0BCFC03A800F06BFC03A92A
S31508000A8001F0D6F9B6B23200DFF80C1803A801F067
S31508000A90AFFCD0E2EDB2002D0DD0DFF8001803A8A8
S31508000AA000F078FC03A800F055FC03A901F0C0F992
S31508000AB0012003F099F8DFF8E81703A800F06AFCAC
S31508000AC0002003F0A6F8DFF8DC1703A801F090FC75
S31508000AD0B1E20024F6B2042E13DAEDB2002D0AD0E4
S31508000AE0DFF8C41703A800F055FC03A800F032FC91
S31508000AF003A901F09DF9DFF8B41703A800F04AFC32
S31508000B001BE298F80200522800F08281532840F030
S31508000B10018298F80300422800F0FC80532803D08D
S31508000B20542800F07E806DE198F804003A2817D022
S31508000B30EDB2002D0AD0DFF8781703A800F02AFCDA
S31508000B4003A800F007FC03A901F072F9DFF864179F
S31508000B5003A800F01FFC63E025782E000D0A0000AC
S31508000B60F6B2062E0FDB01275FF0050AF6B2B2458C
S31508000B700ADA18F80A0003F091F9002800D10027CC
S31508000B801AF1010AF2E70027002F13D1EDB2002D62
S31508000B900AD0DFF8241703A800F0FCFB03A800F02E
S31508000BA0D9FB03A901F044F9DFF8101703A800F0F0
S31508000BB0F1FB35E018F1050121A800F0EBFB21A8AF
S31508000BC003F071F9011E42F21072914213D3EDB28D
S31508000BD0002D0AD0DFF8E01603A800F0DBFB03A817
S31508000BE000F0B8FB03A901F023F9DFF8D01603A833
S31508000BF000F0D0FB14E003F0AAF9EDB2002D0AD0FC
S31508000C00DFF8BC1603A800F0C5FB03A800F0A2FB9A
S31508000C1003A901F00DF9DFF8AC1603A801F0E8FB0B
S31508000C20F5E098F804003A2813D0EDB2002D0AD062
S31508000C30DFF8941603A800F0ADFB03A800F08AFBC2
S31508000C4003A901F0F5F8DFF8841603A800F0A2FB63
S31508000C505FE0F6B2062E0FDB01275FF0050AF6B253
S31508000C60B2450ADA18F80A0003F018F9002800D184
S31508000C7000271AF1010AF2E70027002F13D1EDB277
S31508000C80002D0AD0DFF8481603A800F083FB03A856
S31508000C9000F060FB03A901F0CBF8DFF8381603A8CB
S31508000CA000F078FB35E018F1050121A800F072FB89
S31508000CB021A803F0F8F8011E42F21072914213D3EC
S31508000CC0EDB2002D0AD0DFF8081603A800F062FB83
S31508000CD003A800F03FFB03A901F0AAF8DFF8DC152A
S31508000CE003A800F057FB14E003F058F9EDB2002D05
S31508000CF00AD0DFF8E41503A800F04CFB03A800F0BF
S31508000D0029FB03A901F094F8DFF8B81503A801F048
S31508000D106FFB7CE098F804003A2813D0EDB2002D5A
S31508000D200AD0DFF8B81503A800F034FB03A800F0D2
S31508000D3011FB03A901F07CF8DFF8A41503A800F05D
S31508000D4029FB5EE0F6B2062E0FDB01275FF0050AE7
S31508000D50F6B2B2450ADA18F80A0003F09FF8002836
S31508000D6000D100271AF1010AF2E70027002F13D154
S31508000D70EDB2002D0AD0DFF86C1503A800F00AFBC7
S31508000D8003A800F0E7FA03A901F052F8DFF85815AE
S31508000D9003A800F0FFFA34E018F1050121A800F0D5
S31508000DA0F9FA21A803F07FF8011EB1F57A7F13D36B
S31508000DB0EDB2002D0AD0DFF82C1503A800F0EAFAE8
S31508000DC003A800F0C7FA03A901F032F8DFF81815EE
S31508000DD003A800F0DFFA14E003F0EFF8EDB2002DF7
S31508000DE00AD0DFF8081503A800F0D4FA03A800F023
S31508000DF0B1FA03A901F01CF8DFF8C81403A801F03A
S31508000E00F7FA04E0DFF8E81403A800F0C3FA94E060
S31508000E1098F8030042284AD0532802D054282CD0E8
S31508000E205FE0EDB2002D16D003F0DCF803F0F8F819
S31508000E30DFF8C01403F004F901F002FC02000B000D
S31508000E40DFF8B41403A801F0D3FA03A800F082FA75
S31508000E5003A900F0EDFF03F0C5F803F0E1F8DFF8A9
S31508000E60941403F0EDF801F0EBFB02000B00DFF839
S31508000E708C1403A801F0BCFA46E0EDB2002D0DD0A3
S31508000E8003F0B3F80200DFF8781403A801F0B0FA0B
S31508000E9003A800F05FFA03A900F0CAFF03F0A5F85B
S31508000EA00200DFF8601403A801F0A2FA2CE0EDB204
S31508000EB0002D0DD003F09CF80200DFF84C1403A8AF
S31508000EC001F096FA03A800F045FA03A900F0B0FF6E
S31508000ED003F08EF80200DFF8341403A801F088FA4C
S31508000EE012E0EDB2002D0AD0DFF8241403A800F0B2
S31508000EF051FA03A800F02EFA03A900F099FFDFF8CB
S31508000F00141403A800F046FA17E000BF7525002060
S31508000F108C810008EDB2002D0AD0DFF88C1303A8E7
S31508000F2000F038FA03A800F015FA03A900F080FFCC
S31508000F30DFF8E41303A800F02DFA7CE00024F6B2EB
S31508000F40032E13DAEDB2002D0AD0DFF8D01303A86A
S31508000F5000F020FA03A800F0FDF903A900F068FFE5
S31508000F60DFF8BC1303A800F015FA4AE098F8020067
S31508000F7044281BD0452833D1DFF8A81303A801F06D
S31508000F8037FAEDB2002D0AD0DFF89C1303A800F05B
S31508000F9001FA03A800F0DEF903A900F049FF0120D1
S31508000FA002F0EDFF04002CE0548B0008DFF87C13F8
S31508000FB003A801F01DFAEDB2002D0AD0DFF8701370
S31508000FC003A800F0E7F903A800F0C4F903A900F0A4
S31508000FD02FFF002002F0D3FF040012E0748B0008F4
S31508000FE0EDB2002D09D0CD4903A800F0D3F903A826
S31508000FF000F0B0F903A900F01BFFCE4903A800F0E2
S31508001000C9F918E010250020948B0008B48B000855
S31508001010D48B0008EDB2002D09D0C74903A800F00B
S31508001020B9F903A800F096F903A900F001FFBA4937
S3150800103003A800F0AFF910E0EDB2002D09D0BE49C3
S3150800104003A800F0A7F903A800F084F903A900F0A3
S31508001050EFFEB14903A800F09DF9E4B2002C05D0D3
S31508001060022C0BD003D3032C0DD015E018E0B3499E
S3150800107003A800F08FF913E094930008B04903A879
S3150800108000F088F90CE0AF4903A800F083F907E0FF
S31508001090F48B0008148C0008AB4903A800F07AF911
S315080010A003A800F041FB0400E4B2002C03D02000A2
S315080010B0C0B2FFF786B8A54903A800F06BF903A8E4
S315080010C000F032FB0400E4B2002C3FF478A82000BC
S315080010D0C0B2FFF776B800BF348C00080490000849
S315080010E0548C0008748C0008948C00086425002031
S315080010F0B48C0008D48C000834250020F48C000831
S31508001100148D000810B50400200000F023F9002211
S31508001110002100E0491C81420EDA625C303A0A2A54
S3150800112003D3625C413A062A01D2002200E001227A
S31508001130012AEFD1002000E0012010BD38B50400D7
S3150800114000220025200000F005F9002104E0625C79
S31508001150303A12EB0515491C81420DDA625C303AC9
S315080011600A2AF4D3625C413A062A02D2625C373A0A
S31508001170EFE75FF0FF3000E0280032BD84910008F9
S31508001180209000089C9100083C90000860250020EB
S31508001190B4910008C48100085C8500083482000800
S315080011A0E0B500208DF8080002A802F0FFFF6846A7
S315080011B003F05CF8002818D100200DE0694631F9E3
S315080011C010104FF47A62514348F2120291FBF2F181
S315080011D05F4A22F81010401C0328EFDB684603F02C
S315080011E080F800281BD1002010E001202DE0694678
S315080011F031F9101041F28832514346F69B7291FB41
S31508001200F2F1534A02EB4002D180401C0328EEDB80
S31508001210684603F059FB002816D1002010E001208B
S3150800122013E0694631F910104FF47A62514346F6D5
S31508001230E82291FBF2F1464A02EB40029181401CFA
S315080012400328EEDB002000E001200EBD348D0008E7
S315080012508C88000884850008AC850008848300080B
S3150800126068820008CC910008A8930008D485000875
S31508001270B08300089C82000850810008E4910008A9
S31508001280FC850008BC9300087094000824860008B2
S31508001290DC830008548D0008FC910008748D000852
S315080012A04C860008B0880008948D000874860008EB
S315080012B0D488000808840008F88800081C890008F3
S315080012C0B48D00087C94000840890008348400081E
S315080012D06489000888890008D48D0008AC8900084C
S315080012E060840008D0890008F4890008F48D000895
S315080012F0188A000800002041148E00088C84000813
S31508001300589000081492000874900008348E00085B
S31508001310548E00083C8A0008748E0008948E0008D3
S315080013209C860008C486000890900008EC86000891
S31508001330AC90000814870008548B0008608A0008DF
S315080013403C87000864870008B8840008C095000830
S315080013501025002000F10103810704D010F8011BB5
S3150800136089B18107FAD10268B2F10131914311F0CE
S31508001370803F04BF50F8042FF6E710F8011B11B19F
S3150800138010F8011BFBE7C01A70470268531C03607C
S31508001390117070475FEA000C830706D011F8013B0D
S315080013A000F8013BB3B18307F8D10A68B2F10133FB
S315080013B023EA020313F0803F02BF40F8042B51F8DA
S315080013C0042FF3E711F8013B00F8013B13B111F8BC
S315080013D0013BF9E760467047012110F01F02914072
S315080013E0DFF8802340B2400942F8201070470121F7
S315080013F010F01F029140DFF8702340B2400942F80E
S3150800140020107047401CC0B2322800DB0020C0B252
S31508001410704710B50C00C0B2FFF7F4FFE4B2A04263
S3150800142001D1012000E00020C0B210BDC0B2C9B28F
S31508001430401A002800D53230C0B2704710B540F2C5
S315080014402771DFF8280303F025FB012805D10022C0
S3150800145040F22771C54803F0E7FA40F26531C34800
S3150800146003F018FB012803D1C04803F0D9FA28E095
S3150800147040F22551BD4803F00DFB012821D1BB4898
S3150800148003F0CEFA0400BA4890F83310B84890F83A
S315080014903200FFF7BEFF002813D1B548B44991F8CA
S315080014A032104454B24890F83200FFF7ABFFB04907
S315080014B081F83200E4B20D2C03D10120AC4981F841
S315080014C0340010BDAA4890F8340070470020A84997
S315080014D081F83400704710B504001CE0A44890F861
S315080014E03300A34991F83210884214D02520FFF71B
S315080014F07EFF9F489E4991F83310405C2070641C1B
S315080015009B4890F83300FFF77DFF994981F833002F
S315080015102520FFF761FF9648954991F83310405CFE
S315080015200D2809D0924890F83210914890F8330067
S31508001530FFF77CFF0028D1D18D488D4991F83310EB
S31508001540405C0D280DD12520FFF751FF884890F8FB
S315080015503300FFF757FF864981F833002520FFF748
S315080015603BFF00202070641CFFF7B0FF10BD00B5DC
S3150800157087B000207E4981F8340000207C4981F834
S31508001580330000207A4981F8320001214FF4804067
S3150800159003F037FB0121012003F033FB0722092161
S315080015A0744803F0BFFB07220A21724803F0BAFB0E
S315080015B04FF4C060019002208DF8080000208DF8D5
S315080015C00A0000208DF80B0001208DF8090001A9FA
S315080015D0684803F04BFB4FF4964003900020ADF8A3
S315080015E018000C20ADF816000020ADF814000020F5
S315080015F0ADF812000020ADF8100003A95B4803F00F
S315080016009FF9012240F22551584803F00DFA0122AC
S315080016106021564803F008FA25208DF800000020BE
S315080016208DF8010000208DF8020001208DF80300D6
S31508001630684603F09FFB01214C4803F0DFF90120BF
S315080016404D49086000204D49088007B000BD4FF499
S31508001650DC7000E0401E0028FCD1704738B5040055
S31508001660012502E0FFF7F3FF641EEDB2002D0AD054
S3150800167080213E4803F001FA012801D1002502E045
S31508001680002CEFD10025002C01D0002000E003201B
S3150800169032BD38B504001500002037480068012817
S315080016A001D022283ED1002C02D089B2002901D1CE
S315080016B0012038E030480068222803D132202E4A1B
S315080016C0106002E012202C4A10602C48018005E0C8
S315080016D02178641C89B2254803F09EF927480088BA
S315080016E000280BD025480088401E24490880280079
S315080016F0FFF7B4FF0028EBD0032014E02800FFF71B
S31508001700ADFF002801D003200DE01B4800683228F1
S3150800171003D122201849086002E001201649086012
S31508001720002000E0022032BD10B504002000FFF7BB
S3150800173011FE80B2512801DB012011E00E4909682B
S31508001740012901D002200BE00D4A010089B22000D0
S31508001750FFF79FFFC0B2002801D0C0B200E0C0B2B8
S3150800176010BD000000E100E080E100E00038014023
S31508001770E023002000000240682500207025002094
S31508001780E0930400012110F01F029140DFF8642B5A
S3150800179040B2400942F820107047012110F01F029C
S315080017A09140DFF8542B40B2400942F820107047A8
S315080017B080B5DFF8BC2712681071DFF8B407006837
S315080017C04171DFF8B007DFF8A81709680860DFF885
S315080017D0A0070068011DDFF898070068006803F095
S315080017E098FBDFF8180B0068001D02BD00B587B02E
S315080017F001215FF4802003F014FA0121022003F08E
S31508001800F0F907220A21DFF8F80A03F08BFA072213
S315080018100B21DFF8EC0A03F085FA07220D21DFF821
S31508001820E00A03F07FFA07220E21DFF8D40A03F054
S3150800183079FA4FF4D840009002208DF80400002071
S315080018408DF8060000208DF8070001208DF80500A8
S315080018506946DFF8AC0A03F009FA4FF40040009035
S3150800186001208DF8040001208DF8060001208DF86E
S31508001870070001208DF805006946DFF8840A03F0A1
S31508001880F5F95FF4E13003904FF44070ADF81800B5
S315080018900C20ADF816000020ADF814000020ADF8B5
S315080018A012000020ADF8100003A9DFF8580A03F06B
S315080018B047F8012240F22551DFF8480A03F0B4F848
S315080018C001226021DFF83C0A03F0AEF827208DF8E4
S315080018D0080000208DF8090000208DF80A00012074
S315080018E08DF80B0002A803F045FA0121DFF8140A67
S315080018F003F084F80020DFF8101AA1F8200300206E
S31508001900DFF8081A81F896010020DFF8001A81F836
S3150800191097010020DFF8F41981F898010020DFF814
S31508001920EC1981F899010020DFF8E01981F89A018D
S315080019300020DFF8D819A1F89C010120DFF8CC199E
S3150800194081F89E0107B000BD401CC0B2C82800DB64
S315080019500020C0B27047C0B2C9B2401A002800D5EC
S31508001960C830C0B2704738B504000D0020E0272003
S31508001970FFF713FF0020DFF8941981F89501DFF8C7
S315080019808C09DFF8881991F89311084490F8CA0071
S3150800199028706D1CDFF8740990F89301FFF7D4FFDF
S315080019A0DFF8681981F893012720FFF7EBFE641E1C
S315080019B0002C16D0DFF8540990F89301DFF84C197B
S315080019C091F892118842D2D1012240F22551DFF8CE
S315080019D0340903F029F801226021DFF8280903F009
S315080019E023F8002032BDDFF8240990F895017047E6
S315080019F080B5FFF7FBFE4FF40041DFF8040903F05A
S31508001A0088F90FF22D40DFF808190860DFF8040995
S31508001A10DFF804190860DFF80409DFF8041908601C
S31508001A2002F0D5F84FF40041DFF8D40803F06FF957
S31508001A3001BD10B586B00024DFF8D008D0F8A001A3
S31508001A40002805D103F057FADFF8C018C1F8A0013D
S31508001A50DFF8B808D0F8A001002800F00781DFF801
S31508001A60AC08D0F8A0010068DFF8B8180840DFF81D
S31508001A709818DFF89428B2F8202341F82200DFF8F6
S31508001A808808B0F82003C0B2FFF75EFFDFF87818C1
S31508001A90A1F82003DFF87408D0F8A0010068DFF881
S31508001AA084180840DFF880180860DFF87C080068AA
S31508001AB0A02800F08B80DFF8741888422ED0DFF853
S31508001AC07018884257D0DFF86C18884200F0848076
S31508001AD0DFF8641888422ED0DFF8601888427BD079
S31508001AE0DFF85C18884259D0DFF85818884200F0A9
S31508001AF09280DFF8541888425BD0DFF85018884285
S31508001B0064D0DFF84C18884260D0DFF8481888425D
S31508001B1062D0DFF84418884258D086E0DFF83C08DF
S31508001B20FFF702FEDFF8380802F0A2F80120DFF816
S31508001B30DC1781F896010020DFF8D01781F89701A5
S31508001B4002210220FFF734FE0088FF2812DCE4B2E7
S31508001B50002C0AD1DFF80C08FFF7E6FDDFF80808C5
S31508001B6002F086F8062002F054F80020DFF89C17E9
S31508001B70C1F8A00169E0DFF8F407FFF7D5FDDFF843
S31508001B80F00702F075F80120DFF8801781F8970151
S31508001B900020DFF87817C1F8A00156E0A2A0FFF7E9
S31508001BA0C3FD02F0A6F80020DFF86017C1F8A0010F
S31508001BB04BE002F022F89DA0FFF7B6FD02F099F877
S31508001BC00020DFF84817C1F8A0013EE00020DFF842
S31508001BD03C17C1F8A00138E0DFF89807FFF7A4FD25
S31508001BE0DFF82807D0F8A001807A00280DD0DFF8A2
S31508001BF01C07D0F8A00110F10B02DFF87C17684625
S31508001C0000F0F6FB6846FFF78FFD0020DFF8FC16AC
S31508001C10C1F8A00119E0DFF86407FFF785FD002089
S31508001C20DFF8E816C1F8A0010FE0DFF8FC06026845
S31508001C30DFF84C17684600F0DBFB6846FFF774FDD3
S31508001C400020DFF8C816C1F8A001DFF8C00690F832
S31508001C509311DFF8B80690F89201FFF77CFE00288A
S31508001C6004D00120DFF8A41681F8950106B010BD4E
S31508001C70DFF8980690F896017047DFF8900690F816
S31508001C8097017047DFF8840690F898017047DFF8E7
S31508001C907C0690F899017047DFF8701681F898016C
S31508001CA07047DFF8681681F89901704700B58BB060
S31508001CB00020DFF8580690F89A01032842D1DFF889
S31508001CC04C0690F89E01012801D101203BE001F065
S31508001CD00EFC002834D001F005FCDFF83006B0F819
S31508001CE09C01401CDFF82416A1F89C0102F07DF93E
S31508001CF00300DFF81806B0F89C21DFF88816684656
S31508001D0000F076FB6846FFF70FFD6846FFF722FBF3
S31508001D10694600F08DF802F068F9DFF8F015B1F8B9
S31508001D209C1188420CD2DFF86006FFF7FDFC022101
S31508001D30122003F048F901F0D1FF122001F069FFE3
S31508001D40002000E00120C0B20BB000BDDFF8BC15D2
S31508001D5081F89E017047DFF8B41591F89A110329A6
S31508001D6003D1DFF8A81581F89E017047DFF89C05B6
S31508001D7090F89A017047DFF8941581F89A01704730
S31508001D8080B540F22771DFF87C0502F083FE012852
S31508001D9027D1DFF8780590F8C900DFF8701591F8B3
S31508001DA0C810884216D0DFF86405DFF8601591F888
S31508001DB0C910415C89B2DFF84C0502F02DFEDFF848
S31508001DC04C0590F8C900FFF7BFFDDFF8401581F80C
S31508001DD0C90006E0002240F22771DFF8280502F064
S31508001DE023FE40F26531DFF81C0502F053FE012898
S31508001DF009D10020DFF8141581F89401DFF80405ED
S31508001E0002F00EFE0EE040F22551DFF8F80402F06B
S31508001E1041FE012806D1DFF8EC0402F001FEC0B24B
S31508001E2000F0AAF801BD00002D2A2D002D4F2D0027
S31508001E30F8B504000D0054F07F40DFF8CC14DFF845
S31508001E40C824B2F8202341F82200DFF8BC04B0F811
S31508001E502003C0B2FFF778FDDFF8AC14A1F8200321
S31508001E6028786978090411EB0060A97810EB01203D
S31508001E70E9780818DFF89014DFF88C24B2F82023E4
S31508001E8041F82200DFF88004B0F82003C0B2FFF75B
S31508001E905BFDDFF87414A1F8200328796979090431
S31508001EA011EB0060A97910EB0120E9790818DFF831
S31508001EB05814DFF85424B2F8202341F82200DFF83A
S31508001EC04804B0F82003C0B2FFF73EFDDFF8381427
S31508001ED0A1F820034FF4FA6726E02878DFF82C14D7
S31508001EE0DFF8282492F8C82088542720FFF755FCE5
S31508001EF0DFF8180490F8C800DFF8101491F8C91034
S31508001F00884206D1012240F22771DFF8F80302F071
S31508001F108BFDDFF8F80380F8C8602720FFF732FC4E
S31508001F20641E6D1C4FF4FA67002C1FD0DFF8DC0323
S31508001F3090F8C800FFF708FD06003000DFF8CC135C
S31508001F4091F8C910C0B28842C7D13800471E002888
S31508001F50EAD10020DFF8B41381F8960102210F2098
S31508001F6003F031F8082001F054FEDDE7F1BD00006A
S31508001F70000000202002030130B5A1B00024DFF8DC
S31508001F800C14DFF80C2412788854DFF80414097846
S31508001F90491CDFF8FC231170C0B20A2803D0C0B26E
S31508001FA03F2840F0A3810020DFF8E4130870DFF82B
S31508001FB0DC23DFF8E01302A800F01AFA02A8FFF7FC
S31508001FC0B3FB0400E4B2002C02D02000C0B28FE1BB
S31508001FD00422DFF8C413DFF8B40303F05EF8002820
S31508001FE011D10120C94981F896010020C74981F815
S31508001FF098010020C54981F89901DFF8A003FFF789
S3150800200093FB04006AE10922DFF89413DFF87C03E6
S3150800201003F043F8002811D10120BC4981F8970143
S315080020200120BA4981F89A010020B849A1F89C0113
S31508002030DFF87003FFF778FB04004FE10C22DFF8A6
S315080020406813DFF8480303F028F800281ED100209B
S31508002050AE4981F897010020AC4981F89801002023
S31508002060AA4981F899010120A84981F89A01002016
S31508002070A649A1F89C0101F0B9FE01F08AF901F020
S31508002080BDFECA48FFF750FB040027E10422C849F1
S31508002090BE4803F002F800284DD101F0A0FF002841
S315080020A017D001F0A5FF040001F09FFF050001F01D
S315080020B093FF0194009501F0B3FFBE4901F0C0FFFC
S315080020C000F0BEFA02000B00BB49B04800F090F9D8
S315080020D016E001F08DFF040001F087FF050001F00E
S315080020E07BFF0194009501F09BFFB24901F0A8FF20
S315080020F000F0A6FA02000B00B049A44800F078F9EF
S31508002100A248FFF711FB0400E4B2002C02D020001D
S31508002110C0B2EDE09D48FFF71DF99C49FFF788FE20
S315080021200A2001F025FF0120FFF7BBFDA448FFF7B1
S31508002130FBFA0400D2E00622A249944802F0ADFF59
S31508002140002840F0B880FFF7A2FD00282CD09E4951
S3150800215002A800F04DF902A8FFF7E6FA0400E4B277
S31508002160002C02D02000C0B2C2E002A8FFF7F2F8A5
S3150800217002A9FFF75DFE0020FFF793FD0120FFF798
S315080021808BFD01F0ADFE01F027FF01F0F1FE032003
S315080021905E4981F89A0100205C49A1F89C018B48A8
S315080021A0FFF7C2FA040035E0584890F89A01022869
S315080021B020D10320554981F89A0100205349A1F8F6
S315080021C09C01814902A800F013F902A8FFF7ACFAAE
S315080021D00400E4B2002C02D02000C0B288E002A8B5
S315080021E0FFF7B8F802A9FFF723FE7848FFF79CFA2D
S315080021F004000FE0454890F89A0103280AD1002008
S315080022004249A1F89C017248FFF78EFA04000120A2
S31508002210FFF79CFD6F4911A8FFF7BCF86E4911A896
S3150800222002F051FF010000292DD00020087011A8E6
S31508002230FFF790F8002826D011A8FDF761FF0400E3
S31508002240E4B2022C0ED1654902A800F0D1F802A822
S31508002250FFF76AFA04004D48FFF77CF84B49FFF789
S31508002260E7FD10E0E4B2002C0DD05D4902A800F0AD
S31508002270BFF802A8FFF758FA04004448FFF76AF8BF
S315080022804249FFF7D5FD01F021FE020055493F48B6
S3150800229000F0AEF83D48FFF747FA0400E4B2002C18
S315080022A002D02000C0B223E03848FFF753F8374978
S315080022B0FFF7BEFD12E008224B49344802F0EDFE56
S315080022C0002807D102210E2002F07DFE0E2001F023
S315080022D0A0FC03E04548FFF727FA0400002003E0C6
S315080022E000212A4A1154401C3C28F9DB2000C0B2C0
S315080022F021B030BD00E100E080E100E004000020EC
S315080023000004024000480040281A002070200020DF
S3150800231048250020671900084C250020E719000801
S3150800232050250020F800FFFF5C250020A0000100D2
S31508002330A0000800A0000900A0000801A0000802EB
S3150800234020000A02A0000B02A0000A0320000A05CA
S31508002350A000000820000908A0000020A492000898
S31508002360E093000824910008B89200083C91000800
S31508002370CC920008F48A000840940008248F0008CC
S315080023804C940008E0920008F4920008A423002068
S3150800239072250020408F0008D0940008F0930008AA
S315080023A05894000808930008009400081094000840
S315080023B0D894000800002041008300082C830008F8
S315080023C054910008E09400085C8F0008788F000894
S315080023D01C930008AA230020E8940008948F00089C
S315080023E0B08F0008CC8F000864940008309300086A
S315080023F00CB41CB5044604A801900A46009401AB27
S31508002400694607487844183002F062FE009A0021AF
S31508002410117000285CBF0098001B16BC5DF80CFB09
S315080024206BEFFFFF10B582B0040000208DF80000A6
S3150800243000F0E1F8002801D0012074E001236A4683
S3150800244020217C48007800F039FD002801D00120C1
S3150800245069E09DF8000010F08F008DF800009DF8E7
S315080024600000217808438DF800009DF8000010F060
S31508002470F7008DF800009DF80000E17808438DF814
S3150800248000009DF8000010F0FB008DF800009DF894
S315080024900000217908438DF800009DF8000010F02F
S315080024A0FE008DF800009DF80000617908438DF85C
S315080024B0000001236A4620215E48007800F0A1FC4E
S315080024C0002801D001202EE001236A461021594830
S315080024D0007800F0F3FC002801D0012023E09DF8E5
S315080024E0000010F0FC008DF800009DF800006178EF
S315080024F008438DF800009DF8000010F0F3008DF8F1
S3150800250000009DF80000A17808438DF8000001231B
S315080025106A4610214748007800F073FC002801D06D
S31508002520012000E0002016BD38B50400002503236D
S315080025306A46A8213F48007800F0C0FC002801D070
S31508002540012012E0002007E06946C0B2095CC0B26B
S31508002550C20091400D43401CC0B20328F4DB280298
S3150800256001D555F07F452560002032BD10B582B0F3
S315080025700400002000906846FFF7D6FF002801D027
S31508002580012008E0009801F041FD5FF08B4101F061
S3150800259057FD2060002016BD10B582B0040000204B
S315080025A002236A46AB212348007800F087FC0028FE
S315080025B001D0012007E09DF801009DF8001011EBFD
S315080025C000202080002016BD10B582B004006846A1
S315080025D0FFF7E2FF002801D001200BE0BDF900005B
S315080025E001F014FD144901F02BFD144903F062FCB7
S315080025F02060002016BD80B501236A4620210D48BB
S31508002600007800F05BFC002801D0012011E09DF85D
S31508002610000050F080008DF8000001236A46202152
S315080026200448007800F0EDFB002801D0012000E006
S31508002630002002BDAC0200200000F04300002A4240
S315080026405FF0FF0C1CEAD05114BF614506E0C110CB
S31508002650400721F0E04101F16051704779B900F077
S31508002660004100020AD0B0FA80FC00FA0CF001F131
S315080026706051A1EB0C5101EBD02140057047410296
S315080026800CBF40F4E0016FF0000100207047002104
S3150800269001E04008491CB0F5805FFAD250EA0130E3
S315080026A080B2704780B20105090D80B2000B11FA9D
S315080026B000F0704738B5040000250020002C01D131
S315080026C001204BE07E21882000F073FB45F249414A
S315080026D0884207D17F21882000F06BFB43F2010175
S315080026E0884201D0012039E0207855EA0035608813
S315080026F010F400600543A08810F4C0600543A07973
S3150800270010F010000543E07910F008000543207A20
S3150800271010F0030005432A0092B20121882000F038
S3150800272036FBC0B2002801D0C0B217E0E068FFF758
S31508002730AEFF020092B20221882000F028FBC0B248
S31508002740002801D0C0B209E02069FFF7A0FF020007
S3150800275092B20321882000F01AFBC0B232BD80B5C0
S315080027600021882000F025FB80B2FFF79BFF02BD01
S3150800277000B59BB00121DFF8340502F052FA0121B9
S315080027804FF4017002F03DFA0121032002F029FA04
S31508002790012002F0B1F90E220521DFF8140502F036
S315080027A0C1FA01220321DFF80C0502F0BBFA0E225A
S315080027B00421DFF8000502F0B5FA02220121DFF84C
S315080027C0F00402F0AFFA0E220021DFF8E40402F06A
S315080027D0A9FA0420009001208DF8040000208DF845
S315080027E0060000208DF8070001208DF805006946CF
S315080027F0DFF8C00402F03AFA01220421DFF8B40433
S3150800280002F089FA0820009002208DF804000120C1
S315080028108DF8060000208DF8070001208DF80500C8
S315080028206946DFF8900402F021FA0220009002209F
S315080028308DF8040000208DF8060000208DF80700AA
S3150800284003208DF805006946DFF8640402F00EFAE5
S315080028502020009003208DF8040000208DF8070042
S3150800286001208DF805006946DFF8440402F0FEF9F8
S31508002870102000906946DFF83C0402F0F7F90120C1
S3150800288000906946DFF8280402F0F0F95FF080400E
S3150800289003F048FC0020ADF820000020ADF81A002F
S315080028A00020ADF818004FF47A40079006A95FF0AB
S315080028B0804003F041FB0820ADF85C000020ADF82D
S315080028C05E000220ADF8600017A95FF0804003F0B3
S315080028D0B9FB7020ADF80C000020ADF814000120FB
S315080028E0ADF80E000020049003A95FF0804003F0C5
S315080028F086FB4FF4A0715FF0804003F0A1FB022035
S31508002900139000201090002011900020129010A91A
S31508002910002003F07DFC0121002003F090FC40F22A
S315080029205C41002003F0A1FC002014905FF4C01065
S3150800293015900020169014A803F0A8FC0121202069
S3150800294003F0B6FC0121DFF8700303F0B1FC1C208C
S315080029508DF8080000208DF8090000208DF80A007F
S3150800296001208DF80B0002A802F004FA01220121C9
S315080029705FF0804003F0C6FB01215FF0804003F062
S3150800298011FBDFF8380303F0CDFB0020ADF820007B
S315080029900020ADF81A000020ADF8180000200790B6
S315080029A006A9DFF8180303F0C7FA6020ADF80C0093
S315080029B00020ADF814000120ADF80E0000200490A8
S315080029C003A9BE4803F01BFB0121BC4803F0EAFA41
S315080029D05FF48030099009A803F0B9FC00208DF84F
S315080029E02D0000200E9000200D905FF080500C9076
S315080029F001208DF83C0000200A9000208DF82C005C
S31508002A000AA9AF4803F07EFC052301220821AC4839
S31508002A1003F0BAFC0121AA4803F0A3FC4021A84808
S31508002A2003F06BFD0028F9D04FF48071A44803F039
S31508002A3064FD0128F8D0A34803F074FB0020ADF824
S31508002A4020000020ADF81A000120ADF8180041F664
S31508002A503F70079006A99B4803F06EFA6020ADF810
S31508002A600C000020ADF814000120ADF80E0000207F
S31508002A70049003A9934803F0A3FA4FF4F051914840
S31508002A8003F0DCFA19208DF8080000208DF80900FB
S31508002A9000208DF80A0001208DF80B0002A802F02C
S31508002AA069F901220121874803F02CFB0121854899
S31508002AB003F078FA1BB000BD80B501215FF08040B5
S31508002AC003F02CFB5FF0804003F0F4FA7E490968B6
S31508002AD07D4A126880B28018B0EBD1107A49086036
S31508002AE07948006878494968774A526812EBD010E5
S31508002AF0B0EB11207449486073480068C0097249F0
S31508002B004968B0EB11207049097A002910D11128BB
S31508002B101FDB01206C49087200206B4948816A480E
S31508002B20007B401C68490873022003F0F1FC10E0A2
S31508002B3065494989491C644A518163494989FA2981
S31508002B4007D3042805DA00205F490872022003F03B
S31508002B50EBFC5D48008C401C5B4908845A48008C95
S31508002B60B0F5FA7F36D30020574908845648007BCB
S31508002B705549554A527E11444873002052490873F4
S31508002B805148407E401C504948764F48407E0C28A4
S31508002B9002DB00204C4948760020002104E04A4A1E
S31508002BA00A44527B1018491C0C29F8DB002807D167
S31508002BB04548C069002802D05FF0FF3000E00020D9
S31508002BC04149C969404AD2698018891CB0EB91000D
S31508002BD03D49C86101BD10B501213A4803F09EFA86
S31508002BE03A480088962818DA354803F083FC3749AE
S31508002BF0364A128801EB82014968344A334B1B88EE
S31508002C0002EB8302526880B28018B0EB11102F498C
S31508002C102E4A128801EB820148602C480088401C25
S31508002C202A49088029480088962818DB0020274961
S31508002C300880002000210DE0244A02EB8102526838
S31508002C40904206D2214800EB810040681F4AA2F84C
S31508002C505C12491C9629EFDB1C49A1F85E021C4848
S31508002C601A49098830F81140A4B2611E134803F0C6
S31508002C7097F9A4B2610889B2104803F0E1F9002176
S31508002C800E4803F08BF910BD0F48C069642148430C
S31508002C900C21B0FBF1F0800880B270470B48B0F801
S31508002CA05C0270470948B0F85E027047030000A04E
S31508002CB000040240000002400001008000040040B9
S31508002CC000240140000801408C2400200800002050
S31508002CD04C7F0008024600E0521C1378002BFBD1FB
S31508002CE011F8013B137012F8013B002BF8D170471D
S31508002CF01CB50024C020009000208DF80400002098
S31508002D008DF8070001208DF805006946DFF84803AD
S31508002D1001F0ACFF00F05BFF4021DFF83C0303F055
S31508002D2039FC002813D10321052002F04CF90021B3
S31508002D30032000F0F3FF01248021C74803F02AFC92
S31508002D40002819D10321062002F03DF914E080215C
S31508002D50C14803F01FFC002809D10321062002F010
S31508002D6032F90021032000F0D9FF012404E00121F3
S31508002D70032000F0D3FF00242000C0B216BD04B51E
S31508002D8001236A46C9B2C0B200F03BF802BD80B55D
S31508002D90ADF800209DF800209DF801308DF8003030
S31508002DA08DF8012002236A46C9B2C0B200F029F89C
S31508002DB002BD80B502236A46C9B2C0B200F07EF8E9
S31508002DC000280AD19DF800009DF801108DF8001022
S31508002DD08DF80100BDF8000001E04FF6FF7002BD56
S31508002DE038B504004FF4204521009C4803F08BFCBD
S31508002DF0012804D06D1E002DF6D1032000E0002026
S31508002E0032BDF8B504000D0016001F00944800787E
S31508002E10002851D1012092490870032003F078FB5D
S31508002E2001218E4803F034FC8E48FFF7D9FF0328AA
S31508002E3004D100208A49087003203EE000222100C0
S31508002E40C9B2864803F04EFC8748FFF7C9FF032836
S31508002E5004D100208249087003202EE02900C9B257
S31508002E607E4803F04AFC8148FFF7BAFF032804D1DD
S31508002E7000207B49087003201FE0BFB2002F0FD047
S31508002E803178764803F039FC761C7F1E7848FFF7C0
S31508002E90A7FF0328F1D100207149087003200CE030
S31508002EA001216E4803F002FC032003F03DFB0020DD
S31508002EB06B490870002000E00220F2BDF8B5040056
S31508002EC00D0016001F006B48007800287AD10120F3
S31508002ED068490870032003F01BFB01215F4803F0D3
S31508002EE0D7FB6048FFF77CFF032804D1002061491F
S31508002EF00870032067E000222100C9B2574803F092
S31508002F00F1FB5948FFF76CFF032804D10020594903
S31508002F100870032057E02900C9B2504803F0EDFBBA
S31508002F205348FFF75DFF032804D100205149087074
S31508002F30032048E00121494803F0AAFB4948FFF766
S31508002F404FFF032804D100204A49087003203AE0BD
S31508002F5001222100C9B2414803F0C4FB4648FFF7E5
S31508002F603FFF03280AD100204249087003202AE0BF
S31508002F703A4803F0C5FB3070761C7F1EBFB2002F9F
S31508002F8010D0BFB2012F03D10021344803F09CFBB7
S31508002F903A48FFF725FF0328EAD10020354908708B
S31508002FA0032010E001212D4803F080FB01212B4866
S31508002FB003F08AFB032003F0B7FA00202D490870B6
S31508002FC0002000E00220F2BD00B587B001215FF4C1
S31508002FD0001001F026FE0121022001F002FE042263
S31508002FE006211D4801F09EFE042207211A4801F019
S31508002FF099FEC020009002208DF8040001208DF86B
S31508003000060001208DF8070001208DF805006946A5
S31508003010114801F02BFE44F6206002900020ADF81E
S315080030200C004BF6FF70ADF80E000020ADF810004E
S315080030304FF48060ADF812004FF48040ADF81400EC
S3150800304002A9064803F0B0FA0121044803F012FB6E
S31508003050002007B000BD00000004024000540040F4
S315080030607325002001000300820007008000070086
S3150800307084000700742500200200030040000300B6
S31508003080BFF34F8FDFF86C0D006810F4E060DFF8CF
S31508003090841C0843DFF85C1D0860BFF34F8F00BF30
S315080030A0FDE700B587B0DFF8700C04905FF081404B
S315080030B0059008208DF8180010208DF8190020209A
S315080030C08DF81A00DFF8500C0190DFF82C0D0290ED
S315080030D008208DF80C0010208DF80D0020208DF8A2
S315080030E00E0001A801F02AF8002801D0012013E0FB
S315080030F010208DF8000000208DF8010000208DF8C2
S31508003100020060208DF80300684601F069FB00287C
S3150800311001D0012000E0002007B000BDE0B5002086
S315080031208DF8080002A801F041F8684601F09EF8FB
S3150800313000281AD100200FE0694631F910104FF423
S315080031407A62514348F2120291FBF2F1DFF8B42C8D
S3150800315002EB40025180401C0328EDDB684601F073
S31508003160C0F800281CD1002011E001202FE0694694
S3150800317031F9101041F28832514346F69B7291FBA1
S31508003180F2F1DFF8802C02EB40021181401C032883
S31508003190EDDB684601F098FB002817D1002011E006
S315080031A0012014E0694631F910104FF47A62514350
S315080031B046F6E82291FBF2F1DFF8482C02EB4002D2
S315080031C0D181401C0328EDDB002000E001200EBD64
S315080031D000B587B020208DF8000001208DF8010089
S315080031E008208DF8020000208DF8030000208DF8D5
S315080031F0040000208DF805006846FFF713F900283B
S3150800320001D001201AE000208DF8080000208DF872
S31508003210090000208DF80A0000208DF80B00002018
S3150800322003900020049002208DF8140002A803F0F1
S315080032307FFA002801D0012000E0002007B000BD79
S3150800324080B56846FFF7C0F900280AD10099DFF86B
S31508003250C80A03F0C7FA03F031FBDFF8A81B888217
S315080032600AE003F0B2FADFF8B01A03F0BBFA03F08B
S3150800327025FBDFF8901B88826846FFF777F9002858
S315080032800BD10099DFF8900A03F0ACFA03F016FBAD
S31508003290DFF8701BC882002000E0012002BD00B5DF
S315080032A085B00C208DF800000020ADF802004FF420
S315080032B08060ADF8040000208DF8060000208DF827
S315080032C0070000208DF80800002003905FF0FF300B
S315080032D004906846FFF7EEF905B000BD00B585B065
S315080032E00121102001F09DFC4FF4FA40ADF80400CE
S315080032F000F078FE64214843029001A9DFF8080B24
S3150800330002F01AFE2B208DF8000000208DF801002F
S3150800331000208DF8020001208DF80300684601F0B0
S3150800332029FD01220121DFF8E00A02F0EBFE012166
S31508003330DFF8D40A02F036FE05B000BDE0B500217C
S31508003340DFF8C40A02F02EFE4FF4FA40ADF800008A
S3150800335000F048FE6421484301906946DFF8A80A50
S3150800336002F0EAFD0121DFF8A00A02F01BFE07BD04
S3150800337080B5FFF789FCDFF88C1A8883FFF78EFC87
S31508003380DFF8801AC883FFF78DFCDFF8781A0884FF
S3150800339001BD0120DFF8741A4870DFF8740ADFF8F7
S315080033A06C1A4880DFF8680ADFF8601A0881DFF8C7
S315080033B0600ADFF8581AC881DFF8540ADFF84C1A91
S315080033C08882DFF84C0ADFF8441AC882DFF8400A18
S315080033D0DFF8381A88614FF6FF70DFF8301A8883ED
S315080033E04FF6FF70DFF8241AC883704780B50120AE
S315080033F0DFF8181A4870FFF7CCFF0020DFF8141A18
S3150800340008700020DFF80C1A48800020DFF8041A3C
S3150800341088800020DFF8FC1988715FF0FF30DFF83C
S31508003420EC1948805FF0FF30DFF8E01908815FF09B
S31508003430FF30DFF8D819C8815FF0FF30DFF8CC1904
S3150800344088825FF0FF30DFF8C419C8824FF6FF7034
S31508003450DFF8B81988614FF6FF70DFF8B01988836E
S315080034604FF6FF70DFF8A419C883FFF7ADFDFFF725
S3150800347018FEC0B2002804D10121002000F04EFC3D
S3150800348007E005210A2001F09EFD0021002000F03A
S3150800349045FCFFF79DFEC0B2002804D10121022099
S315080034A000F03CFC07E00521032001F08CFD00211B
S315080034B0022000F033FCFFF7F2FEC0B2002804D168
S315080034C00121012000F02AFC07E005210B2001F06C
S315080034D07AFD0021012000F021FCFFF749F9FFF7EA
S315080034E0FDFE01BD0020DFF8241908707047DFF8DB
S315080034F01C090078704780B50121DFF80C0902F035
S315080035000DFE0120DFF80419087001BD00B5B1B041
S31508003510DFF8F808007800284AD0FEF7A9FB00284B
S3150800352046D0FEF7AAFB002842D0FEF7B0FB0028DB
S315080035303ED0DFF8E0088079401CDFF8D81888719B
S31508003540DFF8D0088279DFF8D0180CA8FEF750FF0C
S315080035500CA8FEF7E9F800F04BFDDFF8B8188979F2
S31508003560814221D3DFF8B408FEF7DEF80020DFF841
S31508003570A4188871DFF8A8180CA8FEF739FF0CA85C
S31508003580FEF7D2F80CA8FDF7E5FE0CA9FEF750FCED
S315080035900020FEF786FB0120FEF77EFB00F0A0FC6C
S315080035A000F01AFD00F0E4FC0020DFF8601808704F
S315080035B0DFF858080078002800F00783FEF758FB64
S315080035C0002800F00283FEF758FB002800F0FD8271
S315080035D0FEF758FB002800F0F882FEF767FB002884
S315080035E000F0F382DFF83C08FEF79EF8DFF834189F
S315080035F00520FEF71DFCDFF830080068401CDFF8E0
S3150800360028180860DFF824080068401CDFF81C1832
S315080036100860DFF814080068012848DB0020DFF896
S3150800362008180860DFF804080268DFF8041820A8FC
S31508003630FEF7DEFE20A800F04BFC20AADFF8F41700
S315080036400CA8FEF7D5FE0CA8FEF76EF80CA8FDF739
S3150800365081FE0CA9FEF7ECFB0CA800F009FB002084
S31508003660FEF779FBFEF782FB012807D10220FEF759
S3150800367082FBDFF8C407FEF757F818E0FEF776FB7B
S31508003680022814D10420FEF776FBDFF8B007FEF710
S315080036904BF8DFF88C170CA8FEF7AAFE0CA8FEF765
S315080036A043F80CA8FDF756FE0CA9FEF7C1FB00F07F
S315080036B0F9FA0020DFF854170870002000F04DFBD7
S315080036C0002811D0FFF72AFDC0B2002804D1012135
S315080036D0002000F023FB07E005210C2001F073FC15
S315080036E00021002000F01AFB022000F036FB00281B
S315080036F011D0FFF7A5FDC0B2002804D10121022090
S3150800370000F00CFB07E005210D2001F05CFC002110
S31508003710022000F003FB012000F01FFB002804D064
S31508003720FFF71DF8DFF8DC168861FFF721FEDFF8E2
S31508003730D406B0F9160000281DD1DFF80407006882
S31508003740401CDFF8FC160860DFF8F4060268DFF8AC
S31508003750F41628A8FEF74CFE28A8FDF7E5FFDFF8C3
S31508003760E0060068052806DB0020DFF8D4160860A6
S31508003770072000F04EFADFF89C068088052808DA4C
S31508003780DFF890068088401CDFF888168880FFF7E7
S3150800379000FE012002F0BCFEDFF86806B0F9020060
S315080037A0DFF86816B1F90210884213D1DFF854061B
S315080037B0B0F90400DFF85416B1F90410884209D1AB
S315080037C0DFF84006B0F90600DFF84016B1F9061032
S315080037D088422CD0DFF82C064088DFF8301648805F
S315080037E0DFF820068088DFF824168880DFF81406BC
S315080037F0C088DFF818168880DFF81006B0F90600CA
S315080038000090DFF80806B0F90430DFF80006B0F9D2
S315080038100220DFF8341602A8FEF7EAFD02A8FDF733
S3150800382083FF02A8FDF796FD02A9FEF701FBDFF864
S31508003830D405B0F90800DFF8D415B1F908108842A4
S3150800384013D1DFF8C005B0F90A00DFF8C015B1F9E1
S315080038500A10884209D1DFF8AC05B0F90C00DFF888
S31508003860AC15B1F90C1088422CD0DFF89805008900
S31508003870DFF898150881DFF88C054089DFF88C1584
S315080038804881DFF880058089DFF880158881DFF8B0
S315080038907C05B0F90C000090DFF87005B0F90A3025
S315080038A0DFF86805B0F90820DFF8A01502A8FEF7CA
S315080038B09FFD02A8FDF738FF02A8FDF74BFD02A9F8
S315080038C0FEF7B6FADFF83C05B0F90E00DFF83C154E
S315080038D0B1F90E10884213D1DFF82805B0F91000A7
S315080038E0DFF82815B1F91010884209D1DFF8140558
S315080038F0B0F91200DFF81415B1F9121088422CD06D
S31508003900DFF80005C089DFF80415C881DFF8F4047C
S31508003910008ADFF8F8140882DFF8E804408ADFF83E
S31508003920EC144882DFF8E404B0F912000090DFF8DE
S31508003930DC04B0F91030DFF8D404B0F90E20DFF853
S31508003940101502A8FEF754FD02A8FDF7EDFE02A821
S31508003950FDF700FD02A9FEF76BFADFF8A804B0F937
S315080039601400DFF8A814B1F91410884228D0DFF83B
S315080039709404808ADFF89414888200F030FB0028CB
S315080039800CD0DFF88804B0F9140000902223222214
S31508003990DFF8C01402A8FEF72BFD08E0DFF86C0478
S315080039A0B0F91420DFF8B01402A8FEF721FD02A82A
S315080039B0FDF7BAFE02A8FDF7CDFC02A9FEF738FA14
S315080039C0DFF84004B0F91600DFF84014B1F9161014
S315080039D0884228D0DFF82C04C08ADFF83014C88261
S315080039E000F0FDFA00280CD0DFF82004B0F9160024
S315080039F0009022232222DFF8641402A8FEF7F8FCBE
S31508003A0008E0DFF80804B0F91620DFF8541402A815
S31508003A10FEF7EEFC02A8FDF787FE02A8FDF79AFC62
S31508003A2002A9FEF705FADFF8DC038069DFF8DC1384
S31508003A308969884226D0DFF8CC038069DFF8CC1381
S31508003A40886100F0CCFA00280BD0DFF8C003806943
S31508003A50009022232222DFF80C1402A8FEF7C8FCE5
S31508003A6007E0DFF8A8038269DFF8FC1302A8FEF76F
S31508003A70BFFC02A8FDF758FE02A8FDF76BFC02A9D9
S31508003A80FEF7D6F9DFF87C03808BDFF88013898B85
S31508003A90884226D0DFF86C03808BDFF870138883A2
S31508003AA000F09DFA00280BD0DFF86003808B0090A9
S31508003AB022232222DFF8B41302A8FEF799FC07E0B6
S31508003AC0DFF84803828BDFF8A81302A8FEF790FCFC
S31508003AD002A8FDF729FE02A8FDF73CFC02A9FEF79D
S31508003AE0A7F9DFF82003C08BDFF82013C98B8842BB
S31508003AF007D1DFF81003008CDFF81013098C884211
S31508003B002BD0C048C08BC149C883BE48008CBF496A
S31508003B10088400F064FA00280DD0BC48008C019097
S31508003B20BA48C08B009022232222DFF8481302A845
S31508003B30FEF75EFC08E0B548038CB448C28BDFF894
S31508003B40381302A8FEF754FC02A8FDF7EDFD02A8FB
S31508003B50FDF700FC02A9FEF76BF9AE484088411C48
S31508003B60AC4A518080B2122809DB0020A949488056
S31508003B700020A8498880FFF70CFC00F0B6F8A34897
S31508003B804078002810D00020A0494870BB4ABC499C
S31508003B9002A8FEF72DFC02A8FDF7C6FD02A8FDF750
S31508003BA0D9FB02A9FEF744F9012002F0BDFCB5488D
S31508003BB0FDF7BAFDB3490620FEF73AF9B2490CA853
S31508003BC0FEF716FC0CA8FDF7AFFD31B000BD4AF6AE
S31508003BD0E03000E0401E0028FCD17047AB4800E00A
S31508003BE0401E0028FCD1704710B5040002E0FFF71C
S31508003BF0F5FF641E012CFADA10BD80B5012002F02B
S31508003C0087FCFFF7E4FF012002F08EFCFFF7DFFFD9
S31508003C1001BD38B50400200001F0B6F9042180B2D0
S31508003C2001F0D1F900250CE0012002F071FC012019
S31508003C30FFF7DAFF012002F077FC0120FFF7D4FF37
S31508003C406D1CA542F0DB012002F062FC0A20FFF79A
S31508003C50CBFF012002F068FC0A20FFF7C5FF002011
S31508003C6002F0F5FE6420FFF7BFFFFFF709FA31BD42
S31508003C7010B588B00400FDF7FBFF002810D0142209
S31508003C802100684602F01AFF2000FDF763FB15289D
S31508003C9001D31434FFE714222100684602F00EFF10
S31508003CA008B010BD80B5FDF7E8FF002810D0002049
S31508003CB07749088000F016F8002805D0754800886E
S31508003CC0401C7449088008E000207249088004E016
S31508003CD06F480088401C6E49088001BD00204D4988
S31508003CE0488070474B48007870470120494908705A
S31508003CF07047002047490870704700206649887059
S31508003D000020654948700020634908700020624910
S31508003D10C87070470400FA0500002041C0B20028A8
S31508003D2008D002280CD008D304280FD00BD30528B6
S31508003D300FD011E0584881700EE0574801700BE02B
S31508003D405548417008E05448C17005E05248017171
S31508003D5002E051484171FFE77047C0B2002808D019
S31508003D6002280CD008D304280FD00BD305280FD06F
S31508003D7011E0494880780FE0474800780CE046484B
S31508003D80407809E04448C07806E04348007903E0F3
S31508003D904148407900E00020704710B50024002013
S31508003DA0FFF7DBFF002800D0641C0120FFF7D5FFD2
S31508003DB0002800D0A41C0220FFF7CFFF002800D05F
S31508003DC0241D0320FFF7C9FF002800D0083404206B
S31508003DD0FFF7C3FF002800D010340520FFF7BDFF0A
S31508003DE0002800D02034200080B210BD00200949E8
S31508003DF0887170470CED00E00000FA430020054981
S31508003E008880704744240020001000406824002061
S31508003E10C7CFFFFF2C250020A0940008A89400080F
S31508003E20B48E0008B0940008402500203C250020E8
S31508003E30B89400082C920008B48A0008D48A0008AE
S31508003E4044250020B4870008D08E0008EC8E0008B0
S31508003E50088F0008D887000840920008FC870008E9
S31508003E6054920008208800086892000844880008D0
S31508003E707C920008E48400080C910008D09300089E
S31508003E8090920008C0940008C8940008C0B60600BE
S31508003E906C2500206E2500202425002030380A28AD
S31508003EA08041C00F70470A22002102F0E1BE0000DF
S31508003EB080B551495148FDF76DFA002002BD80B51D
S31508003EC04D494F48FDF766FA002002BD4C48704739
S31508003ED080B501004A48FDF75DFA002002BD70472B
S31508003EE080B5002020224749474802F045FFC0B266
S31508003EF0002801D0002007E042480068B0F15A3F88
S31508003F0001D1012000E0002002BD80B500205FF04D
S31508003F105A303C49086064203A49486004203949C7
S31508003F2088600F203749C860002036490874002089
S31508003F303449887400203349487420200090314B56
S31508003F40314A0021002002F0BDFEC0B202BD80B594
S31508003F50010000202B484160FFF7F0F9202000906F
S31508003F60284B294A0021002002F0ACFEC0B202BD4F
S31508003F7010B50024FFF7E2F92000C0B210BD80B5E5
S31508003F80010000201F480174202000901D4B1E4A86
S31508003F900021002002F096FEC0B202BD80B50100E5
S31508003FA000201848816020200090164B164A0021F0
S31508003FB0002002F087FEC0B202BD80B501000020D5
S31508003FC01048C160202000900E4B0F4A00210020A7
S31508003FD002F078FEC0B202BD0A4840687047094838
S31508003FE0007C7047074840687047064880687047F5
S31508003FF00448C0687047000088940008D024002050
S31508004000F0240020B024002000800108002840F198
S315080040100980F446404200F005F850F00040604739
S31508004020002800BF0AD0B0FA80F18840D1F19D017E
S31508004030C905020672F1004241EB102070470000E4
S3150800404010B5FF2313EAD0541DBF13EAD1529C4280
S315080040509A4239E0A41ADA0780EA0103134042EAD1
S31508004060012142EA0020421A3CBF641E01EB4202CB
S31508004070090AB2FBF1FE01FB1E221202B2FBF1F0A5
S3150800408001FB10226EF30F201202B2FBF1FE4EEA7C
S3150800409000207F3406DDFE2C24DA53EA500050EB6C
S315080040A0C45010BDD4F1020401FB1E2240F08071F9
S315080040B0192C1DDC21FA04F0C4F12004A140114397
S315080040C071F10042584110BD9C421ABF03EAD15211
S315080040D09A420FE080EA010E0EF00043400004D039
S315080040E0490016D143F0FF4010BD490008BFD3432D
S315080040F0180010BD9C4205D1D21AF7D001F0004134
S31508004100484010BD4A0212BF0846484000F0004029
S3150800411010BD4AB90902B1FA81F2914044B1A41816
S31508004120C00140F000409EE7C90141F000415242FB
S315080041300002B0FA80F4A040141B94E710B50400FE
S3150800414000F046F8002801D001202EE0206800F093
S315080041504FFA002801D0012027E0606800F0A0FA95
S31508004160002801D0012020E0A27A617A207A00F0A6
S3150800417044F9002801D0012017E0E06800F08EF924
S31508004180002801D0012010E0206900F0F4F9002889
S3150800419001D0012009E0A27D617D207D00F0DCF8D8
S315080041A0002801D0012000E0002010BD80B50028BD
S315080041B001D101200BE0012302000F21D420FEF7D4
S315080041C07DFE002801D1002000E00120C0B202BD1A
S315080041D080B500208DF8000001236A461221D420FC
S315080041E0FEF76CFE002801D001203EE09DF8000095
S315080041F010F0FB008DF800009DF8000050F0040058
S315080042008DF8000001236A461221D420FEF7F9FD35
S31508004210002801D0012028E001236A460A21D4207B
S31508004220FEF74CFE002801D001201EE09DF8000094
S3150800423010F087008DF800009DF800008DF800004A
S315080042409DF8000010F0F8008DF800009DF80000B9
S315080042508DF8000001236A460A21D420FEF7D1FD15
S31508004260002801D0012000E0002002BD10B582B070
S3150800427004000020ADF8000002236A462821D42055
S31508004280FEF71CFE002801D0012029E09DF8010058
S315080042909DF8001011EB0020208002236A462A218F
S315080042A0D420FEF70BFE002801D0012018E09DF867
S315080042B001009DF8001011EB0020608002236A4679
S315080042C02C21D420FEF7FAFD002801D0012007E0B2
S315080042D09DF801009DF8001011EB0020A080002039
S315080042E016BD10B582B004000020ADF80000022308
S315080042F06A462221D420FEF7E1FD002801D00120DC
S3150800430029E09DF801009DF8001011EB002020809F
S3150800431002236A462421D420FEF7D0FD002801D0C6
S31508004320012018E09DF801009DF8001011EB00200F
S31508004330608002236A462621D420FEF7BFFD0028A6
S3150800434001D0012007E09DF801009DF8001011EB4F
S315080043500020A080002016BD70B582B000238DF81D
S315080043600030002600250024C0B2002801D100260E
S3150800437000E00826C9B2002901D1002500E0102571
S31508004380D2B2002A01D1002400E0202401236A4683
S315080043901821D420FEF792FD002801D001202BE039
S315080043A09DF8000010F0F7008DF800009DF8000059
S315080043B030438DF800009DF8000010F0EF008DF8EE
S315080043C000009DF8000028438DF800009DF80000C5
S315080043D010F0DF008DF800009DF8000020438DF8EE
S315080043E0000001236A461821D420FEF70AFD00289A
S315080043F001D0012000E0002076BD70B582B0002310
S315080044008DF80030002600250024C0B2002801D10E
S31508004410002600E00826C9B2002901D1002500E0DF
S315080044201025D2B2002A01D1002400E0202401235D
S315080044306A461921D420FEF741FD002801D0012043
S315080044402BE09DF8000010F0F7008DF800009DF8AD
S31508004450000030438DF800009DF8000010F0EF00D2
S315080044608DF800009DF8000028438DF800009DF89F
S31508004470000010F0DF008DF800009DF800002043D2
S315080044808DF8000001236A461921D420FEF7B9FCED
S31508004490002801D0012000E0002076BD10B582B0CA
S315080044A0002400218DF80010002102F06FFC01D8CD
S315080044B000243FE0DFF8E81202F068FC01D210247D
S315080044C038E0DFF8E01202F061FC01D2202431E086
S315080044D0DFF8D41202F05AFC01D230242AE0DFF8C1
S315080044E0CC1202F053FC01D2402423E0DFF8C012BC
S315080044F002F04CFC01D250241CE0DFF8B81202F09E
S3150800450045FC01D2602415E0DFF8AC1202F03EFC4F
S3150800451001D270240EE0DFF8A41202F037FC01D2B3
S31508004520802407E0DFF8981202F030FC01D29024CC
S3150800453000E0A02401236A461021D420FEF7BEFC21
S31508004540002801D0012015E09DF8000010F00F00AA
S315080045508DF800009DF8000020438DF80000012327
S315080045606A461021D420FEF74CFC002801D0012011
S3150800457000E0002016BD10B582B0002400218DF899
S315080045800010DFF8401202F001FC01D200240EE010
S31508004590DFF8341202F0FAFB01D2082407E0DFF84C
S315080045A02C1202F0F3FB01D20C2400E004240123B0
S315080045B06A461021D420FEF781FC002801D001208C
S315080045C015E09DF8000010F0F3008DF800009DF846
S315080045D0000020438DF8000001236A461021D420EC
S315080045E0FEF70FFC002801D0012000E0002016BDD0
S315080045F010B582B0002400218DF80010002102F0C9
S31508004600C5FB01D800242AE0654902F0BFFB01D2A8
S31508004610102424E0634902F0B9FB01D220241EE0ED
S31508004620614902F0B3FB01D2302418E05F4902F079
S31508004630ADFB01D2402412E05D4902F0A7FB01D28E
S3150800464050240CE05B4902F0A1FB01D2602406E08D
S31508004650594902F09BFB01D2702400E08024012313
S315080046606A461121D420FEF729FC002801D0012032
S3150800467015E09DF8000010F00F008DF800009DF879
S31508004680000020438DF8000001236A461121D4203A
S31508004690FEF7B7FB002801D0012000E0002016BD78
S315080046A038B50400002500208DF800002000484990
S315080046B002F06CFB1FD2022501236A461121D42081
S315080046C0FEF7FCFB002801D0012068E09DF80000F9
S315080046D010F0FD008DF800009DF8000028438DF8C5
S315080046E0000001236A461121D420FEF78AFB002820
S315080046F054D0012053E001236A461121D420FEF745
S31508004700DDFB002801D0012049E09DF8000010F0EB
S31508004710FD008DF800009DF800008DF800000123CB
S315080047206A461121D420FEF76CFB002801D001202F
S3150800473035E02000274902F029FB01D200250EE0CA
S315080047402000254902F022FB01D2042507E02000BB
S31508004750224902F01BFB01D2082500E00C250123A3
S315080047606A461121D420FEF7A9FB002801D00120B2
S3150800477015E09DF8000010F0F3008DF800009DF894
S31508004780000028438DF8000001236A461121D42031
S31508004790FEF737FB002801D0012000E0002032BDDB
S315080047A0010050410100D041010050420100D042B1
S315080047B0010050430100D043014050440180CF44DA
S315080047C001205045010000400100804001000041E1
S315080047D00100FA42010075430100FA4301007A44D8
S315080047E010B582B0040000208DF8000001236A4647
S315080047F022213C20FEF762FB002801D0012062E05E
S315080048009DF8000010F0FC008DF800009DF80000EF
S31508004810617808438DF8000001236A4622213C206E
S31508004820FEF7EFFA002801D001204CE001236A4682
S3150800483020213C20FEF742FB002801D0012042E05F
S315080048409DF8000010F0E3008DF800009DF80000C8
S31508004850217808438DF800009DF8000010F09F00AD
S315080048608DF800009DF80000E17808438DF80000F7
S3150800487001236A4620213C20FEF7C3FA002801D00E
S31508004880012020E001236A4621213C20FEF716FB81
S31508004890002801D0012016E09DF8000010F09F00C6
S315080048A08DF800009DF80000A17808438DF80000F7
S315080048B001236A4621213C20FEF7A3FA002801D0ED
S315080048C0012000E0002016BD10B582B004000020CB
S315080048D0ADF8000002236A46A8213C20FEF7EEFA4E
S315080048E0002801D0012029E09DF801009DF800105C
S315080048F011EB0020208002236A46AA213C20FEF7FD
S31508004900DDFA002801D0012018E09DF801009DF885
S31508004910001011EB0020608002236A46AC213C207F
S31508004920FEF7CCFA002801D0012007E09DF8010027
S315080049309DF8001011EB0020A080002016BD000095
S3150800494030B585B004000D000020002000210021AC
S31508004950A8890028208A30F44050E9880843208234
S31508004960A08925490840A9882A8911436A891143DB
S315080049700843A081A08A30F44070A9890843A08220
S31508004980684600F0BEF81B48844201D1039800E04F
S315080049900298A189090406D51921484329684900BE
S315080049A0B0FBF1F105E01921484329688900B0FBFD
S315080049B0F1F16420B1FBF0F000010209642303FB66
S315080049C01211A289120408D5C90032316422B1FB3A
S315080049D0F2F111F00701084307E0090132316422B8
S315080049E0B1FBF2F111F00F010843208105B030BD8B
S315080049F00000000000380140F3E9FFFFC9B20029B2
S31508004A0004D0818951F40051818104E081894DF6F1
S31508004A10FF72114081817047C905C90D81807047B1
S31508004A208088C005C00D704730B4002300240024D8
S31508004A30002589B240F66A13994205000800C0B2FB
S31508004A404309DBB289B211F01F04012010FA04F4FD
S31508004A50012B01D10C3504E0022B01D1103500E001
S31508004A601435D2B2002A03D028682043286002E011
S31508004A702868A043286030BC7047002289B2B1F587
S31508004A80007F0088084201D0012200E000221000C1
S31508004A90C0B2704710B4002200230022002289B257
S31508004AA040F66A1291420A00D2B25209D2B289B2CB
S31508004AB011F01F03012414FA03F3012A02D1828993
S31508004AC0134006E0022A02D1028A134001E0828AD4
S31508004AD0134089B20A0A92B2012111FA02F2008839
S31508004AE00240002B03D0002A01D0012200E0002258
S31508004AF01000C0B210BC7047C0B2DFF85011086091
S31508004B0070470021002100220023002100214D4981
S31508004B10096811F00C01002906D0042911D00829CA
S31508004B2012D00C2913D031E047490968C1F3423144
S31508004B300122491C12FA01F14FF400425143016067
S31508004B4030E0434901602DE0424901602AE03D49D1
S31508004B50096811F470113B4A126812F440023E4B80
S31508004B60890C595C920D521C364B1B6813F4803322
S31508004B70002B05D1364B5943B1FBF2F1016004E035
S31508004B80344B5943B1FBF2F101600BE02E49096839
S31508004B90C1F342310122491C12FA01F14FF40042D5
S31508004BA0514301602749096811F0F00109092B4AA8
S31508004BB0515C0268CA4042602249096811F4E06102
S31508004BC0090A264A515C4268CA4082601D4909683A
S31508004BD011F46051C90A214A515C4268CA40C26050
S31508004BE07047C9B2002905D01D49096808431C4900
S31508004BF0086005E01A49096831EA000018490860A2
S31508004C007047C9B2002905D01649096808431549ED
S31508004C10086005E01349096831EA0000114908608F
S31508004C207047C9B2002905D00F49096808430E49DB
S31508004C30086005E00C49096831EA00000A4908607D
S31508004C407047000008380240043802400000474216
S31508004C500024F40000127A008C020020980200203A
S31508004C601C380240203802402438024030B4002262
S31508004C7000230024002246E0012393400C681C40D0
S31508004C809C423FD1036803241500EDB26D00AC4089
S31508004C90A343036003680C791500EDB26D00AC40C0
S31508004CA0234303600B79012B02D00B79022B19D110
S31508004CB0836803241500EDB26D00AC40A3438360FE
S31508004CC083684C791500EDB26D00AC4023438360D0
S31508004CD0838801249440A343838083888C799440F5
S31508004CE023438380C36803241500EDB26D00AC40EE
S31508004CF0A343C360C368CC791500EDB26D00AC4020
S31508004D002343C360521C102AB6D330BC70470183B4
S31508004D10704741837047D2B2002A01D0018300E070
S31508004D204183704770B400230023D2B211F0070301
S31508004D30DBB29B0012FA03F389B2CA1000EB8202B7
S31508004D4089B2CC1000EB8404246A0F2511F00706FB
S31508004D50F6B2B600B540AC43146289B2CA1000EB8D
S31508004D608202126A134389B2C91000EB81000362FA
S31508004D7070BC7047002100220F23C17800291ED07D
S31508004D801449096811F4E061D1F5E061090AD1F125
S31508004D900402DBB20B414178914082781A401143F4
S31508004DA009010D4A0378D1540121027812F01F0235
S31508004DB091400A4A0078401142F8201009E0012182
S31508004DC0027812F01F029140054A0078401142F815
S31508004DD0201070470CED00E000E400E000E100E080
S31508004DE080E100E038B5002469460120544A12687B
S31508004DF09047002804D4009810F07800202801D0A5
S31508004E0000204CE00DF1010103204D4A126890473D
S31508004E10002801D5002042E00098000210F4E06066
S31508004E200099C1F307210843009911F0F801A02958
S31508004E3029D144490968491C1E2291FBF2F302FB59
S31508004E401311414A1268914201D1002027E03F49D7
S31508004E503C4A126884235A4311443A4A1268521C3F
S31508004E601E2392FBF3F503FB1522364B1A60009AB4
S31508004E700A60091D002811D0314A12689047002897
S31508004E800CD500200BE0009911F0F801202903D178
S31508004E902F4909680C00EAE7002000E0200032BD2F
S31508004EA010B504002748006827490968884210D0C9
S31508004EB02648254909688422514308442249096835
S31508004EC0491C1E2291FBF2F302FB13111E4A1160C4
S31508004ED010E0002C0AD11F480068002806D01D489B
S31508004EE000688047002801D1002003E0FFF77AFF19
S31508004EF00028D7D010BD80B50020FFF7D1FF02BD2E
S31508004F0080B5FFF76FFF0028FBD001780906F8D4B3
S31508004F1002BD80B5104801680F48006800680002A5
S31508004F2010F4E0600C4A12681268C2F307221043B4
S31508004F30001D0A4A12689047FFF7E2FF01BD00000C
S31508004F404C2500205425002058250020B00A0020B2
S31508004F5004000020502500200000002048250020DD
S31508004F60401C80B2642800DB002080B2704710B570
S31508004F700C0080B2FFF7F4FFA4B2A04201D10120D1
S31508004F8000E00020C0B210BD02280CD003280CD0C7
S31508004F9004280CD005280CD006280CD007280CD0DD
S31508004FA020280CD00DE002200CE002200AE00420A4
S31508004FB008E0082006E0072004E0012002E00920B6
S31508004FC000E00920704730B595B004000D001E4872
S31508004FD0B0F822131C48B0F82003FFF7C8FF0028D2
S31508004FE001D001202CE018481749B1F8201300EB2E
S31508004FF0C100458014481449B1F8201320F83140FF
S3150800500000201149104AB2F8202301EBC20148607A
S315080050100D48B0F82003FFF7A3FF0B49A1F82003BA
S315080050200A48A4B250F824300948ADB250F82520F1
S3150800503008496846FDF7DCF96846FCF775FBC0B217
S3150800504015B030BD000000004C1D00207880000817
S31508005050688800085893000880B501F0A9FE022167
S315080050600E20FFF7B0FF0020FEF7D3FD01BD80B587
S3150800507001F09EFE02210E20FFF7A5FF0020FEF795
S31508005080C8FD01BD80B501F093FE02210E20FFF791
S315080050909AFF0020FEF7BDFD01BD10B401E0491CD2
S315080050A0521E6AB10B7804789C4205D010BC2CBFFE
S315080050B001204FF0FF30704710F8013B002BEED16E
S315080050C010BC0020704780B501F02CFF02BD00001F
S315080050D02DE9F04FA1B08246002016461D460291E2
S315080050E00B900DF144086FF000490AE016F8011B11
S315080050F00298D0470028029000F0B9820B98401C0D
S315080051000B903078010001D10B98B2E22528EDD139
S315080051100020059006900790089009900A9001E0F3
S3150800512040F0010016F8011F2029F9D023290DD0D7
S315080051302B2904D02D2906D030290AD00CE040F0BE
S31508005140020080B2EEE740F00400FAE740F00800FB
S31508005150F7E740F01000F4E72A290ED129682960FC
S3150800516051F8042B2960002A0D9204D5514240F0CB
S3150800517004000D9180B2761C11E000210D9109E022
S315080051800D99494505D001EB810302EB43013039FE
S315080051900D91761C3278A2F130010A29F0D33178C4
S315080051A02E2903D04FF0FF310C911DE016F8011F90
S315080051B02A2907D129682960761C51F8042B296009
S315080051C00C9211E000210C9109E00C99494505D093
S315080051D001EB810302EB430130390C91761C3278DE
S315080051E0A2F130010A29F0D3ADF838000FF6A8402D
S315080051F0317801F0AFFE08B116F8010B8DF83A00C8
S315080052009DF83A00682802BF31786829622005D0DF
S315080052106C2804BF30786C2803D171208DF83A00C9
S31508005220761C11A8049016F8017BB7F125002AD040
S315080052301C3800F0CA80001F022840F2C6801338C6
S3150800524000F0ED80093800F0C080801E00F05A8119
S31508005250401E00F03081401E022840F2B680001F32
S3150800526000F02981401F00F08180401E00F0D780A1
S31508005270401E24D0C01E0BD0801E00F0D080C01E59
S3150800528000F0CD8048E125208DF8440001204DE14D
S315080052902868286050F8044B286003940C9F002F58
S315080052A004D52046FCF756F8074606E03A4600219C
S315080052B0204601F05BFE00B1071B069737E1296817
S315080052C02960002251F8040B29600021CDE900016C
S315080052D011A80390DDE900019142049F08BF90429E
S315080052E04FF03C0C01D10C9AC2B100F00F033033D9
S315080052F0DBB23A2BA8BF2733ACF101020009BB5435
S31508005300944640EA017009090022914208BF90427A
S3150800531004D0039A07EB0C039A42E6D307EB0C007A
S315080053200390CCF13C010C980691814209DA401AA7
S3150800533008904FF6EF71BDF838000840ADF8380010
S31508005340F5E0002840F1F3809DF8380000F01400DD
S31508005350102840F0EC800D98059A801A089A801A51
S31508005360401A0128C0F2E3800890E0E09DF83A0070
S3150800537062281AD0682806D06A280CD06C281CD057
S31508005380712808D019E02868286050F8041B28609E
S315080053900B980880CBE02868286050F8042B286012
S315080053A00B98C117C2E90001C1E02868286050F8C7
S315080053B0041B28600B980870B9E02868286050F824
S315080053C0041B28600B980860B1E02868C01D6FF0C0
S315080053D0070101EA00022A60D2E9000108322A60C0
S315080053E0CDE90001002902D505982D210AE0BDF86E
S315080053F03800810702D505982B2103E0C00705D59B
S315080054000598202108F80010401C059011A8059958
S31508005410084403903946684600F0ECF987E09DF8A1
S315080054203A006C280FD0712818BF6A280BD1286853
S31508005430C01D6FF0070101EA00022A60D2E90001E7
S3150800544008322A6005E02968296051F8040B2960AA
S315080054500021CDE900019DF83A00682803D1DDE96D
S31508005460000180B20BE0622803D1DDE90001C0B279
S3150800547005E0742818BF7A2804D1DDE90001002167
S31508005480CDE900019DF83800000732D5DDE9002393
S315080054900020834208BF82422BD047F0200078289C
S315080054A027D10598302108F80010401C411C0591A9
S315080054B008F800701DE09DF83A00294600F0DCF86F
S315080054C0CDE90001DDE9002300218B4202DA0598C7
S315080054D02D210AE0BDF83800810702D505982B2151
S315080054E003E0C00705D50598202108F80010401CE0
S315080054F0059011A80599084403903946684600F0B6
