S0100000536B7950617463682E73726563ED
S31508000000B00A00201D720008717300087573000895
S31508000010797300087D7300088173000800000000EA
S3150800002000000000000000000000000085730008C2
S3150800003089730008000000008D730008917300089A
S315080000403534000895730008997300089D730008F5
S31508000050A1730008A5730008A9730008AD7300080A
S31508000060B1730008B5730008B9730008BD730008BA
S31508000070C1730008C5730008C9730008CD7300086A
S31508000080D1730008D5730008D9730008DD7300081A
S31508000090E1730008E5730008E9730008ED730008CA
S315080000A0F17300089B3C0008F5730008F973000813
S315080000B07D3B0008FD7300080174000805740008FC
S315080000C0097400080D7400081174000815740008F6
S315080000D019740008854200081D740008A74A00081C
S315080000E0217400082574000829740008E51D000815
S315080000F02D7400082DE9F04FA1B08246002016465F
S315080001001D4602910B900DF144086FF000490AE074
S3150800011016F8011B0298D0470028029000F0B98211
S315080001200B98401C0B903078010001D10B98B2E275
S315080001302528EDD100200590069007900890099093
S315080001400A9001E040F0010016F8011F2029F9D0B5
S3150800015023290DD02B2904D02D2906D030290AD0E1
S315080001600CE040F0020080B2EEE740F00400FAE747
S3150800017040F00800F7E740F01000F4E72A290ED10E
S315080001802968296051F8042B2960002A0D9204D5A4
S31508000190514240F004000D9180B2761C11E0002116
S315080001A00D9109E00D99494505D001EB810302EB54
S315080001B0430130390D91761C3278A2F130010A29B3
S315080001C0F0D331782E2903D04FF0FF310C911DE082
S315080001D016F8011F2A2907D129682960761C51F8C3
S315080001E0042B29600C9211E000210C9109E00C996E
S315080001F0494505D001EB810302EB430130390C91E7
S31508000200761C3278A2F130010A29F0D3ADF838000D
S315080002100FF6A840317800F063FE08B116F8010B16
S315080002208DF83A009DF83A00682802BF31786829A7
S31508000230622005D06C2804BF30786C2803D1712061
S315080002408DF83A00761C11A8049016F8017BB7F1D0
S3150800025025002AD01C3800F0CA80001F022840F268
S31508000260C680133800F0ED80093800F0C080801E83
S3150800027000F05A81401E00F03081401E022840F2EC
S31508000280B680001F00F02981401F00F08180401EC3
S3150800029000F0D780401E24D0C01E0BD0801E00F070
S315080002A0D080C01E00F0CD8048E125208DF844009E
S315080002B001204DE12868286050F8044B2860039413
S315080002C00C9F002F04D5204600F016FE074606E0D0
S315080002D03A460021204600F02BFE00B1071B069780
S315080002E037E129682960002251F8040B29600021AA
S315080002F0CDE9000111A80390DDE900019142049FB0
S3150800030008BF90424FF03C0C01D10C9AC2B100F0E4
S315080003100F033033DBB23A2BA8BF2733ACF1010207
S315080003200009BB54944640EA01700909002291422B
S3150800033008BF904204D0039A07EB0C039A42E6D30F
S3150800034007EB0C000390CCF13C010C980691814216
S3150800035009DA401A08904FF6EF71BDF838000840E0
S31508000360ADF83800F5E0002840F1F3809DF8380034
S3150800037000F01400102840F0EC800D98059A801AB9
S31508000380089A801A401A0128C0F2E3800890E0E033
S315080003909DF83A0062281AD0682806D06A280CD038
S315080003A06C281CD0712808D019E02868286050F8F5
S315080003B0041B28600B980880CBE02868286050F852
S315080003C0042B28600B98C117C2E90001C1E0286810
S315080003D0286050F8041B28600B980870B9E0286854
S315080003E0286050F8041B28600B980860B1E028685C
S315080003F0C01D6FF0070101EA00022A60D2E9000178
S3150800040008322A60CDE90001002902D505982D2178
S315080004100AE0BDF83800810702D505982B2103E0CC
S31508000420C00705D50598202108F80010401C05903E
S3150800043011A80599084403903946684600F0ECF976
S3150800044087E09DF83A006C280FD0712818BF6A28F3
S315080004500BD12868C01D6FF0070101EA00022A6067
S31508000460D2E9000108322A6005E02968296051F8B6
S31508000470040B29600021CDE900019DF83A0068289F
S3150800048003D1DDE9000180B20BE0622803D1DDE982
S315080004900001C0B205E0742818BF7A2804D1DDE946
S315080004A000010021CDE900019DF83800000732D58A
S315080004B0DDE900230020834208BF82422BD047F0A3
S315080004C02000782827D10598302108F80010401C0C
S315080004D0411C059108F800701DE09DF83A00294670
S315080004E000F0DCF8CDE90001DDE9002300218B42AC
S315080004F002DA05982D210AE0BDF83800810702D5F1
S3150800050005982B2103E0C00705D50598202108F892
S315080005100010401C059011A8059908440390394617
S31508000520684600F0F3F814E0012005902868286072
S3150800053050F8041B28608DF844100AE025208DF831
S31508000540440001200590380003D088F80170022085
S3150800055005900D980599401A0899401A0699401A67
S315080005600999401A0799401A0A99471A9DF83800B6
S31508000570400710D42020012F8DF840000BDB3C46A5
S31508000580012310AA6946504600F081FC002840F075
S315080005908080641EF4D1DDF814B0BBF1000F11ACF5
S315080005A00CD014F8011B0298D0470028029070D08E
S315080005B00B98401CBBF1010B0B90F2D130208DF843
S315080005C04000089C012C09DB012310AA6946504605
S315080005D000F05DFC00285CD1641EF5D1DDF818B08A
S315080005E0039CBBF1000F0CD014F8011B0298D047EE
S315080005F0002802904DD00B98401CBBF1010B0B90C4
S31508000600F2D130208DF84000099C012C09DB01232A
S3150800061010AA6946504600F03AFC002839D1641EF3
S31508000620F5D103980699DDF81CB04418BBF1000F04
S315080006300BD014F8011B0298D047029048B30B98C8
S31508000640401CBBF1010B0B90F3D130208DF8400014
S315080006500A9C012C08DB012310AA6946504600F0C3
S3150800066016FCB0B9641EF6D19DF8380040077FF530
S315080006705AAD2020012F8DF84000FFF654AD012316
S3150800068010AA6946504600F002FC10B97F1EF6D142
S3150800069049E54FF0FF3021B0BDE8F08F622827D03A
S315080006A068281ED06A2808D06C2828D0712804D05B
S315080006B0742824D07A280DD021E00868C01D6FF070
S315080006C0070210400860D0E9002308300860194680
S315080006D0104670470A680A6052F8040B0A6000213F
S315080006E070470A680A6052F8040B0A6000B20BE009
S315080006F00A680A6052F8040B0A6040B204E00A6805
S315080007000A6052F8040B0A60C11770472DE9F343D3
S31508000710054608462F696F2808BF082405D041F00A
S315080007202001782914BF0A2410243C26D5E9002381
S31508000730642818BF69289046994606D100218B423D
S3150800074003DAD8F1000869EB49090020814508BF9A
S3150800075080450CD1286B50B9082C38D195F838004B
S31508000760000734D530203B2687F83B002FE0701E63
S3150800077000900646404649462246E31700F004FC28
S3150800078002F13000C0B23A2803DB9DF80410513953
S315080007900818B855494640462246E31700F0F4FBC8
S315080007A0804689460020814508BF804503D0E86811
S315080007B0B9198842DBD3082C09D195F83800000707
S315080007C005D5B85D302802D0761E3020B855B9193F
S315080007D0E960C6F13C00296BA861884208DA081A64
S315080007E028624FF6EF71288F08402887BDE8F38303
S315080007F000290ED595F8381001F01401102908D1F2
S31508000800696B6A69891A2A6A891A0E1A012EA8BF9B
S315080008102E62BDE8F38300002DE9F24F04468EB040
S31508000820D4E90001CDE9020104AF9DF8380040F093
S31508000830200BBBF1610F0AD0206B002848BF0620A9
S3150800084004D408BFBBF1670F01D10120206361689A
S31508000850C1F30A5040F2FF7290421CD1080304BF4C
S315080008602068002809D10320A0619DF83800613866
S315080008701A2835D30FF2586108E00320A0619DF8C5
S31508000880380061381A2828D30FF23C61E068032241
S3150800089000F0F2FBC3E1012815DA204600F027FC38
S315080008A0012810DB00250020BBF1610F1FD1E1688C
S315080008B030220A708A1CE2609DF83820612A0CBF33
S315080008C0782258220FE0626840F2FE3161F31E5228
S315080008D0451A62604FF0FF30E6E70FF2E851D5E7B8
S315080008E00FF2E851D2E74A706169891C616110B953
S315080008F0002600258AE1BBF1610F40F09880206B45
S31508000900D4E900AB00284CBF2126461CDDE90201CC
S315080009100022002300F00EFC36B23ABF8BF00040EE
S31508000920CDE902A0CDE902AB06F101082D1FB8F109
S31508000930010F8DF810200DF1110736DBDDE90201F4
S315080009400022002300F00EFC2FD21C2102A800F082
S3150800095021FCDDE9020100F0A3FCA8F10708B8F1C3
S31508000960010F814609DB00F0C7FC02460B46DDE9AC
S31508000970020100F0D9FCCDE90201F81D072105E0C6
S3150800098009F00F0200F8012D4FEA2919B9F1010FF4
S3150800099001DB491EF4D5491E5CBF002200F8012D73
S315080009A0F9D5C71DB8F1010FC8DA0DF11100391ACA
S315080009B0B142B8BF0E4636B230000DF111072FD43A
S315080009C0884206DA04A9014449780829A8BF0F21F4
S315080009D000DA002104AA024400E0761E12F8013962
S315080009E0401E8B42F9D00F2904D104A901444A7844
S315080009F0521C4A70002802D504AF761C2D1D36B24B
S31508000A00701E0DD439180A783032D2B23A2A03DB6E
S31508000A109DF838303A3B9A18401E01F80129F2D55C
S31508000A20206B002840F1F280701E2063EEE0DDE9BD
S31508000A3002010022002300F07DFB3CBF81F000414B
S31508000A40CDE902012DB247F2975068434D49DFF8C8
S31508000A50389180FB01214D1305EBD5752DB2C5F1F3
S31508000A60070ABAF1010F98461CDBDDE902675FEA5F
S31508000A70CA7007D542464B463046394600F014FD43
S31508000A8006460F464046494642464B464FEA6A0ADC
S31508000A9000F00AFDBAF1000F80468946E7D1CDE994
S31508000AA0026724E0CAF1000A0026384F14E05FEA1C
S31508000AB0CA7007D542464B463046394600F0F4FC24
S31508000AC006460F464046494642464B4600F0ECFC71
S31508000AD04FEA6A0A80468946BAF1000FE7D1DDE98E
S31508000AE0020132463B4600F0B1FDCDE90201BBF1F9
S31508000AF0660F216BDFF898900CBF05F10A000620F7
S31508000B004618142EA8BF132630208DF810000DF1B4
S31508000B101107012E40DBDDE9020100F0D7FB07F1E2
S31508000B20080104221B4FA0FB0773DB0803EB8307AE
S31508000B30A0EB4700303001F8010C164FA3FB0770F5
S31508000B40C00800EB8007A3EB47033033521E01F8B9
S31508000B50023DE7D1083E012E01F10807D9DBDDE9A0
S31508000B60020100F0B3FB00F0D1FB02460B46DDE9BB
S31508000B70020100F0D9FB00224B4600F095FCCDE9B6
S31508000B800201C8E789B5F814000024400000F03FC8
S31508000B9084D79741CDCCCCCC0DF11100381A0DF184
S31508000BA0110702E0401E6D1E7F1C39783029F9D0E6
S31508000BB0BBF1660F08BF691C04D0BBF1650F0CBFFB
S31508000BC001210021226B8E1836B2B042B8BF064604
S31508000BD036B231001AD4814204DA785C3528A8BFC7
S31508000BE0392000DA30207A18521E00E0761E12F8F4
S31508000BF00139491E8342F9D0392802D1785C401C54
S31508000C007854002902D57F1E761C6D1C2DB29DF8DE
S31508000C103810009533B23A46204600F003F80FB074
S31508000C20BDE8F08F2DE9F043054685B01F46D5F897
S31508000C303080012F8946164602DA01270FF29426DC
S31508000C4049F02000BDF93040662808BF641C17D05B
S31508000C50672840F0848014F1040FC0F2868044456A
S31508000C6080F2838095F83800641C000702D4474553
S31508000C70B8BFB84624B2B8EB040848BF4FF000081E
S31508000C8024B2E868A969012C27DA4A1C30234354A0
S31508000C90B8F1010F03DA95F83800000703D5E968BB
S31508000CA02E208854521C18EB040FB8BFC8F1000454
S31508000CB024B260426862A044B845AA61B8BF4746F4
S31508000CC0E868AB693FB2EF613A463146184400F02E
S31508000CD0D3F9A8EB0700A862C2E022469742084467
S31508000CE018DA3A46314600F0C7F9A9697918E01BBF
S31508000CF0B8F1010FA961686203DA95F838000007B0
S31508000D0005D5EA682E205054E869401CE861C5F804
S31508000D102880A5E0314600F0AFF9A86920183F1BE6
S31508000D20B8F1010F03DA95F83810090703D5EA6810
S31508000D302E211154401CA8613FB2B845B8BF47469A
S31508000D40E868AB693FB23A463119184400F094F99D
S31508000D50A8693818A861A8EB0700686280E0B9F1AD
S31508000D60610F16D14FF0700918E0474504DA95F877
S31508000D703810090758BFB846B8F1010848BF4FF000
S31508000D800008B9F1670F14BF4FF045094FF0650920
S31508000D9004E0B9F1410F08BF4FF05009A969EB68A3
S31508000DA0481CA861B8F1010F16F8012B5A5403DA4A
S31508000DB095F83810090719D5EA68431CAB612E2146
S31508000DC01154B8F1010F11DB7F1E3FB2B845B8BF09
S31508000DD04746E8683FB23A463146184400F04CF9AF
S31508000DE0A8693818A861A8EB07006862E868A969C5
S31508000DF00144200081F8009003D42B2048708E1CF3
S31508000E0003E02D224A708E1C644200270DF1080863
S31508000E1008E00A22684600F044FD019808F8010B2C
S31508000E207F1C009C21B20129F3DA022F06DA49F069
S31508000E302000652804BF302006F8010B4FB9302082
S31508000E4006F8010B07E07F1E02A8C05D303006F8E1
S31508000E50010B012FF7DAE868A9690844301AE86136
S31508000E6095F8380000F0140010280DD16869A969B2
S31508000E700818696A0818E9690818A96A0818696BD8
S31508000E808842BCBF081A286205B0BDE8F083F8B5E9
S31508000E9004460D4616461F46002077B116F8011B74
S31508000EA0A868A047A86030B1E86A401CE86200203C
S31508000EB07F1EF3D1F2BD4FF0FF30F2BD686A6C7445
S31508000EC07A4C00006E616E004E414E00696E6600F7
S31508000ED0494E460030000268531C03601170704783
S31508000EE00278C9B28A421AB11CBF10F8012FF9E775
S31508000EF018BF00207047000000F10103810704D0E5
S31508000F0010F8011B89B18107FAD10268B2F10131E3
S31508000F10914311F0803F04BF50F8042FF6E710F80C
S31508000F20011B11B110F8011BFBE7C01A704700003E
S31508000F30C9B2830706D0521E22D310F8013B994244
S31508000F40F7D11FE0083A13D302F1040241EA01215E
S31508000F5041EA014150F8043B121F21BF4B40A3F15F
S31508000F60013C2CEA030C1CF0803FF3D0C9B2001FE9
S31508000F70083210F8013B521E28BF91EA030FF8D831
S31508000F8018BF0120401E70471B4213D1094236D1B3
S31508000F902AB18446B0FBF2F002FB10C2704700F09B
S31508000FA087BCFCD30022002370470B0002000021F7
S31508000FB000207047904271EB030CF6D370B5B1FA76
S31508000FC081F4B3FA83F52C1BA340C4F1200532FA49
S31508000FD005F63343A2405FF00046E64002E05B08B0
S31508000FE05FEA3202841A71EB030524BF20462946BC
S31508000FF07641F4D302000B003000002170BD012AAF
S31508001000CFD970B5140C20D0B1FA81F4B2FA82F5B2
S31508001010C4F120046419B4F12006D6D3B2405FF0B7
S315080010200044F440002502E052085FEA3303C61A7A
S3150800103071EB020E24BF3046714664416D41F3D30D
S3150800104002000B002000290070BD0C46B1FBF2F12E
S3150800105002FB11452D0445EA1045B5FBF2F402FBE7
S31508001060145580B240EA0545B5FBF2F002FB105272
S3150800107040EA044070BD000062B38B0708D0521ED8
S3150800108011F8013B00F8013B00F024808B07F6D1EC
S31508001090830740F0208000BF103A07D330B4B1E888
S315080010A03810103AA0E83810F9D230BC530724BFDC
S315080010B0B1E80810A0E8081044BF51F8043B40F80E
S315080010C0043BD20724BF31F8022B20F8022B44BF79
S315080010D00B7803707047083A07D3B1E80810083A46
S315080010E040F8043B40F804CBF7D25307E4E730B4A2
S315080010F0436803F000420121C3F313034360002B46
S3150800110004BF0368002B08D10DE00368DD0F45EA2C
S31508001110440444605B000360491E4468E302F4D556
S31508001120C4F31303436043681A434260084630BC5D
S31508001130704700004FF4001C1CEB410F94BF1CEBDA
S31508001140430F09E041EA030C50EA4C0C52EA0C0C36
S3150800115003D2994208BF9042704714BF8B4282421D
S31508001160704700004FF4001C1CEB410F94BF1CEBAA
S31508001170430F09E041EA030C50EA4C0C52EA0C0C06
S3150800118003D28B4208BF8242704714BF99429042ED
S315080011907047000070B504460D466068C0F30A50F3
S315080011A040F2FF71884207D16068000304BF2068D7
S315080011B0002817D0022070BD20B92046FFF797FFF8
S315080011C0012866DA012D0FDB40F2FF71091A8D42FC
S315080011D00AD36068002847BF00202F4900202F49FE
S315080011E0C4E90001012070BD4142A942616806DADE
S315080011F06FF31E51401941EA0050606040E0401EFE
S3150800120063684519012205F1350062F31F53352835
S3150800121001F00041636003D361600020206070BD67
S31508001220002015F11F0F04DA2068236000222035FC
S3150800123062606A4212D0401E25688041C2F12003CE
S31508001240C0439D4045EAD07025686668D54006FAD1
S3150800125003F32B4323606368D340636062680A43E1
S31508001260B0F1004F626003D80DD12078C0070AD5C7
S315080012702068401C2060206828B96068401C6060AF
S315080012804FF0FF3070BD6068884204BF20680028B0
S31508001290F6D1002070BD00BF0000F0FF0000F07F0F
S315080012A0F446400D40EAC120490006D200F014F881
S315080012B0004248BF6FF00040604700F00DF84FF05D
S315080012C0004188428CBF084640426047400D40EACC
S315080012D0C120490080F00D8040F00040490DA1F57D
S315080012E08061491C05D4D1F11F0154BFC840C017FD
S315080012F070474FF000007047010040F10980F4463E
S31508001300404200F005F851F000416047010000BF77
S3150800131009D0B0FA80F18840C91CC1F58461090575
S3150800132001EBD02140057047F0B44FF0004591EA33
S31508001330030F44BF6B4000F0BDBA00BF841A71EBBF
S31508001340030604D26E40001BB141121973414FF4D3
S31508001350001C1CEB410F34BF7CEB430684E00C0DEC
S31508001360A4EB1356362E7DDC012E43DC45EAC32357
S3150800137043EA525312BFD20292025B08240545EA99
S31508001380C12141EA5051D2EBC020994125D407D159
S31508001390B0FA80F610FA06F164D00020203608E08C
S315080013A0B1FA81F6B140C6F1200220FA02F21143E1
S315080013B0B0404FEAF474B4EB465434F001064FEAF1
S315080013C074040AD8D6F50016760D04F00044F040E9
S315080013D061FA06F25040F1404840C00A40EA4150DE
S315080013E021F0004128BF5FEA500550F1000044EBA8
S315080013F0D12137E045EAC323DB0A45EAC121C90AF8
S31508001400B6F120050EDD42EA0242120CC5F12006AD
S3150800141003FA06F6EB4042EA06056D42984161F189
S3150800142000010DE062FA06F5F240554063FA06FC43
S3150800143082EA0C02F3405A406D42904161EB030187
S3150800144011F4801F05D1641E620502D06D0040416B
S31508001450494121F48011430875F1004350F1000019
S3150800146041EB0451F0BC70471CEB410F15D223F039
S31508001470004352EA43060BD04FEA4C0CBCEB410F33
S3150800148004D80C0D661E342EB7DDEBE7801A994199
S3150800149050EA410608BF0021E4E708BF1CEB430FEA
S315080014A028BF6FF00001DDE7B0B581EA030C0CF048
S315080014B0004C40F2FF7515EA11541DBF15EA135783
S315080014C0AC42AF4239E0E41923EA455343F48013AA
S315080014D0C90241F0004141EA505EC7021100A7FB6C
S315080014E0020200284FF00000EEFB01204FF0000139
S315080014F0E3FB072118BF42F00102401800214941C9
S31508001500E3FB0E01A4F580640F0302D252004041AA
S31508001510494154F101046CDD470872F1004250F16B
S31508001520000051EB0451A1F580115CBF41EA0C01A2
S31508001530B0BD4CEA05510020B0BD05EA1357AC42D0
S3150800154014BFAF4241E050EA410E1CBF52EA430EB7
S3150800155002E061460020B0BD24423C441BD15FEA4C
S31508001560070EF6D0090302BF01460020AEF1140E9D
S31508001570B1FA81F7AEEB070401FA07FE0C37C7F19B
S31508001580200100FA07F7C8404EEA000E23EA455341
S3150800159043F48013A2E733F00043B3FA83F704BF9A
S315080015A0B2FA82FE77440B3FE41BB7F1200E2FBF39
S315080015B002FA0EF3BB40C7F1200E22FA0EFE38BF20
S315080015C043EA0E03BA40641C82E750EA410E14BF90
S315080015D052EA430E6FF000014FF4001717EB430F62
S315080015E08ABF194617EB410FB5E74CEA05510020AB
S315080015F0B0BDD4F10104B4F120070FDAC4F1200715
S31508001600520828BF42F0010210FA07F501FA07F757
S31508001610E1BF2A43E0403843E1400FE0352C98DC2F
S31508001620C7F1200452EA400220FA07F218BF42F036
S31508001630010231FA07F0A1400A43002172F1004283
S3150800164050F1000051EB0C01B0BD00002DE9F0414E
S3150800165040F2FF7581EA030C0CF0004C15EA1154B0
S315080016601DBF15EA1357AC42AF42E9E0BC41C1F3CE
S315080016701301C3F31303801A994143F4801304D268
S31508001680641E4000494180185941C90241EA505137
S31508001690B1FBF3F603FB1611A2FB0675D7EBC020C8
S315080016A0A94102D2761E80185941C90241EA505111
S315080016B0B1FBF3FE03FB1E11A2FB0E75D7EBC02090
S315080016C0A94103D2AEF1010E80185941890241EAB7
S315080016D09051760546EA8E2EB1FBF3F603FB1611FA
S315080016E0A2FB0675D7EB8020A94102D2761E801888
S315080016F05941C90241EA50514EEA060EB1FBF3F6CA
S3150800170003FB1611A2FB0675D7EBC020A94102D22E
S31508001710761E80185941C90241EA5051B1FBF3F7C8
S3150800172003FB1711A2FB0735D3EBC020A94167F1CC
S3150800173000070CBF004247F0010766F3D5274FEABA
S315080017401E31B80814F5806414DDBD0775F1004232
S3150800175050EB0E5051EB045111F5801F5CBF41EA66
S315080017600C01BDE8F0814CF07F6141F0E0410020BA
S31508001770BDE8F081BD076D0840EA0E5041F48011BE
S31508001780D4F10104B4F120060ADAC4F120060200F5
S31508001790E04001FA06F3E1401843B24015430EE073
S315080017A0342C14DCC6F1200445EA40056D0820FAFD
S315080017B006F2154321FA06F0A1400D43002175F102
S315080017C0004250F1000051EB0C01BDE8F081002009
S315080017D05FEA0C01BDE8F081CFB992185B41B3FA14
S315080017E083F704BFB2FA82F6BF190B3FB7F120069A
S315080017F02FBF02FA06F3BB40C7F1200622FA06F607
S3150800180038BF3343BA401CB1E419641E2FE77F4240
S3150800181031F00041B1FA81F404BFB0FA80F6A41998
S315080018200B3CB4F120062FBF00FA06F1A140C4F123
S31508001830200620FA06F638BF3143A0403C1B16E7BF
S31508001840AC421ABF05EA1357AF4214E050EA410604
S315080018501CBF52EA4306BFE750EA410730466146D5
S315080018601CBF41EA0551BDE8F08152EA430C08BFA6
S31508001870C143BDE8F08100204FF4001616EB410F76
S3150800188098BF16EB430F08BF16EB410F24BFC143A1
S3150800189005E016EB430F0CBF61464CEA0551BDE85F
S315080018A0F08191FBF2F303FB1211C0E90031704796
S315080018B070470000841A71EB030603D2001BB1417E
S315080018C0121973414FF4001C1CEB410F34BF7CEB1B
S315080018D0430443E00C0DA4EB1356352E50DC45EAC1
S315080018E0C323DB0A45EAC121C912B6F120050DDD7D
S315080018F063FA05F6EB4086EA0305124218BF45F07F
S315080019000105C01851F100010CD213E062FA06F580
S31508001910F2405540F3415A40B340F3405A408018CC
S31508001920594107D349085FEA30005FEA350528BF01
S3150800193045F0010501F58011420875F1004250F1A4
S31508001940000041EB0451F0BC4FF4001C1CEB410FA6
S3150800195038BF70470020090D090570471CEB410F79
S3150800196010D252EA43060BD0BCEB410F05D80C0D3A
S31508001970AB43661E342EB5DD02E0AB4380185941F1
S31508001980F0BC7047F0BC7047BFF34F8FDFF8CC0B45
S31508001990006810F4E060DFF8C81B0843DFF8BC1BDA
S315080019A00860BFF34F8F00BFFDE700B587B0DFF8CB
S315080019B0B40B04905FF08140059008208DF818005C
S315080019C010208DF8190020208DF81A00DFF8940BE6
S315080019D00190DFF8940B029008208DF80C00102077
S315080019E08DF80D0020208DF80E0001A800F0FEFDF0
S315080019F0002801D0012013E010208DF800000020F7
S31508001A008DF8010000208DF8020060208DF8030093
S31508001A10684601F03DF9002801D0012000E00020C9
S31508001A2007B000BDE0B500208DF8080002A800F058
S31508001A3015FE684600F072FE00281AD100200FE055
S31508001A40694631F910104FF47A62514348F212028E
S31508001A5091FBF2F1DFF8142B02EB40025180401C97
S31508001A600328EDDB684600F094FE00281CD1002010
S31508001A7011E001202FE0694631F9101041F2883251
S31508001A80514346F69B7291FBF2F1DFF8E02A02EB2E
S31508001A9040021181401C0328EDDB684601F06CF911
S31508001AA0002817D1002011E0012014E0694631F919
S31508001AB010104FF47A62514346F6E82291FBF2F190
S31508001AC0DFF8A82A02EB4002D181401C0328EDDB8F
S31508001AD0002000E001200EBD00B587B020208DF85B
S31508001AE0000001208DF8010008208DF80200002072
S31508001AF08DF8030000208DF8040000208DF80500FD
S31508001B00684601F075F9002801D001201AE0002086
S31508001B108DF8080000208DF8090000208DF80A00CD
S31508001B2000208DF80B00002003900020049002206E
S31508001B308DF8140002A801F069FA002801D00120E6
S31508001B4000E0002007B000BD80B5684601F022FA23
S31508001B5000280AD10099DFF80C0A01F0B1FA01F061
S31508001B601BFBDFF8081A88820AE001F09CFADFF806
S31508001B70F41901F0A5FA01F00FFBDFF8F0198882D5
S31508001B80684601F0D9F900280BD10099DFF8D40985
S31508001B9001F096FA01F000FBDFF8D019C8820020A0
S31508001BA000E0012002BD00B585B00C208DF80000CC
S31508001BB00020ADF802004FF48060ADF80400002064
S31508001BC08DF8060000208DF8070000208DF8080023
S31508001BD0002003905FF0FF300490684601F011FB87
S31508001BE005B000BD00B585B00121102001F0FDFB50
S31508001BF04FF4FA40ADF8040001F071FC6421484343
S31508001C00029001A9DFF8680901F070FC2B208DF815
S31508001C10000000208DF8010000208DF80200012048
S31508001C208DF80300684601F0CDFD01220121DFF899
S31508001C30400901F041FD0121DFF8340901F08CFC6F
S31508001C4005B000BDE0B50021DFF8240901F084FCE9
S31508001C504FF4FA40ADF8000001F041FC6421484316
S31508001C6001906946DFF8080901F040FC0121DFF818
S31508001C70000901F071FC07BD80B502F067F8DFF8CE
S31508001C80EC18888302F06CF8DFF8E018C88302F0D5
S31508001C906BF8DFF8D818088401BD0120DFF8D418DE
S31508001CA04870DFF8D408DFF8CC184880DFF8C80891
S31508001CB0DFF8C0180881DFF8C008DFF8B818C8814F
S31508001CC0DFF8B408DFF8AC188882DFF8AC08DFF86C
S31508001CD0A418C882DFF8A008DFF8981888614FF6BC
S31508001CE0FF70DFF8901888834FF6FF70DFF88418C6
S31508001CF0C883704780B50120DFF878184870FFF769
S31508001D00CCFF0020DFF8741808700020DFF86C1884
S31508001D1048800020DFF8641888805FF0FF30DFF81D
S31508001D20541848805FF0FF30DFF8481808815FF0E4
S31508001D30FF30DFF84018C8815FF0FF30DFF834184D
S31508001D4088825FF0FF30DFF82C18C8824FF6FF70E4
S31508001D50DFF8201888614FF6FF70DFF818188883B7
S31508001D604FF6FF70DFF80C18C88302F081F9FFF709
S31508001D701CFEC0B2002804D10121002000F0A0FBFF
S31508001D8007E005210A2002F002FA0021002000F0EF
S31508001D9097FBFFF7A1FEC0B2002804D1012102205B
S31508001DA000F08EFB07E00521032002F0F0F9002180
S31508001DB0022000F085FBFFF7F6FEC0B2002804D12A
S31508001DC00121012000F07CFB07E005210B2002F031
S31508001DD0DEF90021012000F073FB01F02BFDFFF76F
S31508001DE001FF01BD80B50121DFF8840701F070FC11
S31508001DF00120DFF88017087001BD00B59FB0DFF835
S31508001E0074070078002800F0BA82DFF8740702F039
S31508001E10AFFBDFF86C17052002F08AFEDFF86407CF
S31508001E200068401CDFF85C170860DFF85C0700688C
S31508001E30401CDFF854170860DFF8480700680328D5
S31508001E4017DB0020DFF83C170860DFF83C0702685C
S31508001E50DFF838170CA802F0DFFF0CA802F088FBA1
S31508001E600CA8FFF749F80CA902F062FE0CA800F0CE
S31508001E70D9FA00F0F1FA0020DFF8F8160870002009
S31508001E8000F034FB002811D0FFF7CCFDC0B20028C3
S31508001E9004D10121002000F013FB07E005210C20E6
S31508001EA002F075F90021002000F00AFB022000F07C
S31508001EB01DFB002811D0FFF747FEC0B2002804D149
S31508001EC00121022000F0FCFA07E005210D2002F0AE
S31508001ED05EF90021022000F0F3FA012000F006FB6B
S31508001EE0002804D001F0E2F9DFF880168861FFF7D0
S31508001EF0C3FEDFF87806B0F9160000281DD1DFF812
S31508001F0090060068401CDFF888160860DFF880062F
S31508001F100268DFF8801616A802F07EFF16A802F0FF
S31508001F2027FBDFF86C060068052806DB0020DFF8CB
S31508001F3060160860072000F046FADFF84006808839
S31508001F40052808DADFF834068088401CDFF82C16E6
S31508001F508880FFF7A2FE012002F078FFDFF80C0662
S31508001F60B0F90200DFF80C16B1F90210884213D155
S31508001F70DFF8F805B0F90400DFF8F815B1F9041030
S31508001F80884209D1DFF8E405B0F90600DFF8E41560
S31508001F90B1F9061088422CD0DFF8D0054088DFF862
S31508001FA0D4154880DFF8C4058088DFF8C81588800E
S31508001FB0DFF8B805C088DFF8BC158880DFF8B405F7
S31508001FC0B0F906000090DFF8AC05B0F90430DFF888
S31508001FD0A405B0F90220DFF8C01502A802F01CFF1C
S31508001FE002A802F0C5FA02A8FEF786FF02A902F0C7
S31508001FF09FFDDFF87805B0F90800DFF87815B1F924
S315080020000810884213D1DFF86405B0F90A00DFF832
S315080020106415B1F90A10884209D1DFF85005B0F9FC
S315080020200C00DFF85015B1F90C1088422CD0DFF8F7
S315080020303C050089DFF83C150881DFF83005408942
S31508002040DFF830154881DFF824058089DFF8241584
S315080020508881DFF82005B0F90C000090DFF8140538
S31508002060B0F90A30DFF80C05B0F90820DFF82C15AE
S3150800207002A802F0D1FE02A802F07AFA02A8FEF738
S315080020803BFF02A902F054FDDFF8E004B0F90E00A8
S31508002090DFF8E014B1F90E10884213D1DFF8CC044A
S315080020A0B0F91000DFF8CC14B1F91010884209D144
S315080020B0DFF8B804B0F91200DFF8B814B1F9121055
S315080020C088422CD0DFF8A404C089DFF8A814C88198
S315080020D0DFF89804008ADFF89C140882DFF88C047D
S315080020E0408ADFF890144882DFF88804B0F91200B5
S315080020F00090DFF88004B0F91030DFF87804B0F902
S315080021000E20DFF89C1402A802F086FE02A802F050
S315080021102FFA02A8FEF7F0FE02A902F009FDDFF881
S315080021204C04B0F91400DFF84C14B1F914108842C5
S3150800213028D0DFF83804808ADFF83814888201F05E
S31508002140CBF900280CD0DFF82C04B0F91400009065
S3150800215022232222DFF84C1402A802F05DFE08E0D2
S31508002160DFF81004B0F91420DFF83C1402A802F0D6
S3150800217053FE02A802F0FCF902A8FEF7BDFE02A96A
S3150800218002F0D6FCDFF8E403B0F91600DFF8E41332
S31508002190B1F91610884228D0DFF8D003C08ADFF8D4
S315080021A0D413C88201F098F900280CD0DFF8C403CC
S315080021B0B0F91600009022232222DFF8F01302A8B5
S315080021C002F02AFE08E0DFF8AC03B0F91620DFF8C3
S315080021D0E01302A802F020FE02A802F0C9F902A83C
S315080021E0FEF78AFE02A902F0A3FCDFF880038069E5
S315080021F0DFF880138969884226D0DFF87003806982
S31508002200DFF87013886101F067F900280BD0DFF852
S3150800221064038069009022232222DFF8981302A81B
S3150800222002F0FAFD07E0DFF84C038269DFF888134D
S3150800223002A802F0F1FD02A802F09AF902A8FEF738
S315080022405BFE02A902F074FCDFF82003808BDFF83E
S315080022502413898B884224D0DFF81003808BDFF89B
S315080022601413888301F038F900280AD0C148808BF6
S31508002270009022232222DFF8441302A802F0CCFDA4
S3150800228006E0BC48828BDFF8381302A802F0C4FDCA
S3150800229002A802F06DF902A8FEF72EFE02A902F0C6
S315080022A047FCB248C08BB349C98B884205D1AF48B1
S315080022B0008CB049098C884229D0AC48C08BAD49FE
S315080022C0C883AA48008CAB49088401F005F90028A0
S315080022D00CD0A848008C0190A648C08B00902223F9
S315080022E02222B84902A802F097FD07E0A148038C0C
S315080022F0A048C28BB44902A802F08EFD02A802F0DB
S3150800230037F902A8FEF7F8FD02A902F011FC9B486E
S315080023104088411C994A518080B2122809DB002066
S3150800232096494880002095498880FFF7B6FC00F05A
S31508002330B2F890484078002810D000208D4948709F
S31508002340A24AA34902A802F067FD02A802F010F902
S3150800235002A8FEF7D1FD02A902F0EAFB012002F06D
S3150800236081FD9C4802F004F99A49062002F0E0FB38
S3150800237099490CA802F050FD0CA802F0F9F81FB014
S3150800238000BD4AF6E03000E0401E0028FCD1704748
S31508002390924800E0401E0028FCD1704710B50400A2
S315080023A002E0FFF7F5FF641E012CFADA10BD80B5CE
S315080023B0012002F04BFDFFF7E4FF012002F052FD79
S315080023C0FFF7DFFF01BD38B50400200001F0C0FEAD
S315080023D0042180B201F0DBFE00250CE0012002F0AA
S315080023E035FD0120FFF7DAFF012002F03BFD012051
S315080023F0FFF7D4FF6D1CA542F0DB012002F026FD95
S315080024000A20FFF7CBFF012002F02CFD0A20FFF778
S31508002410C5FF002002F00DFE6420FFF7BFFFFFF79F
S31508002420B3FA31BD10B588B0040002F030FB0028BD
S3150800243010D014222100684602F032FE2000FEF772
S315080024405BFD152801D31434FFE7142221006846E2
S3150800245002F026FE08B010BD80B502F01CFB00286D
S3150800246010D000205E49088000F012F8002805D038
S315080024705C480088401C5B49088008E000205949F0
S31508002480088004E056480088401C5549088001BD6C
S315080024903A4800787047012038490870704700208C
S315080024A036490870704700204F49887000204E4909
S315080024B0487000204C49087000204B49C870704786
S315080024C0C0B2002805D0022809D005D3032809D0B0
S315080024D00BE04548817008E04348017005E0424832
S315080024E0417002E04048C170FFE77047C0B200285B
S315080024F005D0022809D005D3032809D00BE03A48AD
S31508002500807809E03848007806E03748407803E0E4
S315080025103548C07800E00020704710B50024002038
S31508002520FFF7E4FF002800D0641C0120FFF7DEFF58
S31508002530002800D0A41C0220FFF7D8FF002800D0EE
S31508002540241D0320FFF7D2FF002800D008342000FE
S3150800255080B210BD00200949888070470CED00E064
S315080025600400FA05000020410000FA437823002001
S31508002570001000409C230020C7CFFFFFFC2300204B
S31508002580807200080C240020082400201C70000813
S31508002590102400208C6E00084C6F0008686F000835
S315080025A0846F0008446D0008DC700008686D000838
S315080025B0F07000088C6D000804710008B06D000802
S315080025C0187100083C6B000834700008CC710008CC
S315080025D02C7100088872000890720008C0B60600C0
S315080025E030240020322400200424002010B50400E2
S315080025F000F046F8002801D001202EE0206800F0FF
S315080026004FFA002801D0012027E0606800F0A0FA00
S31508002610002801D0012020E0A27A617A207A00F011
S3150800262044F9002801D0012017E0E06800F08EF98F
S31508002630002801D0012010E0206900F0F4F90028F4
S3150800264001D0012009E0A27D617D207D00F0DCF843
S31508002650002801D0012000E0002010BD80B5002828
S3150800266001D101200BE0012302000F21D42001F043
S3150800267079FC002801D1002000E00120C0B202BD8B
S3150800268080B500208DF8000001236A461221D42067
S3150800269001F068FC002801D001203EE09DF800000A
S315080026A010F0FB008DF800009DF8000050F00400C3
S315080026B08DF8000001236A461221D42001F0F5FBAB
S315080026C0002801D0012028E001236A460A21D420E7
S315080026D001F048FC002801D001201EE09DF800000A
S315080026E010F087008DF800009DF800008DF80000B6
S315080026F09DF8000010F0F8008DF800009DF8000025
S315080027008DF8000001236A460A21D42001F0CDFB8A
S31508002710002801D0012000E0002002BD10B582B0DB
S3150800272004000020ADF8000002236A462821D420C0
S3150800273001F018FC002801D0012029E09DF80100CD
S315080027409DF8001011EB0020208002236A462A21FA
S31508002750D42001F007FC002801D0012018E09DF8DC
S3150800276001009DF8001011EB0020608002236A46E4
S315080027702C21D42001F0F6FB002801D0012007E027
S315080027809DF801009DF8001011EB0020A0800020A4
S3150800279016BD10B582B004000020ADF80000022373
S315080027A06A462221D42001F0DDFB002801D0012051
S315080027B029E09DF801009DF8001011EB002020800B
S315080027C002236A462421D42001F0CCFB002801D03C
S315080027D0012018E09DF801009DF8001011EB00207B
S315080027E0608002236A462621D42001F0BBFB00281C
S315080027F001D0012007E09DF801009DF8001011EBBB
S315080028000020A080002016BD70B582B000238DF888
S315080028100030002600250024C0B2002801D1002679
S3150800282000E00826C9B2002901D1002500E01025DC
S31508002830D2B2002A01D1002400E0202401236A46EE
S315080028401821D42001F08EFB002801D001202BE0AE
S315080028509DF8000010F0F7008DF800009DF80000C4
S3150800286030438DF800009DF8000010F0EF008DF859
S3150800287000009DF8000028438DF800009DF8000030
S3150800288010F0DF008DF800009DF8000020438DF859
S31508002890000001236A461821D42001F006FB00280F
S315080028A001D0012000E0002076BD70B582B000237B
S315080028B08DF80030002600250024C0B2002801D17A
S315080028C0002600E00826C9B2002901D1002500E04B
S315080028D01025D2B2002A01D1002400E020240123C9
S315080028E06A461921D42001F03DFB002801D00120B9
S315080028F02BE09DF8000010F0F7008DF800009DF819
S31508002900000030438DF800009DF8000010F0EF003D
S315080029108DF800009DF8000028438DF800009DF80A
S31508002920000010F0DF008DF800009DF8000020433D
S315080029308DF8000001236A461921D42001F0B5FA62
S31508002940002801D0012000E0002076BD10B582B035
S31508002950002400218DF80010002102F0D7FB01D8D1
S3150800296000243FE0DFF8E81202F0D0FB01D2102481
S3150800297038E0DFF8E01202F0C9FB01D2202431E08A
S31508002980DFF8D41202F0C2FB01D230242AE0DFF8C5
S31508002990CC1202F0BBFB01D2402423E0DFF8C012C0
S315080029A002F0B4FB01D250241CE0DFF8B81202F0A2
S315080029B0ADFB01D2602415E0DFF8AC1202F0A6FBED
S315080029C001D270240EE0DFF8A41202F09FFB01D2B8
S315080029D0802407E0DFF8981202F098FB01D29024D1
S315080029E000E0A02401236A461021D42001F0BAFA97
S315080029F0002801D0012015E09DF8000010F00F0016
S31508002A008DF800009DF8000020438DF80000012392
S31508002A106A461021D42001F048FA002801D0012086
S31508002A2000E0002016BD10B582B0002400218DF804
S31508002A300010DFF8401202F069FB01D200240EE014
S31508002A40DFF8341202F062FB01D2082407E0DFF84F
S31508002A502C1202F05BFB01D20C2400E004240123B3
S31508002A606A461021D42001F07DFA002801D0012001
S31508002A7015E09DF8000010F0F3008DF800009DF8B1
S31508002A80000020438DF8000001236A461021D42057
S31508002A9001F00BFA002801D0012000E0002016BD45
S31508002AA010B582B0002400218DF80010002102F034
S31508002AB02DFB01D800242AE0654902F027FB01D244
S31508002AC0102424E0634902F021FB01D220241EE0F1
S31508002AD0614902F01BFB01D2302418E05F4902F07D
S31508002AE015FB01D2402412E05D4902F00FFB01D22A
S31508002AF050240CE05B4902F009FB01D2602406E091
S31508002B00594902F003FB01D2702400E08024012316
S31508002B106A461121D42001F025FA002801D00120A7
S31508002B2015E09DF8000010F00F008DF800009DF8E4
S31508002B30000020438DF8000001236A461121D420A5
S31508002B4001F0B3F9002801D0012000E0002016BDED
S31508002B5038B50400002500208DF8000020004849FB
S31508002B6002F0D4FA1FD2022501236A461121D42085
S31508002B7001F0F8F9002801D0012068E09DF800006E
S31508002B8010F0FD008DF800009DF8000028438DF830
S31508002B90000001236A461121D42001F086F9002895
S31508002BA054D0012053E001236A461121D42001F0B4
S31508002BB0D9F9002801D0012049E09DF8000010F05D
S31508002BC0FD008DF800009DF800008DF80000012337
S31508002BD06A461121D42001F068F9002801D00120A5
S31508002BE035E02000274902F091FA01D200250EE0CF
S31508002BF02000254902F08AFA01D2042507E02000C0
S31508002C00224902F083FA01D2082500E00C250123A7
S31508002C106A461121D42001F0A5F9002801D0012027
S31508002C2015E09DF8000010F0F3008DF800009DF8FF
S31508002C30000028438DF8000001236A461121D4209C
S31508002C4001F033F9002801D0012000E0002032BD50
S31508002C50010050410100D041010050420100D0421C
S31508002C60010050430100D043014050440180CF4445
S31508002C70012050450100004001008040010000414C
S31508002C800100FA42010075430100FA4301007A4443
S31508002C9010B582B0040000208DF8000001236A46B2
S31508002CA022213C2001F05EF9002801D0012062E0D3
S31508002CB09DF8000010F0FC008DF800009DF800005B
S31508002CC0617808438DF8000001236A4622213C20DA
S31508002CD001F0EBF8002801D001204CE001236A46F8
S31508002CE020213C2001F03EF9002801D0012042E0D5
S31508002CF09DF8000010F0E3008DF800009DF8000034
S31508002D00217808438DF800009DF8000010F09F0018
S31508002D108DF800009DF80000E17808438DF8000062
S31508002D2001236A4620213C2001F0BFF8002801D083
S31508002D30012020E001236A4621213C2001F012F9F6
S31508002D40002801D0012016E09DF8000010F09F0031
S31508002D508DF800009DF80000A17808438DF8000062
S31508002D6001236A4621213C2001F09FF8002801D062
S31508002D70012000E0002016BD10B582B00400002036
S31508002D80ADF8000002236A46A8213C2001F0EAF8C3
S31508002D90002801D0012029E09DF801009DF80010C7
S31508002DA011EB0020208002236A46AA213C2001F06C
S31508002DB0D9F8002801D0012018E09DF801009DF8F7
S31508002DC0001011EB0020608002236A46AC213C20EB
S31508002DD001F0C8F8002801D0012007E09DF801009D
S31508002DE09DF8001011EB0020A080002016BD000001
S31508002DF010B582B0040000208DF8000000F0E1F85C
S31508002E00002801D0012074E001236A4620217C486D
S31508002E10007801F0A7F8002801D0012069E09DF8A4
S31508002E20000010F08F008DF800009DF80000217852
S31508002E3008438DF800009DF8000010F0F7008DF8A3
S31508002E4000009DF80000E17808438DF800009DF821
S31508002E50000010F0FB008DF800009DF800002179B5
S31508002E6008438DF800009DF8000010F0FE008DF86C
S31508002E7000009DF80000617908438DF800000123E1
S31508002E806A4620215E48007801F00FF8002801D034
S31508002E9001202EE001236A4610215948007801F0E6
S31508002EA061F8002801D0012023E09DF8000010F009
S31508002EB0FC008DF800009DF80000617808438DF845
S31508002EC000009DF8000010F0F3008DF800009DF852
S31508002ED00000A17808438DF8000001236A461021F6
S31508002EE04748007800F0E1FF002801D0012000E003
S31508002EF0002016BD38B50400002503236A46A8211C
S31508002F003F48007801F02EF8002801D0012012E091
S31508002F10002007E06946C0B2095CC0B2C200914011
S31508002F200D43401CC0B20328F4DB280201D555F036
S31508002F307F452560002032BD10B582B00400002010
S31508002F4000906846FFF7D6FF002801D0012008E068
S31508002F50009802F0EDF85FF08B4102F003F920606B
S31508002F60002016BD10B582B00400002002236A4670
S31508002F70AB212348007800F0F5FF002801D0012096
S31508002F8007E09DF801009DF8001011EB0020208055
S31508002F90002016BD10B582B004006846FFF7E2FFB0
S31508002FA0002801D001200BE0BDF9000002F0C0F8AE
S31508002FB0144902F0D7F8144902F052F920600020AB
S31508002FC016BD80B501236A4620210D48007800F019
S31508002FD0C9FF002801D0012011E09DF8000050F03B
S31508002FE080008DF8000001236A46202104480078F5
S31508002FF000F05BFF002801D0012000E0002002BDA0
S31508003000AC0200200000F04300002A4210B504007C
S3150800301000220020002C01D1012043E0607810F046
S3150800302018000243A07810F004000243E07810F07C
S3150800303002000243207810F001000243D2B20121B7
S31508003040922000F0F0FEC0B2002801D0C0B229E0FC
S3150800305061685FF0874000F033F800F09DF80200E1
S3150800306092B20321922000F0E6FEC0B2002801D0F9
S31508003070C0B217E0A1685FF0874000F021F800F0C1
S315080030808BF8020092B20321922000F0D4FEC0B25F
S31508003090002801D0C0B205E0227B0421922000F06E
S315080030A0C2FEC0B210BD80B50021922000F0D5FE48
S315080030B002F048F85FF0874102F054F802BD0000BC
S315080030C0FF2212EAD05C1DBF12EAD15394459342FF
S315080030D02BE09C44D30780EA01021A4043EA002009
S315080030E043EA0121A1FB0030410038BF40007CF1D2
S315080030F07F010BDBFE294ADA5B0842EAC15153EA33
S31508003100006373F1004C51EB10207047D1F1080CA5
S31508003110DCF120012FDB5B0810FA01F10B4373F198
S31508003120004120FA0CF05041704794451CBF02EA52
S31508003130D153934280EA010202F000421DD04000BA
S3150800314019D0490017D05BB9634514D00902B1FA02
S3150800315081F39940BCEB030CC00140F00040C1E785
S315080031600002B0FA80FC10FA0CF0B3EB0C0CC901A3
S3150800317041F00041B6E71000704740000AD0490008
S3150800318008D010F1807F94BF11F1807F02E042F0F1
S31508003190FF407047D04370474100090E7F3915D468
S315080031A0D1F11F0114D4400007D2C00140F00040FD
S315080031B0C84048BF6FF000407047C00140F000406B
S315080031C0C8404CBF4FF0004040427047002070474F
S315080031D000424FF0004058BFC0437047002101E04D
S315080031E04008491CB0F5805FFAD250EA013080B237
S315080031F0704780B20105090D80B2000B11FA00F084
S31508003200704738B5040000250020002C01D10120A4
S315080032104BE07E21882000F020FE45F24941884295
S3150800322007D17F21882000F018FE43F20101884269
S3150800323001D0012039E0207855EA0035608810F47D
S3150800324000600543A08810F4C0600543A07910F01B
S3150800325010000543E07910F008000543207A10F0C5
S31508003260030005432A0092B20121882000F0E3FDFD
S31508003270C0B2002801D0C0B217E0E068FFF7AEFF81
S31508003280020092B20221882000F0D5FDC0B20028C3
S3150800329001D0C0B209E02069FFF7A0FF020092B290
S315080032A00321882000F0C7FDC0B232BD80B50021D9
S315080032B0882000F0D2FD80B2FFF79BFF02BD000018
S315080032C0C0B2DFF8501108607047002100210022C3
S315080032D00023002100214D49096811F00C0100293D
S315080032E006D0042911D0082912D00C2913D031E0B0
S315080032F047490968C1F342310122491C12FA01F112
S315080033004FF400425143016030E0434901602DE02B
S31508003310424901602AE03D49096811F470113B4AA7
S31508003320126812F440023E4B890C595C920D521CED
S31508003330364B1B6813F48033002B05D1364B5943A3
S31508003340B1FBF2F1016004E0344B5943B1FBF2F1F1
S3150800335001600BE02E490968C1F342310122491C7C
S3150800336012FA01F14FF400425143016027490968F6
S3150800337011F0F00109092B4A515C0268CA40426003
S315080033802249096811F4E061090A264A515C426833
S31508003390CA4082601D49096811F46051C90A214A68
S315080033A0515C4268CA40C2607047C9B2002905D05C
S315080033B01D49096808431C49086005E01A49096857
S315080033C031EA0000184908607047C9B2002905D0DB
S315080033D01649096808431549086005E0134909684C
S315080033E031EA0000114908607047C9B2002905D0C2
S315080033F00F49096808430E49086005E00C49096841
S3150800340031EA00000A49086070470000083802409F
S3150800341004380240000047420024F40000127A00F3
S315080034208C020020980200201C38024020380240F6
S3150800343024380240704780B50020182229492A48B6
S3150800344001F0AAFFC0B2002801D0002007E02548F5
S315080034500068B0F15A3F01D1012000E0002002BD0A
S3150800346080B500205FF05A301E49086064201D4967
S31508003470486001201B49087200201A4988720020FA
S315080034801849487218200090164B174A0021002048
S3150800349001F028FFC0B202BD80B501000020114826
S315080034A04160FEF7CFFB182000900E4B0E4A002114
S315080034B0002001F017FFC0B202BD80B50100002050
S315080034C00848017218200090064B074A0021002080
S315080034D001F008FFC0B202BD0248007A70470148F1
S315080034E040687047E4230020008001080022028813
S315080034F0B0F1804F08D0114B984205D0104B984236
S3150800350002D0104B984204D14FF68F731A404B885D
S315080035101A430D4B984207D00C4B984204D04FF6ED
S31508003520FF431A400B891A4302804A68C262098817
S3150800353001850121818270470000000000040040D7
S3150800354000080040000C0040001000400014004035
S3150800355041627047C1627047C9B2002904D0018828
S3150800356051F00101018004E001884FF6FE72114016
S315080035700180704710B400220023028C4FF6EF73C7
S315080035801A400284038C028B48F6FF7422400C888A
S3150800359052EA04224FF6DF7423400C8953EA0413D7
S315080035A04C8853EA0413496881630283038410BC78
S315080035B0704710B400220023028C4EF6FF731A409F
S315080035C00284038C828B48F6FF7422400C8852EAE8
S315080035D004224DF6FF7423400C8953EA04334C88C1
S315080035E053EA0433496801648283038410BC704734
S315080035F0816370470164704738B504000D00288858
S3150800360000280AD12B89AA886988200000F06AF860
S31508003610E988200000F02AF825E0288804280AD13D
S315080036202B89AA886988200000F076F8E9882000A6
S3150800363000F025F817E0288808280AD12B89AA88D7
S315080036406988200000F085F8E988200000F021F854
S3150800365009E02B89AA886988200000F096F8E9888D
S31508003660200000F01FF831BDC06B7047028B4FF683
S31508003670F3731A400283028B114301837047028B4E
S315080036804FF2FF331A400283028B52EA012101836B
S315080036907047828B4FF6F3731A408283828B1143ED
S315080036A081837047828B4FF2FF331A408283828B65
S315080036B052EA012181837047D2B2002A03D0828957
S315080036C01143818103E0828932EA010181817047D1
S315080036D089B2C9430182704701894FF6F8721140D1
S315080036E00181704770B400240025048C4FF6FE75DE
S315080036F02C400484048B058C4FF60C76344052EA31
S31508003700031214434FF6F572154051F001010D43AB
S315080037100483058470BC704770B400240025002615
S31508003720048C4FF6EF752C400484048B058C0E012F
S3150800373040F6FF410C4054EA033454EA02244FF69B
S315080037405F710D4056F010010D430483058470BC6B
S31508003750704770B4002400250026048C4FF6FF65D8
S315080037602C400484848B058C0E024FF60C710C4099
S3150800377052EA03110C434FF2FF510D4056F4807183
S315080037800D438483058470BC704770B400240025FB
S315080037900026048C4EF6FF752C400484848B058C19
S315080037A00E0340F6FF410C4054EA022454EA03345F
S315080037B045F6FF710D4056F480510D438483058408
S315080037C070BC7047002100220F23C17800291ED043
S315080037D01449096811F4E061D1F5E061090AD1F1EB
S315080037E00402DBB20B414178914082781A401143BA
S315080037F009010D4A0378D1540121027812F01F02FB
S3150800380091400A4A0078401142F8201009E0012147
S31508003810027812F01F029140054A0078401142F8DA
S31508003820201070470CED00E000E400E000E100E045
S3150800383080E100E000B59BB00121DFF83405FFF711
S31508003840D4FD01214FF40170FFF7BFFD01210320CC
S31508003850FFF7ABFD0120FFF733FD0E220521DFF848
S31508003860140501F0FFFD01220321DFF80C0501F024
S31508003870F9FD0E220421DFF8000501F0F3FD02220E
S315080038800121DFF8F00401F0EDFD0E220021DFF83A
S31508003890E40401F0E7FD0420009001208DF80400FF
S315080038A000208DF8060000208DF8070001208DF80D
S315080038B005006946DFF8C00401F078FD01220421FD
S315080038C0DFF8B40401F0C7FD0820009002208DF847
S315080038D0040001208DF8060000208DF8070001205D
S315080038E08DF805006946DFF8900401F05FFD0220B7
S315080038F0009002208DF8040000208DF806000020B4
S315080039008DF8070003208DF805006946DFF8640482
S3150800391001F04CFD2020009003208DF804000020C3
S315080039208DF8070001208DF805006946DFF8440484
S3150800393001F03CFD102000906946DFF83C0401F0D8
S3150800394035FD012000906946DFF8280401F02EFDB8
S315080039505FF08040FFF7C0FE0020ADF82000002091
S31508003960ADF81A000020ADF818004FF47A40079019
S3150800397006A95FF08040FFF7B9FD0820ADF85C00A6
S315080039800020ADF85E000220ADF8600017A95FF0D0
S315080039908040FFF731FE7020ADF80C000020ADF82E
S315080039A014000120ADF80E000020049003A95FF072
S315080039B08040FFF7FEFD4FF4A0715FF08040FFF7EF
S315080039C019FE02201390002010900020119000206C
S315080039D0129010A9002001F06DFD0121002001F0D0
S315080039E080FD40F25C41002001F091FD002014901A
S315080039F05FF4C01015900020169014A801F098FDE9
S31508003A000121202001F0A6FD0121DFF8700301F055
S31508003A10A1FD1C208DF8080000208DF80900002063
S31508003A208DF80A0001208DF80B0002A8FFF7CAFEE0
S31508003A30012201215FF08040FFF73EFE01215FF081
S31508003A408040FFF789FDDFF83803FFF745FE0020C1
S31508003A50ADF820000020ADF81A000020ADF81800D7
S31508003A600020079006A9DFF81803FFF73FFD60203E
S31508003A70ADF80C000020ADF814000120ADF80E00DA
S31508003A800020049003A9BE48FFF793FD0121BC4816
S31508003A90FFF762FD5FF48030099009A801F0A9FDDF
S31508003AA000208DF82D0000200E9000200D905FF06C
S31508003AB080500C9001208DF83C0000200A900020D0
S31508003AC08DF82C000AA9AF4801F06EFD05230122E6
S31508003AD00821AC4801F0AAFD0121AA4801F093FD8E
S31508003AE04021A84801F05BFE0028F9D04FF4807108
S31508003AF0A44801F054FE0128F8D0A348FFF7ECFDCE
S31508003B000020ADF820000020ADF81A000120ADF81D
S31508003B10180041F63F70079006A99B48FFF7E6FC98
S31508003B206020ADF80C000020ADF814000120ADF8B7
S31508003B300E000020049003A99348FFF71BFD4FF4DD
S31508003B40F0519148FFF754FD19208DF80800002020
S31508003B508DF8090000208DF80A0001208DF80B0069
S31508003B6002A8FFF72FFE012201218748FFF7A4FDCF
S31508003B7001218548FFF7F0FC1BB000BD80B5012187
S31508003B805FF08040FFF7A4FD5FF08040FFF76CFD13
S31508003B907E4909687D4A126880B28018B0EBD11058
S31508003BA07A4908607948006878494968774A5268C6
S31508003BB012EBD010B0EB11207449486073480068C6
S31508003BC0C00972494968B0EB11207049097A002981
S31508003BD010D111281FDB01206C49087200206B499F
S31508003BE048816A48007B401C68490873022001F036
S31508003BF02DF910E065494989491C644A5181634990
S31508003C004989FA2907D3042805DA00205F4908728A
S31508003C10022001F027F95D48008C401C5B490884A6
S31508003C205A48008CB0F5FA7F36D3002057490884E5
S31508003C305648007B5549554A527E11444873002020
S31508003C40524908735148407E401C504948764F48AF
S31508003C50407E0C2802DB00204C49487600200021D3
S31508003C6004E04A4A0A44527B1018491C0C29F8DB1E
S31508003C70002807D14548C069002802D05FF0FF3008
S31508003C8000E000204149C969404AD2698018891C68
S31508003C90B0EB91003D49C86101BD10B501213A4814
S31508003CA0FFF716FD3A480088962818DA354801F0D5
S31508003CB073FD3749364A128801EB82014968344A4E
S31508003CC0334B1B8802EB8302526880B28018B0EB34
S31508003CD011102F492E4A128801EB820148602C48A0
S31508003CE00088401C2A49088029480088962818DB3D
S31508003CF0002027490880002000210DE0244A02EB15
S31508003D0081025268904206D2214800EB8100406841
S31508003D101F4AA2F85C12491C9629EFDB1C49A1F838
S31508003D205E021C481A49098830F81140A4B2611E7F
S31508003D301348FFF70FFCA4B2610889B21048FFF7D1
S31508003D4059FC00210E48FFF703FC10BD0F48C06957
S31508003D50642148430C21B0FBF1F0800880B270471B
S31508003D600B48B0F85C0270470948B0F85E02704725
S31508003D70030000A000040240000002400001008089
S31508003D80000400400024014000080140C023002030
S31508003D90080000208C6700081CB50024C02000908D
S31508003DA000208DF8040000208DF8070001208DF80A
S31508003DB005006946DFF8480301F0F8FAFEF7E1FA6C
S31508003DC04021DFF83C0301F083F8002813D10321D2
S31508003DD0052000F0DCF900210320FEF771FB012421
S31508003DE08021C74801F074F8002819D1032106205C
S31508003DF000F0CDF914E08021C14801F069F80028E7
S31508003E0009D10321062000F0C2F900210320FEF79C
S31508003E1057FB012404E001210320FEF751FB00248F
S31508003E202000C0B216BD04B501236A46C9B2C0B2A5
S31508003E3000F03BF802BD80B5ADF800209DF80020E3
S31508003E409DF801308DF800308DF8012002236A466E
S31508003E50C9B2C0B200F029F802BD80B502236A468D
S31508003E60C9B2C0B200F07EF800280AD19DF8000059
S31508003E709DF801108DF800108DF80100BDF80000BE
S31508003E8001E04FF6FF7002BD38B504004FF4204537
S31508003E9021009C4801F03DFD012804D06D1E002D2F
S31508003EA0F6D1032000E0002032BDF8B504000D006D
S31508003EB016001F0094480078002851D10120924925
S31508003EC00870032000F0C2FF01218E4801F0E6FCCD
S31508003ED08E48FFF7D9FF032804D100208A490870C5
S31508003EE003203EE000222100C9B2864801F000FD09
S31508003EF08748FFF7C9FF032804D1002082490870C4
S31508003F0003202EE02900C9B27E4801F0FCFC814856
S31508003F10FFF7BAFF032804D100207B490870032065
S31508003F201FE0BFB2002F0FD03178764801F0EBFCC6
S31508003F30761C7F1E7848FFF7A7FF0328F1D10020DB
S31508003F407149087003200CE001216E4801F0B4FCA9
S31508003F50032000F087FF00206B490870002000E06E
S31508003F600220F2BDF8B504000D0016001F006B48CC
S31508003F70007800287AD1012068490870032000F0EB
S31508003F8065FF01215F4801F089FC6048FFF77CFF67
S31508003F90032804D1002061490870032067E0002245
S31508003FA02100C9B2574801F0A3FC5948FFF76CFF36
S31508003FB0032804D1002059490870032057E0290036
S31508003FC0C9B2504801F09FFC5348FFF75DFF03282C
S31508003FD004D1002051490870032048E001214948CE
S31508003FE001F05CFC4948FFF74FFF032804D1002085
S31508003FF04A49087003203AE001222100C9B2414823
S3150800400001F076FC4648FFF73FFF03280AD1002057
S315080040104249087003202AE03A4801F077FC3070DC
S31508004020761C7F1EBFB2002F10D0BFB2012F03D15E
S315080040300021344801F04EFC3A48FFF725FF0328D3
S31508004040EAD1002035490870032010E001212D48E7
S3150800405001F032FC01212B4801F03CFC032000F062
S3150800406001FF00202D490870002000E00220F2BD63
S3150800407000B587B001215FF40010FFF7B6F90121FA
S315080040800220FFF792F9042206211D4801F0EAF9F9
S31508004090042207211A4801F0E5F9C0200090022001
S315080040A08DF8040001208DF8060001208DF8070020
S315080040B001208DF805006946114801F077F944F6A4
S315080040C0206002900020ADF80C004BF6FF70ADF8AA
S315080040D00E000020ADF810004FF48060ADF8120015
S315080040E04FF48040ADF8140002A9064801F062FBBF
S315080040F00121044801F0C4FB002007B000BD000000
S315080041000004024000540040372400200100030048
S31508004110820007008000070084000700382400207A
S315080041200200030040000300401C80B2642800DB44
S31508004130002080B2704710B50C0080B2FFF7F4FF7C
S31508004140A4B2A04201D1012000E00020C0B210BDF7
S3150800415002280CD003280CD004280CD005280CD033
S3150800416006280CD007280CD020280CD00DE00220F9
S315080041700CE002200AE0042008E0082006E00720F8
S3150800418004E0012002E0092000E00920704730B56C
S3150800419095B004000D001E48B0F822131C48B0F86C
S315080041A02003FFF7C8FF002801D001202CE018489B
S315080041B01749B1F8201300EBC1004580144814498B
S315080041C0B1F8201320F8314000201149104AB2F8FE
S315080041D0202301EBC20148600D48B0F82003FFF721
S315080041E0A3FF0B49A1F820030A48A4B250F82430CB
S315080041F00948ADB250F825200849684600F00CFE7B
S31508004200684600F0B5F9C0B215B030BD0000000030
S315080042104C1D0020B8680008D46D0008A471000879
S31508004220012110F01F029140DFF8802340B24009B7
S3150800423042F820107047012110F01F029140DFF864
S31508004240702340B2400942F820107047401CC0B2A3
S31508004250322800DB0020C0B2704710B50C00C0B28F
S31508004260FFF7F4FFE4B2A04201D1012000E00020EC
S31508004270C0B210BDC0B2C9B2401A002800D532304B
S31508004280C0B2704710B540F22771DFF8280301F075
S31508004290FFFB012805D1002240F22771C54801F02D
S315080042A0C1FB40F26531C34801F0F2FB012803D196
S315080042B0C04801F0B3FB28E040F22551BD4801F0A3
S315080042C0E7FB012821D1BB4801F0A8FB0400BA4846
S315080042D090F83310B84890F83200FFF7BEFF002870
S315080042E013D1B548B44991F832104454B24890F8FD
S315080042F03200FFF7ABFFB04981F83200E4B20D2C6B
S3150800430003D10120AC4981F8340010BDAA4890F8C1
S31508004310340070470020A84981F83400704710B56A
S3150800432004001CE0A44890F83300A34991F8321021
S31508004330884214D02520FFF77EFF9F489E4991F8B2
S315080043403310405C2070641C9B4890F83300FFF7DC
S315080043507DFF994981F833002520FFF761FF9648CC
S31508004360954991F83310405C0D2809D0924890F889
S315080043703210914890F83300FFF77CFF0028D1D11E
S315080043808D488D4991F83310405C0D280DD12520B4
S31508004390FFF751FF884890F83300FFF757FF864923
S315080043A081F833002520FFF73BFF00202070641CAE
S315080043B0FFF7B0FF10BD00B587B000207E4981F831
S315080043C0340000207C4981F8330000207A4981F8BE
S315080043D0320001214FF48040FEF7F7FF012101204A
S315080043E0FEF7F3FF07220921744801F03BF807227C
S315080043F00A21724801F036F84FF4C0600190022095
S315080044008DF8080000208DF80A0000208DF80B00B2
S3150800441001208DF8090001A9684800F0C7FF4FF48C
S31508004420964003900020ADF818000C20ADF8160051
S315080044300020ADF814000020ADF812000020ADF8F9
S31508004440100003A95B4801F079FA012240F22551D0
S31508004450584801F0E7FA01226021564801F0E2FACD
S3150800446025208DF8000000208DF8010000208DF829
S31508004470020001208DF803006846FFF7A3F9012121
S315080044804C4801F0B9FA01204D49086000204D4911
S31508004490088007B000BD4FF4DC7000E0401E00281D
S315080044A0FCD1704738B50400012502E0FFF7F3FF99
S315080044B0641EEDB2002D0AD080213E4801F0DBFAD9
S315080044C0012801D1002502E0002CEFD10025002C9F
S315080044D001D0002000E0032032BD38B504001500E5
S315080044E0002037480068012801D022283ED1002C38
S315080044F002D089B2002901D1012038E0304800688D
S31508004500222803D132202E4A106002E012202C4ABB
S3150800451010602C48018005E02178641C89B2254882
S3150800452001F078FA2748008800280BD0254800882B
S31508004530401E244908802800FFF7B4FF0028EBD066
S31508004540032014E02800FFF7ADFF002801D0032060
S315080045500DE01B480068322803D12220184908605C
S3150800456002E0012016490860002000E0022032BD62
S3150800457010B504002000FCF7BFFC80B2512801DB0F
S31508004580012011E00E490968012901D002200BE03B
S315080045900D4A010089B22000FFF79FFFC0B200282C
S315080045A001D0C0B200E0C0B210BD000000E100E0DA
S315080045B080E100E000380140182300200000024096
S315080045C02C24002034240020E0930400012110F05C
S315080045D01F029140DFF8742740B2400942F82010C4
S315080045E07047012110F01F029140DFF8642740B29E
S315080045F0400942F82010704780B5DFF8582712683E
S315080046001071DFF8500700684171DFF84C07DFF8D2
S31508004610441709680860DFF83C070068011DDFF8E1
S3150800462034070068006801F0FCFADFF83007006814
S31508004630001D02BD00B587B001215FF48020FEF79A
S31508004640D4FE01210220FEF7B0FE07220A21DFF878
S31508004650100700F007FF07220B21DFF8040700F018
S3150800466001FF07220D21DFF8F80600F0FBFE0722FE
S315080046700E21DFF8EC0600F0F5FE4FF4D840009066
S3150800468002208DF8040000208DF8060000208DF821
S31508004690070001208DF805006946DFF8C40600F01A
S315080046A085FE4FF40040009001208DF8040001209B
S315080046B08DF8060001208DF8070001208DF8050009
S315080046C06946DFF89C0600F071FE5FF4E13003905E
S315080046D04FF44070ADF818000C20ADF81600002015
S315080046E0ADF814000020ADF812000020ADF8100057
S315080046F003A9DFF8700601F021F9012240F22551DD
S31508004700DFF8600601F08EF901226021DFF8540611
S3150800471001F088F927208DF8080000208DF8090097
S3150800472000208DF80A0001208DF80B0002A8FFF77B
S3150800473049F80121DFF82C0601F05EF90020DFF8C0
S315080047402816A1F820030020DFF8201681F8960124
S315080047500020DFF8181681F897010020DFF80C16FC
S3150800476081F8980107B000BD401CC0B2C82800DB1C
S315080047700020C0B27047C0B2C9B2401A002800D59E
S31508004780C830C0B2704738B504000D0020E02720B5
S31508004790FFF727FF0020DFF8D41581F89501DFF829
S315080047A0CC05DFF8C81591F89311084490F8CA00AB
S315080047B028706D1CDFF8B40590F89301FFF7D4FF55
S315080047C0DFF8A81581F893012720FFF7FFFE641E7E
S315080047D0002C16D0DFF8940590F89301DFF88C15B5
S315080047E091F892118842D2D1012240F22551DFF880
S315080047F0740501F017F901226021DFF8680501F058
S3150800480011F9002032BDDFF8640590F8950170476C
S3150800481080B5FFF70FFF4FF40041DFF8440500F0BD
S3150800482018FE0FF20D30DFF848150860DFF844056A
S31508004830DFF844150860DFF84405DFF8441508601A
S31508004840FDF79FFD4FF40041DFF8140500F0FFFD6A
S3150800485001BD10B586B00024DFF81005D0F89C011C
S31508004860002805D101F0CFF9DFF80015C1F89C0141
S31508004870DFF8F804D0F89C01002800F00681DFF87C
S31508004880EC04D0F89C010068DFF8F8140840DFF85B
S31508004890D814DFF8D424B2F8202341F82200DFF830
S315080048A0C804B0F82003C0B2FFF75EFFDFF8B814FB
S315080048B0A1F82003DFF8B404D0F89C010068DFF8FB
S315080048C0C4140840DFF8C0140860DFF8BC040068A8
S315080048D0A02800F08B80DFF8B41488422ED0DFF8C9
S315080048E0B014884257D0DFF8AC14884200F08480B0
S315080048F0DFF8A41488422ED0DFF8A01488427BD0B3
S31508004900DFF89C14884259D0DFF89814884200F0E2
S315080049109280DFF8941488425BD0DFF890148842BE
S3150800492064D0DFF88C14884260D0DFF88814884297
S3150800493062D0DFF88414884258D086E0DFF87C0419
S31508004940FFF716FEDFF87804FDF76CFD0120DFF8A7
S315080049501C1481F896010020DFF8101481F89701DD
S3150800496002210220FFF748FE0088FF2812DCE4B285
S31508004970002C0AD1DFF84C04FFF7FAFDDFF84804EB
S31508004980FDF750FD0620FDF71EFD0020DFF8DC13BD
S31508004990C1F89C0169E0DFF83404FFF7E9FDDFF8A8
S315080049A03004FDF73FFD0120DFF8C01381F89701B9
S315080049B00020DFF8B813C1F89C0156E0A1A0FFF764
S315080049C0D7FDFDF76CFD0020DFF8A013C1F89C01A8
S315080049D04BE0FDF7ECFC9CA0FFF7CAFDFDF75FFD79
S315080049E00020DFF88813C1F89C013EE00020DFF8BC
S315080049F07C13C1F89C0138E0DFF8D803FFF7B8FD4F
S31508004A00DFF86803D0F89C01807A00280DD0DFF81B
S31508004A105C03D0F89C0110F10B02DFF8BC13684662
S31508004A2000F0FAF96846FFF7A3FD0020DFF83C130B
S31508004A30C1F89C0119E0DFF8A403FFF799FD0020EF
S31508004A40DFF82813C1F89C010FE0DFF83C03026881
S31508004A50DFF88C13684600F0DFF96846FFF788FD33
S31508004A600020DFF80813C1F89C01DFF8000390F86E
S31508004A709311DFF8F80290F89201FFF77CFE002800
S31508004A8003D00120B94981F8950106B010BDB74891
S31508004A9090F896017047B54890F897017047B34863
S31508004AA090F89801704780B540F22771AD4800F03C
S31508004AB0EFFF01281FD1AD4890F8C900AB4991F81E
S31508004AC0C810884211D0A948A84991F8C910415C74
S31508004AD089B2A44800F09EFFA44890F8C900FFF7E1
S31508004AE043FEA24981F8C90005E0002240F2277179
S31508004AF09C4800F097FF40F265319A4800F0C8FFDD
S31508004B00012807D10020994981F89401954800F0B9
S31508004B1085FF0CE040F22551924800F0B9FF0128C4
S31508004B2005D1904800F07AFFC0B200F08FF801BDB9
S31508004B30F8B504000D0054F07F408B498A4AB2F854
S31508004B40202341F822008848B0F82003C0B2FFF7B6
S31508004B500BFE8549A1F8200328786978090411EB2A
S31508004B600060A97810EB0120E97808187E497E4A8A
S31508004B70B2F8202341F822007B48B0F82003C0B2DF
S31508004B80FFF7F2FD7849A1F8200328796979090425
S31508004B9011EB0060A97910EB0120E9790818724930
S31508004BA0714AB2F8202341F822006F48B0F8200372
S31508004BB0C0B2FFF7D9FD6C49A1F820034FF4FA6794
S31508004BC020E028786949694A92F8C820885427203D
S31508004BD0FFF707FD654890F8C800644991F8C910C1
S31508004BE0884205D1012240F227715E4800F01AFF7B
S31508004BF05E4880F8C8602720FFF7E8FC641E6D1C35
S31508004C004FF4FA67002C1CD0584890F8C800FFF7F4
S31508004C10ABFD06003000554991F8C910C0B288426C
S31508004C20CFD13800471E0028ECD100204F4981F823
S31508004C30960102210F20FFF7AAFA0820FDF7C3FB09
S31508004C40E0E7F1BD2D2A2D002D4F2D0010B590B0AF
S31508004C5000246449644A1278885463490978491CCF
S31508004C60614A1170C0B20A286CD100205E490870EA
S31508004C705C4A5E49684600F0CFF86846FFF778FC5C
S31508004C800400E4B2002C02D02000C0B25CE004228A
S31508004C905749544800F0ECFF002808D10120334951
S31508004CA081F896015348FFF763FC04004AE009229D
S31508004CB051494C4800F0DCFF002808D101202B4957
S31508004CC081F897014D48FFF753FC04003AE00C229F
S31508004CD04B49444800F0CCFF002810D10020234956
S31508004CE081F897010020214981F89801FCF7D5FF42
S31508004CF0FDF730FC4348FFF73BFC040022E00422A2
S31508004D004149384800F0B4FF002808D10120174966
S31508004D1081F898013D48FFF72BFC040012E00822B1
S31508004D203B49304800F0A4FF002807D102210E2095
S31508004D30FFF72DFA0E20FDF746FB03E03548FFF78F
S31508004D4017FC04002000C0B210B010BD00E100E05E
S31508004D5080E100E00000002020020301040000209A
S31508004D600004024000480040281A00207020002055
S31508004D701424002087470008182400200748000844
S31508004D801C240020F800FFFF28240020A0000100B2
S31508004D90A0000800A0000900A0000801A000080261
S31508004DA020000A02A0000B02A0000A0320000A0540
S31508004DB0A000000820000908A00000204071000893
S31508004DC0DC7100084C700008547100086470000813
S31508004DD068710008AC6E00082C720008A06F000805
S31508004DE0387200085023002036240020BC6F0008C3
S31508004DF098720008EC710008447200087C7100087B
S31508004E00FC7100080C720008A07200087C7000088B
S31508004E1050720008907100080CB41CB5044604A82A
S31508004E2001900A46009401AB694607487844183051
S31508004E30FBF760F9009A0021117000285CBF009802
S31508004E40001B16BC5DF80CFB8FC0FFFF80B50B4935
S31508004E50C0B231F810100A4AC0B252F8200000F069
S31508004E60F6FA01BD80B50549C0B231F81010044AFA
S31508004E70C0B252F8200000F0ECFA01BDB871000883
S31508004E806802002080B50120FFF7E0FF0120FDF74A
S31508004E9085FA0120FFF7E6FF0120FDF77FFA0220D9
S31508004EA0FFF7D4FF0120FDF779FA0220FFF7DAFFB2
S31508004EB00120FDF773FA0320FFF7C8FF0120FDF76D
S31508004EC06DFA0320FFF7CEFF0120FDF767FA01BD53
S31508004ED0008A89B2084201D0012000E00020C0B251
S31508004EE07047000000B583B001211020FEF76DFA67
S31508004EF001210320FEF759FA03220921664800F02A
S31508004F00B1FA4FF49070009001208DF8040000204B
S31508004F108DF8060000208DF8070001208DF80500A1
S31508004F2069465E4800F042FA4FF490715B4800F01B
S31508004F3090FA8020009001208DF8040001208DF859
S31508004F40060000208DF8070001208DF80500694647
S31508004F50524800F02BFA8021504800F078FA0120D8
S31508004F60009001208DF8040000208DF8060000202E
S31508004F708DF8070001208DF805006946474800F0BE
S31508004F8015FA0420FFF762FF0220009001208DF831
S31508004F90040000208DF8060000208DF80700012087
S31508004FA08DF8050069463D4800F000FA0520FFF730
S31508004FB04DFF4FF40070009001208DF8040000208A
S31508004FC08DF8060000208DF8070001208DF80500F1
S31508004FD06946314800F0EAF94FF4807000900120E4
S31508004FE08DF8040000208DF8060000208DF80700D3
S31508004FF001208DF805006946274800F0D7F90320F7
S31508005000FFF730FF4FF48050009001208DF8040020
S3150800501000208DF8060000208DF8070001208DF885
S31508005020050069461C4800F0C1F90220FFF71AFF7F
S3150800503007BD80B5C0B201280BD0022813D0802145
S31508005040164800F006FA4FF48071144800F001FA89
S3150800505012E08021114800F0FAF94FF480710F48E8
S3150800506000F0F7F908E080210C4800F0F2F94FF457
S3150800507080710A4800F0EBF901BD80B5C0B200287E
S3150800508004D02021054800F0E2F903E02021034876
S3150800509000F0DFF901BD00000004024000000240F4
S315080050A001B58B0718D1121F21D351F8043BA3F180
S315080050B0013C2CEA030C1CF0803C04BF40F8043B7E
S315080050C0F1E79CFA8CFCBCFA8CF1C1F118018B4013
S315080050D0CB4040F8043B13E0042A09D311F8013BFE
S315080050E0521E00F8013B5BB18B07F7D1DBE7121DB7
S315080050F05AB111F8013B521E00F8013B03B1F8D131
S3150800510011001CBF002200F0C9FD01BD4FF0807CD4
S315080051101CEB400F94BF1CEB410F05E040EA010C65
S315080051205FEA4C0C01D28842704718BF814270472B
S31508005130002840F10980F446404200F005F850F096
S3150800514000406047002800BF0AD0B0FA80F18840C6
S31508005150D1F19D01C905020672F1004241EB10200A
S315080051607047000010B5FF2313EAD0541DBF13EA99
S31508005170D1529C429A4239E0A41ADA0780EA01031E
S31508005180134042EA012142EA0020421A3CBF641E4B
S3150800519001EB4202090AB2FBF1FE01FB1E221202D2
S315080051A0B2FBF1F001FB10226EF30F201202B2FBE4
S315080051B0F1FE4EEA00207F3406DDFE2C24DA53EA9F
S315080051C0500050EBC45010BDD4F1020401FB1E225E
S315080051D040F08071192C1DDC21FA04F0C4F120047A
S315080051E0A140114371F10042584110BD9C421ABFBB
S315080051F003EAD1529A420FE080EA010E0EF000430C
S31508005200400004D0490016D143F0FF4010BD4900C4
S3150800521008BFD343180010BD9C4205D1D21AF7D057
S3150800522001F00041484010BD4A0212BF08464840F6
S3150800523000F0004010BD4AB90902B1FA81F2914066
S3150800524044B1A418C00140F000409EE7C90141F0EE
S31508005250004152420002B0FA80F4A040141B94E7C1
S3150800526090EA010F44BF81F0004100F047BD00BF3E
S31508005270421A3CBF801A89184FF0004CC0F3C75237
S31508005280FF2A24D0C1F3C75313B3D21AD2F1190394
S3150800529027DD4CEA01214CFA03F321EA0303D14046
S315080052A0C20D4CEA0020401834BF20EA0C004CEA34
S315080052B05000D20553EA006373EB0C0C52EB102036
S315080052C0420012F1807F38BF7047C00DC005704795
S315080052D0490212BF9A4200EB5120F8E7D2F11703B0
S315080052E0D9D570472DE9F047050090469946002420
S315080052F000F070FD2748006850F480702549086062
S3150800530000F0D9FD28423DD14646DDF820A002E04E
S31508005310002416F5807618EB0A00864209D230007A
S3150800532000F074FDC0B20428F2D000F066FD01203A
S315080053302DE046461AEB08054F4601E00024361DC7
S31508005340AE420BD23968300000F093FD3F1DC0B263
S315080053500428F3D000F051FD012018E046461AEB68
S3150800536008054F4600E0361DAE420CD230683900BB
S315080053700F1D09688842F6D0012400F03EFD200082
S31508005380C0B204E0012400F038FD2000C0B2BDE838
S31508005390F0870000183C0240121803E003680B600F
S315080053A0091D001D9042F9D30020704730B4002231
S315080053B000230024002246E0012393400C681C4089
S315080053C09C423FD1036803241500EDB26D00AC4042
S315080053D0A343036003680C791500EDB26D00AC4079
S315080053E0234303600B79012B02D00B79022B19D1C9
S315080053F0836803241500EDB26D00AC40A3438360B7
S3150800540083684C791500EDB26D00AC402343836088
S31508005410838801249440A343838083888C799440AD
S3150800542023438380C36803241500EDB26D00AC40A6
S31508005430A343C360C368CC791500EDB26D00AC40D8
S315080054402343C360521C102AB6D330BC704701836D
S31508005450704741837047D2B2002A01D0018300E029
S315080054604183704770B400230023D2B211F00703BA
S31508005470DBB29B0012FA03F389B2CA1000EB820270
S3150800548089B2CC1000EB8404246A0F2511F00706B4
S31508005490F6B2B600B540AC43146289B2CA1000EB46
S315080054A08202126A134389B2C91000EB81000362B3
S315080054B070BC704710B4002200231C4A126840F6DC
S315080054C0FE7383409A430B684C6823438C682343D6
S315080054D0C9680B4313FA00F002431448026010BC73
S315080054E07047C9B2002908D010490968012212FA82
S315080054F000F008430D49086008E00C4909680122D4
