S0100000536B7950617463682E73726563ED
S31508000000B00A002095630008D1640008D56400088A
S31508000010D9640008DD640008E164000800000000F7
S31508000020000000000000000000000000E564000871
S31508000030E964000800000000ED640008F1640008A7
S31508000040F5640008F9640008FD6400080165000805
S3150800005005650008096500080D65000811650008B2
S3150800006015650008196500081D6500082165000862
S3150800007025650008296500082D6500083165000812
S3150800008035650008396500083D65000841650008C2
S3150800009045650008496500084D6500085165000872
S315080000A055650008573A0008596500085D65000857
S315080000B03939000861650008656500086965000842
S315080000C06D650008716500087565000879650008A2
S315080000D07D650008414000088165000863480008FE
S315080000E085650008896500088D650008951D000866
S315080000F0916500082DE9F04FA1B08246002016460A
S315080001001D4602910B900DF144086FF000490AE074
S3150800011016F8011B0298D0470028029000F0B98211
S315080001200B98401C0B903078010001D10B98B2E275
S315080001302528EDD100200590069007900890099093
S315080001400A9001E040F0010016F8011F2029F9D0B5
S3150800015023290DD02B2904D02D2906D030290AD0E1
S315080001600CE040F0020080B2EEE740F00400FAE747
S3150800017040F00800F7E740F01000F4E72A290ED10E
S315080001802968296051F8042B2960002A0D9204D5A4
S31508000190514240F004000D9180B2761C11E0002116
S315080001A00D9109E00D99494505D001EB810302EB54
S315080001B0430130390D91761C3278A2F130010A29B3
S315080001C0F0D331782E2903D04FF0FF310C911DE082
S315080001D016F8011F2A2907D129682960761C51F8C3
S315080001E0042B29600C9211E000210C9109E00C996E
S315080001F0494505D001EB810302EB430130390C91E7
S31508000200761C3278A2F130010A29F0D3ADF838000D
S315080002100FF6A840317800F063FE08B116F8010B16
S315080002208DF83A009DF83A00682802BF31786829A7
S31508000230622005D06C2804BF30786C2803D1712061
S315080002408DF83A00761C11A8049016F8017BB7F1D0
S3150800025025002AD01C3800F0CA80001F022840F268
S31508000260C680133800F0ED80093800F0C080801E83
S3150800027000F05A81401E00F03081401E022840F2EC
S31508000280B680001F00F02981401F00F08180401EC3
S3150800029000F0D780401E24D0C01E0BD0801E00F070
S315080002A0D080C01E00F0CD8048E125208DF844009E
S315080002B001204DE12868286050F8044B2860039413
S315080002C00C9F002F04D5204600F016FE074606E0D0
S315080002D03A460021204600F02BFE00B1071B069780
S315080002E037E129682960002251F8040B29600021AA
S315080002F0CDE9000111A80390DDE900019142049FB0
S3150800030008BF90424FF03C0C01D10C9AC2B100F0E4
S315080003100F033033DBB23A2BA8BF2733ACF1010207
S315080003200009BB54944640EA01700909002291422B
S3150800033008BF904204D0039A07EB0C039A42E6D30F
S3150800034007EB0C000390CCF13C010C980691814216
S3150800035009DA401A08904FF6EF71BDF838000840E0
S31508000360ADF83800F5E0002840F1F3809DF8380034
S3150800037000F01400102840F0EC800D98059A801AB9
S31508000380089A801A401A0128C0F2E3800890E0E033
S315080003909DF83A0062281AD0682806D06A280CD038
S315080003A06C281CD0712808D019E02868286050F8F5
S315080003B0041B28600B980880CBE02868286050F852
S315080003C0042B28600B98C117C2E90001C1E0286810
S315080003D0286050F8041B28600B980870B9E0286854
S315080003E0286050F8041B28600B980860B1E028685C
S315080003F0C01D6FF0070101EA00022A60D2E9000178
S3150800040008322A60CDE90001002902D505982D2178
S315080004100AE0BDF83800810702D505982B2103E0CC
S31508000420C00705D50598202108F80010401C05903E
S3150800043011A80599084403903946684600F0ECF976
S3150800044087E09DF83A006C280FD0712818BF6A28F3
S315080004500BD12868C01D6FF0070101EA00022A6067
S31508000460D2E9000108322A6005E02968296051F8B6
S31508000470040B29600021CDE900019DF83A0068289F
S3150800048003D1DDE9000180B20BE0622803D1DDE982
S315080004900001C0B205E0742818BF7A2804D1DDE946
S315080004A000010021CDE900019DF83800000732D58A
S315080004B0DDE900230020834208BF82422BD047F0A3
S315080004C02000782827D10598302108F80010401C0C
S315080004D0411C059108F800701DE09DF83A00294670
S315080004E000F0DCF8CDE90001DDE9002300218B42AC
S315080004F002DA05982D210AE0BDF83800810702D5F1
S3150800050005982B2103E0C00705D50598202108F892
S315080005100010401C059011A8059908440390394617
S31508000520684600F0F3F814E0012005902868286072
S3150800053050F8041B28608DF844100AE025208DF831
S31508000540440001200590380003D088F80170022085
S3150800055005900D980599401A0899401A0699401A67
S315080005600999401A0799401A0A99471A9DF83800B6
S31508000570400710D42020012F8DF840000BDB3C46A5
S31508000580012310AA6946504600F081FC002840F075
S315080005908080641EF4D1DDF814B0BBF1000F11ACF5
S315080005A00CD014F8011B0298D0470028029070D08E
S315080005B00B98401CBBF1010B0B90F2D130208DF843
S315080005C04000089C012C09DB012310AA6946504605
S315080005D000F05DFC00285CD1641EF5D1DDF818B08A
S315080005E0039CBBF1000F0CD014F8011B0298D047EE
S315080005F0002802904DD00B98401CBBF1010B0B90C4
S31508000600F2D130208DF84000099C012C09DB01232A
S3150800061010AA6946504600F03AFC002839D1641EF3
S31508000620F5D103980699DDF81CB04418BBF1000F04
S315080006300BD014F8011B0298D047029048B30B98C8
S31508000640401CBBF1010B0B90F3D130208DF8400014
S315080006500A9C012C08DB012310AA6946504600F0C3
S3150800066016FCB0B9641EF6D19DF8380040077FF530
S315080006705AAD2020012F8DF84000FFF654AD012316
S3150800068010AA6946504600F002FC10B97F1EF6D142
S3150800069049E54FF0FF3021B0BDE8F08F622827D03A
S315080006A068281ED06A2808D06C2828D0712804D05B
S315080006B0742824D07A280DD021E00868C01D6FF070
S315080006C0070210400860D0E9002308300860194680
S315080006D0104670470A680A6052F8040B0A6000213F
S315080006E070470A680A6052F8040B0A6000B20BE009
S315080006F00A680A6052F8040B0A6040B204E00A6805
S315080007000A6052F8040B0A60C11770472DE9F343D3
S31508000710054608462F696F2808BF082405D041F00A
S315080007202001782914BF0A2410243C26D5E9002381
S31508000730642818BF69289046994606D100218B423D
S3150800074003DAD8F1000869EB49090020814508BF9A
S3150800075080450CD1286B50B9082C38D195F838004B
S31508000760000734D530203B2687F83B002FE0701E63
S3150800077000900646404649462246E31700F004FC28
S3150800078002F13000C0B23A2803DB9DF80410513953
S315080007900818B855494640462246E31700F0F4FBC8
S315080007A0804689460020814508BF804503D0E86811
S315080007B0B9198842DBD3082C09D195F83800000707
S315080007C005D5B85D302802D0761E3020B855B9193F
S315080007D0E960C6F13C00296BA861884208DA081A64
S315080007E028624FF6EF71288F08402887BDE8F38303
S315080007F000290ED595F8381001F01401102908D1F2
S31508000800696B6A69891A2A6A891A0E1A012EA8BF9B
S315080008102E62BDE8F38300002DE9F24F04468EB040
S31508000820D4E90001CDE9020104AF9DF8380040F093
S31508000830200BBBF1610F0AD0206B002848BF0620A9
S3150800084004D408BFBBF1670F01D10120206361689A
S31508000850C1F30A5040F2FF7290421CD1080304BF4C
S315080008602068002809D10320A0619DF83800613866
S315080008701A2835D30FF2586108E00320A0619DF8C5
S31508000880380061381A2828D30FF23C61E068032241
S3150800089000F0F2FBC3E1012815DA204600F027FC38
S315080008A0012810DB00250020BBF1610F1FD1E1688C
S315080008B030220A708A1CE2609DF83820612A0CBF33
S315080008C0782258220FE0626840F2FE3161F31E5228
S315080008D0451A62604FF0FF30E6E70FF2E851D5E7B8
S315080008E00FF2E851D2E74A706169891C616110B953
S315080008F0002600258AE1BBF1610F40F09880206B45
S31508000900D4E900AB00284CBF2126461CDDE90201CC
S315080009100022002300F00EFC36B23ABF8BF00040EE
S31508000920CDE902A0CDE902AB06F101082D1FB8F109
S31508000930010F8DF810200DF1110736DBDDE90201F4
S315080009400022002300F00EFC2FD21C2102A800F082
S3150800095021FCDDE9020100F0A3FCA8F10708B8F1C3
S31508000960010F814609DB00F0C7FC02460B46DDE9AC
S31508000970020100F0D9FCCDE90201F81D072105E0C6
S3150800098009F00F0200F8012D4FEA2919B9F1010FF4
S3150800099001DB491EF4D5491E5CBF002200F8012D73
S315080009A0F9D5C71DB8F1010FC8DA0DF11100391ACA
S315080009B0B142B8BF0E4636B230000DF111072FD43A
S315080009C0884206DA04A9014449780829A8BF0F21F4
S315080009D000DA002104AA024400E0761E12F8013962
S315080009E0401E8B42F9D00F2904D104A901444A7844
S315080009F0521C4A70002802D504AF761C2D1D36B24B
S31508000A00701E0DD439180A783032D2B23A2A03DB6E
S31508000A109DF838303A3B9A18401E01F80129F2D55C
S31508000A20206B002840F1F280701E2063EEE0DDE9BD
S31508000A3002010022002300F07DFB3CBF81F000414B
S31508000A40CDE902012DB247F2975068434D49DFF8C8
S31508000A50389180FB01214D1305EBD5752DB2C5F1F3
S31508000A60070ABAF1010F98461CDBDDE902675FEA5F
S31508000A70CA7007D542464B463046394600F014FD43
S31508000A8006460F464046494642464B464FEA6A0ADC
S31508000A9000F00AFDBAF1000F80468946E7D1CDE994
S31508000AA0026724E0CAF1000A0026384F14E05FEA1C
S31508000AB0CA7007D542464B463046394600F0F4FC24
S31508000AC006460F464046494642464B4600F0ECFC71
S31508000AD04FEA6A0A80468946BAF1000FE7D1DDE98E
S31508000AE0020132463B4600F0B1FDCDE90201BBF1F9
S31508000AF0660F216BDFF898900CBF05F10A000620F7
S31508000B004618142EA8BF132630208DF810000DF1B4
S31508000B101107012E40DBDDE9020100F0D7FB07F1E2
S31508000B20080104221B4FA0FB0773DB0803EB8307AE
S31508000B30A0EB4700303001F8010C164FA3FB0770F5
S31508000B40C00800EB8007A3EB47033033521E01F8B9
S31508000B50023DE7D1083E012E01F10807D9DBDDE9A0
S31508000B60020100F0B3FB00F0D1FB02460B46DDE9BB
S31508000B70020100F0D9FB00224B4600F095FCCDE9B6
S31508000B800201C8E789B5F814000024400000F03FC8
S31508000B9084D79741CDCCCCCC0DF11100381A0DF184
S31508000BA0110702E0401E6D1E7F1C39783029F9D0E6
S31508000BB0BBF1660F08BF691C04D0BBF1650F0CBFFB
S31508000BC001210021226B8E1836B2B042B8BF064604
S31508000BD036B231001AD4814204DA785C3528A8BFC7
S31508000BE0392000DA30207A18521E00E0761E12F8F4
S31508000BF00139491E8342F9D0392802D1785C401C54
S31508000C007854002902D57F1E761C6D1C2DB29DF8DE
S31508000C103810009533B23A46204600F003F80FB074
S31508000C20BDE8F08F2DE9F043054685B01F46D5F897
S31508000C303080012F8946164602DA01270FF29426DC
S31508000C4049F02000BDF93040662808BF641C17D05B
S31508000C50672840F0848014F1040FC0F2868044456A
S31508000C6080F2838095F83800641C000702D4474553
S31508000C70B8BFB84624B2B8EB040848BF4FF000081E
S31508000C8024B2E868A969012C27DA4A1C30234354A0
S31508000C90B8F1010F03DA95F83800000703D5E968BB
S31508000CA02E208854521C18EB040FB8BFC8F1000454
S31508000CB024B260426862A044B845AA61B8BF4746F4
S31508000CC0E868AB693FB2EF613A463146184400F02E
S31508000CD0D3F9A8EB0700A862C2E022469742084467
S31508000CE018DA3A46314600F0C7F9A9697918E01BBF
S31508000CF0B8F1010FA961686203DA95F838000007B0
S31508000D0005D5EA682E205054E869401CE861C5F804
S31508000D102880A5E0314600F0AFF9A86920183F1BE6
S31508000D20B8F1010F03DA95F83810090703D5EA6810
S31508000D302E211154401CA8613FB2B845B8BF47469A
S31508000D40E868AB693FB23A463119184400F094F99D
S31508000D50A8693818A861A8EB0700686280E0B9F1AD
S31508000D60610F16D14FF0700918E0474504DA95F877
S31508000D703810090758BFB846B8F1010848BF4FF000
S31508000D800008B9F1670F14BF4FF045094FF0650920
S31508000D9004E0B9F1410F08BF4FF05009A969EB68A3
S31508000DA0481CA861B8F1010F16F8012B5A5403DA4A
S31508000DB095F83810090719D5EA68431CAB612E2146
S31508000DC01154B8F1010F11DB7F1E3FB2B845B8BF09
S31508000DD04746E8683FB23A463146184400F04CF9AF
S31508000DE0A8693818A861A8EB07006862E868A969C5
S31508000DF00144200081F8009003D42B2048708E1CF3
S31508000E0003E02D224A708E1C644200270DF1080863
S31508000E1008E00A22684600F044FD019808F8010B2C
S31508000E207F1C009C21B20129F3DA022F06DA49F069
S31508000E302000652804BF302006F8010B4FB9302082
S31508000E4006F8010B07E07F1E02A8C05D303006F8E1
S31508000E50010B012FF7DAE868A9690844301AE86136
S31508000E6095F8380000F0140010280DD16869A969B2
S31508000E700818696A0818E9690818A96A0818696BD8
S31508000E808842BCBF081A286205B0BDE8F083F8B5E9
S31508000E9004460D4616461F46002077B116F8011B74
S31508000EA0A868A047A86030B1E86A401CE86200203C
S31508000EB07F1EF3D1F2BD4FF0FF30F2BD686A6C7445
S31508000EC07A4C00006E616E004E414E00696E6600F7
S31508000ED0494E460030000268531C03601170704783
S31508000EE00278C9B28A421AB11CBF10F8012FF9E775
S31508000EF018BF00207047000000F10103810704D0E5
S31508000F0010F8011B89B18107FAD10268B2F10131E3
S31508000F10914311F0803F04BF50F8042FF6E710F80C
S31508000F20011B11B110F8011BFBE7C01A704700003E
S31508000F30C9B2830706D0521E22D310F8013B994244
S31508000F40F7D11FE0083A13D302F1040241EA01215E
S31508000F5041EA014150F8043B121F21BF4B40A3F15F
S31508000F60013C2CEA030C1CF0803FF3D0C9B2001FE9
S31508000F70083210F8013B521E28BF91EA030FF8D831
S31508000F8018BF0120401E70471B4213D1094236D1B3
S31508000F902AB18446B0FBF2F002FB10C2704700F09B
S31508000FA087BCFCD30022002370470B0002000021F7
S31508000FB000207047904271EB030CF6D370B5B1FA76
S31508000FC081F4B3FA83F52C1BA340C4F1200532FA49
S31508000FD005F63343A2405FF00046E64002E05B08B0
S31508000FE05FEA3202841A71EB030524BF20462946BC
S31508000FF07641F4D302000B003000002170BD012AAF
S31508001000CFD970B5140C20D0B1FA81F4B2FA82F5B2
S31508001010C4F120046419B4F12006D6D3B2405FF0B7
S315080010200044F440002502E052085FEA3303C61A7A
S3150800103071EB020E24BF3046714664416D41F3D30D
S3150800104002000B002000290070BD0C46B1FBF2F12E
S3150800105002FB11452D0445EA1045B5FBF2F402FBE7
S31508001060145580B240EA0545B5FBF2F002FB105272
S3150800107040EA044070BD000062B38B0708D0521ED8
S3150800108011F8013B00F8013B00F024808B07F6D1EC
S31508001090830740F0208000BF103A07D330B4B1E888
S315080010A03810103AA0E83810F9D230BC530724BFDC
S315080010B0B1E80810A0E8081044BF51F8043B40F80E
S315080010C0043BD20724BF31F8022B20F8022B44BF79
S315080010D00B7803707047083A07D3B1E80810083A46
S315080010E040F8043B40F804CBF7D25307E4E730B4A2
S315080010F0436803F000420121C3F313034360002B46
S3150800110004BF0368002B08D10DE00368DD0F45EA2C
S31508001110440444605B000360491E4468E302F4D556
S31508001120C4F31303436043681A434260084630BC5D
S31508001130704700004FF4001C1CEB410F94BF1CEBDA
S31508001140430F09E041EA030C50EA4C0C52EA0C0C36
S3150800115003D2994208BF9042704714BF8B4282421D
S31508001160704700004FF4001C1CEB410F94BF1CEBAA
S31508001170430F09E041EA030C50EA4C0C52EA0C0C06
S3150800118003D28B4208BF8242704714BF99429042ED
S315080011907047000070B504460D466068C0F30A50F3
S315080011A040F2FF71884207D16068000304BF2068D7
S315080011B0002817D0022070BD20B92046FFF797FFF8
S315080011C0012866DA012D0FDB40F2FF71091A8D42FC
S315080011D00AD36068002847BF00202F4900202F49FE
S315080011E0C4E90001012070BD4142A942616806DADE
S315080011F06FF31E51401941EA0050606040E0401EFE
S3150800120063684519012205F1350062F31F53352835
S3150800121001F00041636003D361600020206070BD67
S31508001220002015F11F0F04DA2068236000222035FC
S3150800123062606A4212D0401E25688041C2F12003CE
S31508001240C0439D4045EAD07025686668D54006FAD1
S3150800125003F32B4323606368D340636062680A43E1
S31508001260B0F1004F626003D80DD12078C0070AD5C7
S315080012702068401C2060206828B96068401C6060AF
S315080012804FF0FF3070BD6068884204BF20680028B0
S31508001290F6D1002070BD00BF0000F0FF0000F07F0F
S315080012A0F446400D40EAC120490006D200F014F881
S315080012B0004248BF6FF00040604700F00DF84FF05D
S315080012C0004188428CBF084640426047400D40EACC
S315080012D0C120490080F00D8040F00040490DA1F57D
S315080012E08061491C05D4D1F11F0154BFC840C017FD
S315080012F070474FF000007047010040F10980F4463E
S31508001300404200F005F851F000416047010000BF77
S3150800131009D0B0FA80F18840C91CC1F58461090575
S3150800132001EBD02140057047F0B44FF0004591EA33
S31508001330030F44BF6B4000F0BDBA00BF841A71EBBF
S31508001340030604D26E40001BB141121973414FF4D3
S31508001350001C1CEB410F34BF7CEB430684E00C0DEC
S31508001360A4EB1356362E7DDC012E43DC45EAC32357
S3150800137043EA525312BFD20292025B08240545EA99
S31508001380C12141EA5051D2EBC020994125D407D159
S31508001390B0FA80F610FA06F164D00020203608E08C
S315080013A0B1FA81F6B140C6F1200220FA02F21143E1
S315080013B0B0404FEAF474B4EB465434F001064FEAF1
S315080013C074040AD8D6F50016760D04F00044F040E9
S315080013D061FA06F25040F1404840C00A40EA4150DE
S315080013E021F0004128BF5FEA500550F1000044EBA8
S315080013F0D12137E045EAC323DB0A45EAC121C90AF8
S31508001400B6F120050EDD42EA0242120CC5F12006AD
S3150800141003FA06F6EB4042EA06056D42984161F189
S3150800142000010DE062FA06F5F240554063FA06FC43
S3150800143082EA0C02F3405A406D42904161EB030187
S3150800144011F4801F05D1641E620502D06D0040416B
S31508001450494121F48011430875F1004350F1000019
S3150800146041EB0451F0BC70471CEB410F15D223F039
S31508001470004352EA43060BD04FEA4C0CBCEB410F33
S3150800148004D80C0D661E342EB7DDEBE7801A994199
S3150800149050EA410608BF0021E4E708BF1CEB430FEA
S315080014A028BF6FF00001DDE7B0B581EA030C0CF048
S315080014B0004C40F2FF7515EA11541DBF15EA135783
S315080014C0AC42AF4239E0E41923EA455343F48013AA
S315080014D0C90241F0004141EA505EC7021100A7FB6C
S315080014E0020200284FF00000EEFB01204FF0000139
S315080014F0E3FB072118BF42F00102401800214941C9
S31508001500E3FB0E01A4F580640F0302D252004041AA
S31508001510494154F101046CDD470872F1004250F16B
S31508001520000051EB0451A1F580115CBF41EA0C01A2
S31508001530B0BD4CEA05510020B0BD05EA1357AC42D0
S3150800154014BFAF4241E050EA410E1CBF52EA430EB7
S3150800155002E061460020B0BD24423C441BD15FEA4C
S31508001560070EF6D0090302BF01460020AEF1140E9D
S31508001570B1FA81F7AEEB070401FA07FE0C37C7F19B
S31508001580200100FA07F7C8404EEA000E23EA455341
S3150800159043F48013A2E733F00043B3FA83F704BF9A
S315080015A0B2FA82FE77440B3FE41BB7F1200E2FBF39
S315080015B002FA0EF3BB40C7F1200E22FA0EFE38BF20
S315080015C043EA0E03BA40641C82E750EA410E14BF90
S315080015D052EA430E6FF000014FF4001717EB430F62
S315080015E08ABF194617EB410FB5E74CEA05510020AB
S315080015F0B0BDD4F10104B4F120070FDAC4F1200715
S31508001600520828BF42F0010210FA07F501FA07F757
S31508001610E1BF2A43E0403843E1400FE0352C98DC2F
S31508001620C7F1200452EA400220FA07F218BF42F036
S31508001630010231FA07F0A1400A43002172F1004283
S3150800164050F1000051EB0C01B0BD00002DE9F0414E
S3150800165040F2FF7581EA030C0CF0004C15EA1154B0
S315080016601DBF15EA1357AC42AF42E9E0BC41C1F3CE
S315080016701301C3F31303801A994143F4801304D268
S31508001680641E4000494180185941C90241EA505137
S31508001690B1FBF3F603FB1611A2FB0675D7EBC020C8
S315080016A0A94102D2761E80185941C90241EA505111
S315080016B0B1FBF3FE03FB1E11A2FB0E75D7EBC02090
S315080016C0A94103D2AEF1010E80185941890241EAB7
S315080016D09051760546EA8E2EB1FBF3F603FB1611FA
S315080016E0A2FB0675D7EB8020A94102D2761E801888
S315080016F05941C90241EA50514EEA060EB1FBF3F6CA
S3150800170003FB1611A2FB0675D7EBC020A94102D22E
S31508001710761E80185941C90241EA5051B1FBF3F7C8
S3150800172003FB1711A2FB0735D3EBC020A94167F1CC
S3150800173000070CBF004247F0010766F3D5274FEABA
S315080017401E31B80814F5806414DDBD0775F1004232
S3150800175050EB0E5051EB045111F5801F5CBF41EA66
S315080017600C01BDE8F0814CF07F6141F0E0410020BA
S31508001770BDE8F081BD076D0840EA0E5041F48011BE
S31508001780D4F10104B4F120060ADAC4F120060200F5
S31508001790E04001FA06F3E1401843B24015430EE073
S315080017A0342C14DCC6F1200445EA40056D0820FAFD
S315080017B006F2154321FA06F0A1400D43002175F102
S315080017C0004250F1000051EB0C01BDE8F081002009
S315080017D05FEA0C01BDE8F081CFB992185B41B3FA14
S315080017E083F704BFB2FA82F6BF190B3FB7F120069A
S315080017F02FBF02FA06F3BB40C7F1200622FA06F607
S3150800180038BF3343BA401CB1E419641E2FE77F4240
S3150800181031F00041B1FA81F404BFB0FA80F6A41998
S315080018200B3CB4F120062FBF00FA06F1A140C4F123
S31508001830200620FA06F638BF3143A0403C1B16E7BF
S31508001840AC421ABF05EA1357AF4214E050EA410604
S315080018501CBF52EA4306BFE750EA410730466146D5
S315080018601CBF41EA0551BDE8F08152EA430C08BFA6
S31508001870C143BDE8F08100204FF4001616EB410F76
S3150800188098BF16EB430F08BF16EB410F24BFC143A1
S3150800189005E016EB430F0CBF61464CEA0551BDE85F
S315080018A0F08191FBF2F303FB1211C0E90031704796
S315080018B070470000841A71EB030603D2001BB1417E
S315080018C0121973414FF4001C1CEB410F34BF7CEB1B
S315080018D0430443E00C0DA4EB1356352E50DC45EAC1
S315080018E0C323DB0A45EAC121C912B6F120050DDD7D
S315080018F063FA05F6EB4086EA0305124218BF45F07F
S315080019000105C01851F100010CD213E062FA06F580
S31508001910F2405540F3415A40B340F3405A408018CC
S31508001920594107D349085FEA30005FEA350528BF01
S3150800193045F0010501F58011420875F1004250F1A4
S31508001940000041EB0451F0BC4FF4001C1CEB410FA6
S3150800195038BF70470020090D090570471CEB410F79
S3150800196010D252EA43060BD0BCEB410F05D80C0D3A
S31508001970AB43661E342EB5DD02E0AB4380185941F1
S31508001980F0BC7047F0BC7047BFF34F8FDFF8540ABE
S31508001990006810F4E060DFF8501A0843DFF8441ACC
S315080019A00860BFF34F8F00BFFDE700B587B0DFF8CB
S315080019B03C0A04905FF08140059008208DF81800D5
S315080019C010208DF8190020208DF81A00DFF81C0A5F
S315080019D00190DFF81C0A029008208DF80C001020F0
S315080019E08DF80D0020208DF80E0001A800F038FDB6
S315080019F0002801D0012013E010208DF800000020F7
S31508001A008DF8010000208DF8020060208DF8030093
S31508001A10684601F077F8002801D0012000E0002090
S31508001A2007B000BDE0B500208DF8080002A800F058
S31508001A304FFD684600F0ACFD00281AD100200FE0E3
S31508001A40694631F910104FF47A62514348F212028E
S31508001A5091FBF2F1DFF89C2902EB40025180401C11
S31508001A600328EDDB684600F0CEFD00281CD10020D7
S31508001A7011E001202FE0694631F9101041F2883251
S31508001A80514346F69B7291FBF2F1DFF8682902EBA7
S31508001A9040021181401C0328EDDB684601F0A6F8D8
S31508001AA0002817D1002011E0012014E0694631F919
S31508001AB010104FF47A62514346F6E82291FBF2F190
S31508001AC0DFF8302902EB4002D181401C0328EDDB08
S31508001AD0002000E001200EBD00B587B020208DF85B
S31508001AE0000001208DF8010008208DF80200002072
S31508001AF08DF8030000208DF8040000208DF80500FD
S31508001B00684601F0AFF8002801D001201AE000204D
S31508001B108DF8080000208DF8090000208DF80A00CD
S31508001B2000208DF80B00002003900020049002206E
S31508001B308DF8140002A801F0A3F9002801D00120AD
S31508001B4000E0002007B000BD80B5684601F05CF9EA
S31508001B5000280AD10099DFF8940801F0EBF901F0A2
S31508001B6055FADFF8901888820AE001F0D6F9DFF80E
S31508001B707C1801F0DFF901F049FADFF87818888255
S31508001B80684601F013F900280BD10099DFF85C08C4
S31508001B9001F0D0F901F03AFADFF85818C8820020A7
S31508001BA000E0012002BD00B585B00C208DF80000CC
S31508001BB00020ADF802004FF48060ADF80400002064
S31508001BC08DF8060000208DF8070000208DF8080023
S31508001BD0002003905FF0FF300490684601F04BFA4E
S31508001BE005B000BD00B585B00121102001F037FB16
S31508001BF04FF4FA40ADF8040042F21070029001A9C1
S31508001C00DFF8F40701F050FB2B208DF800000020C8
S31508001C108DF8010000208DF8020001208DF80300E0
S31508001C20684601F0ADFC01220121DFF8CC0701F07E
S31508001C3021FC0121DFF8C00701F06CFB05B000BDEF
S31508001C4080B501F061FFDFF8AC17888301F066FF05
S31508001C50DFF8A017C88301F065FFDFF89817088436
S31508001C6001BD0120DFF894174870DFF89407DFF804
S31508001C708C174880DFF88807DFF880170881DFF8B7
S31508001C808007DFF87817C881DFF87407DFF86C1764
S31508001C908882DFF86C07DFF86417C882DFF8600708
S31508001CA0DFF8581788614FF6FF70DFF850178883FA
S31508001CB04FF6FF70DFF84417C883704780B50120D8
S31508001CC0DFF838174870FFF7CCFF5FF0FF30DFF812
S31508001CD02C1748805FF0FF30DFF8201708815FF087
S31508001CE0FF30DFF81817C8815FF0FF30DFF80C17F0
S31508001CF088825FF0FF30DFF80417C8824FF6FF705E
S31508001D00DFF8F81688614FF6FF70DFF8F01688835B
S31508001D104FF6FF70DFF8E416C88302F087F8FFF77E
S31508001D2044FEC0B2002804D10121002000F02DFB9A
S31508001D3007E005210A2002F008F90021002000F03A
S31508001D4024FBFFF7C9FEC0B2002804D101210220F6
S31508001D5000F01BFB07E00521032002F0F6F800213E
S31508001D60022000F012FBFFF71EFFC0B2002804D1C4
S31508001D700121012000F009FB07E005210B2002F0F4
S31508001D80E4F80021012000F000FB01F031FCFFF728
S31508001D9029FF01BD80B50121DFF85C0601F076FB5D
S31508001DA00120DFF85816087001BD00B59DB0DFF8B0
S31508001DB04C060078002800F04782DFF8480602F053
S31508001DC0B5FADFF84016052002F090FDDFF8380670
S31508001DD00068401CDFF830160860DFF83006006837
S31508001DE0401CDFF828160860DFF81C060068032880
S31508001DF017DB0020DFF810160860DFF81006026807
S31508001E00DFF80C160BA802F0E3FE0BA802F08EFA18
S31508001E100BA8FFF771F80BA902F068FD0BA800F0F4
S31508001E2066FA00F07EFA0020DFF8D0150870002068
S31508001E3000F0C1FA002811D0FFF7F4FDC0B200285F
S31508001E4004D10121002000F0A0FA07E005210C20AA
S31508001E5002F07BF80021002000F097FA022000F03B
S31508001E60AAFA002811D0FFF76FFEC0B2002804D1E5
S31508001E700121022000F089FA07E005210D2002F071
S31508001E8064F80021022000F080FA012000F093FA9D
S31508001E90002804D001F044F9DFF858158861FFF7E7
S31508001EA0CFFEDFF85005B0F9160000281DD1DFF87F
S31508001EB064050068401CDFF85C150860DFF8540507
S31508001EC00268DFF8541515A802F082FE15A802F07C
S31508001ED02DFADFF840050068052806DB0020DFF844
S31508001EE034150860072000F0D3F9012002F08AFEB5
S31508001EF0DFF80005B0F90200DFF80015B1F90210A5
S31508001F00884213D1DFF8EC04B0F90400DFF8EC14CA
S31508001F10B1F90410884209D1DFF8D804B0F90600EF
S31508001F20DFF8D814B1F9061088422CD0DFF8C404BB
S31508001F304088DFF8C8144880DFF8B8048088DFF8DE
S31508001F40BC148880DFF8AC04C088DFF8B014888039
S31508001F50DFF8A804B0F906000090DFF8A004B0F98D
S31508001F600430DFF89804B0F90220DFF8B01401A8AD
S31508001F7002F02EFE01A802F0D9F901A8FEF7BCFF6F
S31508001F8001A902F0B3FCDFF86C04B0F90800DFF829
S31508001F906C14B1F90810884213D1DFF85804B0F967
S31508001FA00A00DFF85814B1F90A10884209D1DFF897
S31508001FB04404B0F90C00DFF84414B1F90C10884257
S31508001FC02CD0DFF830040089DFF830140881DFF8F8
S31508001FD024044089DFF824144881DFF8180480892E
S31508001FE0DFF818148881DFF81404B0F90C000090A3
S31508001FF0DFF80804B0F90A30DFF80004B0F9082061
S31508002000DFF81C1401A802F0E3FD01A802F08EF91E
S3150800201001A8FEF771FF01A902F068FCDFF8D403F6
S31508002020B0F90E00DFF8D413B1F90E10884213D1B7
S31508002030DFF8C003B0F91000DFF8C013B1F91010CB
S31508002040884209D1DFF8AC03B0F91200DFF8AC1307
S31508002050B1F9121088422CD0DFF89803C089DFF84E
S315080020609C13C881DFF88C03008ADFF89013088276
S31508002070DFF88003408ADFF884134882DFF87C03A0
S31508002080B0F912000090DFF87403B0F91030DFF8E9
S315080020906C03B0F90E20DFF88C1301A802F098FD46
S315080020A001A802F043F901A8FEF726FF01A902F0EC
S315080020B01DFCDFF84003B0F91400DFF84013B1F94E
S315080020C01410884217D0DFF82C03808ADFF82C1307
S315080020D08882DFF82803B0F91420DFF84C1301A82A
S315080020E002F076FD01A802F021F901A8FEF704FF27
S315080020F001A902F0FBFBBF48B0F91600BF49B1F9C8
S315080021001610884214D0BB48C08ABC49C882BB484E
S31508002110B0F91620DFF8141301A802F059FD01A83A
S3150800212002F004F901A8FEF7E7FE01A902F0DEFBBA
S31508002130B0488069B1498969884212D0AD4880693A
S31508002140AE498861AD488269B94901A802F040FDE7
S3150800215001A802F0EBF801A8FEF7CEFE01A902F0ED
S31508002160C5FBA448808BA549898B884212D0A14813
S31508002170808BA2498883A148828BAE4901A802F0C8
S3150800218027FD01A802F0D2F801A8FEF7B5FE01A9BD
S3150800219002F0ACFB9748C08B9849C98B884205D199
S315080021A09448008C9549098C884218D09148C08B70
S315080021B09249C8838F48008C904908848F48038CBD
S315080021C08E48C28B9C4901A802F002FD01A802F0C4
S315080021D0ADF801A8FEF790FE01A902F087FB974823
S315080021E04088411C954A518080B2122806DB00209F
S315080021F092494880FFF735FD00F0B2F87F484078ED
S31508002200002810D000207D4948708D4A8D4901A8C4
S3150800221002F0DEFC01A802F089F801A8FEF76CFEC0
S3150800222001A902F063FB012002F0F8FC864802F0DF
S315080022307DF88549062002F059FB84490BA802F06F
S31508002240C7FC0BA802F072F81DB000BD4AF6E030D4
S3150800225000E0401E0028FCD170477D4800E0401E83
S315080022600028FCD1704710B5040002E0FFF7F5FF1F
S31508002270641E012CFADA10BD80B5012002F0C2FCFA
S31508002280FFF7E4FF012002F0C9FCFFF7DFFF01BDFD
S3150800229038B50400200001F039FE042180B201F0AF
S315080022A054FE00250CE0012002F0ACFC0120FFF7EB
S315080022B0DAFF012002F0B2FC0120FFF7D4FF6D1C03
S315080022C0A542F0DB012002F09DFC0A20FFF7CBFFB8
S315080022D0012002F0A3FC0A20FFF7C5FF002002F048
S315080022E084FD6420FFF7BFFFFFF74EFB31BD10B535
S315080022F088B0040002F0A9FA002810D014222100A0
S31508002300684602F0A9FD2000FEF7F6FD152801D360
S315080023101434FFE714222100684602F09DFD08B038
S3150800232010BD80B502F095FA002810D00020494962
S31508002330088000F012F8002805D047480088401C9D
S315080023404549088008E000204349088004E04148E0
S315080023500088401C3F49088001BD3848007870470E
S3150800236001203649087070470020344908707047C4
S3150800237000203A49887000203849487000203749BB
S31508002380087000203549C8707047C0B2002805D0CB
S31508002390022809D005D3032809D00BE02F488170FD
S315080023A008E02E48017005E02C48417002E02B48F1
S315080023B0C170FFE77047C0B2002805D0022809D0CF
S315080023C005D3032809D00BE02448807809E0234880
S315080023D0007806E02148407803E02048C07800E00D
S315080023E0002070470CED00E00400FA0500002041CB
S315080023F00000FA4378230020001000409C230020A8
S31508002400C7CFFFFFE0630008F0230020EC2300207D
S31508002410CC610008F4230020BC600008FC600008BA
S315080024201861000834610008446200085862000810
S315080024306C62000880620008E4610008E823002056
S315080024403463000894620008E8630008F063000833
S31508002450C0B606001424002016240020E423002019
S3150800246010B5040000F046F8002801D001202EE03F
S31508002470206800F04FFA002801D0012027E06068A4
S3150800248000F0A0FA002801D0012020E0A27A617AA3
S31508002490207A00F044F9002801D0012017E0E0680E
S315080024A000F08EF9002801D0012010E0206900F024
S315080024B0F4F9002801D0012009E0A27D617D207D84
S315080024C000F0DCF8002801D0012000E0002010BD53
S315080024D080B5002801D101200BE0012302000F215D
S315080024E0D42001F01DFC002801D1002000E00120C5
S315080024F0C0B202BD80B500208DF8000001236A46EF
S315080025001221D42001F00CFC002801D001203EE065
S315080025109DF8000010F0FB008DF800009DF8000003
S3150800252050F004008DF8000001236A461221D420D9
S3150800253001F099FB002801D0012028E001236A4612
S315080025400A21D42001F0ECFB002801D001201EE06E
S315080025509DF8000010F087008DF800009DF8000037
S315080025608DF800009DF8000010F0F8008DF80000C6
S315080025709DF800008DF8000001236A460A21D42040
S3150800258001F071FB002801D0012000E0002002BD07
S3150800259010B582B004000020ADF8000002236A4698
S315080025A02821D42001F0BCFB002801D0012029E015
S315080025B09DF801009DF8001011EB002020800223F1
S315080025C06A462A21D42001F0ABFB002801D001205D
S315080025D018E09DF801009DF8001011EB00206080BE
S315080025E002236A462C21D42001F09AFB002801D048
S315080025F0012007E09DF801009DF8001011EB00206E
S31508002600A080002016BD10B582B004000020ADF8E9
S31508002610000002236A462221D42001F081FB00280B
S3150800262001D0012029E09DF801009DF8001011EB6A
S315080026300020208002236A462421D42001F070FB62
S31508002640002801D0012018E09DF801009DF800102F
S3150800265011EB0020608002236A462621D42001F06F
S315080026605FFB002801D0012007E09DF801009DF8D6
S31508002670001011EB0020A080002016BD70B582B0B6
S3150800268000238DF80030002600250024C0B200285B
S3150800269001D1002600E00826C9B2002901D100258B
S315080026A000E01025D2B2002A01D1002400E020243F
S315080026B001236A461821D42001F032FB002801D0F4
S315080026C001202BE09DF8000010F0F7008DF80000BF
S315080026D09DF8000030438DF800009DF8000010F0CA
S315080026E0EF008DF800009DF8000028438DF80000E3
S315080026F09DF8000010F0DF008DF800009DF800003E
S3150800270020438DF8000001236A461821D42001F0E1
S31508002710AAFA002801D0012000E0002076BD70B595
S3150800272082B000238DF80030002600250024C0B2B0
S31508002730002801D1002600E00826C9B2002901D1E7
S31508002740002500E01025D2B2002A01D1002400E0BD
S31508002750202401236A461921D42001F0E1FA002831
S3150800276001D001202BE09DF8000010F0F7008DF84D
S3150800277000009DF8000030438DF800009DF8000029
S3150800278010F0EF008DF800009DF8000028438DF842
S3150800279000009DF8000010F0DF008DF800009DF89D
S315080027A0000020438DF8000001236A461921D42031
S315080027B001F059FA002801D0012000E0002076BD7A
S315080027C010B582B0002400218DF80010002102F017
S315080027D079FB01D800243FE0DFF8E81202F072FB2B
S315080027E001D2102438E0DFF8E01202F06BFB01D2C8
S315080027F0202431E0DFF8D41202F064FB01D2302441
S315080028002AE0DFF8CC1202F05DFB01D2402423E077
S31508002810DFF8C01202F056FB01D250241CE0DFF8A4
S31508002820B81202F04FFB01D2602415E0DFF8AC12B3
S3150800283002F048FB01D270240EE0DFF8A41202F081
S3150800284041FB01D2802407E0DFF8981202F03AFB38
S3150800285001D2902400E0A02401236A461021D42046
S3150800286001F05EFA002801D0012015E09DF800006D
S3150800287010F00F008DF800009DF8000020438DF839
S31508002880000001236A461021D42001F0ECF9002843
S3150800289001D0012000E0002016BD10B582B000244A
S315080028A000218DF80010DFF8401202F00BFB01D270
S315080028B000240EE0DFF8341202F004FB01D20824EB
S315080028C007E0DFF82C1202F0FDFA01D20C2400E032
S315080028D0042401236A461021D42001F021FA002895
S315080028E001D0012015E09DF8000010F0F3008DF8E6
S315080028F000009DF8000020438DF8000001236A4679
S315080029001021D42001F0AFF9002801D0012000E001
S31508002910002016BD10B582B0002400218DF80010E5
S31508002920002102F0CFFA01D800242AE0654902F016
S31508002930C9FA01D2102424E0634902F0C3FA01D28D
S3150800294020241EE0614902F0BDFA01D2302418E0C5
S315080029505F4902F0B7FA01D2402412E05D4902F05D
S31508002960B1FA01D250240CE05B4902F0ABFA01D26D
S31508002970602406E0594902F0A5FA01D2702400E065
S31508002980802401236A461121D42001F0C9F90028C0
S3150800299001D0012015E09DF8000010F00F008DF819
S315080029A000009DF8000020438DF8000001236A46C8
S315080029B01121D42001F057F9002801D0012000E0A8
S315080029C0002016BD38B50400002500208DF800004B
S315080029D02000484902F076FA1FD2022501236A46EA
S315080029E01121D42001F09CF9002801D0012068E0CB
S315080029F09DF8000010F0FD008DF800009DF800001D
S31508002A0028438DF8000001236A461121D42001F0DD
S31508002A102AF9002854D0012053E001236A461121DF
S31508002A20D42001F07DF9002801D0012049E09DF865
S31508002A30000010F0FD008DF800009DF800008DF8EC
S31508002A40000001236A461121D42001F00CF9002860
S31508002A5001D0012035E02000274902F033FA01D2DF
S31508002A6000250EE02000254902F02CFA01D20425A3
S31508002A7007E02000224902F025FA01D2082500E0E5
S31508002A800C2501236A461121D42001F049F90028B2
S31508002A9001D0012015E09DF8000010F0F3008DF834
S31508002AA000009DF8000028438DF8000001236A46BF
S31508002AB01121D42001F0D7F8002801D0012000E028
S31508002AC0002032BD010050410100D04101005042B2
S31508002AD00100D042010050430100D0430140504458
S31508002AE00180CF440120504501000040010080408C
S31508002AF0010000410100FA42010075430100FA4352
S31508002B0001007A4410B582B0040000208DF8000058
S31508002B1001236A4622213C2001F002F9002801D04F
S31508002B20012062E09DF8000010F0FC008DF800001E
S31508002B309DF80000617808438DF8000001236A4675
S31508002B4022213C2001F08FF8002801D001204CE01A
S31508002B5001236A4620213C2001F0E2F8002801D032
S31508002B60012042E09DF8000010F0E3008DF8000017
S31508002B709DF80000217808438DF800009DF80000B4
S31508002B8010F09F008DF800009DF80000E1780843DA
S31508002B908DF8000001236A4620213C2001F063F8E5
S31508002BA0002801D0012020E001236A4621213C208B
S31508002BB001F0B6F8002801D0012016E09DF80000C3
S31508002BC010F09F008DF800009DF80000A1780843DA
S31508002BD08DF8000001236A4621213C2001F043F8C4
S31508002BE0002801D0012000E0002016BD10B582B0F3
S31508002BF004000020ADF8000002236A46A8213C2004
S31508002C0001F08EF8002801D0012029E09DF8010086
S31508002C109DF8001011EB0020208002236A46AA21A5
S31508002C203C2001F07DF8002801D0012018E09DF82D
S31508002C3001009DF8001011EB0020608002236A460F
S31508002C40AC213C2001F06CF8002801D0012007E0F7
S31508002C509DF801009DF8001011EB0020A0800020CF
S31508002C6016BD000010B582B0040000208DF80000E3
S31508002C7000F0E1F8002801D0012074E001236A463B
S31508002C8020217C48007801F04BF8002801D001206B
S31508002C9069E09DF8000010F08F008DF800009DF89F
S31508002CA00000217808438DF800009DF8000010F018
S31508002CB0F7008DF800009DF80000E17808438DF8CC
S31508002CC000009DF8000010F0FB008DF800009DF84C
S31508002CD00000217908438DF800009DF8000010F0E7
S31508002CE0FE008DF800009DF80000617908438DF814
S31508002CF0000001236A4620215E48007800F0B3FFF1
S31508002D00002801D001202EE001236A4610215948E7
S31508002D10007801F005F8002801D0012023E09DF88D
S31508002D20000010F0FC008DF800009DF800006178A6
S31508002D3008438DF800009DF8000010F0F3008DF8A8
S31508002D4000009DF80000A17808438DF800000123D3
S31508002D506A4610214748007800F085FF002801D010
S31508002D60012000E0002016BD38B504000025032325
S31508002D706A46A8213F48007800F0D2FF002801D013
S31508002D80012012E0002007E06946C0B2095CC0B223
S31508002D90C20091400D43401CC0B20328F4DB280250
S31508002DA001D555F07F452560002032BD10B582B0AB
S31508002DB00400002000906846FFF7D6FF002801D0DF
S31508002DC0012008E0009802F08FF85FF08B4102F0CE
S31508002DD0A5F82060002016BD10B582B004000020BA
S31508002DE002236A46AB212348007800F099FF0028A1
S31508002DF001D0012007E09DF801009DF8001011EBB5
S31508002E0000202080002016BD10B582B00400684658
S31508002E10FFF7E2FF002801D001200BE0BDF9000012
S31508002E2002F062F8144902F079F8144902F0F4F84D
S31508002E302060002016BD80B501236A4620210D4872
S31508002E40007800F06DFF002801D0012011E09DF800
S31508002E50000050F080008DF8000001236A4620210A
S31508002E600448007800F0FFFE002801D0012000E0A9
S31508002E70002002BDA80200200000F04300002A42FC
S31508002E8010B5040000220020002C01D1012043E0E7
S31508002E90607810F018000243A07810F0040002438E
S31508002EA0E07810F002000243207810F00100024397
S31508002EB0D2B20121922000F094FEC0B2002801D0BF
S31508002EC0C0B229E061685FF0874000F033F800F08F
S31508002ED09DF8020092B20321922000F08AFEC0B249
S31508002EE0002801D0C0B217E0A1685FF0874000F063
S31508002EF021F800F08BF8020092B20321922000F02C
S31508002F0078FEC0B2002801D0C0B205E0227B0421B9
S31508002F10922000F066FEC0B210BD80B50021922056
S31508002F2000F079FE01F0EAFF5FF0874101F0F6FF55
S31508002F3002BD0000FF2212EAD05C1DBF12EAD1537F
S31508002F40944593422BE09C44D30780EA01021A4039
S31508002F5043EA002043EA0121A1FB0030410038BFC3
S31508002F6040007CF17F010BDBFE294ADA5B0842EA66
S31508002F70C15153EA006373F1004C51EB10207047BE
S31508002F80D1F1080CDCF120012FDB5B0810FA01F106
S31508002F900B4373F1004120FA0CF0504170479445F9
S31508002FA01CBF02EAD153934280EA010202F00042B2
S31508002FB01DD0400019D0490017D05BB9634514D01D
S31508002FC00902B1FA81F39940BCEB030CC00140F049
S31508002FD00040C1E70002B0FA80FC10FA0CF0B3EB2F
S31508002FE00C0CC90141F00041B6E7100070474000DB
S31508002FF00AD0490008D010F1807F94BF11F1807F74
S3150800300002E042F0FF407047D04370474100090E86
S315080030107F3915D4D1F11F0114D4400007D2C0015D
S3150800302040F00040C84048BF6FF000407047C001FC
S3150800303040F00040C8404CBF4FF000404042704747
S315080030400020704700424FF0004058BFC043704709
S31508003050002101E04008491CB0F5805FFAD250EA29
S31508003060013080B2704780B20105090D80B2000BAD
S3150800307011FA00F0704738B5040000250020002C2E
S3150800308001D101204BE07E21882000F0C4FD45F2E5
S315080030904941884207D17F21882000F0BCFD43F2D0
S315080030A00101884201D0012039E0207855EA00352F
S315080030B0608810F400600543A08810F4C0600543DA
S315080030C0A07910F010000543E07910F008000543D8
S315080030D0207A10F0030005432A0092B201218820C5
S315080030E000F087FDC0B2002801D0C0B217E0E06842
S315080030F0FFF7AEFF020092B20221882000F079FDA8
S31508003100C0B2002801D0C0B209E02069FFF7A0FFCD
S31508003110020092B20321882000F06BFDC0B232BDD6
S3150800312080B50021882000F076FD80B2FFF79BFF6E
S3150800313002BD0000C0B2DFF85011086070470021D8
S31508003140002100220023002100214D49096811F0C1
S315080031500C01002906D0042911D0082912D00C29FF
S3150800316013D031E047490968C1F342310122491CAD
S3150800317012FA01F14FF400425143016030E043492D
S3150800318001602DE0424901602AE03D49096811F4D1
S3150800319070113B4A126812F440023E4B890C595C86
S315080031A0920D521C364B1B6813F48033002B05D145
S315080031B0364B5943B1FBF2F1016004E0344B5943F5
S315080031C0B1FBF2F101600BE02E490968C1F3423107
S315080031D00122491C12FA01F14FF4004251430160E1
S315080031E02749096811F0F00109092B4A515C026860
S315080031F0CA4042602249096811F4E061090A264A70
S31508003200515C4268CA4082601D49096811F46051E0
S31508003210C90A214A515C4268CA40C2607047C9B2AD
S31508003220002905D01D49096808431C49086005E0BE
S315080032301A49096831EA0000184908607047C9B296
S31508003240002905D01649096808431549086005E0AC
S315080032501349096831EA0000114908607047C9B284
S31508003260002905D00F49096808430E49086005E09A
S315080032700C49096831EA00000A49086070470000ED
S315080032800838024004380240000047420024F4008F
S3150800329000127A008C020020980200201C38024096
S315080032A0203802402438024000220288B0F1804FBC
S315080032B008D0114B984205D0104B984202D0104BBB
S315080032C0984204D14FF68F731A404B881A430D4B18
S315080032D0984207D00C4B984204D04FF6FF431A4049
S315080032E00B891A4302804A68C2620988018501214E
S315080032F0818270470000000000040040000800407A
S31508003300000C004000100040001400404162704765
S31508003310C1627047C9B2002904D0018851F0010181
S31508003320018004E001884FF6FE7211400180704763
S3150800333010B400220023028C4FF6EF731A40028461
S31508003340038C028B48F6FF7422400C8852EA04224A
S315080033504FF6DF7423400C8953EA04134C8853EA6A
S315080033600413496881630283038410BC704710B450
S3150800337000220023028C4EF6FF731A400284038C47
S31508003380828B48F6FF7422400C8852EA04224DF6D6
S31508003390FF7423400C8953EA04334C8853EA0433F8
S315080033A0496801648283038410BC7047816370474F
S315080033B00164704738B504000D00288800280AD132
S315080033C02B89AA886988200000F06AF8E988200015
S315080033D000F02AF825E0288804280AD12B89AA882B
S315080033E06988200000F076F8E988200000F025F8C2
S315080033F017E0288808280AD12B89AA886988200016
S3150800340000F085F8E988200000F021F809E02B890A
S31508003410AA886988200000F096F8E988200000F05C
S315080034201FF831BDC06B7047028B4FF6F3731A4015
S315080034300283028B114301837047028B4FF2FF33DD
S315080034401A400283028B52EA012101837047828B5C
S315080034504FF6F3731A408283828B11438183704738
S31508003460828B4FF2FF331A408283828B52EA012104
S3150800347081837047D2B2002A03D0828911438181A1
S3150800348003E0828932EA01018181704789B2C94322
S315080034900182704701894FF6F87211400181704721
S315080034A070B400240025048C4FF6FE752C40048465
S315080034B0048B058C4FF60C76344052EA03121443FB
S315080034C04FF6F572154051F001010D43048305844A
S315080034D070BC704770B4002400250026048C4FF693
S315080034E0EF752C400484048B058C0E0140F6FF41D1
S315080034F00C4054EA033454EA02244FF65F710D4037
S3150800350056F010010D430483058470BC704770B4EF
S31508003510002400250026048C4FF6FF652C40048401
S31508003520848B058C0E024FF60C710C4052EA03117F
S315080035300C434FF2FF510D4056F480710D438483BE
S31508003540058470BC704770B4002400250026048CDE
S315080035504EF6FF752C400484848B058C0E0340F6CA
S31508003560FF410C4054EA022454EA033445F6FF713D
S315080035700D4056F480510D438483058470BC704712
S31508003580002100220F23C17800291ED0144909689A
S3150800359011F4E061D1F5E061090AD1F10402DBB268
S315080035A00B414178914082781A40114309010D4A2E
S315080035B00378D1540121027812F01F0291400A4A79
S315080035C00078401142F8201009E00121027812F033
S315080035D01F029140054A0078401142F820107047B2
S315080035E00CED00E000E400E000E100E080E100E02E
S315080035F000B59BB00121DFF83405FFF730FE012145
S315080036004FF40170FFF71BFE01210320FFF707FEA9
S315080036100120FFF78FFD0E220521DFF8140501F0C2
S3150800362099FD01220321DFF80C0501F093FD0E2216
S315080036300421DFF8000501F08DFD02220121DFF8E3
S31508003640F00401F087FD0E220021DFF8E40401F002
S3150800365081FD0420009001208DF8040000208DF8DB
S31508003660060000208DF8070001208DF80500694640
S31508003670DFF8C00401F012FD01220421DFF8B404CA
S3150800368001F061FD0820009002208DF80400012059
S315080036908DF8060000208DF8070001208DF805003A
S315080036A06946DFF8900401F0F9FC02200090022038
S315080036B08DF8040000208DF8060000208DF807001C
S315080036C003208DF805006946DFF8640401F0E6FC7E
S315080036D02020009003208DF8040000208DF80700B4
S315080036E001208DF805006946DFF8440401F0D6FC90
S315080036F0102000906946DFF83C0401F0CFFC012059
S3150800370000906946DFF8280401F0C8FC5FF08040A5
S31508003710FFF7C0FE0020ADF820000020ADF81A0023
S315080037200020ADF818004FF47A40079006A95FF01C
S315080037308040FFF7B9FD0820ADF85C000020ADF821
S315080037405E000220ADF8600017A95FF08040FFF721
S3150800375031FE7020ADF80C000020ADF814000120F1
S31508003760ADF80E000020049003A95FF08040FFF733
S31508003770FEFD4FF4A0715FF08040FFF719FE0220AE
S31508003780139000201090002011900020129010A98C
S31508003790002001F007FD0121002001F01AFD40F28A
S315080037A05C41002001F02BFD002014905FF4C0104E
S315080037B015900020169014A801F032FD0121202052
S315080037C001F040FD0121DFF8700301F03BFD1C20EC
S315080037D08DF8080000208DF8090000208DF80A00F1
S315080037E001208DF80B0002A8FFF7CAFE012201216D
S315080037F05FF08040FFF73EFE01215FF08040FFF753
S3150800380089FDDFF83803FFF745FE0020ADF82000F4
S315080038100020ADF81A000020ADF818000020079027
S3150800382006A9DFF81803FFF73FFD6020ADF80C0086
S315080038300020ADF814000120ADF80E000020049019
S3150800384003A9BE48FFF793FD0121BC48FFF762FDB7
S315080038505FF48030099009A801F043FD00208DF837
S315080038602D0000200E9000200D905FF080500C90E7
S3150800387001208DF83C0000200A9000208DF82C00CD
S315080038800AA9AF4801F008FD052301220821AC4822
S3150800389001F044FD0121AA4801F02DFD4021A84868
S315080038A001F0F5FD0028F9D04FF48071A44801F025
S315080038B0EEFD0128F8D0A348FFF7ECFD0020ADF88F
S315080038C020000020ADF81A000120ADF8180041F6D6
S315080038D03F70079006A99B48FFF7E6FC6020ADF805
S315080038E00C000020ADF814000120ADF80E000020F1
S315080038F0049003A99348FFF71BFD4FF4F051914834
S31508003900FFF754FD19208DF8080000208DF80900EE
S3150800391000208DF80A0001208DF80B0002A8FFF799
S315080039202FFE012201218748FFF7A4FD01218548C2
S31508003930FFF7F0FC1BB000BD80B501215FF08040A9
S31508003940FFF7A4FD5FF08040FFF76CFD7E4909682C
S315080039507D4A126880B28018B0EBD1107A490860A7
S315080039607948006878494968774A526812EBD01056
S31508003970B0EB11207449486073480068C009724961
S315080039804968B0EB11207049097A002910D111282D
S315080039901FDB01206C49087200206B4948816A4880
S315080039A0007B401C68490873022001F02BF910E0DF
S315080039B065494989491C644A518163494989FA29F3
S315080039C007D3042805DA00205F490872022001F0AF
S315080039D025F95D48008C401C5B4908845A48008CD0
S315080039E0B0F5FA7F36D30020574908845648007B3D
S315080039F05549554A527E1144487300205249087366
S31508003A005148407E401C504948764F48407E0C2815
S31508003A1002DB00204C4948760020002104E04A4A8F
S31508003A200A44527B1018491C0C29F8DB002807D1D8
S31508003A304548C069002802D05FF0FF3000E000204A
S31508003A404149C969404AD2698018891CB0EB91007E
S31508003A503D49C86101BD10B501213A48FFF716FD79
S31508003A603A480088962818DA354801F00DFD374996
S31508003A70364A128801EB82014968344A334B1B885F
S31508003A8002EB8302526880B28018B0EB11102F49FE
S31508003A902E4A128801EB820148602C480088401C97
S31508003AA02A49088029480088962818DB00202749D3
S31508003AB00880002000210DE0244A02EB81025268AA
S31508003AC0904206D2214800EB810040681F4AA2F8BE
S31508003AD05C12491C9629EFDB1C49A1F85E021C48BA
S31508003AE01A49098830F81140A4B2611E1348FFF735
S31508003AF00FFCA4B2610889B21048FFF759FC0021EF
S31508003B000E48FFF703FC10BD0F48C06964214843FF
S31508003B100C21B0FBF1F0800880B270470B48B0F872
S31508003B205C0270470948B0F85E027047030000A0BF
S31508003B30000402400000024000010080000400402A
S31508003B400024014000080140C0230020080000208E
S31508003B50385C00081CB50024C020009000208DF8B1
S31508003B60040000208DF8070001208DF8050069463D
S31508003B70DFF8480301F092FAFEF768FB4021DFF808
S31508003B803C0301F081F8002813D10321052000F039
S31508003B90DCF900210320FEF7F8FB01248021C74841
S31508003BA001F072F8002819D10321062000F0CDF99A
S31508003BB014E08021C14801F067F8002809D10321E3
S31508003BC0062000F0C2F900210320FEF7DEFB0124DF
S31508003BD004E001210320FEF7D8FB00242000C0B230
S31508003BE016BD04B501236A46C9B2C0B200F03BF857
S31508003BF002BD80B5ADF800209DF800209DF8013083
S31508003C008DF800308DF8012002236A46C9B2C0B289
S31508003C1000F029F802BD80B502236A46C9B2C0B2CF
S31508003C2000F07EF800280AD19DF800009DF80110E2
S31508003C308DF800108DF80100BDF8000001E04FF680
S31508003C40FF7002BD38B504004FF4204521009C489A
S31508003C5001F0D7FC012804D06D1E002DF6D10320F3
S31508003C6000E0002032BDF8B504000D0016001F0064
S31508003C7094480078002851D1012092490870032001
S31508003C8000F0C0FF01218E4801F080FC8E48FFF746
S31508003C90D9FF032804D100208A49087003203EE092
S31508003CA000222100C9B2864801F09AFC8748FFF72E
S31508003CB0C9FF032804D100208249087003202EE09A
S31508003CC02900C9B27E4801F096FC8148FFF7BAFF81
S31508003CD0032804D100207B49087003201FE0BFB2E7
S31508003CE0002F0FD03178764801F085FC761C7F1EB0
S31508003CF07848FFF7A7FF0328F1D10020714908701B
S31508003D0003200CE001216E4801F04EFC032000F070
S31508003D1085FF00206B490870002000E00220F2BDF4
S31508003D20F8B504000D0016001F006B48007800283F
S31508003D307AD1012068490870032000F063FF012149
S31508003D405F4801F023FC6048FFF77CFF032804D195
S31508003D50002061490870032067E000222100C9B2EB
S31508003D60574801F03DFC5948FFF76CFF032804D17A
S31508003D70002059490870032057E02900C9B2504865
S31508003D8001F039FC5348FFF75DFF032804D10020F2
S31508003D9051490870032048E00121494801F0F6FB23
S31508003DA04948FFF74FFF032804D100204A49087005
S31508003DB003203AE001222100C9B2414801F010FC73
S31508003DC04648FFF73FFF03280AD1002042490870FA
S31508003DD003202AE03A4801F011FC3070761C7F1E59
S31508003DE0BFB2002F10D0BFB2012F03D10021344833
S31508003DF001F0E8FB3A48FFF725FF0328EAD100203F
S31508003E0035490870032010E001212D4801F0CCFB4C
S31508003E1001212B4801F0D6FB032000F0FFFE00200D
S31508003E202D490870002000E00220F2BD00B587B0D9
S31508003E3001215FF40010FFF712FA01210220FFF7B3
S31508003E40EEF9042206211D4801F084F9042207210F
S31508003E501A4801F07FF9C020009002208DF804006E
S31508003E6001208DF8060001208DF8070001208DF845
S31508003E7005006946114801F011F944F620600290E0
S31508003E800020ADF80C004BF6FF70ADF80E000020D0
S31508003E90ADF810004FF48060ADF812004FF4804082
S31508003EA0ADF8140002A9064801F0FCFA01210448FD
S31508003EB001F05EFB002007B000BD000000040240D0
S31508003EC0005400401B240020010003008200070064
S31508003ED080000700840007001C240020020003005D
S31508003EE040000300401C80B2642800DB002080B23A
S31508003EF0704710B50C0080B2FFF7F4FFA4B2A042D9
S31508003F0001D1012000E00020C0B210BD02280CD06B
S31508003F1003280CD004280CD005280CD006280CD071
S31508003F2007280CD020280CD00DE002200CE0022037
S31508003F300AE0042008E0082006E0072004E0012043
S31508003F4002E0092000E00920704730B595B004006A
S31508003F500D001E48B0F822131C48B0F82003FFF7DE
S31508003F60C8FF002801D001202CE018481749B1F8ED
S31508003F70201300EBC100458014481449B1F82013FA
S31508003F8020F8314000201149104AB2F8202301EBED
S31508003F90C20148600D48B0F82003FFF7A3FF0B499C
S31508003FA0A1F820030A48A4B250F824300948ADB253
S31508003FB050F825200849684600F00AFE684600F0D1
S31508003FC0B5F9C0B215B030BD000000004C1D002088
S31508003FD0B85E0008786000080C630008012110F03C
S31508003FE01F029140DFF8802340B2400942F82010B2
S31508003FF07047012110F01F029140DFF8702340B28C
S31508004000400942F820107047401CC0B2322800DB35
S315080040100020C0B2704710B50C00C0B2FFF7F4FF1D
S31508004020E4B2A04201D1012000E00020C0B210BDD8
S31508004030C0B2C9B2401A002800D53230C0B27047A3
S3150800404010B540F22771DFF8280301F099FB012823
S3150800405005D1002240F22771C54801F05BFB40F20A
S315080040606531C34801F08CFB012803D1C04801F033
S315080040704DFB28E040F22551BD4801F081FB01289F
S3150800408021D1BB4801F042FB0400BA4890F833102E
S31508004090B84890F83200FFF7BEFF002813D1B5489C
S315080040A0B44991F832104454B24890F83200FFF7F8
S315080040B0ABFFB04981F83200E4B20D2C03D10120E0
S315080040C0AC4981F8340010BDAA4890F8340070470E
S315080040D00020A84981F83400704710B504001CE098
S315080040E0A44890F83300A34991F83210884214D0B6
S315080040F02520FFF77EFF9F489E4991F83310405CC4
S315080041002070641C9B4890F83300FFF77DFF99499F
S3150800411081F833002520FFF761FF9648954991F805
S315080041203310405C0D2809D0924890F83210914817
S3150800413090F83300FFF77CFF0028D1D18D488D49D0
S3150800414091F83310405C0D280DD12520FFF751FF5B
S31508004150884890F83300FFF757FF864981F83300FF
S315080041602520FFF73BFF00202070641CFFF7B0FFF7
S3150800417010BD00B587B000207E4981F834000020C4
S315080041807C4981F8330000207A4981F83200012100
S315080041904FF48040FFF753F801210120FFF74FF84D
S315080041A007220921744800F0D5FF07220A21724820
S315080041B000F0D0FF4FF4C060019002208DF808008F
S315080041C000208DF80A0000208DF80B0001208DF8DC
S315080041D0090001A9684800F061FF4FF49640039072
S315080041E00020ADF818000C20ADF816000020ADF838
S315080041F014000020ADF812000020ADF8100003A945
S315080042005B4801F013FA012240F22551584801F0A3
S3150800421081FA01226021564801F07CFA25208DF8A2
S31508004220000000208DF8010000208DF80200012012
S315080042308DF803006846FFF7A3F901214C4801F001
S3150800424053FA01204D49086000204D49088007B0FF
S3150800425000BD4FF4DC7000E0401E0028FCD170471A
S3150800426038B50400012502E0FFF7F3FF641EEDB23E
S31508004270002D0AD080213E4801F075FA012801D1A7
S31508004280002502E0002CEFD10025002C01D00020EB
S3150800429000E0032032BD38B5040015000020374879
S315080042A00068012801D022283ED1002C02D089B20C
S315080042B0002901D1012038E030480068222803D1BE
S315080042C032202E4A106002E012202C4A10602C4838
S315080042D0018005E02178641C89B2254801F012FAAC
S315080042E02748008800280BD025480088401E244906
S315080042F008802800FFF7B4FF0028EBD0032014E05D
S315080043002800FFF7ADFF002801D003200DE01B4869
S315080043100068322803D122201849086002E00120EB
S3150800432016490860002000E0022032BD10B50400DE
S315080043302000FCF7E1FD80B2512801DB012011E0E5
S315080043400E490968012901D002200BE00D4A010037
S3150800435089B22000FFF79FFFC0B2002801D0C0B283
S3150800436000E0C0B210BD000000E100E080E100E01E
S3150800437000380140182300200000024010240020C5
S3150800438018240020E0930400012110F01F02914038
S31508004390DFF8702740B2400942F820107047012123
S315080043A010F01F029140DFF8602740B2400942F83A
S315080043B02010704780B5DFF8542712681071DFF8AF
S315080043C04C0700684171DFF84807DFF840170968AD
S315080043D00860DFF838070068011DDFF83007006855
S315080043E0006801F096FADFF82C070068001D02BD88
S315080043F000B587B001215FF48020FEF730FF012168
S315080044000220FEF70CFF07220A21DFF80C0700F04E
S31508004410A1FE07220B21DFF8000700F09BFE07220A
S315080044200D21DFF8F40600F095FE07220E21DFF8CD
S31508004430E80600F08FFE4FF4D840009002208DF871
S31508004440040000208DF8060000208DF807000120E2
S315080044508DF805006946DFF8C00600F01FFE4FF428
S315080044600040009001208DF8040001208DF8060018
S3150800447001208DF8070001208DF805006946DFF850
S31508004480980600F00BFE5FF4E13003904FF440709D
S31508004490ADF818000C20ADF816000020ADF8140091
S315080044A00020ADF812000020ADF8100003A9DFF8CF
S315080044B06C0601F0BBF8012240F22551DFF85C06D4
S315080044C001F028F901226021DFF8500601F022F9EF
S315080044D027208DF8080000208DF8090000208DF8A7
S315080044E00A0001208DF80B0002A8FFF749F8012100
S315080044F0DFF8280601F0F8F80020DFF82416A1F8FE
S3150800450020030020DFF81C1681F896010020DFF84A
S31508004510141681F897010020DFF8081681F898012B
S3150800452007B000BD401CC0B2C82800DB0020C0B2DE
S315080045307047C0B2C9B2401A002800D5C830C0B208
S31508004540704738B504000D0020E02720FFF727FF45
S315080045500020DFF8D01581F89501DFF8C805DFF8E7
S31508004560C41591F89311084490F8CA0028706D1C78
S31508004570DFF8B00590F89301FFF7D4FFDFF8A4152C
S3150800458081F893012720FFF7FFFE641E002C16D042
S31508004590DFF8900590F89301DFF8881591F89211E5
S315080045A08842D2D1012240F22551DFF8700501F088
S315080045B0B1F801226021DFF8640501F0ABF80020AC
S315080045C032BDDFF8600590F89501704780B5FFF7B2
S315080045D00FFF4FF40041DFF8400500F0B2FD0FF27F
S315080045E00D30DFF844150860DFF84005DFF84015A0
S315080045F00860DFF84005DFF840150860FDF726FE7D
S315080046004FF40041DFF8100500F099FD01BD10B523
S3150800461086B00024DFF80C05D0F89C01002805D1E7
S3150800462001F069F9DFF8FC14C1F89C01DFF8F4041D
S31508004630D0F89C01002800F00681DFF8E804D0F8DD
S315080046409C010068DFF8F4140840DFF8D414DFF89A
S31508004650D024B2F8202341F82200DFF8C404B0F8C9
S315080046602003C0B2FFF75EFFDFF8B414A1F82003F9
S31508004670DFF8B004D0F89C010068DFF8C0140840E1
S31508004680DFF8BC140860DFF8B8040068A02800F05A
S315080046908B80DFF8B01488422ED0DFF8AC1488423D
S315080046A057D0DFF8A814884200F08480DFF8A014F9
S315080046B088422ED0DFF89C1488427BD0DFF8981405
S315080046C0884259D0DFF89414884200F09280DFF8C7
S315080046D0901488425BD0DFF88C14884264D0DFF8E7
S315080046E08814884260D0DFF88414884262D0DFF8E4
S315080046F08014884258D086E0DFF87804FFF716FE63
S31508004700DFF87404FDF7F3FD0120DFF8181481F8CB
S3150800471096010020DFF80C1481F897010221022087
S31508004720FFF748FE0088FF2812DCE4B2002C0AD105
S31508004730DFF84804FFF7FAFDDFF84404FDF7D7FD74
S315080047400620FDF7A5FD0020DFF8D813C1F89C0167
S3150800475069E0DFF83004FFF7E9FDDFF82C04FDF720
S31508004760C6FD0120DFF8BC1381F897010020DFF8A9
S31508004770B413C1F89C0156E0A1A0FFF7D7FDFDF7D9
S31508004780F3FD0020DFF89C13C1F89C014BE0FDF710
S3150800479073FD9CA0FFF7CAFDFDF7E6FD0020DFF8D4
S315080047A08413C1F89C013EE00020DFF87813C1F8B5
S315080047B09C0138E0DFF8D403FFF7B8FDDFF864039F
S315080047C0D0F89C01807A00280DD0DFF85803D0F87D
S315080047D09C0110F10B02DFF8B813684600F0F8F9EF
S315080047E06846FFF7A3FD0020DFF83813C1F89C01DF
S315080047F019E0DFF8A003FFF799FD0020DFF824137E
S31508004800C1F89C010FE0DFF838030268DFF8881367
S31508004810684600F0DDF96846FFF788FD0020DFF8F6
S315080048200413C1F89C01DFF8FC0290F89311DFF835
S31508004830F40290F89201FFF77CFE002803D00120CD
S31508004840B84981F8950106B010BDB64890F89601AA
S315080048507047B44890F897017047B24890F89801A5
S31508004860704780B540F22771AC4800F089FF0128EF
S315080048701FD1AC4890F8C900AA4991F8C8108842D7
S3150800488011D0A848A74991F8C910415C89B2A34834
S3150800489000F038FFA34890F8C900FFF743FEA14986
S315080048A081F8C90005E0002240F227719B4800F014
S315080048B031FF40F26531994800F062FF012807D1BF
S315080048C00020984981F89401944800F01FFF0CE0F5
S315080048D040F22551914800F053FF012805D18F4831
S315080048E000F014FFC0B200F08FF801BDF8B504005F
S315080048F00D0054F07F408A49894AB2F8202341F8CE
S3150800490022008748B0F82003C0B2FFF70BFE84499F
S31508004910A1F8200328786978090411EB0060A978C2
S3150800492010EB0120E97808187D497D4AB2F8202362
S3150800493041F822007A48B0F82003C0B2FFF7F2FD2A
S315080049407749A1F8200328796979090411EB0060F1
S31508004950A97910EB0120E97908187149704AB2F86B
S31508004960202341F822006E48B0F82003C0B2FFF7B2
S31508004970D9FD6B49A1F820034FF4FA6720E028789F
S315080049806849684A92F8C82088542720FFF707FD27
S31508004990644890F8C800634991F8C910884205D15F
S315080049A0012240F227715D4800F0B4FE5D4880F8A8
S315080049B0C8602720FFF7E8FC641E6D1C4FF4FA67F1
S315080049C0002C1CD0574890F8C800FFF7ABFD06002E
S315080049D03000544991F8C910C0B28842CFD1380086
S315080049E0471E0028ECD100204E4981F89601022185
S315080049F00F20FFF7AAFA0820FDF74AFCE0E7F1BD09
S31508004A002D2A2D002D4F2D0010B590B00024634996
S31508004A10634A1278885462490978491C604A1170B9
S31508004A20C0B20A286AD100205D4908705B4A5D4910
S31508004A30684600F0CDF86846FFF778FC0400E4B253
S31508004A40002C02D02000C0B25AE00422564953482E
S31508004A5000F086FF002808D10120324981F8960126
S31508004A605248FFF763FC040048E0092250494B48C6
S31508004A7000F076FF002808D101202A4981F897011D
S31508004A804C48FFF753FC040038E00C224A494348D7
S31508004A9000F066FF00280ED10020224981F8970110
S31508004AA00020204981F89801FDF7DBF84348FFF715
S31508004AB03DFC040022E004224149384800F050FF3A
S31508004AC0002808D10120174981F898013D48FFF7C9
S31508004AD02DFC040012E008223B49304800F040FF54
S31508004AE0002807D102210E20FFF72FFA0E20FDF726
S31508004AF0CFFB03E03548FFF719FC04002000C0B2DD
S31508004B0010B010BD00E100E080E100E000000020E8
S31508004B10200203010400002000040240004800406F
S31508004B20281A002070200020F8230020434500089A
S31508004B30FC230020C345000800240020F800FFFFDE
S31508004B400C240020A0000100A0000800A000090015
S31508004B50A0000801A000080220000A02A0000B021B
S31508004B60A0000A0320000A05A00000082000090882
S31508004B70A0000020A862000844630008FC61000841
S31508004B80BC62000814620008D0620008DC600008F5
S31508004B90A463000850610008B06300085023002091
S31508004BA01A2400206C610008F863000854630008A2
S31508004BB0BC630008E46200086463000874630008C4
S31508004BC0006400082C620008C8630008F862000840
S31508004BD00CB41CB5044604A801900A46009401AB1F
S31508004BE06946074878441830FBF784FA009A00218A
S31508004BF0117000285CBF0098001B16BC5DF80CFB02
S31508004C00D7C2FFFF80B50B49C0B231F810100A4A67
S31508004C10C0B252F8200000F092FA01BD80B50549ED
S31508004C20C0B231F81010044AC0B252F8200000F0A1
S31508004C3088FA01BD206300086802002080B50120BB
S31508004C40FFF7E0FF0120FDF70EFB0120FFF7E6FF67
S31508004C500120FDF708FB0220FFF7D4FF0120FDF72E
S31508004C6002FB0220FFF7DAFF0120FDF7FCFA03201A
S31508004C70FFF7C8FF0120FDF7F6FA0320FFF7CEFF7E
S31508004C800120FDF7F0FA01BD008A89B2084201D079
S31508004C90012000E00020C0B27047000000B583B0D4
S31508004CA001211020FEF7CBFA01210320FEF7B7FAFF
S31508004CB003220921664800F04DFA4FF490700090DF
S31508004CC001208DF8040000208DF8060000208DF8DC
S31508004CD0070001208DF8050069465E4800F0DEF9F8
S31508004CE04FF490715B4800F02CFA80200090012068
S31508004CF08DF8040001208DF8060000208DF80700C5
S31508004D0001208DF805006946524800F0C7F9802150
S31508004D10504800F014FA0120009001208DF8040094
S31508004D2000208DF8060000208DF8070001208DF878
S31508004D3005006946474800F0B1F90420FFF762FF0D
S31508004D400220009001208DF8040000208DF806004E
S31508004D5000208DF8070001208DF8050069463D48BA
S31508004D6000F09CF90520FFF74DFF4FF40070009006
S31508004D7001208DF8040000208DF8060000208DF82B
S31508004D80070001208DF805006946314800F086F9CC
S31508004D904FF48070009001208DF8040000208DF8F3
S31508004DA0060000208DF8070001208DF805006946E9
S31508004DB0274800F073F90320FFF730FF4FF48050BF
S31508004DC0009001208DF8040000208DF806000020D0
S31508004DD08DF8070001208DF8050069461C4800F08B
S31508004DE05DF90220FFF71AFF07BD80B5C0B201289A
S31508004DF00BD0022813D08021164800F0A2F94FF4F0
S31508004E008071144800F09DF912E08021114800F0E5
S31508004E1096F94FF480710F4800F093F908E0802165
S31508004E200C4800F08EF94FF480710A4800F087F9B3
S31508004E3001BD80B5C0B2002804D02021054800F085
S31508004E407EF903E02021034800F07BF901BD00004C
S31508004E50000402400000024001B58B0718D1121F5A
S31508004E6021D351F8043BA3F1013C2CEA030C1CF0B6
S31508004E70803C04BF40F8043BF1E79CFA8CFCBCFA82
S31508004E808CF1C1F118018B40CB4040F8043B13E08C
S31508004E90042A09D311F8013B521E00F8013B5BB105
S31508004EA08B07F7D1DBE7121D5AB111F8013B521EE9
S31508004EB000F8013B03B1F8D111001CBF002200F035
S31508004EC065FD01BD4FF0807C1CEB400F94BF1CEBC9
S31508004ED0410F05E040EA010C5FEA4C0C01D288421A
S31508004EE0704718BF81427047002840F10980F44690
S31508004EF0404200F005F850F000406047002800BF27
S31508004F000AD0B0FA80F18840D1F19D01C9050206A0
S31508004F1072F1004241EB10207047000010B5FF23E4
S31508004F2013EAD0541DBF13EAD1529C429A4239E083
S31508004F30A41ADA0780EA0103134042EA012142EA89
S31508004F400020421A3CBF641E01EB4202090AB2FB6A
S31508004F50F1FE01FB1E221202B2FBF1F001FB102248
S31508004F606EF30F201202B2FBF1FE4EEA00207F34E8
S31508004F7006DDFE2C24DA53EA500050EBC45010BD6F
S31508004F80D4F1020401FB1E2240F08071192C1DDCAD
S31508004F9021FA04F0C4F12004A140114371F1004242
S31508004FA0584110BD9C421ABF03EAD1529A420FE0FB
S31508004FB080EA010E0EF00043400004D0490016D1E5
S31508004FC043F0FF4010BD490008BFD343180010BD89
S31508004FD09C4205D1D21AF7D001F00041484010BDD5
S31508004FE04A0212BF0846484000F0004010BD4AB9C0
S31508004FF00902B1FA81F2914044B1A418C00140F007
S3150800500000409EE7C90141F0004152420002B0FA51
S3150800501080F4A040141B94E790EA010F44BF81F086
S31508005020004100F0E3BC00BF421A3CBF801A891851
S315080050304FF0004CC0F3C752FF2A24D0C1F3C75320
S3150800504013B3D21AD2F1190327DD4CEA01214CFA1F
S3150800505003F321EA0303D140C20D4CEA00204018AD
S3150800506034BF20EA0C004CEA5000D20553EA00632C
S3150800507073EB0C0C52EB1020420012F1807F38BF04
S315080050807047C00DC0057047490212BF9A4200EB2F
S315080050905120F8E7D2F11703D9D5704730B400226A
S315080050A000230024002246E0012393400C681C409C
S315080050B09C423FD1036803241500EDB26D00AC4055
S315080050C0A343036003680C791500EDB26D00AC408C
S315080050D0234303600B79012B02D00B79022B19D1DC
S315080050E0836803241500EDB26D00AC40A3438360CA
S315080050F083684C791500EDB26D00AC40234383609C
S31508005100838801249440A343838083888C799440C0
S3150800511023438380C36803241500EDB26D00AC40B9
S31508005120A343C360C368CC791500EDB26D00AC40EB
S315080051302343C360521C102AB6D330BC7047018380
S31508005140704741837047D2B2002A01D0018300E03C
S315080051504183704770B400230023D2B211F00703CD
S31508005160DBB29B0012FA03F389B2CA1000EB820283
S3150800517089B2CC1000EB8404246A0F2511F00706C7
S31508005180F6B2B600B540AC43146289B2CA1000EB59
S315080051908202126A134389B2C91000EB81000362C6
S315080051A070BC704710B4002200231C4A126840F6EF
S315080051B0FE7383409A430B684C6823438C682343E9
S315080051C0C9680B4313FA00F002431448026010BC86
S315080051D07047C9B2002908D010490968012212FA95
S315080051E000F008430D49086008E00C4909680122E7
S315080051F012FA00F031EA000008490860704781B0E9
S3150800520000220092054A0092009A08308018009001
S3150800521089B20098016001B0704700000074004030
S31508005220002106490968064A1140026843681A437C
S31508005230806810430143014801607047007C0040C4
S31508005240FFEF03FF0022C20F20F00040C9B2002979
S315080052500DD0002A05D00E49096808430C49086094
S3150800526014E00C49096808430A4908600EE0002A58
S3150800527006D00749096831EA00000549086005E0D3
S315080052800449096831EA00000249086070470000CD
S31508005290087C00400C7C004030B4002300224368A0
S315080052A01B4C23400C790D6855EA042423434360BC
S315080052B08368184C23400C69CD682C438D682C43B1
S315080052C04D7954EA450423438360036B33F0F8733E
S315080052D0097D491E0A43D2B253EA0253036330BC1E
S315080052E0704700210C49096831F4403100680143D0
S315080052F0094801607047C9B2002904D0816851F095
S315080053000101816003E081684908490081607047AE
S31508005310FFFEFFFCFDF7FFC004270140F0B40024A0
S315080053200025C9B21E2911DBC46D0725B1F11E0679
S3150800533003277E43B540AC43DBB2B1F11E05032615
S31508005340754313FA05F52C43C46538E0C9B2142928
S3150800535011DBC4680725B1F1140603277E43B5405F
S31508005360AC43DBB2B1F114050326754313FA05F510
S315080053702C43C46023E0C9B20A2911DB0469072556
S31508005380B1F10A0603277E43B540AC43DBB2B1F15F
S315080053900A050326754313FA05F52C4304610EE046
S315080053A044690725032606FB01F6B540AC43DBB284
S315080053B0032505FB01F513FA05F52C434461D2B222
S315080053C0072A10DA046C1F23551E0526754313FA9F
S315080053D005F5AC43C9B2521E05235A4311FA02F524
S315080053E02C4304644EE0D2B20D2A10DAC46B1F2394
S315080053F0D51F0526754313FA05F5AC43C9B2D21F66
S3150800540005235A4311FA02F52C43C4633AE0D2B293
S31508005410132A11DA846B1F23B2F10D05052675438D
S3150800542013FA05F5AC43C9B20D3A05235A4311FAE6
S3150800543002F52C43846325E0D2B2192A11DA446BAB
S315080054401F23B2F113050526754313FA05F5AC4378
S31508005450C9B2133A05235A4311FA02F52C43446399
S3150800546010E0046B1F23B2F119050526754313FADC
S3150800547005F5AC43C9B2193A05235A4311FA02F5A0
S315080054802C430463F0BC7047806D80B270470022DD
S31508005490006889B2084201D0012200E0002210000B
S315080054A0C0B270477FB504000D0000260020042115
S315080054B02C49A6884FF6C07006406846FDF73FFEA1
S315080054C002992948B1FBF0F00643A68022884FF6D8
S315080054D0FE731A40228000262A68244B9A420BD271
S315080054E02A685200B1FBF2F189B2042900DA0421D4
S315080054F00E43401C208422E0EA884BF6FF739A424A
