S0100000536B7950617463682E73726563ED
S31508000000900A0020ED5100083152000835520008C8
S31508000010395200083D52000841520008000000000D
S315080000200000000000000000000000004552000823
S3150800003049520008000000004D52000851520008BD
S3150800004055520008595200085D52000861520008CE
S3150800005065520008695200086D520008715200087E
S3150800006075520008795200087D520008815200082E
S3150800007085520008895200088D52000891520008DE
S3150800008095520008995200089D520008A15200088E
S31508000090A5520008A9520008AD520008B15200083E
S315080000A0B5520008AF400008B9520008BD52000812
S315080000B0913F0008C1520008C5520008C9520008FD
S315080000C0CD520008D1520008D5520008D95200086E
S315080000D0DD520008E1520008E55200084D1D0008EF
S315080000E0E9520008ED520008F15200088929000873
S315080000F0F55200082DE9F04FA1B0824600201646B9
S315080001001D4602910B900DF144086FF000490AE074
S3150800011016F8011B0298D0470028029000F0B98211
S315080001200B98401C0B903078010001D10B98B2E275
S315080001302528EDD100200590069007900890099093
S315080001400A9001E040F0010016F8011F2029F9D0B5
S3150800015023290DD02B2904D02D2906D030290AD0E1
S315080001600CE040F0020080B2EEE740F00400FAE747
S3150800017040F00800F7E740F01000F4E72A290ED10E
S315080001802968296051F8042B2960002A0D9204D5A4
S31508000190514240F004000D9180B2761C11E0002116
S315080001A00D9109E00D99494505D001EB810302EB54
S315080001B0430130390D91761C3278A2F130010A29B3
S315080001C0F0D331782E2903D04FF0FF310C911DE082
S315080001D016F8011F2A2907D129682960761C51F8C3
S315080001E0042B29600C9211E000210C9109E00C996E
S315080001F0494505D001EB810302EB430130390C91E7
S31508000200761C3278A2F130010A29F0D3ADF838000D
S315080002100FF6A840317800F063FE08B116F8010B16
S315080002208DF83A009DF83A00682802BF31786829A7
S31508000230622005D06C2804BF30786C2803D1712061
S315080002408DF83A00761C11A8049016F8017BB7F1D0
S3150800025025002AD01C3800F0CA80001F022840F268
S31508000260C680133800F0ED80093800F0C080801E83
S3150800027000F05A81401E00F03081401E022840F2EC
S31508000280B680001F00F02981401F00F08180401EC3
S3150800029000F0D780401E24D0C01E0BD0801E00F070
S315080002A0D080C01E00F0CD8048E125208DF844009E
S315080002B001204DE12868286050F8044B2860039413
S315080002C00C9F002F04D5204600F016FE074606E0D0
S315080002D03A460021204600F02BFE00B1071B069780
S315080002E037E129682960002251F8040B29600021AA
S315080002F0CDE9000111A80390DDE900019142049FB0
S3150800030008BF90424FF03C0C01D10C9AC2B100F0E4
S315080003100F033033DBB23A2BA8BF2733ACF1010207
S315080003200009BB54944640EA01700909002291422B
S3150800033008BF904204D0039A07EB0C039A42E6D30F
S3150800034007EB0C000390CCF13C010C980691814216
S3150800035009DA401A08904FF6EF71BDF838000840E0
S31508000360ADF83800F5E0002840F1F3809DF8380034
S3150800037000F01400102840F0EC800D98059A801AB9
S31508000380089A801A401A0128C0F2E3800890E0E033
S315080003909DF83A0062281AD0682806D06A280CD038
S315080003A06C281CD0712808D019E02868286050F8F5
S315080003B0041B28600B980880CBE02868286050F852
S315080003C0042B28600B98C117C2E90001C1E0286810
S315080003D0286050F8041B28600B980870B9E0286854
S315080003E0286050F8041B28600B980860B1E028685C
S315080003F0C01D6FF0070101EA00022A60D2E9000178
S3150800040008322A60CDE90001002902D505982D2178
S315080004100AE0BDF83800810702D505982B2103E0CC
S31508000420C00705D50598202108F80010401C05903E
S3150800043011A80599084403903946684600F0ECF976
S3150800044087E09DF83A006C280FD0712818BF6A28F3
S315080004500BD12868C01D6FF0070101EA00022A6067
S31508000460D2E9000108322A6005E02968296051F8B6
S31508000470040B29600021CDE900019DF83A0068289F
S3150800048003D1DDE9000180B20BE0622803D1DDE982
S315080004900001C0B205E0742818BF7A2804D1DDE946
S315080004A000010021CDE900019DF83800000732D58A
S315080004B0DDE900230020834208BF82422BD047F0A3
S315080004C02000782827D10598302108F80010401C0C
S315080004D0411C059108F800701DE09DF83A00294670
S315080004E000F0DCF8CDE90001DDE9002300218B42AC
S315080004F002DA05982D210AE0BDF83800810702D5F1
S3150800050005982B2103E0C00705D50598202108F892
S315080005100010401C059011A8059908440390394617
S31508000520684600F0F3F814E0012005902868286072
S3150800053050F8041B28608DF844100AE025208DF831
S31508000540440001200590380003D088F80170022085
S3150800055005900D980599401A0899401A0699401A67
S315080005600999401A0799401A0A99471A9DF83800B6
S31508000570400710D42020012F8DF840000BDB3C46A5
S31508000580012310AA6946504600F081FC002840F075
S315080005908080641EF4D1DDF814B0BBF1000F11ACF5
S315080005A00CD014F8011B0298D0470028029070D08E
S315080005B00B98401CBBF1010B0B90F2D130208DF843
S315080005C04000089C012C09DB012310AA6946504605
S315080005D000F05DFC00285CD1641EF5D1DDF818B08A
S315080005E0039CBBF1000F0CD014F8011B0298D047EE
S315080005F0002802904DD00B98401CBBF1010B0B90C4
S31508000600F2D130208DF84000099C012C09DB01232A
S3150800061010AA6946504600F03AFC002839D1641EF3
S31508000620F5D103980699DDF81CB04418BBF1000F04
S315080006300BD014F8011B0298D047029048B30B98C8
S31508000640401CBBF1010B0B90F3D130208DF8400014
S315080006500A9C012C08DB012310AA6946504600F0C3
S3150800066016FCB0B9641EF6D19DF8380040077FF530
S315080006705AAD2020012F8DF84000FFF654AD012316
S3150800068010AA6946504600F002FC10B97F1EF6D142
S3150800069049E54FF0FF3021B0BDE8F08F622827D03A
S315080006A068281ED06A2808D06C2828D0712804D05B
S315080006B0742824D07A280DD021E00868C01D6FF070
S315080006C0070210400860D0E9002308300860194680
S315080006D0104670470A680A6052F8040B0A6000213F
S315080006E070470A680A6052F8040B0A6000B20BE009
S315080006F00A680A6052F8040B0A6040B204E00A6805
S315080007000A6052F8040B0A60C11770472DE9F343D3
S31508000710054608462F696F2808BF082405D041F00A
S315080007202001782914BF0A2410243C26D5E9002381
S31508000730642818BF69289046994606D100218B423D
S3150800074003DAD8F1000869EB49090020814508BF9A
S3150800075080450CD1286B50B9082C38D195F838004B
S31508000760000734D530203B2687F83B002FE0701E63
S3150800077000900646404649462246E31700F004FC28
S3150800078002F13000C0B23A2803DB9DF80410513953
S315080007900818B855494640462246E31700F0F4FBC8
S315080007A0804689460020814508BF804503D0E86811
S315080007B0B9198842DBD3082C09D195F83800000707
S315080007C005D5B85D302802D0761E3020B855B9193F
S315080007D0E960C6F13C00296BA861884208DA081A64
S315080007E028624FF6EF71288F08402887BDE8F38303
S315080007F000290ED595F8381001F01401102908D1F2
S31508000800696B6A69891A2A6A891A0E1A012EA8BF9B
S315080008102E62BDE8F38300002DE9F24F04468EB040
S31508000820D4E90001CDE9020104AF9DF8380040F093
S31508000830200BBBF1610F0AD0206B002848BF0620A9
S3150800084004D408BFBBF1670F01D10120206361689A
S31508000850C1F30A5040F2FF7290421CD1080304BF4C
S315080008602068002809D10320A0619DF83800613866
S315080008701A2835D30FF2586108E00320A0619DF8C5
S31508000880380061381A2828D30FF23C61E068032241
S3150800089000F0F2FBC3E1012815DA204600F027FC38
S315080008A0012810DB00250020BBF1610F1FD1E1688C
S315080008B030220A708A1CE2609DF83820612A0CBF33
S315080008C0782258220FE0626840F2FE3161F31E5228
S315080008D0451A62604FF0FF30E6E70FF2E851D5E7B8
S315080008E00FF2E851D2E74A706169891C616110B953
S315080008F0002600258AE1BBF1610F40F09880206B45
S31508000900D4E900AB00284CBF2126461CDDE90201CC
S315080009100022002300F00EFC36B23ABF8BF00040EE
S31508000920CDE902A0CDE902AB06F101082D1FB8F109
S31508000930010F8DF810200DF1110736DBDDE90201F4
S315080009400022002300F00EFC2FD21C2102A800F082
S3150800095021FCDDE9020100F0A3FCA8F10708B8F1C3
S31508000960010F814609DB00F0C7FC02460B46DDE9AC
S31508000970020100F0D9FCCDE90201F81D072105E0C6
S3150800098009F00F0200F8012D4FEA2919B9F1010FF4
S3150800099001DB491EF4D5491E5CBF002200F8012D73
S315080009A0F9D5C71DB8F1010FC8DA0DF11100391ACA
S315080009B0B142B8BF0E4636B230000DF111072FD43A
S315080009C0884206DA04A9014449780829A8BF0F21F4
S315080009D000DA002104AA024400E0761E12F8013962
S315080009E0401E8B42F9D00F2904D104A901444A7844
S315080009F0521C4A70002802D504AF761C2D1D36B24B
S31508000A00701E0DD439180A783032D2B23A2A03DB6E
S31508000A109DF838303A3B9A18401E01F80129F2D55C
S31508000A20206B002840F1F280701E2063EEE0DDE9BD
S31508000A3002010022002300F07DFB3CBF81F000414B
S31508000A40CDE902012DB247F2975068434D49DFF8C8
S31508000A50389180FB01214D1305EBD5752DB2C5F1F3
S31508000A60070ABAF1010F98461CDBDDE902675FEA5F
S31508000A70CA7007D542464B463046394600F014FD43
S31508000A8006460F464046494642464B464FEA6A0ADC
S31508000A9000F00AFDBAF1000F80468946E7D1CDE994
S31508000AA0026724E0CAF1000A0026384F14E05FEA1C
S31508000AB0CA7007D542464B463046394600F0F4FC24
S31508000AC006460F464046494642464B4600F0ECFC71
S31508000AD04FEA6A0A80468946BAF1000FE7D1DDE98E
S31508000AE0020132463B4600F0B1FDCDE90201BBF1F9
S31508000AF0660F216BDFF898900CBF05F10A000620F7
S31508000B004618142EA8BF132630208DF810000DF1B4
S31508000B101107012E40DBDDE9020100F0D7FB07F1E2
S31508000B20080104221B4FA0FB0773DB0803EB8307AE
S31508000B30A0EB4700303001F8010C164FA3FB0770F5
S31508000B40C00800EB8007A3EB47033033521E01F8B9
S31508000B50023DE7D1083E012E01F10807D9DBDDE9A0
S31508000B60020100F0B3FB00F0D1FB02460B46DDE9BB
S31508000B70020100F0D9FB00224B4600F095FCCDE9B6
S31508000B800201C8E789B5F814000024400000F03FC8
S31508000B9084D79741CDCCCCCC0DF11100381A0DF184
S31508000BA0110702E0401E6D1E7F1C39783029F9D0E6
S31508000BB0BBF1660F08BF691C04D0BBF1650F0CBFFB
S31508000BC001210021226B8E1836B2B042B8BF064604
S31508000BD036B231001AD4814204DA785C3528A8BFC7
S31508000BE0392000DA30207A18521E00E0761E12F8F4
S31508000BF00139491E8342F9D0392802D1785C401C54
S31508000C007854002902D57F1E761C6D1C2DB29DF8DE
S31508000C103810009533B23A46204600F003F80FB074
S31508000C20BDE8F08F2DE9F043054685B01F46D5F897
S31508000C303080012F8946164602DA01270FF29426DC
S31508000C4049F02000BDF93040662808BF641C17D05B
S31508000C50672840F0848014F1040FC0F2868044456A
S31508000C6080F2838095F83800641C000702D4474553
S31508000C70B8BFB84624B2B8EB040848BF4FF000081E
S31508000C8024B2E868A969012C27DA4A1C30234354A0
S31508000C90B8F1010F03DA95F83800000703D5E968BB
S31508000CA02E208854521C18EB040FB8BFC8F1000454
S31508000CB024B260426862A044B845AA61B8BF4746F4
S31508000CC0E868AB693FB2EF613A463146184400F02E
S31508000CD0D3F9A8EB0700A862C2E022469742084467
S31508000CE018DA3A46314600F0C7F9A9697918E01BBF
S31508000CF0B8F1010FA961686203DA95F838000007B0
S31508000D0005D5EA682E205054E869401CE861C5F804
S31508000D102880A5E0314600F0AFF9A86920183F1BE6
S31508000D20B8F1010F03DA95F83810090703D5EA6810
S31508000D302E211154401CA8613FB2B845B8BF47469A
S31508000D40E868AB693FB23A463119184400F094F99D
S31508000D50A8693818A861A8EB0700686280E0B9F1AD
S31508000D60610F16D14FF0700918E0474504DA95F877
S31508000D703810090758BFB846B8F1010848BF4FF000
S31508000D800008B9F1670F14BF4FF045094FF0650920
S31508000D9004E0B9F1410F08BF4FF05009A969EB68A3
S31508000DA0481CA861B8F1010F16F8012B5A5403DA4A
S31508000DB095F83810090719D5EA68431CAB612E2146
S31508000DC01154B8F1010F11DB7F1E3FB2B845B8BF09
S31508000DD04746E8683FB23A463146184400F04CF9AF
S31508000DE0A8693818A861A8EB07006862E868A969C5
S31508000DF00144200081F8009003D42B2048708E1CF3
S31508000E0003E02D224A708E1C644200270DF1080863
S31508000E1008E00A22684600F044FD019808F8010B2C
S31508000E207F1C009C21B20129F3DA022F06DA49F069
S31508000E302000652804BF302006F8010B4FB9302082
S31508000E4006F8010B07E07F1E02A8C05D303006F8E1
S31508000E50010B012FF7DAE868A9690844301AE86136
S31508000E6095F8380000F0140010280DD16869A969B2
S31508000E700818696A0818E9690818A96A0818696BD8
S31508000E808842BCBF081A286205B0BDE8F083F8B5E9
S31508000E9004460D4616461F46002077B116F8011B74
S31508000EA0A868A047A86030B1E86A401CE86200203C
S31508000EB07F1EF3D1F2BD4FF0FF30F2BD686A6C7445
S31508000EC07A4C00006E616E004E414E00696E6600F7
S31508000ED0494E460030000268531C03601170704783
S31508000EE00278C9B28A421AB11CBF10F8012FF9E775
S31508000EF018BF00207047000000F10103810704D0E5
S31508000F0010F8011B89B18107FAD10268B2F10131E3
S31508000F10914311F0803F04BF50F8042FF6E710F80C
S31508000F20011B11B110F8011BFBE7C01A704700003E
S31508000F30C9B2830706D0521E22D310F8013B994244
S31508000F40F7D11FE0083A13D302F1040241EA01215E
S31508000F5041EA014150F8043B121F21BF4B40A3F15F
S31508000F60013C2CEA030C1CF0803FF3D0C9B2001FE9
S31508000F70083210F8013B521E28BF91EA030FF8D831
S31508000F8018BF0120401E70471B4213D1094236D1B3
S31508000F902AB18446B0FBF2F002FB10C2704700F09B
S31508000FA087BCFCD30022002370470B0002000021F7
S31508000FB000207047904271EB030CF6D370B5B1FA76
S31508000FC081F4B3FA83F52C1BA340C4F1200532FA49
S31508000FD005F63343A2405FF00046E64002E05B08B0
S31508000FE05FEA3202841A71EB030524BF20462946BC
S31508000FF07641F4D302000B003000002170BD012AAF
S31508001000CFD970B5140C20D0B1FA81F4B2FA82F5B2
S31508001010C4F120046419B4F12006D6D3B2405FF0B7
S315080010200044F440002502E052085FEA3303C61A7A
S3150800103071EB020E24BF3046714664416D41F3D30D
S3150800104002000B002000290070BD0C46B1FBF2F12E
S3150800105002FB11452D0445EA1045B5FBF2F402FBE7
S31508001060145580B240EA0545B5FBF2F002FB105272
S3150800107040EA044070BD000062B38B0708D0521ED8
S3150800108011F8013B00F8013B00F024808B07F6D1EC
S31508001090830740F0208000BF103A07D330B4B1E888
S315080010A03810103AA0E83810F9D230BC530724BFDC
S315080010B0B1E80810A0E8081044BF51F8043B40F80E
S315080010C0043BD20724BF31F8022B20F8022B44BF79
S315080010D00B7803707047083A07D3B1E80810083A46
S315080010E040F8043B40F804CBF7D25307E4E730B4A2
S315080010F0436803F000420121C3F313034360002B46
S3150800110004BF0368002B08D10DE00368DD0F45EA2C
S31508001110440444605B000360491E4468E302F4D556
S31508001120C4F31303436043681A434260084630BC5D
S31508001130704700004FF4001C1CEB410F94BF1CEBDA
S31508001140430F09E041EA030C50EA4C0C52EA0C0C36
S3150800115003D2994208BF9042704714BF8B4282421D
S31508001160704700004FF4001C1CEB410F94BF1CEBAA
S31508001170430F09E041EA030C50EA4C0C52EA0C0C06
S3150800118003D28B4208BF8242704714BF99429042ED
S315080011907047000070B504460D466068C0F30A50F3
S315080011A040F2FF71884207D16068000304BF2068D7
S315080011B0002817D0022070BD20B92046FFF797FFF8
S315080011C0012866DA012D0FDB40F2FF71091A8D42FC
S315080011D00AD36068002847BF00202F4900202F49FE
S315080011E0C4E90001012070BD4142A942616806DADE
S315080011F06FF31E51401941EA0050606040E0401EFE
S3150800120063684519012205F1350062F31F53352835
S3150800121001F00041636003D361600020206070BD67
S31508001220002015F11F0F04DA2068236000222035FC
S3150800123062606A4212D0401E25688041C2F12003CE
S31508001240C0439D4045EAD07025686668D54006FAD1
S3150800125003F32B4323606368D340636062680A43E1
S31508001260B0F1004F626003D80DD12078C0070AD5C7
S315080012702068401C2060206828B96068401C6060AF
S315080012804FF0FF3070BD6068884204BF20680028B0
S31508001290F6D1002070BD00BF0000F0FF0000F07F0F
S315080012A0F446400D40EAC120490006D200F014F881
S315080012B0004248BF6FF00040604700F00DF84FF05D
S315080012C0004188428CBF084640426047400D40EACC
S315080012D0C120490080F00D8040F00040490DA1F57D
S315080012E08061491C05D4D1F11F0154BFC840C017FD
S315080012F070474FF000007047010040F10980F4463E
S31508001300404200F005F851F000416047010000BF77
S3150800131009D0B0FA80F18840C91CC1F58461090575
S3150800132001EBD02140057047F0B44FF0004591EA33
S31508001330030F44BF6B4000F0BDBA00BF841A71EBBF
S31508001340030604D26E40001BB141121973414FF4D3
S31508001350001C1CEB410F34BF7CEB430684E00C0DEC
S31508001360A4EB1356362E7DDC012E43DC45EAC32357
S3150800137043EA525312BFD20292025B08240545EA99
S31508001380C12141EA5051D2EBC020994125D407D159
S31508001390B0FA80F610FA06F164D00020203608E08C
S315080013A0B1FA81F6B140C6F1200220FA02F21143E1
S315080013B0B0404FEAF474B4EB465434F001064FEAF1
S315080013C074040AD8D6F50016760D04F00044F040E9
S315080013D061FA06F25040F1404840C00A40EA4150DE
S315080013E021F0004128BF5FEA500550F1000044EBA8
S315080013F0D12137E045EAC323DB0A45EAC121C90AF8
S31508001400B6F120050EDD42EA0242120CC5F12006AD
S3150800141003FA06F6EB4042EA06056D42984161F189
S3150800142000010DE062FA06F5F240554063FA06FC43
S3150800143082EA0C02F3405A406D42904161EB030187
S3150800144011F4801F05D1641E620502D06D0040416B
S31508001450494121F48011430875F1004350F1000019
S3150800146041EB0451F0BC70471CEB410F15D223F039
S31508001470004352EA43060BD04FEA4C0CBCEB410F33
S3150800148004D80C0D661E342EB7DDEBE7801A994199
S3150800149050EA410608BF0021E4E708BF1CEB430FEA
S315080014A028BF6FF00001DDE7B0B581EA030C0CF048
S315080014B0004C40F2FF7515EA11541DBF15EA135783
S315080014C0AC42AF4239E0E41923EA455343F48013AA
S315080014D0C90241F0004141EA505EC7021100A7FB6C
S315080014E0020200284FF00000EEFB01204FF0000139
S315080014F0E3FB072118BF42F00102401800214941C9
S31508001500E3FB0E01A4F580640F0302D252004041AA
S31508001510494154F101046CDD470872F1004250F16B
S31508001520000051EB0451A1F580115CBF41EA0C01A2
S31508001530B0BD4CEA05510020B0BD05EA1357AC42D0
S3150800154014BFAF4241E050EA410E1CBF52EA430EB7
S3150800155002E061460020B0BD24423C441BD15FEA4C
S31508001560070EF6D0090302BF01460020AEF1140E9D
S31508001570B1FA81F7AEEB070401FA07FE0C37C7F19B
S31508001580200100FA07F7C8404EEA000E23EA455341
S3150800159043F48013A2E733F00043B3FA83F704BF9A
S315080015A0B2FA82FE77440B3FE41BB7F1200E2FBF39
S315080015B002FA0EF3BB40C7F1200E22FA0EFE38BF20
S315080015C043EA0E03BA40641C82E750EA410E14BF90
S315080015D052EA430E6FF000014FF4001717EB430F62
S315080015E08ABF194617EB410FB5E74CEA05510020AB
S315080015F0B0BDD4F10104B4F120070FDAC4F1200715
S31508001600520828BF42F0010210FA07F501FA07F757
S31508001610E1BF2A43E0403843E1400FE0352C98DC2F
S31508001620C7F1200452EA400220FA07F218BF42F036
S31508001630010231FA07F0A1400A43002172F1004283
S3150800164050F1000051EB0C01B0BD00002DE9F0414E
S3150800165040F2FF7581EA030C0CF0004C15EA1154B0
S315080016601DBF15EA1357AC42AF42E9E0BC41C1F3CE
S315080016701301C3F31303801A994143F4801304D268
S31508001680641E4000494180185941C90241EA505137
S31508001690B1FBF3F603FB1611A2FB0675D7EBC020C8
S315080016A0A94102D2761E80185941C90241EA505111
S315080016B0B1FBF3FE03FB1E11A2FB0E75D7EBC02090
S315080016C0A94103D2AEF1010E80185941890241EAB7
S315080016D09051760546EA8E2EB1FBF3F603FB1611FA
S315080016E0A2FB0675D7EB8020A94102D2761E801888
S315080016F05941C90241EA50514EEA060EB1FBF3F6CA
S3150800170003FB1611A2FB0675D7EBC020A94102D22E
S31508001710761E80185941C90241EA5051B1FBF3F7C8
S3150800172003FB1711A2FB0735D3EBC020A94167F1CC
S3150800173000070CBF004247F0010766F3D5274FEABA
S315080017401E31B80814F5806414DDBD0775F1004232
S3150800175050EB0E5051EB045111F5801F5CBF41EA66
S315080017600C01BDE8F0814CF07F6141F0E0410020BA
S31508001770BDE8F081BD076D0840EA0E5041F48011BE
S31508001780D4F10104B4F120060ADAC4F120060200F5
S31508001790E04001FA06F3E1401843B24015430EE073
S315080017A0342C14DCC6F1200445EA40056D0820FAFD
S315080017B006F2154321FA06F0A1400D43002175F102
S315080017C0004250F1000051EB0C01BDE8F081002009
S315080017D05FEA0C01BDE8F081CFB992185B41B3FA14
S315080017E083F704BFB2FA82F6BF190B3FB7F120069A
S315080017F02FBF02FA06F3BB40C7F1200622FA06F607
S3150800180038BF3343BA401CB1E419641E2FE77F4240
S3150800181031F00041B1FA81F404BFB0FA80F6A41998
S315080018200B3CB4F120062FBF00FA06F1A140C4F123
S31508001830200620FA06F638BF3143A0403C1B16E7BF
S31508001840AC421ABF05EA1357AF4214E050EA410604
S315080018501CBF52EA4306BFE750EA410730466146D5
S315080018601CBF41EA0551BDE8F08152EA430C08BFA6
S31508001870C143BDE8F08100204FF4001616EB410F76
S3150800188098BF16EB430F08BF16EB410F24BFC143A1
S3150800189005E016EB430F0CBF61464CEA0551BDE85F
S315080018A0F08191FBF2F303FB1211C0E90031704796
S315080018B070470000841A71EB030603D2001BB1417E
S315080018C0121973414FF4001C1CEB410F34BF7CEB1B
S315080018D0430443E00C0DA4EB1356352E50DC45EAC1
S315080018E0C323DB0A45EAC121C912B6F120050DDD7D
S315080018F063FA05F6EB4086EA0305124218BF45F07F
S315080019000105C01851F100010CD213E062FA06F580
S31508001910F2405540F3415A40B340F3405A408018CC
S31508001920594107D349085FEA30005FEA350528BF01
S3150800193045F0010501F58011420875F1004250F1A4
S31508001940000041EB0451F0BC4FF4001C1CEB410FA6
S3150800195038BF70470020090D090570471CEB410F79
S3150800196010D252EA43060BD0BCEB410F05D80C0D3A
S31508001970AB43661E342EB5DD02E0AB4380185941F1
S31508001980F0BC7047F0BC7047012110F01F0291406F
S31508001990DFF8B42640B2400942F82010704701210A
S315080019A010F01F029140DFF8A42640B2400942F821
S315080019B02010704780B5DFF8982612681071DFF896
S315080019C0900600684171DFF88C06DFF8841609680E
S315080019D00860DFF87C060068011DDFF874060068F9
S315080019E0006800F006FCDFF870060068001D02BDFE
S315080019F038B50400080015001900DFF854261268E7
S31508001A009480DFF84C261268D080DFF84406006818
S31508001A100572EDB2DFF83806006810F109042A00ED
S31508001A202000FFF729FBEDB2DFF8300610EB0520A2
S31508001A30DFF81C1609680860DFF814060068011D3F
S31508001A40DFF80C060068006800F0D3FBDFF808062C
S31508001A500068001D32BD38B50400080015001900DD
S31508001A60DFF8EC2512681471DFF8E4251268A2F88D
S31508001A700500DFF8DC050068C571EDB2DFF8D005B2
S31508001A80006810F108042A002000FFF7F5FAEDB205
S31508001A90DFF8CC0510EB0520DFF8B41509680860F7
S31508001AA0DFF8AC050068011DDFF8A40500680068CA
S31508001AB000F09FFBDFF8A0050068001D32BD00B5E9
S31508001AC087B001215FF4802000F04FFC012102203D
S31508001AD000F02BFC07220A21DFF8880500F0C6FC77
S31508001AE007220B21DFF87C0500F0C0FC07220D2138
S31508001AF0DFF8700500F0BAFC07220E21DFF864054E
S31508001B0000F0B4FC4FF4D840009002208DF8040091
S31508001B1000208DF8060000208DF8070001208DF8BA
S31508001B2005006946DFF83C0500F044FC4FF4004028
S31508001B30009001208DF8040001208DF80600012090
S31508001B408DF8070001208DF805006946DFF81405B1
S31508001B5000F030FC5FF4E13003904FF44070ADF8CC
S31508001B6018000C20ADF816000020ADF8140000206F
S31508001B70ADF812000020ADF8100003A9DFF8E8045C
S31508001B8000F09CFC012240F22551DFF8DC0400F04D
S31508001B9009FD01226021DFF8D00400F003FD2720AB
S31508001BA08DF8080000208DF8090000208DF80A003D
S31508001BB001208DF80B0002A800F050FD0121DFF886
S31508001BC0A80400F0D9FC0020DFF8A01481F89200E0
S31508001BD00020DFF8981481F8930007B000BD401C78
S31508001BE0C0B2462800DB0020C0B2704710B50C0012
S31508001BF0C0B2FFF7F4FFE4B2A04201D1012000E031
S31508001C000020C0B210BDC0B2C9B2401A002800D523
S31508001C104630C0B2704780B5C9B2C0B2FFF7F3FF0D
S31508001C20D0F14500C0B202BD70B504000D0033E026
S31508001C30DFF8380490F84600FFF7D1FF06003000B9
S31508001C40DFF8281491F84710C0B2884224D02878C3
S31508001C50DFF81814DFF8142492F846208854272051
S31508001C60FFF79DFEDFF8040490F84600DFF8FC1342
S31508001C7091F84710884206D1012240F22771DFF811
S31508001C80E80300F08FFCDFF8E40380F846602720BD
S31508001C90FFF77AFE641E6D1C002CC9D170BD38B5DD
S31508001CA004000D002AE0DFF8C40390F88F00DFF87F
S31508001CB0BC1391F88E10884220D02720FFF76FFEBC
S31508001CC00020DFF8A81381F89100DFF8A003DFF8F9
S31508001CD09C1391F88F10084490F8480028706D1CE2
S31508001CE0DFF8880390F88F00FFF779FFDFF87C1399
S31508001CF081F88F002720FFF747FE641E002CD2D1FB
S31508001D00002032BDDFF8640390F89100704780B573
S31508001D10FFF7D5FE4FF40041DFF8480300F09DFBBE
S31508001D20DFF84C03DFF84C130860DFF84C03DFF8E4
S31508001D304C130860DFF84803DFF8481308604FF4CF
S31508001D400041DFF8200300F086FB01BD10B540F224
S31508001D502771DFF8140300F04EFC012821D1DFF8C3
S31508001D600C0390F84700DFF8041391F846108842F0
S31508001D7011D0BE48BD4991F84710415C89B2BA48AE
S31508001D8000F008FCB94890F84700FFF728FFB74964
S31508001D9081F8470005E0002240F22771B24800F0BA
S31508001DA001FC40F26531B04800F025FC012807D156
S31508001DB00020AE4981F89000AB4800F0EFFBAFE099
S31508001DC040F22551A84800F016FC012840F0A880EA
S31508001DD0A54800F0E3FB0400A44890F89000012809
S31508001DE012D0022856D0E4B214F0F800202804D005
S31508001DF0E4B214F0F800A02840D101209B4981F8EC
S31508001E0090000020A04908709848984991F88E10CB
S31508001E10084480F84840954890F88E00FFF7DFFEA2
S31508001E20924981F88E0098480078401C96490870B7
S31508001E3095480078022810D1944804709348007891
S31508001E403D280ADB032000F0AEFE0020874981F812
S31508001E5090000120854981F891008B480078042874
S31508001E6017DB8A48007800280CD100207F4981F8C2
S31508001E70900001207D4981F891000AE0022000F0D7
S31508001E8092FE4DE00220794981F8900000208049B1
S31508001E90087045E0754890F88F10744890F88E00E1
S31508001EA0FFF7A4FE00280BD0042000F07CFE0120DA
S31508001EB06E4981F8910000206C4981F890002FE066
S31508001EC06A486A4991F88E10084480F8484067487D
S31508001ED090F88E00FFF783FE644981F88E006C48FF
S31508001EE00078401C6A49087069480078674909788B
S31508001EF0884207D300205D4981F8900001205B499C
S31508001F0081F89100594890F88F10584890F88E003B
S31508001F10FFF781FE062803DA0120544981F891006B
S31508001F2010BD10B500245148D0F89400002804D1FB
S31508001F3000F051F94D49C1F894004C48D0F8940086
S31508001F40002860D04948D0F89400006851490840F4
S31508001F505149086050480068A0284BD04F4988422C
S31508001F601BD04F49884233D04E4988421AD04E4931
S31508001F7088423FD04D49884233D04D49884239D0AE
S31508001F804C4988422DD04C49884233D04B49884227
S31508001F9030D04B4988422DD031E00120334981F8B1
S31508001FA0920001240020314981F893000221022081
S31508001FB0FFF700FD0088FF2809DCE4B2002C02D1F7
S31508001FC0062000F0F0FD00202849C1F894001AE028
S31508001FD00120264981F8930000202449C1F894007D
S31508001FE011E000F0D4FD00F046FE00201F49C1F8BC
S31508001FF0940008E000201D49C1F8940003E0002081
S315080020001A49C1F8940010BD70B504000D001600F9
S3150800201033002A00D2B20021E4B2200080B2FFF7D2
S31508002020E7FC33002A00D2B2E4B2210089B2FF20CD
S31508002030FFF711FD70BD0D4890F8920070470B48E8
S3150800204090F893007047000000E100E080E100E0AE
S3150800205000000020200203010400002020050A02D7
S3150800206020040A050004024000480040081A00201F
S31508002070291C0008F81B00209F1C0008FC1B0020D8
S31508002080051D0008001C0020141C0020161C00203A
S31508002090151C0020F800FFFF0C1C0020A000010002
S315080020A0A0000800A0000801A000080220000A02FB
S315080020B0A0000B02A0000A0320000A05A0000008E1
S315080020C0A000002038B5002469460120544A126849
S315080020D09047002804D4009810F07800202801D0F2
S315080020E000204CE00DF1010103204D4A126890478B
S315080020F0002801D5002042E00098000210F4E060B4
S315080021000099C1F307210843009911F0F801A029A5
S3150800211029D144490968491C1E2291FBF2F302FBA6
S315080021201311414A1268914201D1002027E03F4924
S315080021303C4A126884235A4311443A4A1268521C8C
S315080021401E2392FBF3F503FB1522364B1A60009A01
S315080021500A60091D002811D0314A126890470028E4
S315080021600CD500200BE0009911F0F801202903D1C5
S315080021702F4909680C00EAE7002000E0200032BD7C
S3150800218010B504002748006827490968884210D016
S315080021902648254909688422514308442249096882
S315080021A0491C1E2291FBF2F302FB13111E4A116011
S315080021B010E0002C0AD11F480068002806D01D48E8
S315080021C000688047002801D1002003E0FFF77AFF66
S315080021D00028D7D010BD80B50020FFF7D1FF02BD7B
S315080021E080B5FFF76FFF0028FBD001780906F8D401
S315080021F002BD80B5104801680F48006800680002F3
S3150800220010F4E0600C4A12681268C2F30722104301
S31508002210001D0A4A12689047FFF7E2FF01BD000059
S31508002220FC1B0020041C0020081C0020900A00202B
S3150800223004000020001C002000000020F81B0020DD
S31508002240C0B2DFF850110860704700210021002253
S315080022500023002100214D49096811F00C010029CD
S3150800226006D0042911D0082912D00C2913D031E040
S3150800227047490968C1F342310122491C12FA01F1A2
S315080022804FF400425143016030E0434901602DE0BC
S31508002290424901602AE03D49096811F470113B4A38
S315080022A0126812F440023E4B890C595C920D521C7E
S315080022B0364B1B6813F48033002B05D1364B594334
S315080022C0B1FBF2F1016004E0344B5943B1FBF2F182
S315080022D001600BE02E490968C1F342310122491C0D
S315080022E012FA01F14FF40042514301602749096887
S315080022F011F0F00109092B4A515C0268CA40426094
S315080023002249096811F4E061090A264A515C4268C3
S31508002310CA4082601D49096811F46051C90A214AF8
S31508002320515C4268CA40C2607047C9B2002905D0EC
S315080023301D49096808431C49086005E01A490968E7
S3150800234031EA0000184908607047C9B2002905D06B
S315080023501649096808431549086005E013490968DC
S3150800236031EA0000114908607047C9B2002905D052
S315080023700F49096808430E49086005E00C490968D1
S3150800238031EA00000A490860704700000838024030
S3150800239004380240000047420024F40000127A0084
S315080023A06C020020780200201C38024020380240C7
S315080023B02438024030B4002200230024002246E0DC
S315080023C0012393400C681C409C423FD103680324B8
S315080023D01500EDB26D00AC40A343036003680C79A9
S315080023E01500EDB26D00AC40234303600B79012B59
S315080023F002D00B79022B19D1836803241500EDB29C
S315080024006D00AC40A343836083684C791500EDB238
S315080024106D00AC4023438360838801249440A34322
S31508002420838083888C79944023438380C3680324FC
S315080024301500EDB26D00AC40A343C360C368CC7908
S315080024401500EDB26D00AC402343C360521C102A40
S31508002450B6D330BC70470183704741837047D2B208
S31508002460002A01D0018300E04183704770B400233D
S315080024700023D2B211F00703DBB29B0012FA03F372
S3150800248089B2CA1000EB820289B2CC1000EB840430
S31508002490246A0F2511F00706F6B2B600B540AC431C
S315080024A0146289B2CA1000EB8202126A134389B217
S315080024B0C91000EB8100036270BC704730B585B067
S315080024C004000D000020002000210021A889002812
S315080024D0208A30F44050E98808432082A08925499B
S315080024E00840A9882A8911436A8911430843A081AB
S315080024F0A08A30F44070A9890843A0826846FFF78D
S31508002500A4FE1B48844201D1039800E00298A189E1
S31508002510090406D51921484329684900B0FBF1F199
S3150800252005E01921484329688900B0FBF1F16420C8
S31508002530B1FBF0F000010209642303FB1211A28922
S31508002540120408D5C90032316422B1FBF2F111F048
S315080025500701084307E0090132316422B1FBF2F1B1
S3150800256011F00F010843208105B030BD00000000BE
S3150800257000380140F3E9FFFFC9B2002904D0818978
S3150800258051F40051818104E081894DF6FF721140B2
S3150800259081817047C905C90D818070478088C0054B
S315080025A0C00D704730B4002300240024002589B2EA
S315080025B040F66A13994205000800C0B24309DBB227
S315080025C089B211F01F04012010FA04F4012B01D17D
S315080025D00C3504E0022B01D1103500E01435D2B2D7
S315080025E0002A03D028682043286002E02868A04310
S315080025F0286030BC704710B4002200230022002255
S3150800260089B240F66A1291420A00D2B25209D2B28F
S3150800261089B211F01F03012414FA03F3012A02D127
S315080026208289134006E0022A02D1028A134001E099
S31508002630828A134089B20A0A92B2012111FA02F279
S3150800264000880240002B03D0002A01D0012200E0B6
S3150800265000221000C0B210BC704700000021002202
S315080026600F23C17800291ED01449096811F4E061C6
S31508002670D1F5E061090AD1F10402DBB20B414178D8
S31508002680914082781A40114309010D4A0378D154C2
S315080026900121027812F01F0291400A4A007840117F
S315080026A042F8201009E00121027812F01F02914039
S315080026B0054A0078401142F8201070470CED00E0FA
S315080026C000E400E000E100E080E100E0BFF34F8FA6
S315080026D0DFF8AC05006810F4E060DFF8A8150843D9
S315080026E0DFF89C150860BFF34F8F00BFFDE700B504
S315080026F087B0DFF8940504905FF0814005900820C4
S315080027008DF8180010208DF8190020208DF81A0071
S31508002710DFF874050190DFF87405029008208DF83B
S315080027200C0010208DF80D0020208DF80E0001A851
S3150800273000F0D0FA10208DF8000000208DF8010076
S3150800274000208DF8020060208DF80300684600F02E
S3150800275013FE07B000BDE0B500208DF8080002A8FA
S3150800276000F0F0FA684600F04DFB002813D100206F
S315080027700FE0694631F910104FF47A62514348F276
S31508002780120291FBF2F1DFF8082502EB40025180B4
S31508002790401C0328EDDB684600F06FFB002813D1C8
S315080027A000200FE0694631F9101041F28832514392
S315080027B046F69B7291FBF2F1DFF8D42402EB400255
S315080027C01181401C0328EDDB684600F049FE00280D
S315080027D013D100200FE0694631F910104FF47A62E0
S315080027E0514346F6E82291FBF2F1DFF8A42402EB06
S315080027F04002D181401C0328EDDB07BD00B587B038
S3150800280020208DF8000001208DF8010008208DF8A1
S31508002810020000208DF8030000208DF80400002037
S315080028208DF80500684600F057FE00208DF8080070
S3150800283000208DF8090000208DF80A0000208DF888
S315080028400B00002003900020049002208DF814004D
S3150800285002A800F04FFF07B000BD80B5684600F03B
S315080028600DFF00280AD10099DFF81C0400F08CFF40
S3150800287000F0F6FFDFF8181488820AE000F077FF08
S31508002880DFF8041400F080FF00F0EAFFDFF8001418
S315080028908882684600F0C4FE002809D10099DFF84E
S315080028A0E80300F071FF00F0DBFFDFF8E413C882ED
S315080028B001BD00B585B00C208DF800000020ADF8EC
S315080028C002004FF48060ADF8040000208DF8060081
S315080028D000208DF8070000208DF8080000200390DE
S315080028E05FF0FF300490684600F0EFFF05B000BDCA
S315080028F000B585B001211020FFF737FD4FF4FA40E7
S31508002900ADF80400C820029001A9DFF8880301F099
S315080029102FF82B208DF8000000208DF801000020EC
S315080029208DF8020001208DF803006846FFF796FE31
S3150800293001220121DFF85C0301F000F90121DFF82B
S31508002940540301F04BF805B000BD80B501F008FC52
S31508002950CF49888301F00EFCCD49C88301F00EFCEF
S31508002960CB49088401BD80B50120C949487001F0EA
S3150800297064FDFFF7BCFEFFF741FFFFF79AFF01F082
S3150800298063F9FFF7B5FF01BD80B50121C14801F024
S31508002990E1F80120BE49087001BD00B58BB0BC48FE
S315080029A00078002800F0DB8000F025F90020B849FF
S315080029B00870FFF7D0FEFFF750FF00F0D0FFB449CC
S315080029C08861FFF7C2FFB248806900280ED1B24875
S315080029D00068401CB0490860AF480068052805DB58
S315080029E00020AD490860072000F0DDF8A848B0F9D6
S315080029F006000090A648B0F90430A548B0F90220B0
S31508002A00A64901A801F072FD01A8FEF775FA01AA08
S31508002A100100C9B20820FFF7F7FA9D48B0F90C0083
S31508002A2000909B48B0F90A309948B0F908209C49AB
S31508002A3001A801F05BFD01A8FEF75EFA01AA0100F4
S31508002A40C9B21420FFF7E0FA9148B0F912000090D5
S31508002A508F48B0F910308E48B0F90E20914901A878
S31508002A6001F044FD01A8FEF747FA01AA0100C9B220
S31508002A700C20FFF7C9FA8648B0F914208A4901A83C
S31508002A8001F034FD01A8FEF737FA01AA0100C9B220
S31508002A901020FFF7B9FA7E48B0F91620834901A835
S31508002AA001F024FD01A8FEF727FA01AA0100C9B220
S31508002AB02420FFF7A9FA764882697D4901A801F022
S31508002AC015FD01A8FEF718FA01AA0100C9B21820D7
S31508002AD0FFF79AFA6E48828B764901A801F006FD3F
S31508002AE001A8FEF709FA01AA0100C9B21C20FFF7DE
S31508002AF08BFA6748038C6648C28B6F4901A801F0B8
S31508002B00F5FC01A8FEF7F8F901AA0100C9B22020D0
S31508002B10FFF77AFA00F0A8F8002814D16748428827
S31508002B20501C6649488092B2654907A801F0DEFC48
S31508002B3007A8FEF7E1F907AA0100C9B23D20FFF789
S31508002B4063FA00F094F852484078002807D000202D
S31508002B504F4948705B4A0C212820FFF755FA0BB0FD
S31508002B6000BD4AF6E03000E0401E0028FCD1704760
S31508002B70554800E0401E0028FCD1704710B50400F7
S31508002B8002E0FFF7F5FF641E012CFADA10BD80B5E6
S31508002B90012001F048FDFFF7E4FF002001F043FDA6
S31508002BA0FFF7DFFF01BD38B5040000250CE0012062
S31508002BB001F039FD0120FFF7E1FF002001F033FDA8
S31508002BC00120FFF7DBFF6D1CA542F0DB012001F0B9
S31508002BD02AFD0A20FFF7D2FF002001F024FD0A2073
S31508002BE0FFF7CCFF002001F0ECFC6420FFF7C6FFDE
S31508002BF0FFF76CFD31BD80B5FFF721FA00281ED01E
S31508002C0000203249088000F02FF8002813D03048F9
S31508002C100088401C2E4908802D48008840F2DD5166
S31508002C2088421CDB00202A49088000F019F8052094
S31508002C30FFF7B9FF13E00020254908800FE0234875
S31508002C400088401C214908802048008841F29511D7
S31508002C50884204DB00F004F80520FFF7A4FF01BD55
S31508002C6000201649488070471448007870470120AC
S31508002C701249087070470020104908707047000014
S31508002C800CED00E00400FA05000020410000FA43BC
S31508002C90A81B002000100040F41B002090510008DB
S31508002CA0A4510008B851000808520008105200083C
S31508002CB01852000820520008CC510008F01B0020CA
S31508002CC028520008DC510008C0B60600101C002077
S31508002CD0121C002010B5040000F046F8002801D0A8
S31508002CE001202EE0206800F04FFA002801D00120CC
S31508002CF027E0606800F0A0FA002801D0012020E053
S31508002D00A27A617A207A00F044F9002801D00120DD
S31508002D1017E0E06800F08EF9002801D0012010E0E5
S31508002D20206900F0F4F9002801D0012009E0A27D0D
S31508002D30617D207D00F0DCF8002801D0012000E04C
S31508002D40002010BD80B5002801D101200BE0012329
S31508002D5002000F21D42001F0C5FA012801D1002074
S31508002D6000E00120C0B202BD80B500208DF8000049
S31508002D7001236A461221D42001F0B4FA012801D0B1
S31508002D8001203EE09DF8000010F0FB008DF80000E1
S31508002D909DF8000050F004008DF8000001236A46F3
S31508002DA01221D42001F02EFA012801D0012028E0B2
S31508002DB001236A460A21D42001F094FA012801D099
S31508002DC001201EE09DF8000010F087008DF8000035
S31508002DD09DF800008DF800009DF8000010F0F8003E
S31508002DE08DF800009DF800008DF8000001236A4662
S31508002DF00A21D42001F006FA012801D0012000E0BA
S31508002E00002002BD10B582B004000020ADF8000015
S31508002E1002236A462821D42001F064FA012801D049
S31508002E20012029E09DF801009DF8001011EB002013
S31508002E30208002236A462A21D42001F053FA012869
S31508002E4001D0012018E09DF801009DF8001011EB53
S31508002E500020608002236A462C21D42001F042FA21
S31508002E60012801D0012007E09DF801009DF8001017
S31508002E7011EB0020A080002016BD10B582B004001A
S31508002E800020ADF8000002236A462221D42001F072
S31508002E9029FA012801D0012029E09DF801009DF8B2
S31508002EA0001011EB0020208002236A462421D4203A
S31508002EB001F018FA012801D0012018E09DF8010058
S31508002EC09DF8001011EB0020608002236A46262137
S31508002ED0D42001F007FA012801D0012007E09DF867
S31508002EE001009DF8001011EB0020A080002016BDFF
S31508002EF070B582B000238DF8003000260025002426
S31508002F00C0B2002801D1002600E00826C9B200296F
S31508002F1001D1002500E01025D2B2002A01D10024F3
S31508002F2000E0202401236A461821D42001F0DAF9AA
S31508002F30012801D001202BE09DF8000010F0F700D1
S31508002F408DF800009DF8000030438DF800009DF8CC
S31508002F50000010F0EF008DF800009DF800002843EF
S31508002F608DF800009DF8000010F0DF008DF80000D5
S31508002F709DF8000020438DF8000001236A461821B9
S31508002F80D42001F03FF9012801D0012000E00020FB
S31508002F9076BD70B582B000238DF800300026002576
S31508002FA00024C0B2002801D1002600E00826C9B2D4
S31508002FB0002901D1002500E01025D2B2002A01D14E
S31508002FC0002400E0202401236A461921D42001F0B8
S31508002FD089F9012801D001202BE09DF8000010F0A6
S31508002FE0F7008DF800009DF8000030438DF80000CA
S31508002FF09DF8000010F0EF008DF800009DF8000025
S3150800300028438DF800009DF8000010F0DF008DF8C9
S3150800301000009DF8000020438DF8000001236A4651
S315080030201921D42001F0EEF8012801D0012000E092
S31508003030002076BD10B582B0002400218DF800105E
S31508003040002101F005FB01D800243FE0DFF8E81273
S3150800305001F0FEFA01D2102438E0DFF8E01201F0A0
S31508003060F7FA01D2202431E0DFF8D41201F0F0FAA1
S3150800307001D230242AE0DFF8CC1201F0E9FA01D2B5
S31508003080402423E0DFF8C01201F0E2FA01D250240E
S315080030901CE0DFF8B81201F0DBFA01D2602415E073
S315080030A0DFF8AC1201F0D4FA01D270240EE0DFF892
S315080030B0A41201F0CDFA01D2802407E0DFF89812B5
S315080030C001F0C6FA01D2902400E0A02401236A4642
S315080030D01021D42001F006F9012801D0012015E0BD
S315080030E09DF8000010F00F008DF800009DF8000014
S315080030F020438DF8000001236A461021D42001F0F0
S3150800310081F8012801D0012000E0002016BD10B585
S3150800311082B0002400218DF80010DFF8401201F07B
S3150800312097FA01D200240EE0DFF8341201F090FA83
S3150800313001D2082407E0DFF82C1201F089FA01D23F
S315080031400C2400E0042401236A461021D42001F04F
S31508003150C9F8012801D0012015E09DF8000010F0FB
S31508003160F3008DF800009DF8000020438DF800005C
S3150800317001236A461021D42001F044F8012801D021
S31508003180012000E0002016BD10B582B00024002101
S315080031908DF80010002101F05BFA01D800242AE01E
S315080031A0654901F055FA01D2102424E0634901F07B
S315080031B04FFA01D220241EE0614901F049FA01D2F2
S315080031C0302418E05F4901F043FA01D2402412E0A6
S315080031D05D4901F03DFA01D250240CE05B4901F04B
S315080031E037FA01D2602406E0594901F031FA01D2D2
S315080031F0702400E0802401236A461121D42001F0BE
S3150800320071F8012801D0012015E09DF8000010F0A2
S315080032100F008DF800009DF8000020438DF800008F
S3150800322001236A461121D42000F0ECFF012801D0C1
S31508003230012000E0002016BD38B504000025002056
S315080032408DF800002000484901F002FA1FD2022535
S3150800325001236A461121D42001F044F8012801D03F
S31508003260012068E09DF8000010F0FD008DF80000D0
S315080032709DF8000028438DF8000001236A461121B5
S31508003280D42000F0BFFF012854D0012053E00123C9
S315080032906A461121D42001F025F8012801D0012021
S315080032A049E09DF8000010F0FD008DF800009DF83B
S315080032B000008DF8000001236A461121D42000F091
S315080032C0A1FF012801D0012035E02000274901F09F
S315080032D0BFF901D200250EE02000254901F0B8F912
S315080032E001D2042507E02000224901F0B1F901D2F4
S315080032F0082500E00C2501236A461121D42000F098
S31508003300F1FF012801D0012015E09DF8000010F01A
S31508003310F3008DF800009DF8000028438DF80000A2
S3150800332001236A461121D42000F06CFF012801D040
S31508003330012000E0002032BD010050410100D041CB
S31508003340010050420100D042010050430100D04321
S31508003350014050440180CF440120504501000040FF
S3150800336001008040010000410100FA420100754356
S315080033700100FA4301007A4410B582B00400002027
S315080033808DF8000001236A4622213C2000F0AAFF9E
S31508003390012801D0012062E09DF8000010F0FC0031
S315080033A08DF800009DF80000617808438DF800004C
S315080033B001236A4622213C2000F024FF012801D07F
S315080033C001204CE001236A4620213C2000F08AFFB8
S315080033D0012801D0012042E09DF8000010F0E3002A
S315080033E08DF800009DF80000217808438DF800004C
S315080033F09DF8000010F09F008DF800009DF8000071
S31508003400E17808438DF8000001236A4620213C2014
S3150800341000F0F8FE012801D0012020E001236A46C9
S3150800342021213C2000F05EFF012801D0012016E092
S315080034309DF8000010F09F008DF800009DF8000030
S31508003440A17808438DF8000001236A4621213C2013
S3150800345000F0D8FE012801D0012000E0002016BDAA
S3150800346010B582B004000020ADF8000002236A46B9
S31508003470A8213C2000F036FF012801D0012029E0D0
S315080034809DF801009DF8001011EB00202080022312
S315080034906A46AA213C2000F025FF012801D0012018
S315080034A018E09DF801009DF8001011EB00206080DF
S315080034B002236A46AC213C2000F014FF012801D003
S315080034C0012007E09DF801009DF8001011EB00208F
S315080034D0A080002016BD000010B582B004000020B0
S315080034E08DF8000000F0E1F8002801D0012074E012
S315080034F001236A4620217C48007800F0F3FE012863
S3150800350001D0012069E09DF8000010F08F008DF8C9
S3150800351000009DF80000217808438DF800009DF80A
S31508003520000010F0F7008DF800009DF80000E17823
S3150800353008438DF800009DF8000010F0FB008DF898
S3150800354000009DF80000217908438DF800009DF8D9
S31508003550000010F0FE008DF800009DF8000061796B
S3150800356008438DF8000001236A4620215E4800784A
S3150800357000F048FE012801D001202EE001236A460A
S3150800358010215948007800F0ADFE012801D001202D
S3150800359023E09DF8000010F0FC008DF800009DF86F
S315080035A00000617808438DF800009DF8000010F0CF
S315080035B0F3008DF800009DF80000A17808438DF807
S315080035C0000001236A4610214748007800F01AFED9
S315080035D0012801D0012000E0002016BD38B50400FE
S315080035E0002503236A46A8213F48007800F07AFEA2
S315080035F0012801D0012012E0002007E06946C0B288
S31508003600095CC0B2C20091400D43401CC0B20328F9
S31508003610F4DB280201D555F07F452560002032BD30
S3150800362010B582B00400002000906846FFF7D6FF68
S31508003630002801D0012008E0009801F01BF85FF08F
S315080036408B4101F031F82060002016BD10B582B01C
S315080036500400002002236A46AB212348007800F0C4
S3150800366041FE012801D0012007E09DF801009DF8E0
S31508003670001011EB00202080002016BD10B582B086
S3150800368004006846FFF7E2FF002801D001200BE09E
S31508003690BDF9000000F0EEFF144901F005F81449E1
S315080036A001F080F82060002016BD80B501236A4627
S315080036B020210D48007800F015FE012801D00120D0
S315080036C011E09DF8000050F080008DF800000123FD
S315080036D06A4620210448007800F094FD012801D0AC
S315080036E0012000E0002002BD880200200000F0430F
S315080036F000002A4210B504000022002C01D1002047
S3150800370034E0607810F018000243A07810F0040046
S315080037100243E07810F002000243207810F001001E
S315080037200243D2B20121922000F040FD61685FF0A9
S31508003730874000F029F800F093F8020092B20321BE
S31508003740922000F03BFDA1685FF0874000F01CF86E
S3150800375000F086F8020092B20321922000F02EFDB6
S31508003760227B0421922000F021FD012010BD80B5A6
S315080037700021922000F034FD00F086FF5FF08741BB
S3150800378000F092FF02BD0000FF2212EAD05C1DBFC6
S3150800379012EAD153944593422BE09C44D30780EA1E
S315080037A001021A4043EA002043EA0121A1FB003046
S315080037B0410038BF40007CF17F010BDBFE294ADA65
S315080037C05B0842EAC15153EA006373F1004C51EBBE
S315080037D010207047D1F1080CDCF120012FDB5B08C3
S315080037E010FA01F10B4373F1004120FA0CF0504135
S315080037F0704794451CBF02EAD153934280EA0102FE
S3150800380002F000421DD0400019D0490017D05BB91C
S31508003810634514D00902B1FA81F39940BCEB030C55
S31508003820C00140F00040C1E70002B0FA80FC10FA7F
S315080038300CF0B3EB0C0CC90141F00041B6E71000DF
S31508003840704740000AD0490008D010F1807F94BF25
S3150800385011F1807F02E042F0FF407047D043704785
S315080038604100090E7F3915D4D1F11F0114D4400047
S3150800387007D2C00140F00040C84048BF6FF0004082
S315080038807047C00140F00040C8404CBF4FF00040B0
S31508003890404270470020704700424FF0004058BF32
S315080038A0C0437047002101E04008491CB0F5805F1D
S315080038B0FAD250EA013080B2704780B20105090D8C
S315080038C080B2000B11FA00F0704738B504000025E5
S315080038D0002C01D1002041E07E21882000F080FCE8
S315080038E045F24941884207D17F21882000F078FCBB
S315080038F043F20101884201D000202FE0207855EAE2
S315080039000035608810F400600543A08810F4C06094
S315080039100543A07910F010000543E07910F008007F
S315080039200543207A10F0030005432A0092B20121CC
S31508003930882000F043FCE068FFF7B4FF020092B26B
S315080039400221882000F03AFC2069FFF7ABFF02004D
S3150800395092B20321882000F031FC012032BD80B5E7
S315080039600021882000F03CFC80B2FFF7A6FF02BDCC
S3150800397000220288B0F1804F08D0114B984205D03A
S31508003980104B984202D0104B984204D14FF68F73D1
S315080039901A404B881A430D4B984207D00C4B984255
S315080039A004D04FF6FF431A400B891A4302804A682F
S315080039B0C2620988018501218182704700000000E2
S315080039C00004004000080040000C004000100040C1
S315080039D00014004041627047C1627047C9B20029AD
S315080039E004D0018851F00101018004E001884FF6F6
S315080039F0FE7211400180704710B400220023028C29
S31508003A004FF6EF731A400284038C028B48F6FF7454
S31508003A1022400C8852EA04224FF6DF7423400C89B0
S31508003A2053EA04134C8853EA0413496881630283F2
S31508003A30038410BC704710B400220023028C4EF693
S31508003A40FF731A400284038C828B48F6FF74224067
S31508003A500C8852EA04224DF6FF7423400C8953EA77
S31508003A6004334C8853EA0433496801648283038427
S31508003A7010BC7047816370470164704738B504000D
S31508003A800D00288800280AD12B89AA886988200071
S31508003A9000F06AF8E988200000F02AF825E028886E
S31508003AA004280AD12B89AA886988200000F076F8AC
S31508003AB0E988200000F025F817E0288808280AD1A8
S31508003AC02B89AA886988200000F085F8E9882000F3
S31508003AD000F021F809E02B89AA886988200000F0FF
S31508003AE096F8E988200000F01FF831BDC06B7047D2
S31508003AF0028B4FF6F3731A400283028B114301833C
S31508003B007047028B4FF2FF331A400283028B52EA48
S31508003B10012101837047828B4FF6F3731A40828323
S31508003B20828B114381837047828B4FF2FF331A4091
S31508003B308283828B52EA012181837047D2B2002A9E
S31508003B4003D082891143818103E0828932EA010127
S31508003B508181704789B2C9430182704701894FF64E
S31508003B60F87211400181704770B400240025048C56
S31508003B704FF6FE752C400484048B058C4FF60C76A4
S31508003B80344052EA031214434FF6F572154051F0C9
S31508003B9001010D430483058470BC704770B400248A
S31508003BA000250026048C4FF6EF752C400484048B00
S31508003BB0058C0E0140F6FF410C4054EA033454EAE2
S31508003BC002244FF65F710D4056F010010D43048331
S31508003BD0058470BC704770B4002400250026048C48
S31508003BE04FF6FF652C400484848B058C0E024FF635
S31508003BF00C710C4052EA03110C434FF2FF510D4071
S31508003C0056F480710D438483058470BC704770B484
S31508003C10002400250026048C4EF6FF752C400484EB
S31508003C20848B058C0E0340F6FF410C4054EA0224AF
S31508003C3054EA033445F6FF710D4056F480510D439E
S31508003C408483058470BC704700B59BB00121DFF8FA
S31508003C503405FEF78AFB01214FF40170FEF775FB68
S31508003C6001210320FEF761FB0120FEF7E9FA0E2287
S31508003C700521DFF81405FEF7F9FB01220321DFF819
S31508003C800C05FEF7F3FB0E220421DFF80005FEF70C
S31508003C90EDFB02220121DFF8F004FEF7E7FB0E2216
S31508003CA00021DFF8E404FEF7E1FB04200090012080
S31508003CB08DF8040000208DF8060000208DF8070016
S31508003CC001208DF805006946DFF8C004FEF772FB8F
S31508003CD001220421DFF8B404FEF7C1FB0820009096
S31508003CE002208DF8040001208DF8060000208DF8CA
S31508003CF0070001208DF805006946DFF89004FEF7F5
S31508003D0059FB0220009002208DF8040000208DF84F
S31508003D10060000208DF8070003208DF80500694687
S31508003D20DFF86404FEF746FB2020009003208DF898
S31508003D30040000208DF8070001208DF8050069466B
S31508003D40DFF84404FEF736FB102000906946DFF8DA
S31508003D503C04FEF72FFB012000906946DFF8280493
S31508003D60FEF728FB5FF08040FFF7F8FE0020ADF86D
S31508003D7020000020ADF81A000020ADF818004FF416
S31508003D807A40079006A95FF08040FFF7F1FD08200A
S31508003D90ADF85C000020ADF85E000220ADF86000CA
S31508003DA017A95FF08040FFF769FE7020ADF80C0098
S31508003DB00020ADF814000120ADF80E000020049094
S31508003DC003A95FF08040FFF736FE4FF4A0715FF05D
S31508003DD08040FFF751FE022013900020109000202B
S31508003DE011900020129010A9002000F01DFD01215D
S31508003DF0002000F030FD40F25C41002000F041FD5B
S31508003E00002014905FF4C01015900020169014A896
S31508003E1000F048FD0121202000F056FD0121DFF8C1
S31508003E20700300F051FD1C208DF8080000208DF865
S31508003E30090000208DF80A0001208DF80B0002A861
S31508003E40FEF70CFC012201215FF08040FFF776FEA9
S31508003E5001215FF08040FFF7C1FDDFF83803FFF767
S31508003E607DFE0020ADF820000020ADF81A000020E5
S31508003E70ADF818000020079006A9DFF81803FFF729
S31508003E8077FD6020ADF80C000020ADF81400012085
S31508003E90ADF80E000020049003A9BE48FFF7CBFD3D
S31508003EA00121BC48FFF79AFD5FF48030099009A804
S31508003EB000F059FD00208DF82D0000200E900020FE
S31508003EC00D905FF080500C9001208DF83C0000208A
S31508003ED00A9000208DF82C000AA9AF4800F01EFDB4
S31508003EE0052301220821AC4800F05AFD0121AA4801
S31508003EF000F043FD4021A84800F00BFE0028F9D049
S31508003F004FF48071A44800F004FE0128F8D0A348B5
S31508003F10FFF724FE0020ADF820000020ADF81A00B7
S31508003F200120ADF8180041F63F70079006A99B4896
S31508003F30FFF71EFD6020ADF80C000020ADF8140058
S31508003F400120ADF80E000020049003A99348FFF75E
S31508003F5053FD4FF4F0519148FFF78CFD19208DF869
S31508003F60080000208DF8090000208DF80A000120BD
S31508003F708DF80B0002A8FEF771FB01220121874884
S31508003F80FFF7DCFD01218548FFF728FD1BB000BDC2
S31508003F9080B501215FF08040FFF7DCFD5FF08040CF
S31508003FA0FFF7A4FD7E4909687D4A126880B2801829
S31508003FB0B0EBD1107A4908607948006878494968B1
S31508003FC0774A526812EBD010B0EB1120744948605A
S31508003FD073480068C00972494968B0EB11207049F6
S31508003FE0097A002910D111281FDB01206C490872B3
S31508003FF000206B4948816A48007B401C6849087361
S31508004000012000F010FB10E065494989491C644A03
S31508004010518163494989FA2907D3042805DA00201A
S315080040205F490872002000F0FEFA5D48008C401CCB
S315080040305B4908845A48008CB0F5FA7F36D30020CD
S31508004040574908845648007B5549554A527E1144BB
S3150800405048730020524908735148407E401C504915
S3150800406048764F48407E0C2802DB00204C494876AB
S315080040700020002104E04A4A0A44527B1018491CD1
S315080040800C29F8DB002807D14548C069002802D06A
S315080040905FF0FF3000E000204149C969404AD26913
S315080040A08018891CB0EB91003D49C86101BD10B567
S315080040B001213A48FFF74EFD3A480088962818DA53
S315080040C0354800F023FD3749364A128801EB82014C
S315080040D04968344A334B1B8802EB8302526880B224
S315080040E08018B0EB11102F492E4A128801EB820175
S315080040F048602C480088401C2A49088029480088BE
S31508004100962818DB002027490880002000210DE0AA
S31508004110244A02EB81025268904206D2214800EBFB
S31508004120810040681F4AA2F85C12491C9629EFDBF9
S315080041301C49A1F85E021C481A49098830F8114042
S31508004140A4B2611E1348FFF747FCA4B2610889B2FE
S315080041501048FFF791FC00210E48FFF73BFC10BD05
S315080041600F48C069642148430C21B0FBF1F0800870
S3150800417080B270470B48B0F85C0270470948B0F83F
S315080041805E027047030000A00004024000000240DF
S31508004190000100800004004000240140000801409E
S315080041A0CC1B00200C000020FC4E000804B501239F
S315080041B06A46C9B2C0B200F025F801BD80B5ADF8AF
S315080041C000209DF800209DF801308DF800308DF80C
S315080041D0012002236A46C9B2C0B200F013F801BD35
S315080041E080B502236A46C9B2C0B200F07BF89DF8D2
S315080041F000009DF801108DF800108DF80100BDF83B
S31508004200000002BDF8B507000E0014001D000121CC
S31508004210AD4800F0FDFC4FF42040AC490860AC49BD
S31508004220A94800F030FD012808D0A8480068401EBB
S31508004230A64908600028F2D1002052E00022390081
S31508004240C9B2A14800F00EFD4FF420409F4908600E
S31508004250A0499D4800F017FD012808D09B48006832
S31508004260401E9A4908600028F2D1002039E0310042
S31508004270C9B2954800F001FD4FF420409349086003
S315080042809549914800F0FFFC012808D08F4800683E
S31508004290401E8E4908600028F2D1002021E0FFE781
S315080042A0ADB2002D18D02178874800F0E6FC641CD2
S315080042B06D1E4FF42040854908608849824800F001
S315080042C0E2FC0128ECD081480068401E7F4908605E
S315080042D00028F2D1002004E001217B4800F0A6FC6A
S315080042E00120F2BDF8B506000F0014001D000121DB
S315080042F0754800F08DFC4FF42040744908607449F5
S31508004300714800F0C0FC012808D070480068401EBB
S315080043106E4908600028F2D100208DE000223100A5
S31508004320C9B2694800F09EFC4FF42040674908600E
S315080043306849654800F0A7FC012808D0634800686A
S31508004340401E624908600028F2D1002074E0390056
S31508004350C9B25D4800F091FC4FF420405B49086003
S315080043605E49594800F08FFC012808D05748006874
S31508004370401E564908600028F2D100205CE0012161
S31508004380514800F045FC4FF4204050490860504918
S315080043904D4800F078FC012808D04C480068401EBB
S315080043A04A4908600028F2D1002045E00122310080
S315080043B0C9B2454800F056FC4FF42040434908600E
S315080043C04749414800F05FFC012808D03F4800688B
S315080043D0401E3E4908600028F2D100202CE005E086
S315080043E0394800F04DFC2070641C6D1EADB2002DDE
S315080043F019D0ADB2012D03D10021334800F024FCB9
S315080044004FF420403149086036492F4800F03BFCFC
S315080044100128E5D02D480068401E2C490860002870
S31508004420F2D1002008E00121274800F0FFFB012116
S31508004430254800F009FC0120F2BD00B587B001212E
S315080044405FF40010FDF791FF01210220FDF76DFFD3
S31508004450042206212448FEF709F8042207212248E7
S31508004460FEF704F8C020009002208DF80400012011
S315080044708DF8060001208DF8070001208DF805004B
S3150800448069461948FDF796FF44F620600290002019
S31508004490ADF80C004BF6FF70ADF80E000020ADF835
S315080044A010004FF48060ADF812004FF48040ADF86C
S315080044B0140002A9044800F037FB0121024800F065
S315080044C099FB07B000BD000000540040080000201A
S315080044D0010003008200070080000700840007002F
S315080044E00200030040000300000402400CB41CB59F
S315080044F0044604A801900A46009401AB6946074899
S3150800450078441830FBF7F6FD009A00211170002850
S315080045105CBF0098001B16BC5DF80CFBBBC9FFFF0F
S3150800452000B583B001211020FDF70FFF01210320FC
S31508004530FDF7FBFE032209214348FDF797FF4FF4D9
S315080045409070009001208DF8040000208DF8060078
S3150800455000208DF8070001208DF8050069463B48C4
S31508004560FDF728FF4FF490713848FDF776FF802055
S31508004570009001208DF8040001208DF80600002027
S315080045808DF8070001208DF8050069462F48FDF7CC
S3150800459011FF80212D48FDF75EFF4FF40070009053
S315080045A001208DF8040000208DF8060000208DF803
S315080045B0070001208DF8050069462348FDF7FAFE35
S315080045C007BD80B5C0B201280BD0022813D08021C0
S315080045D01E48FDF742FF4FF480711C48FDF73DFF6A
S315080045E012E080211948FDF736FF4FF4807117480D
S315080045F0FDF733FF08E080211448FDF72EFF4FF43E
S3150800460080711248FDF727FF01BD80B5C0B20028AA
S3150800461004D020210D48FDF71EFF03E020210B489A
S31508004620FDF71BFF01BD80B5C0B2002805D04FF4C9
S3150800463000710548FDF70FFF04E04FF400710248CA
S31508004640FDF70BFF01BD0000000402400000024018
S315080046504FF0807C1CEB400F94BF1CEB410F05E02C
S3150800466040EA010C5FEA4C0C01D28842704718BF39
S3150800467081427047002840F10980F446404200F024
S3150800468005F850F000406047002800BF0AD0B0FA8D
S3150800469080F18840D1F19D01C905020672F10042F8
S315080046A041EB10207047000010B5FF2313EAD054E1
S315080046B01DBF13EAD1529C429A4239E0A41ADA077E
S315080046C080EA0103134042EA012142EA0020421A25
S315080046D03CBF641E01EB4202090AB2FBF1FE01FB74
S315080046E01E221202B2FBF1F001FB10226EF30F201C
S315080046F01202B2FBF1FE4EEA00207F3406DDFE2CE4
S3150800470024DA53EA500050EBC45010BDD4F1020429
S3150800471001FB1E2240F08071192C1DDC21FA04F0E1
S31508004720C4F12004A140114371F10042584110BD63
S315080047309C421ABF03EAD1529A420FE080EA010E60
S315080047400EF00043400004D0490016D143F0FF4064
S3150800475010BD490008BFD343180010BD9C4205D1BF
S31508004760D21AF7D001F00041484010BD4A0212BFE4
S315080047700846484000F0004010BD4AB90902B1FA9F
S3150800478081F2914044B1A418C00140F000409EE770
S31508004790C90141F0004152420002B0FA80F4A0403B
S315080047A0141B94E790EA010F44BF81F0004100F022
S315080047B07FBA00BF421A3CBF801A89184FF0004CD6
S315080047C0C0F3C752FF2A24D0C1F3C75313B3D21A72
S315080047D0D2F1190327DD4CEA01214CFA03F321EA49
S315080047E00303D140C20D4CEA0020401834BF20EA2A
S315080047F00C004CEA5000D20553EA006373EB0C0C2C
S3150800480052EB1020420012F1807F38BF7047C00D6E
S31508004810C0057047490212BF9A4200EB5120F8E7DB
S31508004820D2F11703D9D5704710B4002200231C4AC9
S31508004830126840F6FE7383409A430B684C6823431C
S315080048408C682343C9680B4313FA00F002431448E3
S31508004850026010BC7047C9B2002908D0104909681F
S31508004860012212FA00F008430D49086008E00C49D5
S315080048700968012212FA00F031EA000008490860C6
S31508004880704781B000220092054A0092009A0830CB
S315080048908018009089B20098016001B07047000046
S315080048A000740040002106490968064A114002685A
S315080048B043681A4380681043014301480160704702
S315080048C0007C0040FFEF03FF0022C20F20F00040EB
S315080048D0C9B200290DD0002A05D00E490968084337
S315080048E00C49086014E00C49096808430A4908603D
S315080048F00EE0002A06D00749096831EA0000054992
S31508004900086005E00449096831EA000002490860C0
S3150800491070470000087C00400C7C004030B400233F
S31508004920002243681B4C23400C790D6855EA042481
S31508004930234343608368184C23400C69CD682C4395
S315080049408D682C434D7954EA450423438360036BF1
S3150800495033F0F873097D491E0A43D2B253EA02536B
S31508004960036330BC704700210C49096831F44031B3
S3150800497000680143094801607047C9B2002904D09C
S31508004980816851F00101816003E0816849084900A6
S3150800499081607047FFFEFFFCFDF7FFC0042701405A
S315080049A0F0B400240025C9B21E2911DBC46D072501
S315080049B0B1F11E0603277E43B540AC43DBB2B1F125
S315080049C01E050326754313FA05F52C43C46538E01E
S315080049D0C9B2142911DBC4680725B1F114060327E7
S315080049E07E43B540AC43DBB2B1F1140503267543EB
S315080049F013FA05F52C43C46023E0C9B20A2911DB72
S31508004A0004690725B1F10A0603277E43B540AC437E
S31508004A10DBB2B1F10A050326754313FA05F52C43F3
S31508004A2004610EE044690725032606FB01F6B54036
S31508004A30AC43DBB2032505FB01F513FA05F52C4358
S31508004A404461D2B2072A10DA046C1F23551E0526C4
S31508004A50754313FA05F5AC43C9B2521E05235A43EA
S31508004A6011FA02F52C4304644EE0D2B20D2A10DA8C
S31508004A70C46B1F23D51F0526754313FA05F5AC43EA
S31508004A80C9B2D21F05235A4311FA02F52C43C4634F
S31508004A903AE0D2B2132A11DA846B1F23B2F10D055C
S31508004AA00526754313FA05F5AC43C9B20D3A052335
S31508004AB05A4311FA02F52C43846325E0D2B2192A27
S31508004AC011DA446B1F23B2F113050526754313FA51
S31508004AD005F5AC43C9B2133A05235A4311FA02F550
S31508004AE02C43446310E0046B1F23B2F11905052615
S31508004AF0754313FA05F5AC43C9B2193A05235A4367
S31508004B0011FA02F52C430463F0BC7047806D80B23D
S31508004B1070470022006889B2084201D0012200E0ED
S31508004B2000221000C0B270477FB504000D000026B1
S31508004B30002004212C49A6884FF6C0700640684616
S31508004B40FDF783FB02992948B1FBF0F00643A680DE
S31508004B5022884FF6FE731A40228000262A68244BC4
S31508004B609A420BD22A685200B1FBF2F189B20429A3
S31508004B7000DA04210E43401C208422E0EA884BF622
S31508004B80FF739A4205D12A6803235A43B1FBF2F10F
S31508004B9006E02A6819235A43B1FBF2F151F4804121
S31508004BA00A0501D151F0010151F400410E4380B2CA
S31508004BB04FF4967148434FF47A7190FBF1F0401C1C
S31508004BC02084A683208850F00100208026884FF68E
S31508004BD0F5300640A8886989084306432680A889CF
S31508004BE02989084320817FBD00127A0040420F00C0
S31508004BF0A1860100C9B2002904D0018851F001013B
S31508004C00018004E001884FF6FE721140018070476A
S31508004C10C9B2002904D0018851F48071018004E0EA
S31508004C2001884FF6FF62114001807047C9B200291A
S31508004C3004D0018851F40071018004E001884FF620
S31508004C40FF52114001807047C9B2002904D001887B
S31508004C5051F48061018004E001884FF6FF3211406B
S31508004C6001807047D2B2002A02D051F0010101E05A
S31508004C7011F0FE01C9B201827047C9B201827047BC
S31508004C80008AC0B270470022002200230022828ACE
S31508004C90038B1B0453EA020020F07F4211EA02004C
S31508004CA0884201D1012200E000221000C0B27047FC
S31508004CB0431A4FF000423EBF5340C01AC91800BFFE
S31508004CC0D3095FEAD05C13EB400F34BFB3EB410F57
S31508004CD040E07CEBD1530CD342EA012122D8D1EB38
S31508004CE0402009D3400A28BF5FEA500140EBCC5068
S31508004CF07047401A15D04002B0FA80F2521C904014
S31508004D00400A4FEA3C23B3EB026384BF00EB73000F
S31508004D1007E040F400001A16DB07C2F10102D04092
S31508004D2018437047182BFCDC31FA03F202FA03F336
S31508004D30591A38BF42F00102D2EB40203CBF40006E
S31508004D40ACF1010C5FEACC5CC20572F100414CEB98
S31508004D505020704713EB400F0FD24B0009D0ACEB35
S31508004D60D153022B03DB4902172BDDDD7047914334
S31508004D70401A4300D5D10020704713EB410FD0D31A
S31508004D806FF000007047000080B55148006850F485
S31508004D9080704F4908604F4800684F4908404D49A0
S31508004DA008604B4800684D4908404949086048482A
S31508004DB0006830F48020464908604648006830F4A8
S31508004DC07D004449086000204549086000F004F861
S31508004DD044484549086001BD82B000200190002082
S31508004DE000903B48006850F48030394908603848DC
S31508004DF0006810F4003000900198401C019000985B
S31508004E00002803D10198B0F5A06FF0D130480068AA
S31508004E10800302D50120009001E000200090009850
S31508004E20012853D13148006850F004002F49086022
S31508004E302E48006850F002002C4908602B4800688C
S31508004E4050F00100294908602948006850F0805050
S31508004E50274908604FF4006026490860264800681C
S31508004E60C006FBD41B4800681A4908601948006840
S31508004E701849086017480068164908601548006808
S31508004E8030F47D00134908601248006850F4110098
S31508004E90104908600E48006850F080700C49086098
S31508004EA00B4800688001FBD50A4800688008800026
S31508004EB0084908600748006850F00300054908607B
S31508004EC00448006810F00C000C28F9D102B07047AD
S31508004ED000380240083802400CC0FF88FEFFFEEE8C
S31508004EE00C3802400000000808ED00E0003C0240D3
S31508004EF0243802400070004004700040020003009D
S31508004F000400050006000700080009000A000B0057
S31508004F100C000D000E000F00100011001200130007
S31508004F201400150016001700180019001A001B00B7
S31508004F301C001D001E001F00200021002200230067
S31508004F40240025002700280029002B002C002E000D
S31508004F502F00310032003400360038003A003B009A
S31508004F603D00400042004400460049004B004D0009
S31508004F7050005300560058005B005E006200650052
S31508004F8068006C006F00730077007B007F00830069
S31508004F9088008C00910096009B00A000A500AB003D
S31508004FA0B100B700BD00C300CA00D000D700DF00BB
S31508004FB0E600EE00F600FE0006010F0118012201C8
S31508004FC02B01350140014A01550161016D01790145
S31508004FD085019201A001AE01BC01CB01DA01EA010B
S31508004FE0FA010B021D022F024202550269027D02D6
S31508004FF09302A902C002D702EF02080322033D0367
S31508005000590376039303B203D103F2031404370456
S315080050105B048004A604CE04F70422054D057B052F
S31508005020AA05DA050C06400619E050F8041BCB075A
S3150800503044BFA9F101035918121F0023042A41F895
S31508005040043BF9D25FEA827C0B4604D54FF0000C8C
S31508005050A1F800C09B1CD10744BF0021197050F865
S31508005060042B002AE1D1704730B50168426884688C
S31508005070014401EB5203D20748BF4C44994201D17F
S315080050800C3030BD11F9012B11F8015B002A04F828
S31508005090015B02D5521CF9D1F0E7521EF4D5EDE7B3
S315080050A000220A4A126892089200024307480260E0
S315080050B0074800687FF004021040054A1060C9B22C
S315080050C0012901D130BF00E020BF704700700040C1
S315080050D010ED00E080B5FFF723FA0120FFF795FAF7
S315080050E0FCF715FEFDF73FFCFCF71BFFFCF7A3FFDB
S315080050F0002801D0FDF751FC01210020FFF7D0FF61
S31508005100F2E7000010B5074979441831064C7C448B
S31508005110163404E00A68081D114488470146A1426E
S31508005120F8D110BD0800000024000000FDFEFFFFB6
S3150800513088110000900A0020000000002DFFFFFFE4
S31508005140B8010000640000000000002000F00BF821
S31508005150002801D0FFF7D6FF0020C046C046FFF75B
S31508005160B9FF00F002F80120704700F001B800000E
S315080051700746384600F002F8FBE7000080B5C0464F
S31508005180C046024A11001820ABBEFBE72600020003
S315080051902336252B303564252B303564252B3035C1
S315080051A0640000002339252B303564252B303564FF
S315080051B0252B3035640000002337252B3035642530
S315080051C02B303564252B3035640000002344252B0D
S315080051D0303564252B303664000000004B2E38200D
S315080051E030322F30372F3137000000000148804712
S315080051F001480047894D0008FD510008C046C046D1
S31508005200C046C046FFF7A2FF2338252B3035640079
S315080052102345252B303664002342252B303864007D
S315080052202343252B3035640025303130644842004D
S31508005230FFF7FEBFFFF7FEBFFFF7FEBFFFF7FEBF94
S31508005240FFF7FEBFFFF7FEBFFFF7FEBFFFF7FEBF84
S31508005250FFF7FEBFFFF7FEBFFFF7FEBFFFF7FEBF74
S31508005260FFF7FEBFFFF7FEBFFFF7FEBFFFF7FEBF64
S31508005270FFF7FEBFFFF7FEBFFFF7FEBFFFF7FEBF54
S31508005280FFF7FEBFFFF7FEBFFFF7FEBFFFF7FEBF44
S31508005290FFF7FEBFFFF7FEBFFFF7FEBFFFF7FEBF34
S315080052A0FFF7FEBFFFF7FEBFFFF7FEBFFFF7FEBF24
S315080052B0FFF7FEBFFFF7FEBFFFF7FEBFFFF7FEBF14
S315080052C0FFF7FEBFFFF7FEBFFFF7FEBFFFF7FEBF04
S315080052D0FFF7FEBFFFF7FEBFFFF7FEBFFFF7FEBFF4
S315080052E0FFF7FEBFFFF7FEBFFFF7FEBFFFF7FEBFE4
S315080052F0FFF7FEBFFFF7FEBF0CA01A0020241B0015
S315080053002000A000009681008100810081009D0098
S3150800531008030406080C10182030F9000C010203D3
S30F08005320040102030406070809BA8F
S705080051FDA4
