S0100000536B7950617463682E73726563ED
S31508000000B00A0020B982000825840008298400085F
S315080000102D8400083184000835840008000000009B
S3150800002000000000000000000000000039840008FD
S315080000303D8400080000000041840008458400084B
S31508000040B9340008498400084D8400085184000822
S3150800005055840008598400085D84000861840008F6
S3150800006065840008698400086D84000871840008A6
S3150800007075840008798400087D8400088184000856
S3150800008085840008898400088D8400089184000806
S3150800009095840008998400089D840008A1840008B6
S315080000A0A58400081F3D0008A9840008AD8400083F
S315080000B0013C0008B1840008B5840008B98400082A
S315080000C0BD840008C1840008C5840008C9840008E6
S315080000D0CD84000809430008D1840008A94B00080C
S315080000E0D5840008D9840008DD840008E51D0008C9
S315080000F0E18400082DE9F04FA1B08246002016469B
S315080001001D4602910B900DF144086FF000490AE074
S3150800011016F8011B0298D0470028029000F0B98211
S315080001200B98401C0B903078010001D10B98B2E275
S315080001302528EDD100200590069007900890099093
S315080001400A9001E040F0010016F8011F2029F9D0B5
S3150800015023290DD02B2904D02D2906D030290AD0E1
S315080001600CE040F0020080B2EEE740F00400FAE747
S3150800017040F00800F7E740F01000F4E72A290ED10E
S315080001802968296051F8042B2960002A0D9204D5A4
S31508000190514240F004000D9180B2761C11E0002116
S315080001A00D9109E00D99494505D001EB810302EB54
S315080001B0430130390D91761C3278A2F130010A29B3
S315080001C0F0D331782E2903D04FF0FF310C911DE082
S315080001D016F8011F2A2907D129682960761C51F8C3
S315080001E0042B29600C9211E000210C9109E00C996E
S315080001F0494505D001EB810302EB430130390C91E7
S31508000200761C3278A2F130010A29F0D3ADF838000D
S315080002100FF6A840317800F063FE08B116F8010B16
S315080002208DF83A009DF83A00682802BF31786829A7
S31508000230622005D06C2804BF30786C2803D1712061
S315080002408DF83A00761C11A8049016F8017BB7F1D0
S3150800025025002AD01C3800F0CA80001F022840F268
S31508000260C680133800F0ED80093800F0C080801E83
S3150800027000F05A81401E00F03081401E022840F2EC
S31508000280B680001F00F02981401F00F08180401EC3
S3150800029000F0D780401E24D0C01E0BD0801E00F070
S315080002A0D080C01E00F0CD8048E125208DF844009E
S315080002B001204DE12868286050F8044B2860039413
S315080002C00C9F002F04D5204600F016FE074606E0D0
S315080002D03A460021204600F02BFE00B1071B069780
S315080002E037E129682960002251F8040B29600021AA
S315080002F0CDE9000111A80390DDE900019142049FB0
S3150800030008BF90424FF03C0C01D10C9AC2B100F0E4
S315080003100F033033DBB23A2BA8BF2733ACF1010207
S315080003200009BB54944640EA01700909002291422B
S3150800033008BF904204D0039A07EB0C039A42E6D30F
S3150800034007EB0C000390CCF13C010C980691814216
S3150800035009DA401A08904FF6EF71BDF838000840E0
S31508000360ADF83800F5E0002840F1F3809DF8380034
S3150800037000F01400102840F0EC800D98059A801AB9
S31508000380089A801A401A0128C0F2E3800890E0E033
S315080003909DF83A0062281AD0682806D06A280CD038
S315080003A06C281CD0712808D019E02868286050F8F5
S315080003B0041B28600B980880CBE02868286050F852
S315080003C0042B28600B98C117C2E90001C1E0286810
S315080003D0286050F8041B28600B980870B9E0286854
S315080003E0286050F8041B28600B980860B1E028685C
S315080003F0C01D6FF0070101EA00022A60D2E9000178
S3150800040008322A60CDE90001002902D505982D2178
S315080004100AE0BDF83800810702D505982B2103E0CC
S31508000420C00705D50598202108F80010401C05903E
S3150800043011A80599084403903946684600F0ECF976
S3150800044087E09DF83A006C280FD0712818BF6A28F3
S315080004500BD12868C01D6FF0070101EA00022A6067
S31508000460D2E9000108322A6005E02968296051F8B6
S31508000470040B29600021CDE900019DF83A0068289F
S3150800048003D1DDE9000180B20BE0622803D1DDE982
S315080004900001C0B205E0742818BF7A2804D1DDE946
S315080004A000010021CDE900019DF83800000732D58A
S315080004B0DDE900230020834208BF82422BD047F0A3
S315080004C02000782827D10598302108F80010401C0C
S315080004D0411C059108F800701DE09DF83A00294670
S315080004E000F0DCF8CDE90001DDE9002300218B42AC
S315080004F002DA05982D210AE0BDF83800810702D5F1
S3150800050005982B2103E0C00705D50598202108F892
S315080005100010401C059011A8059908440390394617
S31508000520684600F0F3F814E0012005902868286072
S3150800053050F8041B28608DF844100AE025208DF831
S31508000540440001200590380003D088F80170022085
S3150800055005900D980599401A0899401A0699401A67
S315080005600999401A0799401A0A99471A9DF83800B6
S31508000570400710D42020012F8DF840000BDB3C46A5
S31508000580012310AA6946504600F081FC002840F075
S315080005908080641EF4D1DDF814B0BBF1000F11ACF5
S315080005A00CD014F8011B0298D0470028029070D08E
S315080005B00B98401CBBF1010B0B90F2D130208DF843
S315080005C04000089C012C09DB012310AA6946504605
S315080005D000F05DFC00285CD1641EF5D1DDF818B08A
S315080005E0039CBBF1000F0CD014F8011B0298D047EE
S315080005F0002802904DD00B98401CBBF1010B0B90C4
S31508000600F2D130208DF84000099C012C09DB01232A
S3150800061010AA6946504600F03AFC002839D1641EF3
S31508000620F5D103980699DDF81CB04418BBF1000F04
S315080006300BD014F8011B0298D047029048B30B98C8
S31508000640401CBBF1010B0B90F3D130208DF8400014
S315080006500A9C012C08DB012310AA6946504600F0C3
S3150800066016FCB0B9641EF6D19DF8380040077FF530
S315080006705AAD2020012F8DF84000FFF654AD012316
S3150800068010AA6946504600F002FC10B97F1EF6D142
S3150800069049E54FF0FF3021B0BDE8F08F622827D03A
S315080006A068281ED06A2808D06C2828D0712804D05B
S315080006B0742824D07A280DD021E00868C01D6FF070
S315080006C0070210400860D0E9002308300860194680
S315080006D0104670470A680A6052F8040B0A6000213F
S315080006E070470A680A6052F8040B0A6000B20BE009
S315080006F00A680A6052F8040B0A6040B204E00A6805
S315080007000A6052F8040B0A60C11770472DE9F343D3
S31508000710054608462F696F2808BF082405D041F00A
S315080007202001782914BF0A2410243C26D5E9002381
S31508000730642818BF69289046994606D100218B423D
S3150800074003DAD8F1000869EB49090020814508BF9A
S3150800075080450CD1286B50B9082C38D195F838004B
S31508000760000734D530203B2687F83B002FE0701E63
S3150800077000900646404649462246E31700F004FC28
S3150800078002F13000C0B23A2803DB9DF80410513953
S315080007900818B855494640462246E31700F0F4FBC8
S315080007A0804689460020814508BF804503D0E86811
S315080007B0B9198842DBD3082C09D195F83800000707
S315080007C005D5B85D302802D0761E3020B855B9193F
S315080007D0E960C6F13C00296BA861884208DA081A64
S315080007E028624FF6EF71288F08402887BDE8F38303
S315080007F000290ED595F8381001F01401102908D1F2
S31508000800696B6A69891A2A6A891A0E1A012EA8BF9B
S315080008102E62BDE8F38300002DE9F24F04468EB040
S31508000820D4E90001CDE9020104AF9DF8380040F093
S31508000830200BBBF1610F0AD0206B002848BF0620A9
S3150800084004D408BFBBF1670F01D10120206361689A
S31508000850C1F30A5040F2FF7290421CD1080304BF4C
S315080008602068002809D10320A0619DF83800613866
S315080008701A2835D30FF2586108E00320A0619DF8C5
S31508000880380061381A2828D30FF23C61E068032241
S3150800089000F0F2FBC3E1012815DA204600F027FC38
S315080008A0012810DB00250020BBF1610F1FD1E1688C
S315080008B030220A708A1CE2609DF83820612A0CBF33
S315080008C0782258220FE0626840F2FE3161F31E5228
S315080008D0451A62604FF0FF30E6E70FF2E851D5E7B8
S315080008E00FF2E851D2E74A706169891C616110B953
S315080008F0002600258AE1BBF1610F40F09880206B45
S31508000900D4E900AB00284CBF2126461CDDE90201CC
S315080009100022002300F00EFC36B23ABF8BF00040EE
S31508000920CDE902A0CDE902AB06F101082D1FB8F109
S31508000930010F8DF810200DF1110736DBDDE90201F4
S315080009400022002300F00EFC2FD21C2102A800F082
S3150800095021FCDDE9020100F0A3FCA8F10708B8F1C3
S31508000960010F814609DB00F0C7FC02460B46DDE9AC
S31508000970020100F0D9FCCDE90201F81D072105E0C6
S3150800098009F00F0200F8012D4FEA2919B9F1010FF4
S3150800099001DB491EF4D5491E5CBF002200F8012D73
S315080009A0F9D5C71DB8F1010FC8DA0DF11100391ACA
S315080009B0B142B8BF0E4636B230000DF111072FD43A
S315080009C0884206DA04A9014449780829A8BF0F21F4
S315080009D000DA002104AA024400E0761E12F8013962
S315080009E0401E8B42F9D00F2904D104A901444A7844
S315080009F0521C4A70002802D504AF761C2D1D36B24B
S31508000A00701E0DD439180A783032D2B23A2A03DB6E
S31508000A109DF838303A3B9A18401E01F80129F2D55C
S31508000A20206B002840F1F280701E2063EEE0DDE9BD
S31508000A3002010022002300F07DFB3CBF81F000414B
S31508000A40CDE902012DB247F2975068434D49DFF8C8
S31508000A50389180FB01214D1305EBD5752DB2C5F1F3
S31508000A60070ABAF1010F98461CDBDDE902675FEA5F
S31508000A70CA7007D542464B463046394600F014FD43
S31508000A8006460F464046494642464B464FEA6A0ADC
S31508000A9000F00AFDBAF1000F80468946E7D1CDE994
S31508000AA0026724E0CAF1000A0026384F14E05FEA1C
S31508000AB0CA7007D542464B463046394600F0F4FC24
S31508000AC006460F464046494642464B4600F0ECFC71
S31508000AD04FEA6A0A80468946BAF1000FE7D1DDE98E
S31508000AE0020132463B4600F0B1FDCDE90201BBF1F9
S31508000AF0660F216BDFF898900CBF05F10A000620F7
S31508000B004618142EA8BF132630208DF810000DF1B4
S31508000B101107012E40DBDDE9020100F0D7FB07F1E2
S31508000B20080104221B4FA0FB0773DB0803EB8307AE
S31508000B30A0EB4700303001F8010C164FA3FB0770F5
S31508000B40C00800EB8007A3EB47033033521E01F8B9
S31508000B50023DE7D1083E012E01F10807D9DBDDE9A0
S31508000B60020100F0B3FB00F0D1FB02460B46DDE9BB
S31508000B70020100F0D9FB00224B4600F095FCCDE9B6
S31508000B800201C8E789B5F814000024400000F03FC8
S31508000B9084D79741CDCCCCCC0DF11100381A0DF184
S31508000BA0110702E0401E6D1E7F1C39783029F9D0E6
S31508000BB0BBF1660F08BF691C04D0BBF1650F0CBFFB
S31508000BC001210021226B8E1836B2B042B8BF064604
S31508000BD036B231001AD4814204DA785C3528A8BFC7
S31508000BE0392000DA30207A18521E00E0761E12F8F4
S31508000BF00139491E8342F9D0392802D1785C401C54
S31508000C007854002902D57F1E761C6D1C2DB29DF8DE
S31508000C103810009533B23A46204600F003F80FB074
S31508000C20BDE8F08F2DE9F043054685B01F46D5F897
S31508000C303080012F8946164602DA01270FF29426DC
S31508000C4049F02000BDF93040662808BF641C17D05B
S31508000C50672840F0848014F1040FC0F2868044456A
S31508000C6080F2838095F83800641C000702D4474553
S31508000C70B8BFB84624B2B8EB040848BF4FF000081E
S31508000C8024B2E868A969012C27DA4A1C30234354A0
S31508000C90B8F1010F03DA95F83800000703D5E968BB
S31508000CA02E208854521C18EB040FB8BFC8F1000454
S31508000CB024B260426862A044B845AA61B8BF4746F4
S31508000CC0E868AB693FB2EF613A463146184400F02E
S31508000CD0D3F9A8EB0700A862C2E022469742084467
S31508000CE018DA3A46314600F0C7F9A9697918E01BBF
S31508000CF0B8F1010FA961686203DA95F838000007B0
S31508000D0005D5EA682E205054E869401CE861C5F804
S31508000D102880A5E0314600F0AFF9A86920183F1BE6
S31508000D20B8F1010F03DA95F83810090703D5EA6810
S31508000D302E211154401CA8613FB2B845B8BF47469A
S31508000D40E868AB693FB23A463119184400F094F99D
S31508000D50A8693818A861A8EB0700686280E0B9F1AD
S31508000D60610F16D14FF0700918E0474504DA95F877
S31508000D703810090758BFB846B8F1010848BF4FF000
S31508000D800008B9F1670F14BF4FF045094FF0650920
S31508000D9004E0B9F1410F08BF4FF05009A969EB68A3
S31508000DA0481CA861B8F1010F16F8012B5A5403DA4A
S31508000DB095F83810090719D5EA68431CAB612E2146
S31508000DC01154B8F1010F11DB7F1E3FB2B845B8BF09
S31508000DD04746E8683FB23A463146184400F04CF9AF
S31508000DE0A8693818A861A8EB07006862E868A969C5
S31508000DF00144200081F8009003D42B2048708E1CF3
S31508000E0003E02D224A708E1C644200270DF1080863
S31508000E1008E00A22684600F044FD019808F8010B2C
S31508000E207F1C009C21B20129F3DA022F06DA49F069
S31508000E302000652804BF302006F8010B4FB9302082
S31508000E4006F8010B07E07F1E02A8C05D303006F8E1
S31508000E50010B012FF7DAE868A9690844301AE86136
S31508000E6095F8380000F0140010280DD16869A969B2
S31508000E700818696A0818E9690818A96A0818696BD8
S31508000E808842BCBF081A286205B0BDE8F083F8B5E9
S31508000E9004460D4616461F46002077B116F8011B74
S31508000EA0A868A047A86030B1E86A401CE86200203C
S31508000EB07F1EF3D1F2BD4FF0FF30F2BD686A6C7445
S31508000EC07A4C00006E616E004E414E00696E6600F7
S31508000ED0494E460030000268531C03601170704783
S31508000EE00278C9B28A421AB11CBF10F8012FF9E775
S31508000EF018BF00207047000000F10103810704D0E5
S31508000F0010F8011B89B18107FAD10268B2F10131E3
S31508000F10914311F0803F04BF50F8042FF6E710F80C
S31508000F20011B11B110F8011BFBE7C01A704700003E
S31508000F30C9B2830706D0521E22D310F8013B994244
S31508000F40F7D11FE0083A13D302F1040241EA01215E
S31508000F5041EA014150F8043B121F21BF4B40A3F15F
S31508000F60013C2CEA030C1CF0803FF3D0C9B2001FE9
S31508000F70083210F8013B521E28BF91EA030FF8D831
S31508000F8018BF0120401E70471B4213D1094236D1B3
S31508000F902AB18446B0FBF2F002FB10C2704700F09B
S31508000FA087BCFCD30022002370470B0002000021F7
S31508000FB000207047904271EB030CF6D370B5B1FA76
S31508000FC081F4B3FA83F52C1BA340C4F1200532FA49
S31508000FD005F63343A2405FF00046E64002E05B08B0
S31508000FE05FEA3202841A71EB030524BF20462946BC
S31508000FF07641F4D302000B003000002170BD012AAF
S31508001000CFD970B5140C20D0B1FA81F4B2FA82F5B2
S31508001010C4F120046419B4F12006D6D3B2405FF0B7
S315080010200044F440002502E052085FEA3303C61A7A
S3150800103071EB020E24BF3046714664416D41F3D30D
S3150800104002000B002000290070BD0C46B1FBF2F12E
S3150800105002FB11452D0445EA1045B5FBF2F402FBE7
S31508001060145580B240EA0545B5FBF2F002FB105272
S3150800107040EA044070BD000062B38B0708D0521ED8
S3150800108011F8013B00F8013B00F024808B07F6D1EC
S31508001090830740F0208000BF103A07D330B4B1E888
S315080010A03810103AA0E83810F9D230BC530724BFDC
S315080010B0B1E80810A0E8081044BF51F8043B40F80E
S315080010C0043BD20724BF31F8022B20F8022B44BF79
S315080010D00B7803707047083A07D3B1E80810083A46
S315080010E040F8043B40F804CBF7D25307E4E730B4A2
S315080010F0436803F000420121C3F313034360002B46
S3150800110004BF0368002B08D10DE00368DD0F45EA2C
S31508001110440444605B000360491E4468E302F4D556
S31508001120C4F31303436043681A434260084630BC5D
S31508001130704700004FF4001C1CEB410F94BF1CEBDA
S31508001140430F09E041EA030C50EA4C0C52EA0C0C36
S3150800115003D2994208BF9042704714BF8B4282421D
S31508001160704700004FF4001C1CEB410F94BF1CEBAA
S31508001170430F09E041EA030C50EA4C0C52EA0C0C06
S3150800118003D28B4208BF8242704714BF99429042ED
S315080011907047000070B504460D466068C0F30A50F3
S315080011A040F2FF71884207D16068000304BF2068D7
S315080011B0002817D0022070BD20B92046FFF797FFF8
S315080011C0012866DA012D0FDB40F2FF71091A8D42FC
S315080011D00AD36068002847BF00202F4900202F49FE
S315080011E0C4E90001012070BD4142A942616806DADE
S315080011F06FF31E51401941EA0050606040E0401EFE
S3150800120063684519012205F1350062F31F53352835
S3150800121001F00041636003D361600020206070BD67
S31508001220002015F11F0F04DA2068236000222035FC
S3150800123062606A4212D0401E25688041C2F12003CE
S31508001240C0439D4045EAD07025686668D54006FAD1
S3150800125003F32B4323606368D340636062680A43E1
S31508001260B0F1004F626003D80DD12078C0070AD5C7
S315080012702068401C2060206828B96068401C6060AF
S315080012804FF0FF3070BD6068884204BF20680028B0
S31508001290F6D1002070BD00BF0000F0FF0000F07F0F
S315080012A0F446400D40EAC120490006D200F014F881
S315080012B0004248BF6FF00040604700F00DF84FF05D
S315080012C0004188428CBF084640426047400D40EACC
S315080012D0C120490080F00D8040F00040490DA1F57D
S315080012E08061491C05D4D1F11F0154BFC840C017FD
S315080012F070474FF000007047010040F10980F4463E
S31508001300404200F005F851F000416047010000BF77
S3150800131009D0B0FA80F18840C91CC1F58461090575
S3150800132001EBD02140057047F0B44FF0004591EA33
S31508001330030F44BF6B4000F0BDBA00BF841A71EBBF
S31508001340030604D26E40001BB141121973414FF4D3
S31508001350001C1CEB410F34BF7CEB430684E00C0DEC
S31508001360A4EB1356362E7DDC012E43DC45EAC32357
S3150800137043EA525312BFD20292025B08240545EA99
S31508001380C12141EA5051D2EBC020994125D407D159
S31508001390B0FA80F610FA06F164D00020203608E08C
S315080013A0B1FA81F6B140C6F1200220FA02F21143E1
S315080013B0B0404FEAF474B4EB465434F001064FEAF1
S315080013C074040AD8D6F50016760D04F00044F040E9
S315080013D061FA06F25040F1404840C00A40EA4150DE
S315080013E021F0004128BF5FEA500550F1000044EBA8
S315080013F0D12137E045EAC323DB0A45EAC121C90AF8
S31508001400B6F120050EDD42EA0242120CC5F12006AD
S3150800141003FA06F6EB4042EA06056D42984161F189
S3150800142000010DE062FA06F5F240554063FA06FC43
S3150800143082EA0C02F3405A406D42904161EB030187
S3150800144011F4801F05D1641E620502D06D0040416B
S31508001450494121F48011430875F1004350F1000019
S3150800146041EB0451F0BC70471CEB410F15D223F039
S31508001470004352EA43060BD04FEA4C0CBCEB410F33
S3150800148004D80C0D661E342EB7DDEBE7801A994199
S3150800149050EA410608BF0021E4E708BF1CEB430FEA
S315080014A028BF6FF00001DDE7B0B581EA030C0CF048
S315080014B0004C40F2FF7515EA11541DBF15EA135783
S315080014C0AC42AF4239E0E41923EA455343F48013AA
S315080014D0C90241F0004141EA505EC7021100A7FB6C
S315080014E0020200284FF00000EEFB01204FF0000139
S315080014F0E3FB072118BF42F00102401800214941C9
S31508001500E3FB0E01A4F580640F0302D252004041AA
S31508001510494154F101046CDD470872F1004250F16B
S31508001520000051EB0451A1F580115CBF41EA0C01A2
S31508001530B0BD4CEA05510020B0BD05EA1357AC42D0
S3150800154014BFAF4241E050EA410E1CBF52EA430EB7
S3150800155002E061460020B0BD24423C441BD15FEA4C
S31508001560070EF6D0090302BF01460020AEF1140E9D
S31508001570B1FA81F7AEEB070401FA07FE0C37C7F19B
S31508001580200100FA07F7C8404EEA000E23EA455341
S3150800159043F48013A2E733F00043B3FA83F704BF9A
S315080015A0B2FA82FE77440B3FE41BB7F1200E2FBF39
S315080015B002FA0EF3BB40C7F1200E22FA0EFE38BF20
S315080015C043EA0E03BA40641C82E750EA410E14BF90
S315080015D052EA430E6FF000014FF4001717EB430F62
S315080015E08ABF194617EB410FB5E74CEA05510020AB
S315080015F0B0BDD4F10104B4F120070FDAC4F1200715
S31508001600520828BF42F0010210FA07F501FA07F757
S31508001610E1BF2A43E0403843E1400FE0352C98DC2F
S31508001620C7F1200452EA400220FA07F218BF42F036
S31508001630010231FA07F0A1400A43002172F1004283
S3150800164050F1000051EB0C01B0BD00002DE9F0414E
S3150800165040F2FF7581EA030C0CF0004C15EA1154B0
S315080016601DBF15EA1357AC42AF42E9E0BC41C1F3CE
S315080016701301C3F31303801A994143F4801304D268
S31508001680641E4000494180185941C90241EA505137
S31508001690B1FBF3F603FB1611A2FB0675D7EBC020C8
S315080016A0A94102D2761E80185941C90241EA505111
S315080016B0B1FBF3FE03FB1E11A2FB0E75D7EBC02090
S315080016C0A94103D2AEF1010E80185941890241EAB7
S315080016D09051760546EA8E2EB1FBF3F603FB1611FA
S315080016E0A2FB0675D7EB8020A94102D2761E801888
S315080016F05941C90241EA50514EEA060EB1FBF3F6CA
S3150800170003FB1611A2FB0675D7EBC020A94102D22E
S31508001710761E80185941C90241EA5051B1FBF3F7C8
S3150800172003FB1711A2FB0735D3EBC020A94167F1CC
S3150800173000070CBF004247F0010766F3D5274FEABA
S315080017401E31B80814F5806414DDBD0775F1004232
S3150800175050EB0E5051EB045111F5801F5CBF41EA66
S315080017600C01BDE8F0814CF07F6141F0E0410020BA
S31508001770BDE8F081BD076D0840EA0E5041F48011BE
S31508001780D4F10104B4F120060ADAC4F120060200F5
S31508001790E04001FA06F3E1401843B24015430EE073
S315080017A0342C14DCC6F1200445EA40056D0820FAFD
S315080017B006F2154321FA06F0A1400D43002175F102
S315080017C0004250F1000051EB0C01BDE8F081002009
S315080017D05FEA0C01BDE8F081CFB992185B41B3FA14
S315080017E083F704BFB2FA82F6BF190B3FB7F120069A
S315080017F02FBF02FA06F3BB40C7F1200622FA06F607
S3150800180038BF3343BA401CB1E419641E2FE77F4240
S3150800181031F00041B1FA81F404BFB0FA80F6A41998
S315080018200B3CB4F120062FBF00FA06F1A140C4F123
S31508001830200620FA06F638BF3143A0403C1B16E7BF
S31508001840AC421ABF05EA1357AF4214E050EA410604
S315080018501CBF52EA4306BFE750EA410730466146D5
S315080018601CBF41EA0551BDE8F08152EA430C08BFA6
S31508001870C143BDE8F08100204FF4001616EB410F76
S3150800188098BF16EB430F08BF16EB410F24BFC143A1
S3150800189005E016EB430F0CBF61464CEA0551BDE85F
S315080018A0F08191FBF2F303FB1211C0E90031704796
S315080018B070470000841A71EB030603D2001BB1417E
S315080018C0121973414FF4001C1CEB410F34BF7CEB1B
S315080018D0430443E00C0DA4EB1356352E50DC45EAC1
S315080018E0C323DB0A45EAC121C912B6F120050DDD7D
S315080018F063FA05F6EB4086EA0305124218BF45F07F
S315080019000105C01851F100010CD213E062FA06F580
S31508001910F2405540F3415A40B340F3405A408018CC
S31508001920594107D349085FEA30005FEA350528BF01
S3150800193045F0010501F58011420875F1004250F1A4
S31508001940000041EB0451F0BC4FF4001C1CEB410FA6
S3150800195038BF70470020090D090570471CEB410F79
S3150800196010D252EA43060BD0BCEB410F05D80C0D3A
S31508001970AB43661E342EB5DD02E0AB4380185941F1
S31508001980F0BC7047F0BC7047BFF34F8FDFF8480CC8
S31508001990006810F4E060DFF8441C0843DFF8381CE0
S315080019A00860BFF34F8F00BFFDE700B587B0DFF8CB
S315080019B0300C04905FF08140059008208DF81800DF
S315080019C010208DF8190020208DF81A00DFF8100C69
S315080019D00190DFF8100C029008208DF80C001020FA
S315080019E08DF80D0020208DF80E0001A800F040FEAD
S315080019F0002801D0012013E010208DF800000020F7
S31508001A008DF8010000208DF8020060208DF8030093
S31508001A10684601F07FF9002801D0012000E0002087
S31508001A2007B000BDE0B500208DF8080002A800F058
S31508001A3057FE684600F0B4FE00281AD100200FE0D1
S31508001A40694631F910104FF47A62514348F212028E
S31508001A5091FBF2F1DFF8902B02EB40025180401C1B
S31508001A600328EDDB684600F0D6FE00281CD10020CE
S31508001A7011E001202FE0694631F9101041F2883251
S31508001A80514346F69B7291FBF2F1DFF85C2B02EBB1
S31508001A9040021181401C0328EDDB684601F0AEF9CF
S31508001AA0002817D1002011E0012014E0694631F919
S31508001AB010104FF47A62514346F6E82291FBF2F190
S31508001AC0DFF8242B02EB4002D181401C0328EDDB12
S31508001AD0002000E001200EBD00B587B020208DF85B
S31508001AE0000001208DF8010008208DF80200002072
S31508001AF08DF8030000208DF8040000208DF80500FD
S31508001B00684601F0B7F9002801D001201AE0002044
S31508001B108DF8080000208DF8090000208DF80A00CD
S31508001B2000208DF80B00002003900020049002206E
S31508001B308DF8140002A801F0ABFA002801D00120A4
S31508001B4000E0002007B000BD80B5684601F064FAE1
S31508001B5000280AD10099DFF8880A01F0F3FA01F0A3
S31508001B605DFBDFF8841A88820AE001F0DEFADFF806
S31508001B70701A01F0E7FA01F051FBDFF86C1A888257
S31508001B80684601F01BFA00280BD10099DFF8500AC5
S31508001B9001F0D8FA01F042FBDFF84C1AC88200209F
S31508001BA000E0012002BD00B585B00C208DF80000CC
S31508001BB00020ADF802004FF48060ADF80400002064
S31508001BC08DF8060000208DF8070000208DF8080023
S31508001BD0002003905FF0FF300490684601F053FB45
S31508001BE005B000BD00B585B00121102001F03FFC0D
S31508001BF04FF4FA40ADF8040001F0B3FC6421484301
S31508001C00029001A9DFF8E40901F0B2FC2B208DF857
S31508001C10000000208DF8010000208DF80200012048
S31508001C208DF80300684601F00FFE01220121DFF856
S31508001C30BC0901F083FD0121DFF8B00901F0CEFCF3
S31508001C4005B000BDE0B50021DFF8A00901F0C6FC2B
S31508001C504FF4FA40ADF8000001F083FC64214843D4
S31508001C6001906946DFF8840901F082FC0121DFF85A
S31508001C707C0901F0B3FC07BD80B502F0A9F8DFF8CE
S31508001C806819888302F0AEF8DFF85C19C88302F099
S31508001C90ADF8DFF85419088401BD0120DFF85019A2
S31508001CA04870DFF85009DFF848194880DFF844091A
S31508001CB0DFF83C190881DFF83C09DFF83419C881D8
S31508001CC0DFF83009DFF828198882DFF82809DFF8F5
S31508001CD02019C882DFF81C09DFF8141988614FF645
S31508001CE0FF70DFF80C1988834FF6FF70DFF80019CC
S31508001CF0C883704780B50120DFF8F4184870FFF7ED
S31508001D00CCFF0020DFF8F01808700020DFF8E8188C
S31508001D1048800020DFF8E01888805FF0FF30DFF8A1
S31508001D20D01848805FF0FF30DFF8C41808815FF0EC
S31508001D30FF30DFF8BC18C8815FF0FF30DFF8B01855
S31508001D4088825FF0FF30DFF8A818C8824FF6FF7068
S31508001D50DFF89C1888614FF6FF70DFF894188883BF
S31508001D604FF6FF70DFF88818C88302F0C3F9FFF74B
S31508001D701CFEC0B2002804D10121002000F0BFFBE0
S31508001D8007E005210A2002F044FA0021002000F0AD
S31508001D90B6FBFFF7A1FEC0B2002804D1012102203C
S31508001DA000F0ADFB07E00521032002F032FA00211E
S31508001DB0022000F0A4FBFFF7F6FEC0B2002804D10B
S31508001DC00121012000F09BFB07E005210B2002F012
S31508001DD020FA0021012000F092FB01F06DFDFFF7CB
S31508001DE001FF01BD80B50121DFF8000801F0B2FC52
S31508001DF00120DFF8FC17087001BD00B59FB0DFF8B9
S31508001E00F0070078002800F0D982DFF8F00702F022
S31508001E10F1FBDFF8E817052002F016FFDFF8E00708
S31508001E200068401CDFF8D8170860DFF8D807006894
S31508001E30401CDFF8D0170860DFF8C40700680328DD
S31508001E4031DB0020DFF8B8170860DFF8B80702684A
S31508001E50DFF8B4170CA803F0A9F80CA802F0CAFB1F
S31508001E600CA8FFF749F80CA902F0EEFE0CA800F042
S31508001E70F8FA002002F083FE02F08CFE012807D152
S31508001E80022002F08CFEDFF8840702F0B3FB0AE0BA
S31508001E9002F080FE022806D1042002F080FEDFF858
S31508001EA0700702F0A7FB00F0F6FA0020DFF84017EB
S31508001EB00870002000F042FB002811D0FFF7B2FDA1
S31508001EC0C0B2002804D10121002000F018FB07E069
S31508001ED005210C2002F09DF90021002000F00FFBDF
S31508001EE0022000F02BFB002811D0FFF72DFEC0B210
S31508001EF0002804D10121022000F001FB07E005219A
S31508001F000D2002F086F90021022000F0F8FA0120DF
S31508001F1000F014FB002804D001F00AFADFF8C8160E
S31508001F208861FFF7A9FEDFF8C006B0F91600002899
S31508001F301DD1DFF8E0060068401CDFF8D8160860F7
S31508001F40DFF8D0060268DFF8D01616A803F02EF8D8
S31508001F5016A802F04FFBDFF8BC060068052806DB6A
S31508001F600020DFF8B0160860072000F04BFADFF80B
S31508001F7088068088052808DADFF87C068088401CF1
S31508001F80DFF874168880FFF788FE012003F028F82A
S31508001F90DFF85406B0F90200DFF85416B1F902105A
S31508001FA0884213D1DFF84006B0F90400DFF840167E
S31508001FB0B1F90410884209D1DFF82C06B0F90600F9
S31508001FC0DFF82C16B1F9061088422CD0DFF818066F
S31508001FD04088DFF81C164880DFF80C068088DFF892
S31508001FE010168880DFF80006C088DFF80416888097
S31508001FF0DFF8FC05B0F906000090DFF8F405B0F943
S315080020000430DFF8EC05B0F90220DFF8101602A854
S3150800201002F0CCFF02A802F0EDFA02A8FEF76CFF68
S3150800202002A902F011FEDFF8C005B0F90800DFF8D2
S31508002030C015B1F90810884213D1DFF8AC05B0F91C
S315080020400A00DFF8AC15B1F90A10884209D1DFF8A1
S315080020509805B0F90C00DFF89815B1F90C1088420C
S315080020602CD0DFF884050089DFF884150881DFF8AD
S3150800207078054089DFF878154881DFF86C0580898E
S31508002080DFF86C158881DFF86805B0F90C00009058
S31508002090DFF85C05B0F90A30DFF85405B0F9082016
S315080020A0DFF87C1502A802F081FF02A802F0A2FA66
S315080020B002A8FEF721FF02A902F0C6FDDFF82805EF
S315080020C0B0F90E00DFF82815B1F90E10884213D1C1
S315080020D0DFF81405B0F91000DFF81415B1F910107F
S315080020E0884209D1DFF80005B0F91200DFF80015BB
S315080020F0B1F9121088422CD0DFF8EC04C089DFF859
S31508002100F014C881DFF8E004008ADFF8E4140882D6
S31508002110DFF8D404408ADFF8D8144882DFF8D00400
S31508002120B0F912000090DFF8C804B0F91030DFF8F3
S31508002130C004B0F90E20DFF8EC1402A802F036FF4E
S3150800214002A802F057FA02A8FEF7D6FE02A902F084
S315080021507BFDDFF89404B0F91400DFF89414B1F9A4
S315080021601410884228D0DFF88004808ADFF88014AB
S31508002170888201F0F3F900280CD0DFF87404B0F96E
S315080021801400009022232222DFF89C1402A802F0F1
S315080021900DFF08E0DFF85804B0F91420DFF88C14B6
S315080021A002A802F003FF02A802F024FA02A8FEF72A
S315080021B0A3FE02A902F048FDDFF82C04B0F91600C8
S315080021C0DFF82C14B1F91610884228D0DFF8180465
S315080021D0C08ADFF81C14C88201F0C0F900280CD0A8
S315080021E0DFF80C04B0F91600009022232222DFF84B
S315080021F0401402A802F0DAFE08E0DFF8F403B0F9AA
S315080022001620DFF8301402A802F0D0FE02A802F069
S31508002210F1F902A8FEF770FE02A902F015FDDFF833
S31508002220C8038069DFF8C8138969884226D0DFF8B1
S31508002230B8038069DFF8B813886101F08FF90028C0
S315080022400BD0DFF8AC038069009022232222DFF846
S31508002250E81302A802F0AAFE07E0DFF894038269F1
S31508002260DFF8D81302A802F0A1FE02A802F0C2F90C
S3150800227002A8FEF741FE02A902F0E6FCDFF86803B1
S31508002280808BDFF86C13898B884226D0DFF85803D9
S31508002290808BDFF85C13888301F060F900280BD087
S315080022A0DFF84C03808B009022232222DFF890135C
S315080022B002A802F07BFE07E0DFF83403828BDFF822
S315080022C0841302A802F072FE02A802F093F902A88B
S315080022D0FEF712FE02A902F0B7FCDFF80C03C08B6A
S315080022E0DFF80C13C98B884205D1BF48008CC0495A
S315080022F0098C88422AD0BC48C08BBD49C883BA48D5
S31508002300008CBB49088401F029F900280DD0B8488B
S31508002310008C0190B648C08B009022232222DFF859
S31508002320281302A802F042FE07E0B148038CB04821
S31508002330C28BC64902A802F039FE02A802F05AF971
S3150800234002A8FEF7D9FD02A902F07EFCAA48408839
S31508002350411CA94A518080B2122809DB0020A649EF
S3150800236048800020A4498880FFF797FC00F0B2F85F
S315080023709F484078002810D000209D494870B44AEC
S31508002380B44902A802F012FE02A802F033F902A824
S31508002390FEF7B2FD02A902F057FC012002F02CFE5E
S315080023A0AD4802F027F9AC49062002F04DFCAB49CE
S315080023B00CA802F0FBFD0CA802F01CF91FB000BD2A
S315080023C04AF6E03000E0401E0028FCD17047A448D9
S315080023D000E0401E0028FCD1704710B5040002E05A
S315080023E0FFF7F5FF641E012CFADA10BD80B501204F
S315080023F002F0F6FDFFF7E4FF012002F0FDFDFFF70E
S31508002400DFFF01BD38B50400200001F0E3FE04211A
S3150800241080B201F0FEFE00250CE0012002F0E0FD8E
S315080024200120FFF7DAFF012002F0E6FD0120FFF7A1
S31508002430D4FF6D1CA542F0DB012002F0D1FD0A2075
S31508002440FFF7CBFF012002F0D7FD0A20FFF7C5FFF3
S31508002450002002F0B8FE6420FFF7BFFFFFF794FAEA
S3150800246031BD10B588B0040002F063FB002810D017
S3150800247014222100684602F0DDFE2000FEF73CFD2E
S31508002480152801D31434FFE714222100684602F008
S31508002490D1FE08B010BD80B502F050FB002810D060
S315080024A000207049088000F012F8002805D06E4810
S315080024B00088401C6C49088008E000206A490880AA
S315080024C004E068480088401C6649088001BD4A48FF
S315080024D0007870470120484908707047002046492F
S315080024E00870704700206149887000205F4948706D
S315080024F000205E49087000205C49C8707047C0B269
S31508002500002808D002280CD008D304280FD00BD3F3
S3150800251005280FD011E0554881700EE05348017028
S315080025200BE05248417008E05048C17005E04F483A
S31508002530017102E04D484171FFE77047C0B20028BB
S3150800254008D002280CD008D304280FD00BD30528AE
S315080025500FD011E0454880780FE0444800780CE039
S315080025604248407809E04148C07806E03F4800798B
S3150800257003E03E48407900E00020704710B500248B
S315080025800020FFF7DBFF002800D0641C0120FFF7BE
S31508002590D5FF002800D0A41C0220FFF7CFFF002893
S315080025A000D0241D0320FFF7C9FF002800D00834F7
S315080025B00420FFF7C3FF002800D010340520FFF7DA
S315080025C0BDFF002800D02034200080B210BD0020B6
S315080025D009498880704700000CED00E00400FA0500
S315080025E0000020410000FA430024002000100040AB
S315080025F024240020C7CFFFFFA02400201C83000846
S31508002600B4240020B0240020E47F0008E47B0008FE
S31508002610047C0008B8240020247C0008A47E000856
S31508002620C07E0008DC7E0008707A00080481000875
S31508002630947A000818810008B87A00082C810008E6
S31508002640DC7A000840810008A0770008FC7F0008B3
S315080026505882000854810008248300082C83000847
S31508002660C0B60600E0240020E224002098240020BA
S3150800267010B5040000F046F8002801D001202EE02D
S31508002680206800F04FFA002801D0012027E0606892
S3150800269000F0A0FA002801D0012020E0A27A617A91
S315080026A0207A00F044F9002801D0012017E0E068FC
S315080026B000F08EF9002801D0012010E0206900F012
S315080026C0F4F9002801D0012009E0A27D617D207D72
S315080026D000F0DCF8002801D0012000E0002010BD41
S315080026E080B5002801D101200BE0012302000F214B
S315080026F0D42001F079FC002801D1002000E0012057
S31508002700C0B202BD80B500208DF8000001236A46DC
S315080027101221D42001F068FC002801D001203EE0F7
S315080027209DF8000010F0FB008DF800009DF80000F1
S3150800273050F004008DF8000001236A461221D420C7
S3150800274001F0F5FB002801D0012028E001236A46A4
S315080027500A21D42001F048FC002801D001201EE0FF
S315080027609DF8000010F087008DF800009DF8000025
S315080027708DF800009DF8000010F0F8008DF80000B4
S315080027809DF800008DF8000001236A460A21D4202E
S3150800279001F0CDFB002801D0012000E0002002BD99
S315080027A010B582B004000020ADF8000002236A4686
S315080027B02821D42001F018FC002801D0012029E0A6
S315080027C09DF801009DF8001011EB002020800223DF
S315080027D06A462A21D42001F007FC002801D00120EE
S315080027E018E09DF801009DF8001011EB00206080AC
S315080027F002236A462C21D42001F0F6FB002801D0DA
S31508002800012007E09DF801009DF8001011EB00205B
S31508002810A080002016BD10B582B004000020ADF8D7
S31508002820000002236A462221D42001F0DDFB00289D
S3150800283001D0012029E09DF801009DF8001011EB58
S315080028400020208002236A462421D42001F0CCFBF4
S31508002850002801D0012018E09DF801009DF800101D
S3150800286011EB0020608002236A462621D42001F05D
S31508002870BBFB002801D0012007E09DF801009DF868
S31508002880001011EB0020A080002016BD70B582B0A4
S3150800289000238DF80030002600250024C0B2002849
S315080028A001D1002600E00826C9B2002901D1002579
S315080028B000E01025D2B2002A01D1002400E020242D
S315080028C001236A461821D42001F08EFB002801D086
S315080028D001202BE09DF8000010F0F7008DF80000AD
S315080028E09DF8000030438DF800009DF8000010F0B8
S315080028F0EF008DF800009DF8000028438DF80000D1
S315080029009DF8000010F0DF008DF800009DF800002B
S3150800291020438DF8000001236A461821D42001F0CF
S3150800292006FB002801D0012000E0002076BD70B526
S3150800293082B000238DF80030002600250024C0B29E
S31508002940002801D1002600E00826C9B2002901D1D5
S31508002950002500E01025D2B2002A01D1002400E0AB
S31508002960202401236A461921D42001F03DFB0028C2
S3150800297001D001202BE09DF8000010F0F7008DF83B
S3150800298000009DF8000030438DF800009DF8000017
S3150800299010F0EF008DF800009DF8000028438DF830
S315080029A000009DF8000010F0DF008DF800009DF88B
S315080029B0000020438DF8000001236A461921D4201F
S315080029C001F0B5FA002801D0012000E0002076BD0C
S315080029D010B582B0002400218DF80010002102F005
S315080029E05FFC01D800243FE0DFF8E81202F058FC4B
S315080029F001D2102438E0DFF8E01202F051FC01D2CF
S31508002A00202431E0DFF8D41202F04AFC01D2302447
S31508002A102AE0DFF8CC1202F043FC01D2402423E07E
S31508002A20DFF8C01202F03CFC01D250241CE0DFF8AB
S31508002A30B81202F035FC01D2602415E0DFF8AC12BA
S31508002A4002F02EFC01D270240EE0DFF8A41202F088
S31508002A5027FC01D2802407E0DFF8981202F020FC58
S31508002A6001D2902400E0A02401236A461021D42034
S31508002A7001F0BAFA002801D0012015E09DF80000FF
S31508002A8010F00F008DF800009DF8000020438DF827
S31508002A90000001236A461021D42001F048FA0028D4
S31508002AA001D0012000E0002016BD10B582B0002438
S31508002AB000218DF80010DFF8401202F0F1FB01D278
S31508002AC000240EE0DFF8341202F0EAFB01D20824F3
S31508002AD007E0DFF82C1202F0E3FB01D20C2400E039
S31508002AE0042401236A461021D42001F07DFA002827
S31508002AF001D0012015E09DF8000010F0F3008DF8D4
S31508002B0000009DF8000020438DF8000001236A4666
S31508002B101021D42001F00BFA002801D0012000E092
S31508002B20002016BD10B582B0002400218DF80010D3
S31508002B30002102F0B5FB01D800242AE0654902F01D
S31508002B40AFFB01D2102424E0634902F0A9FB01D2AD
S31508002B5020241EE0614902F0A3FB01D2302418E0CC
S31508002B605F4902F09DFB01D2402412E05D4902F064
S31508002B7097FB01D250240CE05B4902F091FB01D28D
S31508002B80602406E0594902F08BFB01D2702400E06C
S31508002B90802401236A461121D42001F025FA002851
S31508002BA001D0012015E09DF8000010F00F008DF807
S31508002BB000009DF8000020438DF8000001236A46B6
S31508002BC01121D42001F0B3F9002801D0012000E03A
S31508002BD0002016BD38B50400002500208DF8000039
S31508002BE02000484902F05CFB1FD2022501236A46F1
S31508002BF01121D42001F0F8F9002801D0012068E05D
S31508002C009DF8000010F0FD008DF800009DF800000A
S31508002C1028438DF8000001236A461121D42001F0CB
S31508002C2086F9002854D0012053E001236A46112171
S31508002C30D42001F0D9F9002801D0012049E09DF8F7
S31508002C40000010F0FD008DF800009DF800008DF8DA
S31508002C50000001236A461121D42001F068F90028F2
S31508002C6001D0012035E02000274902F019FB01D2E6
S31508002C7000250EE02000254902F012FB01D20425AA
S31508002C8007E02000224902F00BFB01D2082500E0EC
S31508002C900C2501236A461121D42001F0A5F9002844
S31508002CA001D0012015E09DF8000010F0F3008DF822
S31508002CB000009DF8000028438DF8000001236A46AD
S31508002CC01121D42001F033F9002801D0012000E0B9
S31508002CD0002032BD010050410100D04101005042A0
S31508002CE00100D042010050430100D0430140504446
S31508002CF00180CF440120504501000040010080407A
S31508002D00010000410100FA42010075430100FA433F
S31508002D1001007A4410B582B0040000208DF8000046
S31508002D2001236A4622213C2001F05EF9002801D0E1
S31508002D30012062E09DF8000010F0FC008DF800000C
S31508002D409DF80000617808438DF8000001236A4663
S31508002D5022213C2001F0EBF8002801D001204CE0AC
S31508002D6001236A4620213C2001F03EF9002801D0C3
S31508002D70012042E09DF8000010F0E3008DF8000005
S31508002D809DF80000217808438DF800009DF80000A2
S31508002D9010F09F008DF800009DF80000E1780843C8
S31508002DA08DF8000001236A4620213C2001F0BFF877
S31508002DB0002801D0012020E001236A4621213C2079
S31508002DC001F012F9002801D0012016E09DF8000054
S31508002DD010F09F008DF800009DF80000A1780843C8
S31508002DE08DF8000001236A4621213C2001F09FF856
S31508002DF0002801D0012000E0002016BD10B582B0E1
S31508002E0004000020ADF8000002236A46A8213C20F1
S31508002E1001F0EAF8002801D0012029E09DF8010018
S31508002E209DF8001011EB0020208002236A46AA2193
S31508002E303C2001F0D9F8002801D0012018E09DF8BF
S31508002E4001009DF8001011EB0020608002236A46FD
S31508002E50AC213C2001F0C8F8002801D0012007E089
S31508002E609DF801009DF8001011EB0020A0800020BD
S31508002E7016BD000010B582B0040000208DF80000D1
S31508002E8000F0E1F8002801D0012074E001236A4629
S31508002E9020217C48007801F0A7F8002801D00120FD
S31508002EA069E09DF8000010F08F008DF800009DF88D
S31508002EB00000217808438DF800009DF8000010F006
S31508002EC0F7008DF800009DF80000E17808438DF8BA
S31508002ED000009DF8000010F0FB008DF800009DF83A
S31508002EE00000217908438DF800009DF8000010F0D5
S31508002EF0FE008DF800009DF80000617908438DF802
S31508002F00000001236A4620215E48007801F00FF888
S31508002F10002801D001202EE001236A4610215948D5
S31508002F20007801F061F8002801D0012023E09DF81F
S31508002F30000010F0FC008DF800009DF80000617894
S31508002F4008438DF800009DF8000010F0F3008DF896
S31508002F5000009DF80000A17808438DF800000123C1
S31508002F606A4610214748007800F0E1FF002801D0A2
S31508002F70012000E0002016BD38B504000025032313
S31508002F806A46A8213F48007801F02EF8002801D0AB
S31508002F90012012E0002007E06946C0B2095CC0B211
S31508002FA0C20091400D43401CC0B20328F4DB28023E
S31508002FB001D555F07F452560002032BD10B582B099
S31508002FC00400002000906846FFF7D6FF002801D0CD
S31508002FD0012008E0009802F075F95FF08B4102F0D5
S31508002FE08BF92060002016BD10B582B004000020C1
S31508002FF002236A46AB212348007800F0F5FF002833
S3150800300001D0012007E09DF801009DF8001011EBA2
S3150800301000202080002016BD10B582B00400684646
S31508003020FFF7E2FF002801D001200BE0BDF9000000
S3150800303002F048F9144902F05FF9144902F0DAF986
S315080030402060002016BD80B501236A4620210D4860
S31508003050007800F0C9FF002801D0012011E09DF892
S31508003060000050F080008DF8000001236A462021F8
S315080030700448007800F05BFF002801D0012000E03A
S31508003080002002BDAC0200200000F04300002A42E6
S3150800309010B5040000220020002C01D1012043E0D5
S315080030A0607810F018000243A07810F0040002437C
S315080030B0E07810F002000243207810F00100024385
S315080030C0D2B20121922000F0F0FEC0B2002801D051
S315080030D0C0B229E061685FF0874000F033F800F07D
S315080030E09DF8020092B20321922000F0E6FEC0B2DB
S315080030F0002801D0C0B217E0A1685FF0874000F051
S3150800310021F800F08BF8020092B20321922000F019
S31508003110D4FEC0B2002801D0C0B205E0227B04214B
S31508003120922000F0C2FEC0B210BD80B500219220E8
S3150800313000F0D5FE02F0D0F85FF0874102F0DCF827
S3150800314002BD0000FF2212EAD05C1DBF12EAD1536D
S31508003150944593422BE09C44D30780EA01021A4027
S3150800316043EA002043EA0121A1FB0030410038BFB1
S3150800317040007CF17F010BDBFE294ADA5B0842EA54
S31508003180C15153EA006373F1004C51EB10207047AC
S31508003190D1F1080CDCF120012FDB5B0810FA01F1F4
S315080031A00B4373F1004120FA0CF0504170479445E7
S315080031B01CBF02EAD153934280EA010202F00042A0
S315080031C01DD0400019D0490017D05BB9634514D00B
S315080031D00902B1FA81F39940BCEB030CC00140F037
S315080031E00040C1E70002B0FA80FC10FA0CF0B3EB1D
S315080031F00C0CC90141F00041B6E7100070474000C9
S315080032000AD0490008D010F1807F94BF11F1807F61
S3150800321002E042F0FF407047D04370474100090E74
S315080032207F3915D4D1F11F0114D4400007D2C0014B
S3150800323040F00040C84048BF6FF000407047C001EA
S3150800324040F00040C8404CBF4FF000404042704735
S315080032500020704700424FF0004058BFC0437047F7
S31508003260002101E04008491CB0F5805FFAD250EA17
S31508003270013080B2704780B20105090D80B2000B9B
S3150800328011FA00F0704738B5040000250020002C1C
S3150800329001D101204BE07E21882000F020FE45F276
S315080032A04941884207D17F21882000F018FE43F261
S315080032B00101884201D0012039E0207855EA00351D
S315080032C0608810F400600543A08810F4C0600543C8
S315080032D0A07910F010000543E07910F008000543C6
S315080032E0207A10F0030005432A0092B201218820B3
S315080032F000F0E3FDC0B2002801D0C0B217E0E068D4
S31508003300FFF7AEFF020092B20221882000F0D5FD39
S31508003310C0B2002801D0C0B209E02069FFF7A0FFBB
S31508003320020092B20321882000F0C7FDC0B232BD68
S3150800333080B50021882000F0D2FD80B2FFF79BFF00
S3150800334002BD0000C0B2DFF85011086070470021C6
S31508003350002100220023002100214D49096811F0AF
S315080033600C01002906D0042911D0082912D00C29ED
S3150800337013D031E047490968C1F342310122491C9B
S3150800338012FA01F14FF400425143016030E043491B
S3150800339001602DE0424901602AE03D49096811F4BF
S315080033A070113B4A126812F440023E4B890C595C74
S315080033B0920D521C364B1B6813F48033002B05D133
S315080033C0364B5943B1FBF2F1016004E0344B5943E3
S315080033D0B1FBF2F101600BE02E490968C1F34231F5
S315080033E00122491C12FA01F14FF4004251430160CF
S315080033F02749096811F0F00109092B4A515C02684E
S31508003400CA4042602249096811F4E061090A264A5D
S31508003410515C4268CA4082601D49096811F46051CE
S31508003420C90A214A515C4268CA40C2607047C9B29B
S31508003430002905D01D49096808431C49086005E0AC
S315080034401A49096831EA0000184908607047C9B284
S31508003450002905D01649096808431549086005E09A
S315080034601349096831EA0000114908607047C9B272
S31508003470002905D00F49096808430E49086005E088
S315080034800C49096831EA00000A49086070470000DB
S315080034900838024004380240000047420024F4007D
S315080034A000127A008C020020980200201C38024084
S315080034B02038024024380240704780B50020182280
S315080034C029492A4802F032F8C0B2002801D0002063
S315080034D007E025480068B0F15A3F01D1012000E015
S315080034E0002002BD80B500205FF05A301E490860F2
S315080034F064201D49486001201B49087200201A49AA
S31508003500887200201849487218200090164B174AEE
S315080035100021002001F0B0FFC0B202BD80B5010055
S31508003520002011484160FEF78DFB182000900E4BD5
S315080035300E4A0021002001F09FFFC0B202BD80B5EF
S31508003540010000200848017218200090064B074A1F
S315080035500021002001F090FFC0B202BD0248007AA7
S3150800356070470148406870476C24002000800108B5
S3150800357000220288B0F1804F08D0114B984205D03E
S31508003580104B984202D0104B984204D14FF68F73D5
S315080035901A404B881A430D4B984207D00C4B984259
S315080035A004D04FF6FF431A400B891A4302804A6833
S315080035B0C2620988018501218182704700000000E6
S315080035C00004004000080040000C004000100040C5
S315080035D00014004041627047C1627047C9B20029B1
S315080035E004D0018851F00101018004E001884FF6FA
S315080035F0FE7211400180704710B400220023028C2D
S315080036004FF6EF731A400284038C028B48F6FF7458
S3150800361022400C8852EA04224FF6DF7423400C89B4
S3150800362053EA04134C8853EA0413496881630283F6
S31508003630038410BC704710B400220023028C4EF697
S31508003640FF731A400284038C828B48F6FF7422406B
S315080036500C8852EA04224DF6FF7423400C8953EA7B
S3150800366004334C8853EA043349680164828303842B
S3150800367010BC7047816370470164704738B5040011
S315080036800D00288800280AD12B89AA886988200075
S3150800369000F06AF8E988200000F02AF825E0288872
S315080036A004280AD12B89AA886988200000F076F8B0
S315080036B0E988200000F025F817E0288808280AD1AC
S315080036C02B89AA886988200000F085F8E9882000F7
S315080036D000F021F809E02B89AA886988200000F003
S315080036E096F8E988200000F01FF831BDC06B7047D6
S315080036F0028B4FF6F3731A400283028B1143018340
S315080037007047028B4FF2FF331A400283028B52EA4C
S31508003710012101837047828B4FF6F3731A40828327
S31508003720828B114381837047828B4FF2FF331A4095
S315080037308283828B52EA012181837047D2B2002AA2
S3150800374003D082891143818103E0828932EA01012B
S315080037508181704789B2C9430182704701894FF652
S31508003760F87211400181704770B400240025048C5A
S315080037704FF6FE752C400484048B058C4FF60C76A8
S31508003780344052EA031214434FF6F572154051F0CD
S3150800379001010D430483058470BC704770B400248E
S315080037A000250026048C4FF6EF752C400484048B04
S315080037B0058C0E0140F6FF410C4054EA033454EAE6
S315080037C002244FF65F710D4056F010010D43048335
S315080037D0058470BC704770B4002400250026048C4C
S315080037E04FF6FF652C400484848B058C0E024FF639
S315080037F00C710C4052EA03110C434FF2FF510D4075
S3150800380056F480710D438483058470BC704770B488
S31508003810002400250026048C4EF6FF752C400484EF
S31508003820848B058C0E0340F6FF410C4054EA0224B3
S3150800383054EA033445F6FF710D4056F480510D43A2
S315080038408483058470BC7047002100220F23C17849
S3150800385000291ED01449096811F4E061D1F5E06128
S31508003860090AD1F10402DBB20B4141789140827812
S315080038701A40114309010D4A0378D15401210278EF
S3150800388012F01F0291400A4A0078401142F82010AF
S3150800389009E00121027812F01F029140054A0078DA
S315080038A0401142F8201070470CED00E000E400E0FB
S315080038B000E100E080E100E000B59BB00121DFF8FF
S315080038C03405FFF7D4FD01214FF40170FFF7BFFD62
S315080038D001210320FFF7ABFD0120FFF733FD0E2280
S315080038E00521DFF8140501F087FE01220321DFF820
S315080038F00C0501F081FE0E220421DFF8000501F017
S315080039007BFE02220121DFF8F00401F075FE0E228B
S315080039100021DFF8E40401F06FFE04200090012086
S315080039208DF8040000208DF8060000208DF80700A9
S3150800393001208DF805006946DFF8C00401F000FE95
S3150800394001220421DFF8B40401F04FFE082000909C
S3150800395002208DF8040001208DF8060000208DF85D
S31508003960070001208DF805006946DFF8900401F08C
S31508003970E7FD0220009002208DF8040000208DF853
S31508003980060000208DF8070003208DF8050069461B
S31508003990DFF8640401F0D4FD2020009003208DF8A0
S315080039A0040000208DF8070001208DF805006946FF
S315080039B0DFF8440401F0C4FD102000906946DFF8E2
S315080039C03C0401F0BDFD012000906946DFF828049B
S315080039D001F0B6FD5FF08040FFF7C0FE0020ADF8AD
S315080039E020000020ADF81A000020ADF818004FF4AA
S315080039F07A40079006A95FF08040FFF7B9FD0820D6
S31508003A00ADF85C000020ADF85E000220ADF860005D
S31508003A1017A95FF08040FFF731FE7020ADF80C0063
S31508003A200020ADF814000120ADF80E000020049027
S31508003A3003A95FF08040FFF7FEFD4FF4A0715FF029
S31508003A408040FFF719FE02201390002010900020F6
S31508003A5011900020129010A9002001F0F5FD012117
S31508003A60002001F008FE40F25C41002001F019FE3A
S31508003A70002014905FF4C01015900020169014A82A
S31508003A8001F020FE0121202001F02EFE0121DFF8A1
S31508003A90700301F029FE1C208DF8080000208DF81F
S31508003AA0090000208DF80A0001208DF80B0002A8F5
S31508003AB0FFF7CAFE012201215FF08040FFF73EFEB4
S31508003AC001215FF08040FFF789FDDFF83803FFF733
S31508003AD045FE0020ADF820000020ADF81A000020B1
S31508003AE0ADF818000020079006A9DFF81803FFF7BD
S31508003AF03FFD6020ADF80C000020ADF81400012051
S31508003B00ADF80E000020049003A9BE48FFF793FD08
S31508003B100121BC48FFF762FD5FF48030099009A8CF
S31508003B2001F031FE00208DF82D0000200E900020B7
S31508003B300D905FF080500C9001208DF83C0000201D
S31508003B400A9000208DF82C000AA9AF4801F0F6FD6E
S31508003B50052301220821AC4801F032FE0121AA48BA
S31508003B6001F01BFE4021A84801F0E3FE0028F9D029
S31508003B704FF48071A44801F0DCFE0128F8D0A34870
S31508003B80FFF7ECFD0020ADF820000020ADF81A0084
S31508003B900120ADF8180041F63F70079006A99B482A
S31508003BA0FFF7E6FC6020ADF80C000020ADF8140025
S31508003BB00120ADF80E000020049003A99348FFF7F2
S31508003BC01BFD4FF4F0519148FFF754FD19208DF86D
S31508003BD0080000208DF8090000208DF80A00012051
S31508003BE08DF80B0002A8FFF72FFE01220121874856
S31508003BF0FFF7A4FD01218548FFF7F0FC1BB000BDC7
S31508003C0080B501215FF08040FFF7A4FD5FF080409A
S31508003C10FFF76CFD7E4909687D4A126880B28018F4
S31508003C20B0EBD1107A490860794800687849496844
S31508003C30774A526812EBD010B0EB112074494860ED
S31508003C4073480068C00972494968B0EB1120704989
S31508003C50097A002910D111281FDB01206C49087246
S31508003C6000206B4948816A48007B401C68490873F4
S31508003C70022001F0B5F910E065494989491C644AF2
S31508003C80518163494989FA2907D3042805DA0020AE
S31508003C905F490872022001F0AFF95D48008C401CAC
S31508003CA05B4908845A48008CB0F5FA7F36D3002061
S31508003CB0574908845648007B5549554A527E11444F
S31508003CC048730020524908735148407E401C5049A9
S31508003CD048764F48407E0C2802DB00204C4948763F
S31508003CE00020002104E04A4A0A44527B1018491C65
S31508003CF00C29F8DB002807D14548C069002802D0FE
S31508003D005FF0FF3000E000204149C969404AD269A6
S31508003D108018891CB0EB91003D49C86101BD10B5FA
S31508003D2001213A48FFF716FD3A480088962818DA1E
S31508003D30354801F0FBFD3749364A128801EB820106
S31508003D404968344A334B1B8802EB8302526880B2B7
S31508003D508018B0EB11102F492E4A128801EB820108
S31508003D6048602C480088401C2A4908802948008851
S31508003D70962818DB002027490880002000210DE03E
S31508003D80244A02EB81025268904206D2214800EB8F
S31508003D90810040681F4AA2F85C12491C9629EFDB8D
S31508003DA01C49A1F85E021C481A49098830F81140D6
S31508003DB0A4B2611E1348FFF70FFCA4B2610889B2CA
S31508003DC01048FFF759FC00210E48FFF703FC10BD09
S31508003DD00F48C069642148430C21B0FBF1F0800804
S31508003DE080B270470B48B0F85C0270470948B0F8D3
S31508003DF05E027047030000A0000402400000024073
S31508003E000001008000040040002401400008014031
S31508003E104824002008000020B87200081CB50024B9
S31508003E20C020009000208DF8040000208DF80700BF
S31508003E3001208DF805006946DFF8480301F080FB8C
S31508003E40FEF7BEFA4021DFF83C0301F00BF9002823
S31508003E5013D10321052000F0DCF900210320FEF729
S31508003E604EFB01248021C74801F0FCF8002819D12F
S31508003E700321062000F0CDF914E08021C14801F0A5
S31508003E80F1F8002809D10321062000F0C2F9002123
S31508003E900320FEF734FB012404E001210320FEF78A
S31508003EA02EFB00242000C0B216BD04B501236A46C5
S31508003EB0C9B2C0B200F03BF802BD80B5ADF800202B
S31508003EC09DF800209DF801308DF800308DF801200E
S31508003ED002236A46C9B2C0B200F029F802BD80B50D
S31508003EE002236A46C9B2C0B200F07EF800280AD199
S31508003EF09DF800009DF801108DF800108DF801005E
S31508003F00BDF8000001E04FF6FF7002BD38B50400A9
S31508003F104FF4204521009C4801F0C5FD012804D036
S31508003F206D1E002DF6D1032000E0002032BDF8B545
S31508003F3004000D0016001F0094480078002851D18F
S31508003F40012092490870032001F04AF801218E48A1
S31508003F5001F06EFD8E48FFF7D9FF032804D1002033
S31508003F608A49087003203EE000222100C9B286482B
S31508003F7001F088FD8748FFF7C9FF032804D1002010
S31508003F808249087003202EE02900C9B27E4801F054
S31508003F9084FD8148FFF7BAFF032804D100207B4936
S31508003FA0087003201FE0BFB2002F0FD03178764883
S31508003FB001F073FD761C7F1E7848FFF7A7FF0328DC
S31508003FC0F1D100207149087003200CE001216E48E8
S31508003FD001F03CFD032001F00FF800206B49087042
S31508003FE0002000E00220F2BDF8B504000D0016001E
S31508003FF01F006B48007800287AD1012068490870AC
S31508004000032000F0EDFF01215F4801F011FD604833
S31508004010FFF77CFF032804D10020614908700320BC
S3150800402067E000222100C9B2574801F02BFD594824
S31508004030FFF76CFF032804D10020594908700320B4
S3150800404057E02900C9B2504801F027FD5348FFF749
S315080040505DFF032804D1002051490870032048E079
S315080040600121494801F0E4FC4948FFF74FFF0328BE
S3150800407004D100204A49087003203AE001222100B1
S31508004080C9B2414801F0FEFC4648FFF73FFF032846
S315080040900AD100204249087003202AE03A4801F074
S315080040A0FFFC3070761C7F1EBFB2002F10D0BFB247
S315080040B0012F03D10021344801F0D6FC3A48FFF716
S315080040C025FF0328EAD1002035490870032010E0AF
S315080040D001212D4801F0BAFC01212B4801F0C4FC4E
S315080040E0032000F089FF00202D490870002000E019
S315080040F00220F2BD00B587B001215FF40010FFF77A
S31508004100B6F901210220FFF792F9042206211D487B
S3150800411001F072FA042207211A4801F06DFAC0204C
S31508004120009002208DF8040001208DF80600012079
S315080041308DF8070001208DF805006946114801F041
S31508004140FFF944F6206002900020ADF80C004BF60B
S31508004150FF70ADF80E000020ADF810004FF4806037
S31508004160ADF812004FF48040ADF8140002A90648D5
S3150800417001F0EAFB0121044801F04CFC002007B0DD
S3150800418000BD00000004024000540040E72400205F
S315080041900100030082000700800007008400070072
S315080041A0E82400200200030040000300401C80B2FF
S315080041B0642800DB002080B2704710B50C0080B27E
S315080041C0FFF7F4FFA4B2A04201D1012000E00020CD
S315080041D0C0B210BD02280CD003280CD004280CD07D
S315080041E005280CD006280CD007280CD020280CD07F
S315080041F00DE002200CE002200AE0042008E0082076
S3150800420006E0072004E0012002E0092000E009207A
S31508004210704730B595B004000D001E48B0F822135B
S315080042201C48B0F82003FFF7C8FF002801D001207A
S315080042302CE018481749B1F8201300EBC100458057
S3150800424014481449B1F8201320F8314000201149C8
S31508004250104AB2F8202301EBC20148600D48B0F8B5
S315080042602003FFF7A3FF0B49A1F820030A48A4B2CD
S3150800427050F824300948ADB250F825200849684658
S3150800428000F094FE684600F0B5F9C0B215B030BD2E
S31508004290000000004C1D0020E4730008007B0008A5
S315080042A0F4810008012110F01F029140DFF88023F5
S315080042B040B2400942F820107047012110F01F0251
S315080042C09140DFF8702340B2400942F82010704749
S315080042D0401CC0B2322800DB0020C0B2704710B5BF
S315080042E00C00C0B2FFF7F4FFE4B2A04201D10120EE
S315080042F000E00020C0B210BDC0B2C9B2401A002802
S3150800430000D53230C0B2704710B540F22771DFF8D9
S31508004310280301F087FC012805D1002240F2277105
S31508004320C54801F049FC40F26531C34801F07AFC02
S31508004330012803D1C04801F03BFC28E040F2255192
S31508004340BD4801F06FFC012821D1BB4801F030FCC3
S315080043500400BA4890F83310B84890F83200FFF7CE
S31508004360BEFF002813D1B548B44991F83210445419
S31508004370B24890F83200FFF7ABFFB04981F8320037
S31508004380E4B20D2C03D10120AC4981F8340010BDEC
S31508004390AA4890F8340070470020A84981F83400EC
S315080043A0704710B504001CE0A44890F83300A349F0
S315080043B091F83210884214D02520FFF77EFF9F48D7
S315080043C09E4991F83310405C2070641C9B4890F815
S315080043D03300FFF77DFF994981F833002520FFF761
S315080043E061FF9648954991F83310405C0D2809D02D
S315080043F0924890F83210914890F83300FFF77CFF06
S315080044000028D1D18D488D4991F83310405C0D288C
S315080044100DD12520FFF751FF884890F83300FFF7A4
S3150800442057FF864981F833002520FFF73BFF002018
S315080044302070641CFFF7B0FF10BD00B587B00020E0
S315080044407E4981F8340000207C4981F83300002039
S315080044507A4981F8320001214FF48040FEF7F7FFD0
S3150800446001210120FEF7F3FF07220921744801F014
S31508004470C3F807220A21724801F0BEF84FF4C0605B
S31508004480019002208DF8080000208DF80A0000200F
S315080044908DF80B0001208DF8090001A9684801F084
S315080044A04FF84FF4964003900020ADF818000C2002
S315080044B0ADF816000020ADF814000020ADF8120083
S315080044C00020ADF8100003A95B4801F001FB0122AA
S315080044D040F22551584801F06FFB012260215648E9
S315080044E001F06AFB25208DF8000000208DF80100F8
S315080044F000208DF8020001208DF803006846FFF7BA
S31508004500A3F901214C4801F041FB01204D490860FF
S3150800451000204D49088007B000BD4FF4DC7000E06C
S31508004520401E0028FCD1704738B50400012502E07A
S31508004530FFF7F3FF641EEDB2002D0AD080213E4836
S3150800454001F063FB012801D1002502E0002CEFD120
S315080045500025002C01D0002000E0032032BD38B52C
S3150800456004001500002037480068012801D02228D9
S315080045703ED1002C02D089B2002901D1012038E0B1
S3150800458030480068222803D132202E4A106002E003
S3150800459012202C4A10602C48018005E02178641C02
S315080045A089B2254801F000FB2748008800280BD06F
S315080045B025480088401E244908802800FFF7B4FFD4
S315080045C00028EBD0032014E02800FFF7ADFF0028F1
S315080045D001D003200DE01B480068322803D12220B1
S315080045E01849086002E0012016490860002000E02A
S315080045F0022032BD10B504002000FCF77DFC80B215
S31508004600512801DB012011E00E490968012901D072
S3150800461002200BE00D4A010089B22000FFF79FFF38
S31508004620C0B2002801D0C0B200E0C0B210BD000080
S3150800463000E100E080E100E000380140A02300200E
S3150800464000000240DC240020E4240020E09304005B
S31508004650012110F01F029140DFF8782840B2400986
S3150800466042F820107047012110F01F029140DFF830
S31508004670682840B2400942F82010704780B5DFF834
S315080046805C2812681071DFF8540800684171DFF879
S315080046905008DFF8481809680860DFF8400800681D
S315080046A0011DDFF838080068006801F084FBDFF8B0
S315080046B034080068001D02BD00B587B001215FF40B
S315080046C08020FEF7D4FE01210220FEF7B0FE072265
S315080046D00A21DFF8140800F08FFF07220B21DFF804
S315080046E0080800F089FF07220D21DFF8FC0700F013
S315080046F083FF07220E21DFF8F00700F07DFF4FF455
S31508004700D840009002208DF8040000208DF806009D
S3150800471000208DF8070001208DF805006946DFF8AE
S31508004720C80700F00DFF4FF40040009001208DF8F7
S31508004730040001208DF8060001208DF807000120ED
S315080047408DF805006946DFF8A00700F0F9FE5FF46A
S31508004750E13003904FF44070ADF818000C20ADF826
S3150800476016000020ADF814000020ADF81200002055
S31508004770ADF8100003A9DFF8740701F0A9F90122C2
S3150800478040F22551DFF8640701F016FA012260218C
S31508004790DFF8580701F010FA27208DF808000020E6
S315080047A08DF8090000208DF80A0001208DF80B000D
S315080047B002A8FFF749F80121DFF8300701F0E6F90A
S315080047C00020DFF82C17A1F820030020DFF82417B3
S315080047D081F896010020DFF81C1781F89701002060
S315080047E0DFF8101781F898010020DFF8081781F81C
S315080047F099010020DFF8FC1681F89A010120DFF8FC
S31508004800F41681F89B0107B000BD401CC0B2C82849
S3150800481000DB0020C0B27047C0B2C9B2401A0028F7
S3150800482000D5C830C0B2704738B504000D0020E086
S315080048302720FFF718FF0020DFF8B81681F8950142
S31508004840DFF8B006DFF8AC1691F89311084490F833
S31508004850CA0028706D1CDFF89C0690F89301FFF7D4
S31508004860D4FFDFF8901681F893012720FFF7F0FEB2
S31508004870641E002C16D0DFF87C0690F89301DFF84A
S31508004880741691F892118842D2D1012240F225512C
S31508004890DFF8580601F090F901226021DFF84C068E
S315080048A001F08AF9002032BDDFF8480690F8950134
S315080048B0704780B5FFF700FF4FF40041DFF8280680
S315080048C000F091FE0FF28130DFF82C160860DFF851
S315080048D02C06DFF82C160860DFF82806DFF82816FD
S315080048E00860FDF76DFD4FF40041DFF8FC0500F0A8
S315080048F078FE01BD10B586B00024DFF8F805D0F8BB
S315080049009C01002805D101F048FADFF8E815C1F83E
S315080049109C01DFF8E005D0F89C01002800F007812B
S31508004920DFF8D005D0F89C010068DFF8E0150840EC
S31508004930DFF8BC15DFF8B825B2F8202341F82200C5
S31508004940DFF8AC05B0F82003C0B2FFF75EFFDFF86A
S31508004950A015A1F82003DFF89C05D0F89C01006893
S31508004960DFF8A8150840DFF8A8150860DFF8A005E5
S315080049700068A02800F08B80DFF8981588422ED0B2
S31508004980DFF89415884257D0DFF89015884200F072
S315080049908480DFF88C1588422ED0DFF88815884287
S315080049A07BD0DFF88415884259D0DFF88015884215
S315080049B000F09280DFF8781588425BD0DFF874152E
S315080049C0884264D0DFF87015884260D0DFF86C152D
S315080049D0884262D0DFF86815884258D086E0DFF84A
S315080049E06405FFF707FEDFF86005FDF73AFD0120CD
S315080049F0DFF8001581F896010020DFF8F81481F831
S31508004A00970102210220FFF739FE0088FF2812DCF1
S31508004A10E4B2002C0AD1DFF83405FFF7EBFDDFF826
S31508004A203005FDF71EFD0620FDF7ECFC0020DFF83B
S31508004A30C414C1F89C0169E0DFF81805FFF7DAFD30
S31508004A40DFF81405FDF70DFD0120DFF8A81481F83D
S31508004A5097010020DFF89C14C1F89C0156E078A065
S31508004A60FFF7C8FDFDF73AFD0020DFF88814C1F806
S31508004A709C014BE0FDF7BAFC72A0FFF7BBFDFDF702
S31508004A802DFD0020DFF86C14C1F89C013EE00020E3
S31508004A90DFF86014C1F89C0138E0DFF8C004FFF7BE
S31508004AA0A9FDDFF85004D0F89C01807A00280DD0C3
S31508004AB0DFF84004D0F89C0110F10B02DFF8A014CF
S31508004AC0684600F073FA6846FFF794FD0020DFF8A1
S31508004AD02414C1F89C0119E0DFF88804FFF78AFD61
S31508004AE00020DFF81014C1F89C010FE0DFF820045D
S31508004AF00268DFF87414684600F058FA6846FFF74B
S31508004B0079FD0020DFF8EC13C1F89C01DFF8E40317
S31508004B1090F89311DFF8DC0390F89201FFF77CFE1A
S31508004B20002804D00120DFF8CC1381F8950106B0DF
S31508004B3010BDDFF8C00390F896017047DFF8B4039C
S31508004B4090F897017047DFF8AC0390F89801704722
S31508004B50DFF8A00390F89901032809D1DFF8940338
S31508004B6090F89B01012801D1012002E0002000E015
S31508004B7001207047DFF87C1381F89B017047DFF846
S31508004B80741391F89911032903D1DFF8681381F892
S31508004B909B017047DFF85C0390F899017047DFF8CE
S31508004BA0541381F89901704780B540F22771DFF8F0
S31508004BB03C0301F037F8012823D1DFF8380390F8D1
S31508004BC0C900DFF8301391F8C810884213D0DFF80F
S31508004BD02403DFF8201391F8C910415C89B2C34851
S31508004BE000F0E2FFC34890F8C900FFF70EFEC1497E
S31508004BF081F8C90005E0002240F22771BB4800F0A1
S31508004C00DBFF40F26531B94801F00CF8012807D1FD
S31508004C100020B84981F89401B44800F0C9FF0CE0B7
S31508004C2040F22551B14800F0FDFF012805D1AF48F3
S31508004C3000F0BEFFC0B200F091F801BD0000000010
S31508004C402D2A2D002D4F2D00F8B504000D0054F027
S31508004C507F40A749A64AB2F8202341F82200A44873
S31508004C60B0F82003C0B2FFF7D0FDA149A1F8200390
S31508004C7028786978090411EB0060A97810EB0120FF
S31508004C80E97808189A499A4AB2F8202341F8220086
S31508004C909748B0F82003C0B2FFF7B7FD9449A1F8CA
S31508004CA0200328796979090411EB0060A97910EBCA
S31508004CB00120E97908188E498D4AB2F8202341F86F
S31508004CC022008B48B0F82003C0B2FFF79EFD884942
S31508004CD0A1F820034FF4FA6720E028788549854A29
S31508004CE092F8C82088542720FFF7BDFC814890F821
S31508004CF0C800804991F8C910884205D1012240F2BE
S31508004D0027717A4800F058FF7A4880F8C86027204B
S31508004D10FFF79EFC641E6D1C4FF4FA67002C1CD02E
S31508004D20744890F8C800FFF770FD06003000714916
S31508004D3091F8C910C0B28842CFD13800471E002862
S31508004D40ECD100206B4981F8960102210F20FFF76C
S31508004D5060FA0820FDF756FBE0E7F1BD10B590B004
S31508004D6000248249824A1278885481490978491C64
S31508004D707F4A1170C0B20A2840F0A78000207C49FB
S31508004D8008707A4A7B49684600F010F96846FFF7CA
S31508004D9031FC0400E4B2002C02D02000C0B296E038
S31508004DA004227549714801F02DF8002808D1012020
S31508004DB0504981F896017148FFF71CFC040084E00D
S31508004DC009226F49694801F01DF8002810D1012011
S31508004DD0484981F897010120464981F89901002040
S31508004DE0444981F89A016748FFF704FC04006CE01F
S31508004DF00C2265495D4801F005F8002818D1002005
S31508004E003C4981F8970100203A4981F89801012028
S31508004E10384981F899010020364981F89A01FCF74A
S31508004E203CFFFDF7D4FB5948FFF7E4FB04004CE0D0
S31508004E30042257494D4800F0E5FF002808D1012013
S31508004E402C4981F898015348FFF7D4FB04003CE04D
S31508004E5005225149454800F0D5FF002822D12548AA
S31508004E6090F8990102280CD10320224981F899016A
S31508004E700020204981F89A014848FFF7BBFB040047
S31508004E8023E01C4890F8990103281ED100201949EF
S31508004E9081F89A014248FFF7ADFB04000120FFF7AD
S31508004EA069FE12E008223F49304800F0ABFF0028AF
S31508004EB007D102210E20FFF7ACF90E20FDF7A2FA62
S31508004EC003E03948FFF796FB04002000C0B210B093
S31508004ED010BD000000E100E080E100E000000020D5
S31508004EE0200203010400002000040240004800409C
S31508004EF0281A002070200020BC2400202948000819
S31508004F00C0240020A9480008C4240020F800FFFF98
S31508004F10D0240020A0000100A0000800A00009007D
S31508004F20A0000801A000080220000A02A0000B0247
S31508004F30A0000A0320000A05A000000820000908AE
S31508004F40A000002068810008688200081480000814
S31508004F507C8100082C80000890810008447C0008A9
S31508004F60C8820008F87E0008D4820008D8230020EA
S31508004F70E6240020147F000834830008788200089D
S31508004F80E0820008A4810008888200089882000848
S31508004F903C8300084480000844830008307F0008EA
S31508004FA0B8810008EC820008CC8100080CB41CB556
S31508004FB0044604A801900A46009401AB69460748CE
S31508004FC078441830FBF796F8009A002111700028EB
S31508004FD05CBF0098001B16BC5DF80CFBFBBEFFFF10
S31508004FE080B50B49C0B231F810100A4AC0B252F85F
S31508004FF0200000F0F6FA01BD80B50549C0B231F8C7
S315080050001010044AC0B252F8200000F0ECFA01BDB4
S31508005010088200086802002080B50120FFF7E0FF3B
S315080050200120FDF7DAF90120FFF7E6FF0120FDF779
S31508005030D4F90220FFF7D4FF0120FDF7CEF90220AC
S31508005040FFF7DAFF0120FDF7C8F90320FFF7C8FFCD
S315080050500120FDF7C2F90320FFF7CEFF0120FDF777
S31508005060BCF901BD008A89B2084201D0012000E0DE
S315080050700020C0B27047000000B583B0012110209F
S31508005080FEF7E5F901210320FEF7D1F903220921EC
S31508005090664800F0B1FA4FF49070009001208DF840
S315080050A0040000208DF8060000208DF80700012076
S315080050B08DF8050069465E4800F042FA4FF4907193
S315080050C05B4800F090FA8020009001208DF80400DB
S315080050D001208DF8060000208DF8070001208DF8C4
S315080050E005006946524800F02BFA8021504800F026
S315080050F078FA0120009001208DF8040000208DF830
S31508005100060000208DF8070001208DF80500694685
S31508005110474800F015FA0420FFF762FF02200090C6
S3150800512001208DF8040000208DF8060000208DF877
S31508005130070001208DF8050069463D4800F000FA91
S315080051400520FFF74DFF4FF40070009001208DF801
S31508005150040000208DF8060000208DF807000120C5
S315080051608DF805006946314800F0EAF94FF4807079
S31508005170009001208DF8040000208DF8060000201C
S315080051808DF8070001208DF805006946274800F0CC
S31508005190D7F90320FFF730FF4FF480500090012025
S315080051A08DF8040000208DF8060000208DF8070011
S315080051B001208DF8050069461C4800F0C1F9022057
S315080051C0FFF71AFF07BD80B5C0B201280BD0022829
S315080051D013D08021164800F006FA4FF4807114485F
S315080051E000F001FA12E08021114800F0FAF94FF4B4
S315080051F080710F4800F0F7F908E080210C4800F0AC
S31508005200F2F94FF480710A4800F0EBF901BD80B558
S31508005210C0B2002804D02021054800F0E2F903E0D6
S315080052202021034800F0DFF901BD00000004024018
S315080052300000024001B58B0718D1121F21D351F87F
S31508005240043BA3F1013C2CEA030C1CF0803C04BF90
S3150800525040F8043BF1E79CFA8CFCBCFA8CF1C1F1EE
S3150800526018018B40CB4040F8043B13E0042A09D3CD
S3150800527011F8013B521E00F8013B5BB18B07F7D1D1
S31508005280DBE7121D5AB111F8013B521E00F8013B2B
S3150800529003B1F8D111001CBF002200F0C9FD01BD01
S315080052A04FF0807C1CEB400F94BF1CEB410F05E0D0
S315080052B040EA010C5FEA4C0C01D28842704718BFDD
S315080052C081427047002840F10980F446404200F0C8
S315080052D005F850F000406047002800BF0AD0B0FA31
S315080052E080F18840D1F19D01C905020672F100429C
S315080052F041EB10207047000010B5FF2313EAD05485
S315080053001DBF13EAD1529C429A4239E0A41ADA0721
S3150800531080EA0103134042EA012142EA0020421AC8
S315080053203CBF641E01EB4202090AB2FBF1FE01FB17
S315080053301E221202B2FBF1F001FB10226EF30F20BF
S315080053401202B2FBF1FE4EEA00207F3406DDFE2C87
S3150800535024DA53EA500050EBC45010BDD4F10204CD
S3150800536001FB1E2240F08071192C1DDC21FA04F085
S31508005370C4F12004A140114371F10042584110BD07
S315080053809C421ABF03EAD1529A420FE080EA010E04
S315080053900EF00043400004D0490016D143F0FF4008
S315080053A010BD490008BFD343180010BD9C4205D163
S315080053B0D21AF7D001F00041484010BD4A0212BF88
S315080053C00846484000F0004010BD4AB90902B1FA43
S315080053D081F2914044B1A418C00140F000409EE714
S315080053E0C90141F0004152420002B0FA80F4A040DF
S315080053F0141B94E790EA010F44BF81F0004100F0C6
S3150800540047BD00BF421A3CBF801A89184FF0004CAE
S31508005410C0F3C752FF2A24D0C1F3C75313B3D21A15
S31508005420D2F1190327DD4CEA01214CFA03F321EAEC
S315080054300303D140C20D4CEA0020401834BF20EACD
S315080054400C004CEA5000D20553EA006373EB0C0CCF
S3150800545052EB1020420012F1807F38BF7047C00D12
S31508005460C0057047490212BF9A4200EB5120F8E77F
S31508005470D2F11703D9D570472DE9F04705009046B4
S315080054809946002400F070FD2748006850F48070A3
S315080054902549086000F0D9FD28423DD14646DDF889
S315080054A020A002E0002416F5807618EB0A00864252
S315080054B009D2300000F074FDC0B20428F2D000F022
S315080054C066FD01202DE046461AEB08054F4601E029
S315080054D00024361DAE420BD23968300000F093FD29
S315080054E03F1DC0B20428F3D000F051FD012018E09A
S315080054F046461AEB08054F4600E0361DAE420CD26A
